{
	"data": {
		"bytecode": {
			"linkReferences": {},
			"object": "60806040526000600660146101000a81548160ff021916908360028111156200002d576200002c62000069565b5b02179055503480156200003f57600080fd5b5060016003819055506000600460006101000a81548160ff02191690831515021790555062000098565b7f4e487b7100000000000000000000000000000000000000000000000000000000600052602160045260246000fd5b61885780620000a86000396000f3fe608060405234801561001057600080fd5b50600436106103db5760003560e01c806365dbc1f61161020a578063ab5d258f11610125578063db8c3f09116100b8578063ea9fd87211610087578063ea9fd87214610b4e578063ed12e8ef14610b6a578063f4390f0214610b88578063f4ac545814610ba6578063f9e1e16114610bc2576103db565b8063db8c3f0914610ad7578063de34783f14610ae1578063dea182c114610aff578063e537a4ad14610b1d576103db565b8063c89e4361116100f4578063c89e436114610a5f578063ca5eb5e114610a7d578063d766d0b514610a99578063d9a1886214610ab9576103db565b8063ab5d258f146109d5578063afb18fe714610a05578063bad141b814610a23578063c4e8208514610a41576103db565b8063887445f41161019d57806394d0a60a1161016c57806394d0a60a1461096157806394febbf31461097d578063963327531461099b578063a72b90d4146109a5576103db565b8063887445f4146108eb578063893d20e8146109075780638da5cb5b14610925578063916056c714610943576103db565b806377036684116101d957806377036684146108755780637cbb7b461461089357806381ac8a24146108b157806384a1293c146108cd576103db565b806365dbc1f6146107ff578063715018a61461082f5780637200a0f314610839578063748807ab14610857576103db565b80632d4c8096116102fa5780635753c40e1161028d578063603795881161025c57806360379588146107775780636050018e146107a757806362843c94146107d757806365cacaa4146107e1576103db565b80635753c40e146106ef5780635914b3d31461070b5780635bedcc651461073b5780635c975abb14610759576103db565b80634b60ce77116102c95780634b60ce771461068b5780634b87d195146106a95780634bc8d0db146106b35780634f1351a4146106cf576103db565b80632d4c80961461061557806331e63e3914610633578063380c2eeb14610663578063499586111461066d576103db565b80631782eba911610372578063265d1d5811610341578063265d1d581461058d5780632ada4f76146105ab5780632aecc4da146105db5780632af4c31e146105f9576103db565b80631782eba9146104dc5780631a6615b9146105105780631f5d3fe314610541578063218cdf2e1461055d576103db565b80631217308b116103ae5780631217308b146104685780631286ba4d146104865780631525ff7d146104a257806315643554146104be576103db565b80630450c6e2146103e05780630759a354146103fc5780630c2a0bda1461041a5780631143f40014610438575b600080fd5b6103fa60048036038101906103f59190616548565b610be0565b005b610404610dba565b60405161041191906165b3565b60405180910390f35b610422610dc9565b60405161042f91906165dd565b60405180910390f35b610452600480360381019061044d91906165f8565b610dce565b60405161045f91906165dd565b60405180910390f35b610470610e77565b60405161047d91906165dd565b60405180910390f35b6104a0600480360381019061049b9190616625565b610e84565b005b6104bc60048036038101906104b791906165f8565b610fa8565b005b6104c661108b565b6040516104d391906165dd565b60405180910390f35b6104f660048036038101906104f19190616625565b611091565b604051610507959493929190616756565b60405180910390f35b61052a600480360381019061052591906167a9565b611191565b6040516105389291906167e9565b60405180910390f35b61055b60048036038101906105569190616625565b61121d565b005b61057760048036038101906105729190616625565b611284565b60405161058491906165dd565b60405180910390f35b6105956112c8565b6040516105a291906165dd565b60405180910390f35b6105c560048036038101906105c09190616625565b6112ce565b6040516105d2919061682d565b60405180910390f35b6105e3611321565b6040516105f091906165dd565b60405180910390f35b610613600480360381019061060e91906165f8565b611327565b005b61061d611567565b60405161062a91906165b3565b60405180910390f35b61064d600480360381019061064891906165f8565b61158d565b60405161065a91906165dd565b60405180910390f35b61066b6115d9565b005b6106756118aa565b6040516106829190616890565b60405180910390f35b6106936118c1565b6040516106a0919061690a565b60405180910390f35b6106b16118e7565b005b6106cd60048036038101906106c891906169ac565b611a8a565b005b6106d7611d02565b6040516106e693929190616a20565b60405180910390f35b610709600480360381019061070491906167a9565b611d27565b005b610725600480360381019061072091906165f8565b611e4a565b60405161073291906165dd565b60405180910390f35b610743611e5c565b604051610750919061682d565b60405180910390f35b610761611e6f565b60405161076e919061682d565b60405180910390f35b610791600480360381019061078c91906165f8565b611e86565b60405161079e919061682d565b60405180910390f35b6107c160048036038101906107bc9190616625565b611ed4565b6040516107ce91906165dd565b60405180910390f35b6107df611f02565b005b6107e9612247565b6040516107f691906165b3565b60405180910390f35b61081960048036038101906108149190616625565b612271565b6040516108269190616a57565b60405180910390f35b6108376122ac565b005b6108416123eb565b60405161084e91906165dd565b60405180910390f35b61085f6123f7565b60405161086c9190616890565b60405180910390f35b61087d61240a565b60405161088a91906165dd565b60405180910390f35b61089b612410565b6040516108a891906165b3565b60405180910390f35b6108cb60048036038101906108c69190616625565b61243a565b005b6108d5612604565b6040516108e2919061682d565b60405180910390f35b61090560048036038101906109009190616625565b612642565b005b61090f6127da565b60405161091c91906165b3565b60405180910390f35b61092d6127e9565b60405161093a91906165b3565b60405180910390f35b61094b61280f565b60405161095891906165dd565b60405180910390f35b61097b60048036038101906109769190616a72565b612815565b005b610985612b61565b60405161099291906165dd565b60405180910390f35b6109a3612b67565b005b6109bf60048036038101906109ba9190616625565b612e1c565b6040516109cc9190616acb565b60405180910390f35b6109ef60048036038101906109ea9190616625565b612e5a565b6040516109fc91906165dd565b60405180910390f35b610a0d612e7e565b604051610a1a91906165b3565b60405180910390f35b610a2b612ea4565b604051610a3891906165dd565b60405180910390f35b610a49612eaa565b604051610a5691906165dd565b60405180910390f35b610a67612eb0565b604051610a7491906165b3565b60405180910390f35b610a976004803603810190610a9291906165f8565b612ed6565b005b610aa1613095565b604051610ab093929190616a20565b60405180910390f35b610ac16130c4565b604051610ace91906165dd565b60405180910390f35b610adf6130ca565b005b610ae9613388565b604051610af691906165dd565b60405180910390f35b610b07613392565b604051610b1491906165b3565b60405180910390f35b610b376004803603810190610b3291906167a9565b6133bc565b604051610b459291906167e9565b60405180910390f35b610b686004803603810190610b639190616625565b61340d565b005b610b72613608565b604051610b7f91906165dd565b60405180910390f35b610b906136a0565b604051610b9d91906165dd565b60405180910390f35b610bc06004803603810190610bbb9190616c5e565b6136aa565b005b610bca613a29565b604051610bd79190616cc8565b60405180910390f35b600460029054906101000a900473ffffffffffffffffffffffffffffffffffffffff1673ffffffffffffffffffffffffffffffffffffffff163373ffffffffffffffffffffffffffffffffffffffff1614158015610c8c5750600660009054906101000a900473ffffffffffffffffffffffffffffffffffffffff1673ffffffffffffffffffffffffffffffffffffffff163373ffffffffffffffffffffffffffffffffffffffff1614155b15610d165733600460029054906101000a900473ffffffffffffffffffffffffffffffffffffffff16600660009054906101000a900473ffffffffffffffffffffffffffffffffffffffff166040517ffcdf0ca9000000000000000000000000000000000000000000000000000000008152600401610d0d93929190616ce3565b60405180910390fd5b610d1e613a4f565b610d5d576040517f08c379a0000000000000000000000000000000000000000000000000000000008152600401610d5490616d77565b60405180910390fd5b610d678282613a8c565b600c5442610d759190616dc6565b600f819055507fc7d85f06e6b08f27932c244291a8abb580da345ce5c683a15c711079d472620042600f54604051610dae929190616dfa565b60405180910390a15050565b6000610dc46127da565b905090565b601481565b600080601060008473ffffffffffffffffffffffffffffffffffffffff1673ffffffffffffffffffffffffffffffffffffffff16815260200190815260200160002090506000805b8280549050811015610e6c57610e4c838281548110610e3857610e37616e23565b5b906000526020600020906002020183613abb565b82610e579190616dc6565b91508080610e6490616e52565b915050610e16565b508092505050919050565b6000600180549050905090565b3373ffffffffffffffffffffffffffffffffffffffff16600460029054906101000a900473ffffffffffffffffffffffffffffffffffffffff1673ffffffffffffffffffffffffffffffffffffffff1614610f14576040517f08c379a0000000000000000000000000000000000000000000000000000000008152600401610f0b90616f0c565b60405180910390fd5b610f1c613a4f565b610f5b576040517f08c379a0000000000000000000000000000000000000000000000000000000008152600401610f5290616d77565b60405180910390fd5b6000600d54905081600d819055507f30e4f9c7f8a1af88be510044d9c65e449ff53fd41daf3beab41c740c2cc9b121600d5482604051610f9c929190616dfa565b60405180910390a15050565b3373ffffffffffffffffffffffffffffffffffffffff16600460029054906101000a900473ffffffffffffffffffffffffffffffffffffffff1673ffffffffffffffffffffffffffffffffffffffff1614611038576040517f08c379a000000000000000000000000000000000000000000000000000000000815260040161102f90616f0c565b60405180910390fd5b611040613a4f565b61107f576040517f08c379a000000000000000000000000000000000000000000000000000000000815260040161107690616d77565b60405180910390fd5b61108881611327565b50565b60085481565b600081815481106110a157600080fd5b9060005260206000209060040201600091509050806000016040518060600160405290816000820160009054906101000a900473ffffffffffffffffffffffffffffffffffffffff1673ffffffffffffffffffffffffffffffffffffffff1673ffffffffffffffffffffffffffffffffffffffff1681526020016000820160149054906101000a900463ffffffff1663ffffffff1663ffffffff168152602001600182015481525050908060020160009054906101000a900460ff16908060020160019054906101000a900463ffffffff16908060020160059054906101000a900460030b908060030154905085565b6000806000601060008673ffffffffffffffffffffffffffffffffffffffff1673ffffffffffffffffffffffffffffffffffffffff16815260200190815260200160002084815481106111e7576111e6616e23565b5b906000526020600020906002020190508060000160009054906101000a900463ffffffff16816001015492509250509250929050565b6001601461122a42613acf565b6112349190616f2c565b61123e9190616f2c565b6000828154811061125257611251616e23565b5b906000526020600020906004020160020160016101000a81548163ffffffff021916908363ffffffff16021790555050565b600080828154811061129957611298616e23565b5b906000526020600020906004020160020160019054906101000a900463ffffffff1663ffffffff169050919050565b600e5481565b60006014600083815481106112e6576112e5616e23565b5b906000526020600020906004020160020160019054906101000a900463ffffffff166113129190616f64565b63ffffffff1642119050919050565b60125481565b600073ffffffffffffffffffffffffffffffffffffffff16600460029054906101000a900473ffffffffffffffffffffffffffffffffffffffff1673ffffffffffffffffffffffffffffffffffffffff1614806113d157503373ffffffffffffffffffffffffffffffffffffffff16600460029054906101000a900473ffffffffffffffffffffffffffffffffffffffff1673ffffffffffffffffffffffffffffffffffffffff16145b611410576040517f08c379a000000000000000000000000000000000000000000000000000000000815260040161140790616fe8565b60405180910390fd5b600073ffffffffffffffffffffffffffffffffffffffff168173ffffffffffffffffffffffffffffffffffffffff160361147f576040517f08c379a000000000000000000000000000000000000000000000000000000000815260040161147690617054565b60405180910390fd5b6000600460029054906101000a900473ffffffffffffffffffffffffffffffffffffffff16905081600460026101000a81548173ffffffffffffffffffffffffffffffffffffffff021916908373ffffffffffffffffffffffffffffffffffffffff1602179055508073ffffffffffffffffffffffffffffffffffffffff16600460029054906101000a900473ffffffffffffffffffffffffffffffffffffffff1673ffffffffffffffffffffffffffffffffffffffff167f0384899bd253d83b23daa4d29aaa2efe0563d1132b43101e9ad667235aeb951b60405160405180910390a35050565b600560009054906101000a900473ffffffffffffffffffffffffffffffffffffffff1681565b6000601060008373ffffffffffffffffffffffffffffffffffffffff1673ffffffffffffffffffffffffffffffffffffffff168152602001908152602001600020805490509050919050565b6115e233611e86565b611621576040517f08c379a0000000000000000000000000000000000000000000000000000000008152600401611618906170c0565b60405180910390fd5b600f5442111561166c5742600f546040517f33d020a0000000000000000000000000000000000000000000000000000000008152600401611663929190616dfa565b60405180910390fd5b611674613a4f565b6116b3576040517f08c379a00000000000000000000000000000000000000000000000000000000081526004016116aa90616d77565b60405180910390fd5b6002600354036116f8576040517f08c379a00000000000000000000000000000000000000000000000000000000081526004016116ef9061712c565b60405180910390fd5b60026003819055506000339050600061171082613b22565b63ffffffff1690506000600d54826117289190616dc6565b9050804210156117715742816040517ff5f28aa6000000000000000000000000000000000000000000000000000000008152600401611768929190616dfa565b60405180910390fd5b600a60009054906101000a900473ffffffffffffffffffffffffffffffffffffffff1673ffffffffffffffffffffffffffffffffffffffff166341f29548601060008673ffffffffffffffffffffffffffffffffffffffff1673ffffffffffffffffffffffffffffffffffffffff1681526020019081526020016000206040518263ffffffff1660e01b815260040161180a91906172a1565b600060405180830381600087803b15801561182457600080fd5b505af1158015611838573d6000803e3d6000fd5b50505050600061184784610dce565b905060006118558583613b9f565b90507f56b9213d96821764325d9f0ed0b224a86ea80368461ecffc358c20fe046c85cb85838360405161188a939291906172c3565b60405180910390a161189b85613cac565b50505050506001600381905550565b6000600660149054906101000a900460ff16905090565b600b60009054906101000a900473ffffffffffffffffffffffffffffffffffffffff1681565b6118f033611e86565b61192f576040517f08c379a0000000000000000000000000000000000000000000000000000000008152600401611926906170c0565b60405180910390fd5b60016002811115611943576119426166c1565b5b600660149054906101000a900460ff166002811115611965576119646166c1565b5b146119a5576040517f08c379a000000000000000000000000000000000000000000000000000000000815260040161199c90617346565b60405180910390fd5b6000600854116119ea576040517f08c379a00000000000000000000000000000000000000000000000000000000081526004016119e1906173b2565b60405180910390fd5b600260035403611a2f576040517f08c379a0000000000000000000000000000000000000000000000000000000008152600401611a269061712c565b60405180910390fd5b60026003819055506000611a436000613dbb565b5090507f7085f26b6db92a35464d222f0ad9c4c67a7a7a0bcb8d4a6c5f3f52d90469ebc93382604051611a779291906173d2565b60405180910390a1506001600381905550565b611a92613a4f565b611ad1576040517f08c379a0000000000000000000000000000000000000000000000000000000008152600401611ac890616d77565b60405180910390fd5b836000808281548110611ae757611ae6616e23565b5b90600052602060002090600402016000019050600073ffffffffffffffffffffffffffffffffffffffff168160000160009054906101000a900473ffffffffffffffffffffffffffffffffffffffff1673ffffffffffffffffffffffffffffffffffffffff1603611b8f57816040517f14e9e96e000000000000000000000000000000000000000000000000000000008152600401611b8691906165dd565b60405180910390fd5b8060000160009054906101000a900473ffffffffffffffffffffffffffffffffffffffff1673ffffffffffffffffffffffffffffffffffffffff163373ffffffffffffffffffffffffffffffffffffffff1614611c4b57818160000160009054906101000a900473ffffffffffffffffffffffffffffffffffffffff16336040517f89f4d783000000000000000000000000000000000000000000000000000000008152600401611c42939291906173fb565b60405180910390fd5b600060018054905090506000808881548110611c6a57611c69616e23565b5b90600052602060002090600402019050611c848882613f7b565b15611c9657611c91614007565b611ca4565b611ca3888289898961428a565b5b600182611cb19190616dc6565b6001805490501115611cf8576040517f08c379a0000000000000000000000000000000000000000000000000000000008152600401611cef9061747e565b60405180910390fd5b5050505050505050565b60138060000160009054906101000a900460ff16908060010154908060020154905083565b600560009054906101000a900473ffffffffffffffffffffffffffffffffffffffff1673ffffffffffffffffffffffffffffffffffffffff163373ffffffffffffffffffffffffffffffffffffffff1614611db7576040517f08c379a0000000000000000000000000000000000000000000000000000000008152600401611dae906174ea565b60405180910390fd5b600b60009054906101000a900473ffffffffffffffffffffffffffffffffffffffff1673ffffffffffffffffffffffffffffffffffffffff166340c10f1983836040518363ffffffff1660e01b8152600401611e149291906173d2565b600060405180830381600087803b158015611e2e57600080fd5b505af1158015611e42573d6000803e3d6000fd5b505050505050565b6000611e55826143c1565b9050919050565b600460019054906101000a900460ff1681565b6000600460009054906101000a900460ff16905090565b600080601060008473ffffffffffffffffffffffffffffffffffffffff1673ffffffffffffffffffffffffffffffffffffffff16815260200190815260200160002080549050119050919050565b6000808281548110611ee957611ee8616e23565b5b9060005260206000209060040201600301549050919050565b3373ffffffffffffffffffffffffffffffffffffffff16600460029054906101000a900473ffffffffffffffffffffffffffffffffffffffff1673ffffffffffffffffffffffffffffffffffffffff1614611f92576040517f08c379a0000000000000000000000000000000000000000000000000000000008152600401611f8990616f0c565b60405180910390fd5b60006002811115611fa657611fa56166c1565b5b600660149054906101000a900460ff166002811115611fc857611fc76166c1565b5b03612008576040517f08c379a0000000000000000000000000000000000000000000000000000000008152600401611fff90617556565b60405180910390fd5b60006008541161204d576040517f08c379a0000000000000000000000000000000000000000000000000000000008152600401612044906173b2565b60405180910390fd5b60006120576127da565b905060003090508073ffffffffffffffffffffffffffffffffffffffff16600b60009054906101000a900473ffffffffffffffffffffffffffffffffffffffff1673ffffffffffffffffffffffffffffffffffffffff1663893d20e86040518163ffffffff1660e01b8152600401602060405180830381865afa1580156120e2573d6000803e3d6000fd5b505050506040513d601f19601f82011682018060405250810190612106919061758b565b73ffffffffffffffffffffffffffffffffffffffff161461215c576040517f08c379a000000000000000000000000000000000000000000000000000000000815260040161215390617604565b60405180910390fd5b600b60009054906101000a900473ffffffffffffffffffffffffffffffffffffffff1673ffffffffffffffffffffffffffffffffffffffff16632af4c31e836040518263ffffffff1660e01b81526004016121b791906165b3565b600060405180830381600087803b1580156121d157600080fd5b505af11580156121e5573d6000803e3d6000fd5b505050508173ffffffffffffffffffffffffffffffffffffffff168173ffffffffffffffffffffffffffffffffffffffff167f020aeae9b0357225b1e06369f3f026dbf8b24f7d00b187bfc35f6cac4604359b60405160405180910390a35050565b6000600a60009054906101000a900473ffffffffffffffffffffffffffffffffffffffff16905090565b600080828154811061228657612285616e23565b5b906000526020600020906004020160020160009054906101000a900460ff169050919050565b3373ffffffffffffffffffffffffffffffffffffffff16600460029054906101000a900473ffffffffffffffffffffffffffffffffffffffff1673ffffffffffffffffffffffffffffffffffffffff161461233c576040517f08c379a000000000000000000000000000000000000000000000000000000000815260040161233390617670565b60405180910390fd5b6000600460029054906101000a900473ffffffffffffffffffffffffffffffffffffffff1690506000600460026101000a81548173ffffffffffffffffffffffffffffffffffffffff021916908373ffffffffffffffffffffffffffffffffffffffff1602179055508073ffffffffffffffffffffffffffffffffffffffff167ff8df31144d9c2f0f6b59d69b8b98abd5459d07f2742c4df920b25aae33c6482060405160405180910390a250565b60008080549050905090565b600660149054906101000a900460ff1681565b600d5481565b6000600b60009054906101000a900473ffffffffffffffffffffffffffffffffffffffff16905090565b600460029054906101000a900473ffffffffffffffffffffffffffffffffffffffff1673ffffffffffffffffffffffffffffffffffffffff163373ffffffffffffffffffffffffffffffffffffffff16141580156124e65750600660009054906101000a900473ffffffffffffffffffffffffffffffffffffffff1673ffffffffffffffffffffffffffffffffffffffff163373ffffffffffffffffffffffffffffffffffffffff1614155b156125705733600460029054906101000a900473ffffffffffffffffffffffffffffffffffffffff16600660009054906101000a900473ffffffffffffffffffffffffffffffffffffffff166040517ffcdf0ca900000000000000000000000000000000000000000000000000000000815260040161256793929190616ce3565b60405180910390fd5b612578613a4f565b6125b7576040517f08c379a00000000000000000000000000000000000000000000000000000000081526004016125ae90616d77565b60405180910390fd5b60006009549050816009819055507ff1b5288cc309eff01e4c9e078fd1649f383ea4f81e3d379b5195df66ed4234a4600954826040516125f8929190616dfa565b60405180910390a15050565b6000806002811115612619576126186166c1565b5b600660149054906101000a900460ff16600281111561263b5761263a6166c1565b5b1415905090565b61264a613a4f565b612689576040517f08c379a000000000000000000000000000000000000000000000000000000000815260040161268090616d77565b60405180910390fd5b6000600180549050905060008083815481106126a8576126a7616e23565b5b906000526020600020906004020190506126c28382613f7b565b6127055782426040517f598575f40000000000000000000000000000000000000000000000000000000081526004016126fc929190616dfa565b60405180910390fd5b6000838154811061271957612718616e23565b5b906000526020600020906004020160020160019054906101000a900463ffffffff1663ffffffff16837f6b08bee316ed64851542ec4ad08063d5f5d812999963cf2a1caf64e8e108d5ac4260405161277191906165dd565b60405180910390a3612781614007565b60018261278e9190616dc6565b60018054905011156127d5576040517f08c379a00000000000000000000000000000000000000000000000000000000081526004016127cc906176dc565b60405180910390fd5b505050565b60006127e461446e565b905090565b600460029054906101000a900473ffffffffffffffffffffffffffffffffffffffff1681565b600f5481565b61281d614498565b81600954811015612863576040517f08c379a000000000000000000000000000000000000000000000000000000000815260040161285a9061776e565b60405180910390fd5b826000600260009054906101000a900473ffffffffffffffffffffffffffffffffffffffff1673ffffffffffffffffffffffffffffffffffffffff166370a08231336040518263ffffffff1660e01b81526004016128c191906165b3565b602060405180830381865afa1580156128de573d6000803e3d6000fd5b505050506040513d601f19601f8201168201806040525081019061290291906177a3565b905081811015612947576040517f08c379a000000000000000000000000000000000000000000000000000000000815260040161293e90617842565b60405180910390fd5b84806129516144e2565b1015612992576040517f08c379a0000000000000000000000000000000000000000000000000000000008152600401612989906178ae565b60405180910390fd5b61299a613a4f565b6129d9576040517f08c379a00000000000000000000000000000000000000000000000000000000081526004016129d090616d77565b60405180910390fd5b600260035403612a1e576040517f08c379a0000000000000000000000000000000000000000000000000000000008152600401612a159061712c565b60405180910390fd5b60026003819055506000339050600260009054906101000a900473ffffffffffffffffffffffffffffffffffffffff1673ffffffffffffffffffffffffffffffffffffffff168673ffffffffffffffffffffffffffffffffffffffff1614612abb576040517f08c379a0000000000000000000000000000000000000000000000000000000008152600401612ab29061791a565b60405180910390fd5b6000612ac682611e86565b90508015612adc57612ad78261458c565b612b3c565b876011548373ffffffffffffffffffffffffffffffffffffffff167f61a270f3e063aaf439cab58626368c6657be20e3ce9350b8ca4870680ee250fc60405160405180910390a460116000815480929190612b3690616e52565b91905055505b612b468289614619565b612b4f88614732565b50506001600381905550505050505050565b60075481565b3373ffffffffffffffffffffffffffffffffffffffff16600460029054906101000a900473ffffffffffffffffffffffffffffffffffffffff1673ffffffffffffffffffffffffffffffffffffffff1614612bf7576040517f08c379a0000000000000000000000000000000000000000000000000000000008152600401612bee90617670565b60405180910390fd5b60006002811115612c0b57612c0a6166c1565b5b600660149054906101000a900460ff166002811115612c2d57612c2c6166c1565b5b03612c6d576040517f08c379a0000000000000000000000000000000000000000000000000000000008152600401612c6490617556565b60405180910390fd5b600060085411612cb2576040517f08c379a0000000000000000000000000000000000000000000000000000000008152600401612ca9906173b2565b60405180910390fd5b612cba612604565b612d0a57600660149054906101000a900460ff166040517ff52f27ba000000000000000000000000000000000000000000000000000000008152600401612d019190616890565b60405180910390fd5b6000600a60009054906101000a900473ffffffffffffffffffffffffffffffffffffffff1673ffffffffffffffffffffffffffffffffffffffff16630bf6cc086040518163ffffffff1660e01b8152600401602060405180830381865afa158015612d79573d6000803e3d6000fd5b505050506040513d601f19601f82011682018060405250810190612d9d91906177a3565b90506000811115612de557806040517f2afe4ddf000000000000000000000000000000000000000000000000000000008152600401612ddc91906165dd565b60405180910390fd5b612ded6122ac565b7f4311812a419209afaa8088bf757e8d09870f8a925d08d5321d8f931e600c0d1a60405160405180910390a150565b6000808281548110612e3157612e30616e23565b5b906000526020600020906004020160020160059054906101000a900460030b60030b9050919050565b60018181548110612e6a57600080fd5b906000526020600020016000915090505481565b600260009054906101000a900473ffffffffffffffffffffffffffffffffffffffff1681565b600c5481565b60095481565b600660009054906101000a900473ffffffffffffffffffffffffffffffffffffffff1681565b3373ffffffffffffffffffffffffffffffffffffffff16600460029054906101000a900473ffffffffffffffffffffffffffffffffffffffff1673ffffffffffffffffffffffffffffffffffffffff1614612f66576040517f08c379a0000000000000000000000000000000000000000000000000000000008152600401612f5d90616f0c565b60405180910390fd5b612f6e613a4f565b612fad576040517f08c379a0000000000000000000000000000000000000000000000000000000008152600401612fa490616d77565b60405180910390fd5b6000600660009054906101000a900473ffffffffffffffffffffffffffffffffffffffff16905081600660006101000a81548173ffffffffffffffffffffffffffffffffffffffff021916908373ffffffffffffffffffffffffffffffffffffffff1602179055508073ffffffffffffffffffffffffffffffffffffffff16600660009054906101000a900473ffffffffffffffffffffffffffffffffffffffff1673ffffffffffffffffffffffffffffffffffffffff167fef9fc1dee6010109e6e3b21e51d44028e246dbad8a5a71ea192a30b19e1f457f60405160405180910390a35050565b6000806000601360000160009054906101000a900460ff16601360010154601360020154925092509250909192565b60115481565b6130d333611e86565b613112576040517f08c379a0000000000000000000000000000000000000000000000000000000008152600401613109906170c0565b60405180910390fd5b600280811115613125576131246166c1565b5b600660149054906101000a900460ff166002811115613147576131466166c1565b5b14613187576040517f08c379a000000000000000000000000000000000000000000000000000000000815260040161317e90617986565b60405180910390fd5b6000600854116131cc576040517f08c379a00000000000000000000000000000000000000000000000000000000081526004016131c3906173b2565b60405180910390fd5b600260035403613211576040517f08c379a00000000000000000000000000000000000000000000000000000000081526004016132089061712c565b60405180910390fd5b60026003819055506000339050601360000160009054906101000a900460ff16613270576040517f08c379a0000000000000000000000000000000000000000000000000000000008152600401613267906179f2565b60405180910390fd5b6000601360020154116132b8576040517f08c379a00000000000000000000000000000000000000000000000000000000081526004016132af90617a5e565b60405180910390fd5b6000613301601060008473ffffffffffffffffffffffffffffffffffffffff1673ffffffffffffffffffffffffffffffffffffffff168152602001908152602001600020614921565b905060006013600201546013600101548361331c9190617a7e565b6133269190617b07565b905060006133348483613b9f565b90507f1e3bbcecb5f1430943b3c5ffa81f48ff8b3e5994b0db8d95905ea8fcab4bb4e5848383604051613369939291906172c3565b60405180910390a161337a84613cac565b505050506001600381905550565b6000600f54905090565b6000600260009054906101000a900473ffffffffffffffffffffffffffffffffffffffff16905090565b601060205281600052604060002081815481106133d857600080fd5b9060005260206000209060020201600091509150508060000160009054906101000a900463ffffffff16908060010154905082565b613415613a4f565b613454576040517f08c379a000000000000000000000000000000000000000000000000000000000815260040161344b90616d77565b60405180910390fd5b80600073ffffffffffffffffffffffffffffffffffffffff166000828154811061348157613480616e23565b5b906000526020600020906004020160000160000160009054906101000a900473ffffffffffffffffffffffffffffffffffffffff1673ffffffffffffffffffffffffffffffffffffffff161461350c576040517f08c379a000000000000000000000000000000000000000000000000000000000815260040161350390617b84565b60405180910390fd5b60006001805490509050600080848154811061352b5761352a616e23565b5b906000526020600020906004020190506135458482613f7b565b1561355757613552614007565b6135ae565b6135618482614986565b15613575576135708185614c8c565b6135ad565b7f16ea14668ff604d3c6b8d2bd3a6890cedb8506333e86046ec0c00163fe9bc09e846040516135a491906165dd565b60405180910390a15b5b6001826135bb9190616dc6565b6001805490501115613602576040517f08c379a00000000000000000000000000000000000000000000000000000000081526004016135f99061747e565b60405180910390fd5b50505050565b6000600a60009054906101000a900473ffffffffffffffffffffffffffffffffffffffff1673ffffffffffffffffffffffffffffffffffffffff16630bf6cc086040518163ffffffff1660e01b8152600401602060405180830381865afa158015613677573d6000803e3d6000fd5b505050506040513d601f19601f8201168201806040525081019061369b91906177a3565b905090565b6000600754905090565b600460019054906101000a900460ff16156136fa576040517f08c379a00000000000000000000000000000000000000000000000000000000081526004016136f190617bf0565b60405180910390fd5b6137078160000151614d30565b600073ffffffffffffffffffffffffffffffffffffffff1681610100015173ffffffffffffffffffffffffffffffffffffffff160361377b576040517f08c379a000000000000000000000000000000000000000000000000000000000815260040161377290617c5c565b60405180910390fd5b33600560006101000a81548173ffffffffffffffffffffffffffffffffffffffff021916908373ffffffffffffffffffffffffffffffffffffffff160217905550426007819055506000600660146101000a81548160ff021916908360028111156137e9576137e86166c1565b5b02179055506000600660006101000a81548173ffffffffffffffffffffffffffffffffffffffff021916908373ffffffffffffffffffffffffffffffffffffffff16021790555060006008819055506000600f819055506040518060600160405280600015158152602001600081526020016000815250601360008201518160000160006101000a81548160ff0219169083151502179055506020820151816001015560408201518160020155905050806101000151600260006101000a81548173ffffffffffffffffffffffffffffffffffffffff021916908373ffffffffffffffffffffffffffffffffffffffff160217905550600060115414613924576040517f08c379a000000000000000000000000000000000000000000000000000000000815260040161391b90617cc8565b60405180910390fd5b600060125414613969576040517f08c379a000000000000000000000000000000000000000000000000000000000815260040161396090617d34565b60405180910390fd5b61397b81604001518260a00151613a8c565b8060200151600a60006101000a81548173ffffffffffffffffffffffffffffffffffffffff021916908373ffffffffffffffffffffffffffffffffffffffff1602179055508060600151600b60006101000a81548173ffffffffffffffffffffffffffffffffffffffff021916908373ffffffffffffffffffffffffffffffffffffffff1602179055508060800151600e819055508060c00151600c819055508060e00151600d8190555050565b600a60009054906101000a900473ffffffffffffffffffffffffffffffffffffffff1681565b6000806002811115613a6457613a636166c1565b5b600660149054906101000a900460ff166002811115613a8657613a856166c1565b5b14905090565b613a998242600080614dd3565b613aa282614f33565b60016000613ab09190616049565b806009819055505050565b6000613ac783836150b3565b905092915050565b600063ffffffff8016821115613b1a576040517f08c379a0000000000000000000000000000000000000000000000000000000008152600401613b1190617dc6565b60405180910390fd5b819050919050565b6000601060008373ffffffffffffffffffffffffffffffffffffffff1673ffffffffffffffffffffffffffffffffffffffff168152602001908152602001600020600081548110613b7657613b75616e23565b5b906000526020600020906002020160000160009054906101000a900463ffffffff169050919050565b600080600a60009054906101000a900473ffffffffffffffffffffffffffffffffffffffff1673ffffffffffffffffffffffffffffffffffffffff1663f7755b9285856040518363ffffffff1660e01b8152600401613bff9291906173d2565b6020604051808303816000875af1158015613c1e573d6000803e3d6000fd5b505050506040513d601f19601f82011682018060405250810190613c4291906177a3565b90506000613c4f85613b22565b90508473ffffffffffffffffffffffffffffffffffffffff167f1d9a073a752d431b741ce470b611992dc77ec72c11959d2da7fa4a0f235711e38286604051613c999291906167e9565b60405180910390a2819250505092915050565b613cb581611e86565b613cf4576040517f08c379a0000000000000000000000000000000000000000000000000000000008152600401613ceb90617e32565b60405180910390fd5b6000601060008373ffffffffffffffffffffffffffffffffffffffff1673ffffffffffffffffffffffffffffffffffffffff168152602001908152602001600020805490509050601060008373ffffffffffffffffffffffffffffffffffffffff1673ffffffffffffffffffffffffffffffffffffffff1681526020019081526020016000206000613d86919061606a565b8060126000828254613d989190617e52565b9250508190555060116000815480929190613db290617e86565b91905055505050565b600080613dc733611e86565b613e06576040517f08c379a0000000000000000000000000000000000000000000000000000000008152600401613dfd906170c0565b60405180910390fd5b60016002811115613e1a57613e196166c1565b5b600660149054906101000a900460ff166002811115613e3c57613e3b6166c1565b5b14613e7c576040517f08c379a0000000000000000000000000000000000000000000000000000000008152600401613e7390617346565b60405180910390fd5b600060085411613ec1576040517f08c379a0000000000000000000000000000000000000000000000000000000008152600401613eb8906173b2565b60405180910390fd5b6000339050613ecf816143c1565b92507fffffffffffffffffffffffffffffffffffffffffffffffffffffffffffffffff915060006001811115613f0857613f076166c1565b5b846001811115613f1b57613f1a6166c1565b5b03613f2f57613f2a81846151b0565b613f6c565b836040517f2082f592000000000000000000000000000000000000000000000000000000008152600401613f639190617ef7565b60405180910390fd5b613f7581613cac565b50915091565b6000613f87838361558b565b613f90836112ce565b15613ffc57613fa0826002615609565b8160020160019054906101000a900463ffffffff1663ffffffff16837f6b08bee316ed64851542ec4ad08063d5f5d812999963cf2a1caf64e8e108d5ac42604051613feb91906165dd565b60405180910390a360019050614001565b600090505b92915050565b614011600261569a565b61401961576b565b6000600a60009054906101000a900473ffffffffffffffffffffffffffffffffffffffff1673ffffffffffffffffffffffffffffffffffffffff16630bf6cc086040518163ffffffff1660e01b8152600401602060405180830381865afa158015614088573d6000803e3d6000fd5b505050506040513d601f19601f820116820180604052508101906140ac91906177a3565b90506000600a60009054906101000a900473ffffffffffffffffffffffffffffffffffffffff1673ffffffffffffffffffffffffffffffffffffffff166315018fd66040518163ffffffff1660e01b8152600401602060405180830381865afa15801561411d573d6000803e3d6000fd5b505050506040513d601f19601f8201168201806040525081019061414191906177a3565b9050601360000160009054906101000a900460ff1615614196576040517f08c379a000000000000000000000000000000000000000000000000000000000815260040161418d90617f84565b60405180910390fd5b604051806060016040528060011515815260200183815260200182815250601360008201518160000160006101000a81548160ff0219169083151502179055506020820151816001015560408201518160020155905050600060085414614232576040517f08c379a000000000000000000000000000000000000000000000000000000000815260040161422990617ff0565b60405180910390fd5b426008819055503073ffffffffffffffffffffffffffffffffffffffff167e4ca7a344ebee7b920d425ee9c48a6423ce6bea12a3321271c35faf22aa3a214260405161427e91906165dd565b60405180910390a25050565b60008460000190508060000160009054906101000a900473ffffffffffffffffffffffffffffffffffffffff1673ffffffffffffffffffffffffffffffffffffffff163373ffffffffffffffffffffffffffffffffffffffff1614614324576040517f08c379a000000000000000000000000000000000000000000000000000000000815260040161431b9061805c565b60405180910390fd5b8315614374576143348587614c8c565b7fcee2a1520a638a8770319dbd0a7a04c3637d572574ff64e22348f8cdbe675268868484604051614367939291906180b8565b60405180910390a16143b9565b61437d85615775565b7fe4d96e8897bf00472eeb376f43ceef24d43765108e1a2a2b94286322c89956da8684846040516143b0939291906180b8565b60405180910390a15b505050505050565b600080600090506000601060008573ffffffffffffffffffffffffffffffffffffffff1673ffffffffffffffffffffffffffffffffffffffff168152602001908152602001600020905060005b8180549050811015614463576144438282815481106144305761442f616e23565b5b906000526020600020906002020161578b565b8361444e9190616dc6565b9250808061445b90616e52565b91505061440e565b508192505050919050565b6000600460029054906101000a900473ffffffffffffffffffffffffffffffffffffffff16905090565b6144a0611e6f565b156144e0576040517f08c379a00000000000000000000000000000000000000000000000000000000081526004016144d790618136565b60405180910390fd5b565b600080600260009054906101000a900473ffffffffffffffffffffffffffffffffffffffff1690508073ffffffffffffffffffffffffffffffffffffffff1663dd62ed3e33306040518363ffffffff1660e01b8152600401614545929190618156565b602060405180830381865afa158015614562573d6000803e3d6000fd5b505050506040513d601f19601f8201168201806040525081019061458691906177a3565b91505090565b6014601060008373ffffffffffffffffffffffffffffffffffffffff1673ffffffffffffffffffffffffffffffffffffffff1681526020019081526020016000208054905010614616578060146040517f3687aefb00000000000000000000000000000000000000000000000000000000815260040161460d9291906173d2565b60405180910390fd5b50565b600061462442613acf565b9050601060008473ffffffffffffffffffffffffffffffffffffffff1673ffffffffffffffffffffffffffffffffffffffff16815260200190815260200160002060405180604001604052808363ffffffff16815260200184815250908060018154018082558091505060019003906000526020600020906002020160009091909190915060008201518160000160006101000a81548163ffffffff021916908363ffffffff160217905550602082015181600101555050601260008154809291906146ef90616e52565b91905055507f38c1014da5ba7f6e648a3d7b723408b2ab2c74245bb0401fbc351c73ed44221883836040516147259291906173d2565b60405180910390a1505050565b60003390506000600260009054906101000a900473ffffffffffffffffffffffffffffffffffffffff169050826147676144e2565b10156147a8576040517f08c379a000000000000000000000000000000000000000000000000000000000815260040161479f906181cb565b60405180910390fd5b60008173ffffffffffffffffffffffffffffffffffffffff166323b872dd84600a60009054906101000a900473ffffffffffffffffffffffffffffffffffffffff16876040518463ffffffff1660e01b8152600401614809939291906181eb565b6020604051808303816000875af1158015614828573d6000803e3d6000fd5b505050506040513d601f19601f8201168201806040525081019061484c9190618237565b90508061488e576040517f08c379a0000000000000000000000000000000000000000000000000000000008152600401614885906182d6565b60405180910390fd5b600a60009054906101000a900473ffffffffffffffffffffffffffffffffffffffff1673ffffffffffffffffffffffffffffffffffffffff16633e4ccb40856040518263ffffffff1660e01b81526004016148e991906165dd565b600060405180830381600087803b15801561490357600080fd5b505af1158015614917573d6000803e3d6000fd5b5050505050505050565b6000806000905060005b838054905081101561497c5783818154811061494a57614949616e23565b5b906000526020600020906002020160010154826149679190616dc6565b9150808061497490616e52565b91505061492b565b5080915050919050565b600082600073ffffffffffffffffffffffffffffffffffffffff16600082815481106149b5576149b4616e23565b5b906000526020600020906004020160000160000160009054906101000a900473ffffffffffffffffffffffffffffffffffffffff1673ffffffffffffffffffffffffffffffffffffffff1614614a40576040517f08c379a0000000000000000000000000000000000000000000000000000000008152600401614a3790617b84565b60405180910390fd5b6000836000019050600081600101541180614a75575060008160000160149054906101000a900463ffffffff1663ffffffff16115b614ab4576040517f08c379a0000000000000000000000000000000000000000000000000000000008152600401614aab90618342565b60405180910390fd5b614abd85615799565b600081600101541115614ba1576000614ad4615829565b73ffffffffffffffffffffffffffffffffffffffff16630bf6cc086040518163ffffffff1660e01b8152600401602060405180830381865afa158015614b1e573d6000803e3d6000fd5b505050506040513d601f19601f82011682018060405250810190614b4291906177a3565b905081600101548110614b965781600101547f134c5576a740eabe5d305a7ded03ec36718a9502b10ab4be9330a3bf38079a8f82604051614b8391906165dd565b60405180910390a2600193505050614c85565b600093505050614c85565b60008160000160149054906101000a900463ffffffff1663ffffffff1611614bfe576040517f08c379a0000000000000000000000000000000000000000000000000000000008152600401614bf5906183ae565b60405180910390fd5b8060000160149054906101000a900463ffffffff1663ffffffff16614c21615853565b10614c7f57614c2e615853565b8160000160149054906101000a900463ffffffff1663ffffffff167f362682442867c8a8fecf4fb43ada618f590ec216c609d91bc6ff4ab2e94e10fb60405160405180910390a36001925050614c85565b60009250505b5092915050565b614c9581615799565b614c9e8161585d565b614ca9826001615609565b6001819080600181540180825580915050600190039060005260206000200160009091909190915055614cdb82615948565b60008054905060018054905003614cf557614cf4615a50565b5b7f8271178d75ad065e3c4ff55e53ca029d638f5283025f5e2595cc1c1b10c8bb4b81604051614d2491906165dd565b60405180910390a15050565b600460019054906101000a900460ff1615614d80576040517f08c379a0000000000000000000000000000000000000000000000000000000008152600401614d7790617bf0565b60405180910390fd5b6001600460016101000a81548160ff021916908315150217905550614da481611327565b7f6d15517e52ece26dbbf31262ad0035a73b9c67db5d9da70679e2a83d235b658060405160405180910390a150565b6000821480614de3575081845110155b614e22576040517f08c379a0000000000000000000000000000000000000000000000000000000008152600401614e199061841a565b60405180910390fd5b6000811480614e32575080845111155b614e71576040517f08c379a0000000000000000000000000000000000000000000000000000000008152600401614e6890618486565b60405180910390fd5b60005b8451811015614f2c57614ea681868381518110614e9457614e93616e23565b5b60200260200101516040015186615b06565b614ece81868381518110614ebd57614ebc616e23565b5b602002602001015160000151615b87565b6000858281518110614ee357614ee2616e23565b5b6020026020010151602001906002811115614f0157614f006166c1565b5b90816002811115614f1557614f146166c1565b5b815250508080614f2490616e52565b915050614e74565b5050505050565b600080614f40919061608e565b60005b81518110156150af576000828281518110614f6157614f60616e23565b5b6020026020010151908060018154018082558091505060019003906000526020600020906004020160009091909190915060008201518160000160008201518160000160006101000a81548173ffffffffffffffffffffffffffffffffffffffff021916908373ffffffffffffffffffffffffffffffffffffffff16021790555060208201518160000160146101000a81548163ffffffff021916908363ffffffff16021790555060408201518160010155505060208201518160020160006101000a81548160ff021916908360028111156150405761503f6166c1565b5b021790555060408201518160020160016101000a81548163ffffffff021916908363ffffffff16021790555060608201518160020160056101000a81548163ffffffff021916908360030b63ffffffff1602179055506080820151816003015550508080600101915050614f43565b5050565b60008082600a60009054906101000a900473ffffffffffffffffffffffffffffffffffffffff1673ffffffffffffffffffffffffffffffffffffffff16630bf6cc086040518163ffffffff1660e01b8152600401602060405180830381865afa158015615124573d6000803e3d6000fd5b505050506040513d601f19601f8201168201806040525081019061514891906177a3565b6151529190617e52565b9050600060125411615199576040517f08c379a0000000000000000000000000000000000000000000000000000000008152600401615190906184f2565b60405180910390fd5b601254816151a79190617b07565b91505092915050565b600160028111156151c4576151c36166c1565b5b600660149054906101000a900460ff1660028111156151e6576151e56166c1565b5b14615226576040517f08c379a000000000000000000000000000000000000000000000000000000000815260040161521d90617346565b60405180910390fd5b60006008541161526b576040517f08c379a0000000000000000000000000000000000000000000000000000000008152600401615262906173b2565b60405180910390fd5b3073ffffffffffffffffffffffffffffffffffffffff16600b60009054906101000a900473ffffffffffffffffffffffffffffffffffffffff1673ffffffffffffffffffffffffffffffffffffffff1663893d20e86040518163ffffffff1660e01b8152600401602060405180830381865afa1580156152ef573d6000803e3d6000fd5b505050506040513d601f19601f82011682018060405250810190615313919061758b565b73ffffffffffffffffffffffffffffffffffffffff1614615369576040517f08c379a00000000000000000000000000000000000000000000000000000000081526004016153609061855e565b60405180910390fd5b6000600b60009054906101000a900473ffffffffffffffffffffffffffffffffffffffff1673ffffffffffffffffffffffffffffffffffffffff166370a08231846040518263ffffffff1660e01b81526004016153c691906165b3565b602060405180830381865afa1580156153e3573d6000803e3d6000fd5b505050506040513d601f19601f8201168201806040525081019061540791906177a3565b9050600b60009054906101000a900473ffffffffffffffffffffffffffffffffffffffff1673ffffffffffffffffffffffffffffffffffffffff166340c10f1984846040518363ffffffff1660e01b81526004016154669291906173d2565b600060405180830381600087803b15801561548057600080fd5b505af1158015615494573d6000803e3d6000fd5b505050506000600b60009054906101000a900473ffffffffffffffffffffffffffffffffffffffff1673ffffffffffffffffffffffffffffffffffffffff166370a08231856040518263ffffffff1660e01b81526004016154f591906165b3565b602060405180830381865afa158015615512573d6000803e3d6000fd5b505050506040513d601f19601f8201168201806040525081019061553691906177a3565b905082826155449190616dc6565b8114615585576040517f08c379a000000000000000000000000000000000000000000000000000000000815260040161557c906185ca565b60405180910390fd5b50505050565b6000600281111561559f5761559e6166c1565b5b8160020160009054906101000a900460ff1660028111156155c3576155c26166c1565b5b1461560557816040517fb3fe19c50000000000000000000000000000000000000000000000000000000081526004016155fc91906165dd565b60405180910390fd5b5050565b60008260020160009054906101000a900460ff169050818360020160006101000a81548160ff02191690836002811115615646576156456166c1565b5b02179055507f5b58e487123ee87389d1f6f52c3da619b1a1f2d349e5e3be50c6d08c29eea8438360020160009054906101000a900460ff168260405161568d9291906185ea565b60405180910390a1505050565b6156a2613a4f565b6156e1576040517f08c379a00000000000000000000000000000000000000000000000000000000081526004016156d890616d77565b60405180910390fd5b6000600660149054906101000a900460ff16905081600660146101000a81548160ff0219169083600281111561571a576157196166c1565b5b02179055507f5f7190d4b692f775b7a269b78d81c502863f0e560f02f61be875619f3c16fe09600660149054906101000a900460ff168260405161575f929190618613565b60405180910390a15050565b6000600f81905550565b615780816002615609565b615788614007565b50565b600081600101549050919050565b60008082815481106157ae576157ad616e23565b5b9060005260206000209060040201905060008160020160059054906101000a900460030b60030b90506157e081615da9565b156158245780836040517fa1b07eef00000000000000000000000000000000000000000000000000000000815260040161581b92919061863c565b60405180910390fd5b505050565b6000600a60009054906101000a900473ffffffffffffffffffffffffffffffffffffffff16905090565b6000601154905090565b600080828154811061587257615871616e23565b5b90600052602060002090600402016003015490506000615890615829565b73ffffffffffffffffffffffffffffffffffffffff16630bf6cc086040518163ffffffff1660e01b8152600401602060405180830381865afa1580156158da573d6000803e3d6000fd5b505050506040513d601f19601f820116820180604052508101906158fe91906177a3565b905081811015615943576040517f08c379a000000000000000000000000000000000000000000000000000000000815260040161593a906186b1565b60405180910390fd5b505050565b600081600301549050600061595c82615e1f565b9050615966615829565b73ffffffffffffffffffffffffffffffffffffffff1663893d20e86040518163ffffffff1660e01b8152600401602060405180830381865afa1580156159b0573d6000803e3d6000fd5b505050506040513d601f19601f820116820180604052508101906159d4919061758b565b73ffffffffffffffffffffffffffffffffffffffff163073ffffffffffffffffffffffffffffffffffffffff1614615a41576040517f08c379a0000000000000000000000000000000000000000000000000000000008152600401615a389061871d565b60405180910390fd5b615a4b8282615e48565b505050565b615a5a600161569a565b615a6261576b565b600060085414615aa7576040517f08c379a0000000000000000000000000000000000000000000000000000000008152600401615a9e90617ff0565b60405180910390fd5b426008819055503073ffffffffffffffffffffffffffffffffffffffff167fbe080b86e27fda1ca5d795282fde3e7ffc0a9a85f3a4060794daedb7f1a4e25642604051615af491906165dd565b60405180910390a2615b04615f65565b565b6201518081615b159190616dc6565b8263ffffffff161080615b3c57506301e1338081615b339190616dc6565b8263ffffffff16115b15615b82578282826040517f4753f595000000000000000000000000000000000000000000000000000000008152600401615b799392919061873d565b60405180910390fd5b505050565b60008073ffffffffffffffffffffffffffffffffffffffff16826000015173ffffffffffffffffffffffffffffffffffffffff16141580615bcc575060008260400151115b80615be157506000826020015163ffffffff16115b905080615c2557826040517f51dd5cf2000000000000000000000000000000000000000000000000000000008152600401615c1c91906165dd565b60405180910390fd5b60008073ffffffffffffffffffffffffffffffffffffffff16836000015173ffffffffffffffffffffffffffffffffffffffff161480615c7f575060008360400151148015615c7e57506000836020015163ffffffff16145b5b905060008084604001511480615cdb5750600073ffffffffffffffffffffffffffffffffffffffff16846000015173ffffffffffffffffffffffffffffffffffffffff16148015615cda57506000846020015163ffffffff16145b5b9050600080856020015163ffffffff161480615d375750600073ffffffffffffffffffffffffffffffffffffffff16856000015173ffffffffffffffffffffffffffffffffffffffff16148015615d36575060008560400151145b5b9050821580615d44575081155b80615d4d575080155b15615da157858560000151866040015187602001516040517f7ee0dc50000000000000000000000000000000000000000000000000000000008152600401615d9894939291906187a5565b60405180910390fd5b505050505050565b600080821215615dbc5760009050615e1a565b60016002811115615dd057615dcf6166c1565b5b60008381548110615de457615de3616e23565b5b906000526020600020906004020160020160009054906101000a900460ff166002811115615e1557615e146166c1565b5b141590505b919050565b60006103e8615e2c616015565b83615e379190617a7e565b615e419190617b07565b9050919050565b6000615e5261601f565b9050615e5c615829565b73ffffffffffffffffffffffffffffffffffffffff166360f8f11f8484615e8161601f565b6040518463ffffffff1660e01b8152600401615e9f939291906187ea565b600060405180830381600087803b158015615eb957600080fd5b505af1158015615ecd573d6000803e3d6000fd5b505050508073ffffffffffffffffffffffffffffffffffffffff16630598c68b600260009054906101000a900473ffffffffffffffffffffffffffffffffffffffff16846040518363ffffffff1660e01b8152600401615f2e9291906173d2565b600060405180830381600087803b158015615f4857600080fd5b505af1158015615f5c573d6000803e3d6000fd5b50505050505050565b6000600a60009054906101000a900473ffffffffffffffffffffffffffffffffffffffff1673ffffffffffffffffffffffffffffffffffffffff16630bf6cc086040518163ffffffff1660e01b8152600401602060405180830381865afa158015615fd4573d6000803e3d6000fd5b505050506040513d601f19601f82011682018060405250810190615ff891906177a3565b9050600061600582615e1f565b90506160118282615e48565b5050565b6000600e54905090565b6000600560009054906101000a900473ffffffffffffffffffffffffffffffffffffffff16905090565b508054600082559060005260206000209081019061606791906160b2565b50565b508054600082556002029060005260206000209081019061608b91906160cf565b50565b50805460008255600402906000526020600020908101906160af9190616105565b50565b5b808211156160cb5760008160009055506001016160b3565b5090565b5b8082111561610157600080820160006101000a81549063ffffffff02191690556001820160009055506002016160d0565b5090565b5b808211156161af576000808201600080820160006101000a81549073ffffffffffffffffffffffffffffffffffffffff02191690556000820160146101000a81549063ffffffff0219169055600182016000905550506002820160006101000a81549060ff02191690556002820160016101000a81549063ffffffff02191690556002820160056101000a81549063ffffffff0219169055600382016000905550600401616106565b5090565b6000604051905090565b600080fd5b600080fd5b600080fd5b6000601f19601f8301169050919050565b7f4e487b7100000000000000000000000000000000000000000000000000000000600052604160045260246000fd5b616215826161cc565b810181811067ffffffffffffffff82111715616234576162336161dd565b5b80604052505050565b60006162476161b3565b9050616253828261620c565b919050565b600067ffffffffffffffff821115616273576162726161dd565b5b602082029050602081019050919050565b600080fd5b600080fd5b600080fd5b600073ffffffffffffffffffffffffffffffffffffffff82169050919050565b60006162be82616293565b9050919050565b6162ce816162b3565b81146162d957600080fd5b50565b6000813590506162eb816162c5565b92915050565b600063ffffffff82169050919050565b61630a816162f1565b811461631557600080fd5b50565b60008135905061632781616301565b92915050565b6000819050919050565b6163408161632d565b811461634b57600080fd5b50565b60008135905061635d81616337565b92915050565b60006060828403121561637957616378616289565b5b616383606061623d565b90506000616393848285016162dc565b60008301525060206163a784828501616318565b60208301525060406163bb8482850161634e565b60408301525092915050565b600381106163d457600080fd5b50565b6000813590506163e6816163c7565b92915050565b60008160030b9050919050565b616402816163ec565b811461640d57600080fd5b50565b60008135905061641f816163f9565b92915050565b600060e0828403121561643b5761643a616289565b5b61644560a061623d565b9050600061645584828501616363565b6000830152506060616469848285016163d7565b602083015250608061647d84828501616318565b60408301525060a061649184828501616410565b60608301525060c06164a58482850161634e565b60808301525092915050565b60006164c46164bf84616258565b61623d565b90508083825260208201905060e084028301858111156164e7576164e6616284565b5b835b8181101561651057806164fc8882616425565b84526020840193505060e0810190506164e9565b5050509392505050565b600082601f83011261652f5761652e6161c7565b5b813561653f8482602086016164b1565b91505092915050565b6000806040838503121561655f5761655e6161bd565b5b600083013567ffffffffffffffff81111561657d5761657c6161c2565b5b6165898582860161651a565b925050602061659a8582860161634e565b9150509250929050565b6165ad816162b3565b82525050565b60006020820190506165c860008301846165a4565b92915050565b6165d78161632d565b82525050565b60006020820190506165f260008301846165ce565b92915050565b60006020828403121561660e5761660d6161bd565b5b600061661c848285016162dc565b91505092915050565b60006020828403121561663b5761663a6161bd565b5b60006166498482850161634e565b91505092915050565b61665b816162b3565b82525050565b61666a816162f1565b82525050565b6166798161632d565b82525050565b6060820160008201516166956000850182616652565b5060208201516166a86020850182616661565b5060408201516166bb6040850182616670565b50505050565b7f4e487b7100000000000000000000000000000000000000000000000000000000600052602160045260246000fd5b60038110616701576167006166c1565b5b50565b6000819050616712826166f0565b919050565b600061672282616704565b9050919050565b61673281616717565b82525050565b616741816162f1565b82525050565b616750816163ec565b82525050565b600060e08201905061676b600083018861667f565b6167786060830187616729565b6167856080830186616738565b61679260a0830185616747565b61679f60c08301846165ce565b9695505050505050565b600080604083850312156167c0576167bf6161bd565b5b60006167ce858286016162dc565b92505060206167df8582860161634e565b9150509250929050565b60006040820190506167fe6000830185616738565b61680b60208301846165ce565b9392505050565b60008115159050919050565b61682781616812565b82525050565b6000602082019050616842600083018461681e565b92915050565b60038110616859576168586166c1565b5b50565b600081905061686a82616848565b919050565b600061687a8261685c565b9050919050565b61688a8161686f565b82525050565b60006020820190506168a56000830184616881565b92915050565b6000819050919050565b60006168d06168cb6168c684616293565b6168ab565b616293565b9050919050565b60006168e2826168b5565b9050919050565b60006168f4826168d7565b9050919050565b616904816168e9565b82525050565b600060208201905061691f60008301846168fb565b92915050565b61692e81616812565b811461693957600080fd5b50565b60008135905061694b81616925565b92915050565b600080fd5b60008083601f84011261696c5761696b6161c7565b5b8235905067ffffffffffffffff81111561698957616988616951565b5b6020830191508360018202830111156169a5576169a4616284565b5b9250929050565b600080600080606085870312156169c6576169c56161bd565b5b60006169d48782880161634e565b94505060206169e58782880161693c565b935050604085013567ffffffffffffffff811115616a0657616a056161c2565b5b616a1287828801616956565b925092505092959194509250565b6000606082019050616a35600083018661681e565b616a4260208301856165ce565b616a4f60408301846165ce565b949350505050565b6000602082019050616a6c6000830184616729565b92915050565b60008060408385031215616a8957616a886161bd565b5b6000616a978582860161634e565b9250506020616aa8858286016162dc565b9150509250929050565b6000819050919050565b616ac581616ab2565b82525050565b6000602082019050616ae06000830184616abc565b92915050565b6000616af1826162b3565b9050919050565b616b0181616ae6565b8114616b0c57600080fd5b50565b600081359050616b1e81616af8565b92915050565b6000616b2f826162b3565b9050919050565b616b3f81616b24565b8114616b4a57600080fd5b50565b600081359050616b5c81616b36565b92915050565b60006101208284031215616b7957616b78616289565b5b616b8461012061623d565b90506000616b94848285016162dc565b6000830152506020616ba884828501616b0f565b602083015250604082013567ffffffffffffffff811115616bcc57616bcb61628e565b5b616bd88482850161651a565b6040830152506060616bec84828501616b4d565b6060830152506080616c008482850161634e565b60808301525060a0616c148482850161634e565b60a08301525060c0616c288482850161634e565b60c08301525060e0616c3c8482850161634e565b60e083015250610100616c51848285016162dc565b6101008301525092915050565b600060208284031215616c7457616c736161bd565b5b600082013567ffffffffffffffff811115616c9257616c916161c2565b5b616c9e84828501616b62565b91505092915050565b6000616cb2826168d7565b9050919050565b616cc281616ca7565b82525050565b6000602082019050616cdd6000830184616cb9565b92915050565b6000606082019050616cf860008301866165a4565b616d0560208301856165a4565b616d1260408301846165a4565b949350505050565b600082825260208201905092915050565b7f6e6f206c6f6e6765722072756e6e696e67000000000000000000000000000000600082015250565b6000616d61601183616d1a565b9150616d6c82616d2b565b602082019050919050565b60006020820190508181036000830152616d9081616d54565b9050919050565b7f4e487b7100000000000000000000000000000000000000000000000000000000600052601160045260246000fd5b6000616dd18261632d565b9150616ddc8361632d565b9250828201905080821115616df457616df3616d97565b5b92915050565b6000604082019050616e0f60008301856165ce565b616e1c60208301846165ce565b9392505050565b7f4e487b7100000000000000000000000000000000000000000000000000000000600052603260045260246000fd5b6000616e5d8261632d565b91507fffffffffffffffffffffffffffffffffffffffffffffffffffffffffffffffff8203616e8f57616e8e616d97565b5b600182019050919050565b7f6f6e6c7949665465616d57616c6c65743a2063616c6c6572206973206e6f742060008201527f746865206f776e65720000000000000000000000000000000000000000000000602082015250565b6000616ef6602983616d1a565b9150616f0182616e9a565b604082019050919050565b60006020820190508181036000830152616f2581616ee9565b9050919050565b6000616f37826162f1565b9150616f42836162f1565b9250828203905063ffffffff811115616f5e57616f5d616d97565b5b92915050565b6000616f6f826162f1565b9150616f7a836162f1565b9250828201905063ffffffff811115616f9657616f95616d97565b5b92915050565b7f6f6e6c794f776e65724f724e756c6c0000000000000000000000000000000000600082015250565b6000616fd2600f83616d1a565b9150616fdd82616f9c565b602082019050919050565b6000602082019050818103600083015261700181616fc5565b9050919050565b7f6e6577206f776e65722063616e6e6f74206265207a65726f0000000000000000600082015250565b600061703e601883616d1a565b915061704982617008565b602082019050919050565b6000602082019050818103600083015261706d81617031565b9050919050565b7f6e6f74206120706c656467657200000000000000000000000000000000000000600082015250565b60006170aa600d83616d1a565b91506170b582617074565b602082019050919050565b600060208201905081810360008301526170d98161709d565b9050919050565b7f5265656e7472616e637947756172643a207265656e7472616e742063616c6c00600082015250565b6000617116601f83616d1a565b9150617121826170e0565b602082019050919050565b6000602082019050818103600083015261714581617109565b9050919050565b600081549050919050565b600082825260208201905092915050565b60008190508160005260206000209050919050565b60008160001c9050919050565b600063ffffffff82169050919050565b60006171ad6171a88361717d565b61718a565b9050919050565b6000819050919050565b60006171d16171cc8361717d565b6171b4565b9050919050565b6040820160008083015490506171ed8161719a565b6171fa6000860182616661565b506001830154905061720b816171be565b6172186020860182616670565b5050505050565b600061722b83836171d8565b60408301905092915050565b6000600282019050919050565b600061724f8261714c565b6172598185617157565b935061726483617168565b8060005b83811015617294578161727b888261721f565b975061728683617237565b925050600181019050617268565b5085935050505092915050565b600060208201905081810360008301526172bb8184617244565b905092915050565b60006060820190506172d860008301866165a4565b6172e560208301856165ce565b6172f260408301846165ce565b949350505050565b7f70726f6a656374206e6f74207375636365656465640000000000000000000000600082015250565b6000617330601583616d1a565b915061733b826172fa565b602082019050919050565b6000602082019050818103600083015261735f81617323565b9050919050565b7f62616420656e6420646174650000000000000000000000000000000000000000600082015250565b600061739c600c83616d1a565b91506173a782617366565b602082019050919050565b600060208201905081810360008301526173cb8161738f565b9050919050565b60006040820190506173e760008301856165a4565b6173f460208301846165ce565b9392505050565b600060608201905061741060008301866165ce565b61741d60208301856165a4565b61742a60408301846165a4565b949350505050565b7f73696e676c65206d696c6573746f6e6520617070726f76656400000000000000600082015250565b6000617468601983616d1a565b915061747382617432565b602082019050919050565b600060208201905081810360008301526174978161745b565b9050919050565b7f6e6f7420706c6174666f726d0000000000000000000000000000000000000000600082015250565b60006174d4600c83616d1a565b91506174df8261749e565b602082019050919050565b60006020820190508181036000830152617503816174c7565b9050919050565b7f70726f6a656374206e6f7420636f6d706c657465640000000000000000000000600082015250565b6000617540601583616d1a565b915061754b8261750a565b602082019050919050565b6000602082019050818103600083015261756f81617533565b9050919050565b600081519050617585816162c5565b92915050565b6000602082840312156175a1576175a06161bd565b5b60006175af84828501617576565b91505092915050565b7f6d7573742062652070726f6a6563740000000000000000000000000000000000600082015250565b60006175ee600f83616d1a565b91506175f9826175b8565b602082019050919050565b6000602082019050818103600083015261761d816175e1565b9050919050565b7f63616c6c6572206973206e6f74206f776e657200000000000000000000000000600082015250565b600061765a601383616d1a565b915061766582617624565b602082019050919050565b600060208201905081810360008301526176898161764d565b9050919050565b7f73696e676c65206d696c6573746f6e65206174206d6f73740000000000000000600082015250565b60006176c6601883616d1a565b91506176d182617690565b602082019050919050565b600060208201905081810360008301526176f5816176b9565b9050919050565b7f706c65646765206d75737420657863656564206d696e20746f6b656e20636f7560008201527f6e74000000000000000000000000000000000000000000000000000000000000602082015250565b6000617758602283616d1a565b9150617763826176fc565b604082019050919050565b600060208201905081810360008301526177878161774b565b9050919050565b60008151905061779d81616337565b92915050565b6000602082840312156177b9576177b86161bd565b5b60006177c78482850161778e565b91505092915050565b7f706c65646765722068617320696e73756666696369656e7420746f6b656e206260008201527f616c616e63650000000000000000000000000000000000000000000000000000602082015250565b600061782c602683616d1a565b9150617837826177d0565b604082019050919050565b6000602082019050818103600083015261785b8161781f565b9050919050565b7f6d6f6469666965723a20696e73756666696369656e7420616c6c6f77616e6365600082015250565b6000617898602083616d1a565b91506178a382617862565b602082019050919050565b600060208201905081810360008301526178c78161788b565b9050919050565b7f626164207061796d656e7420746f6b656e000000000000000000000000000000600082015250565b6000617904601183616d1a565b915061790f826178ce565b602082019050919050565b60006020820190508181036000830152617933816178f7565b9050919050565b7f70726f6a6563742072756e6e696e670000000000000000000000000000000000600082015250565b6000617970600f83616d1a565b915061797b8261793a565b602082019050919050565b6000602082019050818103600083015261799f81617963565b9050919050565b7f6f6e4661696c757265526566756e64506172616d73206e6f7420736574000000600082015250565b60006179dc601d83616d1a565b91506179e7826179a6565b602082019050919050565b60006020820190508181036000830152617a0b816179cf565b9050919050565b7f6e6f20726566756e647300000000000000000000000000000000000000000000600082015250565b6000617a48600a83616d1a565b9150617a5382617a12565b602082019050919050565b60006020820190508181036000830152617a7781617a3b565b9050919050565b6000617a898261632d565b9150617a948361632d565b9250817fffffffffffffffffffffffffffffffffffffffffffffffffffffffffffffffff0483118215151615617acd57617acc616d97565b5b828202905092915050565b7f4e487b7100000000000000000000000000000000000000000000000000000000600052601260045260246000fd5b6000617b128261632d565b9150617b1d8361632d565b925082617b2d57617b2c617ad8565b5b828204905092915050565b7f6d696c6573746f6e65206e6f74206f6e636861696e0000000000000000000000600082015250565b6000617b6e601583616d1a565b9150617b7982617b38565b602082019050919050565b60006020820190508181036000830152617b9d81617b61565b9050919050565b7f63616e206f6e6c7920626520696e697469616c697a6564206f6e636500000000600082015250565b6000617bda601c83616d1a565b9150617be582617ba4565b602082019050919050565b60006020820190508181036000830152617c0981617bcd565b9050919050565b7f6d697373696e67207061796d656e7420746f6b656e0000000000000000000000600082015250565b6000617c46601583616d1a565b9150617c5182617c10565b602082019050919050565b60006020820190508181036000830152617c7581617c39565b9050919050565b7f6e756d506c656467657273536f666172203d3d20300000000000000000000000600082015250565b6000617cb2601583616d1a565b9150617cbd82617c7c565b602082019050919050565b60006020820190508181036000830152617ce181617ca5565b9050919050565b7f746f74616c4e756d506c656467654576656e7473203d3d203000000000000000600082015250565b6000617d1e601983616d1a565b9150617d2982617ce8565b602082019050919050565b60006020820190508181036000830152617d4d81617d11565b9050919050565b7f53616665436173743a2076616c756520646f65736e27742066697420696e203360008201527f3220626974730000000000000000000000000000000000000000000000000000602082015250565b6000617db0602683616d1a565b9150617dbb82617d54565b604082019050919050565b60006020820190508181036000830152617ddf81617da3565b9050919050565b7f6e6f7420616e2061637469766520706c65646765720000000000000000000000600082015250565b6000617e1c601583616d1a565b9150617e2782617de6565b602082019050919050565b60006020820190508181036000830152617e4b81617e0f565b9050919050565b6000617e5d8261632d565b9150617e688361632d565b9250828203905081811115617e8057617e7f616d97565b5b92915050565b6000617e918261632d565b915060008203617ea457617ea3616d97565b5b600182039050919050565b60028110617ec057617ebf6166c1565b5b50565b6000819050617ed182617eaf565b919050565b6000617ee182617ec3565b9050919050565b617ef181617ed6565b82525050565b6000602082019050617f0c6000830184617ee8565b92915050565b7f6f6e4661696c757265526566756e64506172616d7320616c726561647920736560008201527f7400000000000000000000000000000000000000000000000000000000000000602082015250565b6000617f6e602183616d1a565b9150617f7982617f12565b604082019050919050565b60006020820190508181036000830152617f9d81617f61565b9050919050565b7f656e642074696d6520616c726561647920736574000000000000000000000000600082015250565b6000617fda601483616d1a565b9150617fe582617fa4565b602082019050919050565b6000602082019050818103600083015261800981617fcd565b9050919050565b7f6e6f74206d696c6573746f6e6520617070726f76657200000000000000000000600082015250565b6000618046601683616d1a565b915061805182618010565b602082019050919050565b6000602082019050818103600083015261807581618039565b9050919050565b82818337600083830152505050565b60006180978385616d1a565b93506180a483858461807c565b6180ad836161cc565b840190509392505050565b60006040820190506180cd60008301866165ce565b81810360208301526180e081848661808b565b9050949350505050565b7f5061757361626c653a2070617573656400000000000000000000000000000000600082015250565b6000618120601083616d1a565b915061812b826180ea565b602082019050919050565b6000602082019050818103600083015261814f81618113565b9050919050565b600060408201905061816b60008301856165a4565b61817860208301846165a4565b9392505050565b7f696e73756666696369656e7420746f6b656e20616c6c6f77616e636500000000600082015250565b60006181b5601c83616d1a565b91506181c08261817f565b602082019050919050565b600060208201905081810360008301526181e4816181a8565b9050919050565b600060608201905061820060008301866165a4565b61820d60208301856165a4565b61821a60408301846165ce565b949350505050565b60008151905061823181616925565b92915050565b60006020828403121561824d5761824c6161bd565b5b600061825b84828501618222565b91505092915050565b7f4661696c656420746f207472616e73666572207061796d656e7420746f6b656e60008201527f7320746f207661756c7400000000000000000000000000000000000000000000602082015250565b60006182c0602a83616d1a565b91506182cb82618264565b604082019050919050565b600060208201905081810360008301526182ef816182b3565b9050919050565b7f6e6f74206f6e2d636861696e0000000000000000000000000000000000000000600082015250565b600061832c600c83616d1a565b9150618337826182f6565b602082019050919050565b6000602082019050818103600083015261835b8161831f565b9050919050565b7f6e756d2d706c656467657273206e6f7420736572000000000000000000000000600082015250565b6000618398601483616d1a565b91506183a382618362565b602082019050919050565b600060208201905081810360008301526183c78161838b565b9050919050565b7f6e6f7420656e6f756768206d696c6573746f6e65730000000000000000000000600082015250565b6000618404601583616d1a565b915061840f826183ce565b602082019050919050565b60006020820190508181036000830152618433816183f7565b9050919050565b7f746f6f206d616e79206d696c6573746f6e657300000000000000000000000000600082015250565b6000618470601383616d1a565b915061847b8261843a565b602082019050919050565b6000602082019050818103600083015261849f81618463565b9050919050565b7f626164206e756d416374697665506c6564676572730000000000000000000000600082015250565b60006184dc601583616d1a565b91506184e7826184a6565b602082019050919050565b6000602082019050818103600083015261850b816184cf565b9050919050565b7f6d757374206265206f776e65642062792070726f6a6563740000000000000000600082015250565b6000618548601883616d1a565b915061855382618512565b602082019050919050565b600060208201905081810360008301526185778161853b565b9050919050565b7f6d696e74696e67206661696c6564000000000000000000000000000000000000600082015250565b60006185b4600e83616d1a565b91506185bf8261857e565b602082019050919050565b600060208201905081810360008301526185e3816185a7565b9050919050565b60006040820190506185ff6000830185616729565b61860c6020830184616729565b9392505050565b60006040820190506186286000830185616881565b6186356020830184616881565b9392505050565b60006040820190506186516000830185616abc565b61865e60208301846165ce565b9392505050565b7f6e6f7420656e6f7567682066756e647320696e207661756c7400000000000000600082015250565b600061869b601983616d1a565b91506186a682618665565b602082019050919050565b600060208201905081810360008301526186ca8161868e565b9050919050565b7f70726f6a20636f6e7472616374206d757374206f776e207661756c7400000000600082015250565b6000618707601c83616d1a565b9150618712826186d1565b602082019050919050565b60006020820190508181036000830152618736816186fa565b9050919050565b600060608201905061875260008301866165ce565b61875f6020830185616738565b61876c60408301846165ce565b949350505050565b600061878f61878a618785846162f1565b6168ab565b61632d565b9050919050565b61879f81618774565b82525050565b60006080820190506187ba60008301876165ce565b6187c760208301866165a4565b6187d460408301856165ce565b6187e16060830184618796565b95945050505050565b60006060820190506187ff60008301866165ce565b61880c60208301856165ce565b61881960408301846165a4565b94935050505056fea2646970667358221220f5193ff5e5816fa8f2cdd1c30e63b5c5d808e2cf9695295a22ed41cf491c6f4464736f6c63430008100033",
			"opcodes": "PUSH1 0x80 PUSH1 0x40 MSTORE PUSH1 0x0 PUSH1 0x6 PUSH1 0x14 PUSH2 0x100 EXP DUP2 SLOAD DUP2 PUSH1 0xFF MUL NOT AND SWAP1 DUP4 PUSH1 0x2 DUP2 GT ISZERO PUSH3 0x2D JUMPI PUSH3 0x2C PUSH3 0x69 JUMP JUMPDEST JUMPDEST MUL OR SWAP1 SSTORE POP CALLVALUE DUP1 ISZERO PUSH3 0x3F JUMPI PUSH1 0x0 DUP1 REVERT JUMPDEST POP PUSH1 0x1 PUSH1 0x3 DUP2 SWAP1 SSTORE POP PUSH1 0x0 PUSH1 0x4 PUSH1 0x0 PUSH2 0x100 EXP DUP2 SLOAD DUP2 PUSH1 0xFF MUL NOT AND SWAP1 DUP4 ISZERO ISZERO MUL OR SWAP1 SSTORE POP PUSH3 0x98 JUMP JUMPDEST PUSH32 0x4E487B7100000000000000000000000000000000000000000000000000000000 PUSH1 0x0 MSTORE PUSH1 0x21 PUSH1 0x4 MSTORE PUSH1 0x24 PUSH1 0x0 REVERT JUMPDEST PUSH2 0x8857 DUP1 PUSH3 0xA8 PUSH1 0x0 CODECOPY PUSH1 0x0 RETURN INVALID PUSH1 0x80 PUSH1 0x40 MSTORE CALLVALUE DUP1 ISZERO PUSH2 0x10 JUMPI PUSH1 0x0 DUP1 REVERT JUMPDEST POP PUSH1 0x4 CALLDATASIZE LT PUSH2 0x3DB JUMPI PUSH1 0x0 CALLDATALOAD PUSH1 0xE0 SHR DUP1 PUSH4 0x65DBC1F6 GT PUSH2 0x20A JUMPI DUP1 PUSH4 0xAB5D258F GT PUSH2 0x125 JUMPI DUP1 PUSH4 0xDB8C3F09 GT PUSH2 0xB8 JUMPI DUP1 PUSH4 0xEA9FD872 GT PUSH2 0x87 JUMPI DUP1 PUSH4 0xEA9FD872 EQ PUSH2 0xB4E JUMPI DUP1 PUSH4 0xED12E8EF EQ PUSH2 0xB6A JUMPI DUP1 PUSH4 0xF4390F02 EQ PUSH2 0xB88 JUMPI DUP1 PUSH4 0xF4AC5458 EQ PUSH2 0xBA6 JUMPI DUP1 PUSH4 0xF9E1E161 EQ PUSH2 0xBC2 JUMPI PUSH2 0x3DB JUMP JUMPDEST DUP1 PUSH4 0xDB8C3F09 EQ PUSH2 0xAD7 JUMPI DUP1 PUSH4 0xDE34783F EQ PUSH2 0xAE1 JUMPI DUP1 PUSH4 0xDEA182C1 EQ PUSH2 0xAFF JUMPI DUP1 PUSH4 0xE537A4AD EQ PUSH2 0xB1D JUMPI PUSH2 0x3DB JUMP JUMPDEST DUP1 PUSH4 0xC89E4361 GT PUSH2 0xF4 JUMPI DUP1 PUSH4 0xC89E4361 EQ PUSH2 0xA5F JUMPI DUP1 PUSH4 0xCA5EB5E1 EQ PUSH2 0xA7D JUMPI DUP1 PUSH4 0xD766D0B5 EQ PUSH2 0xA99 JUMPI DUP1 PUSH4 0xD9A18862 EQ PUSH2 0xAB9 JUMPI PUSH2 0x3DB JUMP JUMPDEST DUP1 PUSH4 0xAB5D258F EQ PUSH2 0x9D5 JUMPI DUP1 PUSH4 0xAFB18FE7 EQ PUSH2 0xA05 JUMPI DUP1 PUSH4 0xBAD141B8 EQ PUSH2 0xA23 JUMPI DUP1 PUSH4 0xC4E82085 EQ PUSH2 0xA41 JUMPI PUSH2 0x3DB JUMP JUMPDEST DUP1 PUSH4 0x887445F4 GT PUSH2 0x19D JUMPI DUP1 PUSH4 0x94D0A60A GT PUSH2 0x16C JUMPI DUP1 PUSH4 0x94D0A60A EQ PUSH2 0x961 JUMPI DUP1 PUSH4 0x94FEBBF3 EQ PUSH2 0x97D JUMPI DUP1 PUSH4 0x96332753 EQ PUSH2 0x99B JUMPI DUP1 PUSH4 0xA72B90D4 EQ PUSH2 0x9A5 JUMPI PUSH2 0x3DB JUMP JUMPDEST DUP1 PUSH4 0x887445F4 EQ PUSH2 0x8EB JUMPI DUP1 PUSH4 0x893D20E8 EQ PUSH2 0x907 JUMPI DUP1 PUSH4 0x8DA5CB5B EQ PUSH2 0x925 JUMPI DUP1 PUSH4 0x916056C7 EQ PUSH2 0x943 JUMPI PUSH2 0x3DB JUMP JUMPDEST DUP1 PUSH4 0x77036684 GT PUSH2 0x1D9 JUMPI DUP1 PUSH4 0x77036684 EQ PUSH2 0x875 JUMPI DUP1 PUSH4 0x7CBB7B46 EQ PUSH2 0x893 JUMPI DUP1 PUSH4 0x81AC8A24 EQ PUSH2 0x8B1 JUMPI DUP1 PUSH4 0x84A1293C EQ PUSH2 0x8CD JUMPI PUSH2 0x3DB JUMP JUMPDEST DUP1 PUSH4 0x65DBC1F6 EQ PUSH2 0x7FF JUMPI DUP1 PUSH4 0x715018A6 EQ PUSH2 0x82F JUMPI DUP1 PUSH4 0x7200A0F3 EQ PUSH2 0x839 JUMPI DUP1 PUSH4 0x748807AB EQ PUSH2 0x857 JUMPI PUSH2 0x3DB JUMP JUMPDEST DUP1 PUSH4 0x2D4C8096 GT PUSH2 0x2FA JUMPI DUP1 PUSH4 0x5753C40E GT PUSH2 0x28D JUMPI DUP1 PUSH4 0x60379588 GT PUSH2 0x25C JUMPI DUP1 PUSH4 0x60379588 EQ PUSH2 0x777 JUMPI DUP1 PUSH4 0x6050018E EQ PUSH2 0x7A7 JUMPI DUP1 PUSH4 0x62843C94 EQ PUSH2 0x7D7 JUMPI DUP1 PUSH4 0x65CACAA4 EQ PUSH2 0x7E1 JUMPI PUSH2 0x3DB JUMP JUMPDEST DUP1 PUSH4 0x5753C40E EQ PUSH2 0x6EF JUMPI DUP1 PUSH4 0x5914B3D3 EQ PUSH2 0x70B JUMPI DUP1 PUSH4 0x5BEDCC65 EQ PUSH2 0x73B JUMPI DUP1 PUSH4 0x5C975ABB EQ PUSH2 0x759 JUMPI PUSH2 0x3DB JUMP JUMPDEST DUP1 PUSH4 0x4B60CE77 GT PUSH2 0x2C9 JUMPI DUP1 PUSH4 0x4B60CE77 EQ PUSH2 0x68B JUMPI DUP1 PUSH4 0x4B87D195 EQ PUSH2 0x6A9 JUMPI DUP1 PUSH4 0x4BC8D0DB EQ PUSH2 0x6B3 JUMPI DUP1 PUSH4 0x4F1351A4 EQ PUSH2 0x6CF JUMPI PUSH2 0x3DB JUMP JUMPDEST DUP1 PUSH4 0x2D4C8096 EQ PUSH2 0x615 JUMPI DUP1 PUSH4 0x31E63E39 EQ PUSH2 0x633 JUMPI DUP1 PUSH4 0x380C2EEB EQ PUSH2 0x663 JUMPI DUP1 PUSH4 0x49958611 EQ PUSH2 0x66D JUMPI PUSH2 0x3DB JUMP JUMPDEST DUP1 PUSH4 0x1782EBA9 GT PUSH2 0x372 JUMPI DUP1 PUSH4 0x265D1D58 GT PUSH2 0x341 JUMPI DUP1 PUSH4 0x265D1D58 EQ PUSH2 0x58D JUMPI DUP1 PUSH4 0x2ADA4F76 EQ PUSH2 0x5AB JUMPI DUP1 PUSH4 0x2AECC4DA EQ PUSH2 0x5DB JUMPI DUP1 PUSH4 0x2AF4C31E EQ PUSH2 0x5F9 JUMPI PUSH2 0x3DB JUMP JUMPDEST DUP1 PUSH4 0x1782EBA9 EQ PUSH2 0x4DC JUMPI DUP1 PUSH4 0x1A6615B9 EQ PUSH2 0x510 JUMPI DUP1 PUSH4 0x1F5D3FE3 EQ PUSH2 0x541 JUMPI DUP1 PUSH4 0x218CDF2E EQ PUSH2 0x55D JUMPI PUSH2 0x3DB JUMP JUMPDEST DUP1 PUSH4 0x1217308B GT PUSH2 0x3AE JUMPI DUP1 PUSH4 0x1217308B EQ PUSH2 0x468 JUMPI DUP1 PUSH4 0x1286BA4D EQ PUSH2 0x486 JUMPI DUP1 PUSH4 0x1525FF7D EQ PUSH2 0x4A2 JUMPI DUP1 PUSH4 0x15643554 EQ PUSH2 0x4BE JUMPI PUSH2 0x3DB JUMP JUMPDEST DUP1 PUSH4 0x450C6E2 EQ PUSH2 0x3E0 JUMPI DUP1 PUSH4 0x759A354 EQ PUSH2 0x3FC JUMPI DUP1 PUSH4 0xC2A0BDA EQ PUSH2 0x41A JUMPI DUP1 PUSH4 0x1143F400 EQ PUSH2 0x438 JUMPI JUMPDEST PUSH1 0x0 DUP1 REVERT JUMPDEST PUSH2 0x3FA PUSH1 0x4 DUP1 CALLDATASIZE SUB DUP2 ADD SWAP1 PUSH2 0x3F5 SWAP2 SWAP1 PUSH2 0x6548 JUMP JUMPDEST PUSH2 0xBE0 JUMP JUMPDEST STOP JUMPDEST PUSH2 0x404 PUSH2 0xDBA JUMP JUMPDEST PUSH1 0x40 MLOAD PUSH2 0x411 SWAP2 SWAP1 PUSH2 0x65B3 JUMP JUMPDEST PUSH1 0x40 MLOAD DUP1 SWAP2 SUB SWAP1 RETURN JUMPDEST PUSH2 0x422 PUSH2 0xDC9 JUMP JUMPDEST PUSH1 0x40 MLOAD PUSH2 0x42F SWAP2 SWAP1 PUSH2 0x65DD JUMP JUMPDEST PUSH1 0x40 MLOAD DUP1 SWAP2 SUB SWAP1 RETURN JUMPDEST PUSH2 0x452 PUSH1 0x4 DUP1 CALLDATASIZE SUB DUP2 ADD SWAP1 PUSH2 0x44D SWAP2 SWAP1 PUSH2 0x65F8 JUMP JUMPDEST PUSH2 0xDCE JUMP JUMPDEST PUSH1 0x40 MLOAD PUSH2 0x45F SWAP2 SWAP1 PUSH2 0x65DD JUMP JUMPDEST PUSH1 0x40 MLOAD DUP1 SWAP2 SUB SWAP1 RETURN JUMPDEST PUSH2 0x470 PUSH2 0xE77 JUMP JUMPDEST PUSH1 0x40 MLOAD PUSH2 0x47D SWAP2 SWAP1 PUSH2 0x65DD JUMP JUMPDEST PUSH1 0x40 MLOAD DUP1 SWAP2 SUB SWAP1 RETURN JUMPDEST PUSH2 0x4A0 PUSH1 0x4 DUP1 CALLDATASIZE SUB DUP2 ADD SWAP1 PUSH2 0x49B SWAP2 SWAP1 PUSH2 0x6625 JUMP JUMPDEST PUSH2 0xE84 JUMP JUMPDEST STOP JUMPDEST PUSH2 0x4BC PUSH1 0x4 DUP1 CALLDATASIZE SUB DUP2 ADD SWAP1 PUSH2 0x4B7 SWAP2 SWAP1 PUSH2 0x65F8 JUMP JUMPDEST PUSH2 0xFA8 JUMP JUMPDEST STOP JUMPDEST PUSH2 0x4C6 PUSH2 0x108B JUMP JUMPDEST PUSH1 0x40 MLOAD PUSH2 0x4D3 SWAP2 SWAP1 PUSH2 0x65DD JUMP JUMPDEST PUSH1 0x40 MLOAD DUP1 SWAP2 SUB SWAP1 RETURN JUMPDEST PUSH2 0x4F6 PUSH1 0x4 DUP1 CALLDATASIZE SUB DUP2 ADD SWAP1 PUSH2 0x4F1 SWAP2 SWAP1 PUSH2 0x6625 JUMP JUMPDEST PUSH2 0x1091 JUMP JUMPDEST PUSH1 0x40 MLOAD PUSH2 0x507 SWAP6 SWAP5 SWAP4 SWAP3 SWAP2 SWAP1 PUSH2 0x6756 JUMP JUMPDEST PUSH1 0x40 MLOAD DUP1 SWAP2 SUB SWAP1 RETURN JUMPDEST PUSH2 0x52A PUSH1 0x4 DUP1 CALLDATASIZE SUB DUP2 ADD SWAP1 PUSH2 0x525 SWAP2 SWAP1 PUSH2 0x67A9 JUMP JUMPDEST PUSH2 0x1191 JUMP JUMPDEST PUSH1 0x40 MLOAD PUSH2 0x538 SWAP3 SWAP2 SWAP1 PUSH2 0x67E9 JUMP JUMPDEST PUSH1 0x40 MLOAD DUP1 SWAP2 SUB SWAP1 RETURN JUMPDEST PUSH2 0x55B PUSH1 0x4 DUP1 CALLDATASIZE SUB DUP2 ADD SWAP1 PUSH2 0x556 SWAP2 SWAP1 PUSH2 0x6625 JUMP JUMPDEST PUSH2 0x121D JUMP JUMPDEST STOP JUMPDEST PUSH2 0x577 PUSH1 0x4 DUP1 CALLDATASIZE SUB DUP2 ADD SWAP1 PUSH2 0x572 SWAP2 SWAP1 PUSH2 0x6625 JUMP JUMPDEST PUSH2 0x1284 JUMP JUMPDEST PUSH1 0x40 MLOAD PUSH2 0x584 SWAP2 SWAP1 PUSH2 0x65DD JUMP JUMPDEST PUSH1 0x40 MLOAD DUP1 SWAP2 SUB SWAP1 RETURN JUMPDEST PUSH2 0x595 PUSH2 0x12C8 JUMP JUMPDEST PUSH1 0x40 MLOAD PUSH2 0x5A2 SWAP2 SWAP1 PUSH2 0x65DD JUMP JUMPDEST PUSH1 0x40 MLOAD DUP1 SWAP2 SUB SWAP1 RETURN JUMPDEST PUSH2 0x5C5 PUSH1 0x4 DUP1 CALLDATASIZE SUB DUP2 ADD SWAP1 PUSH2 0x5C0 SWAP2 SWAP1 PUSH2 0x6625 JUMP JUMPDEST PUSH2 0x12CE JUMP JUMPDEST PUSH1 0x40 MLOAD PUSH2 0x5D2 SWAP2 SWAP1 PUSH2 0x682D JUMP JUMPDEST PUSH1 0x40 MLOAD DUP1 SWAP2 SUB SWAP1 RETURN JUMPDEST PUSH2 0x5E3 PUSH2 0x1321 JUMP JUMPDEST PUSH1 0x40 MLOAD PUSH2 0x5F0 SWAP2 SWAP1 PUSH2 0x65DD JUMP JUMPDEST PUSH1 0x40 MLOAD DUP1 SWAP2 SUB SWAP1 RETURN JUMPDEST PUSH2 0x613 PUSH1 0x4 DUP1 CALLDATASIZE SUB DUP2 ADD SWAP1 PUSH2 0x60E SWAP2 SWAP1 PUSH2 0x65F8 JUMP JUMPDEST PUSH2 0x1327 JUMP JUMPDEST STOP JUMPDEST PUSH2 0x61D PUSH2 0x1567 JUMP JUMPDEST PUSH1 0x40 MLOAD PUSH2 0x62A SWAP2 SWAP1 PUSH2 0x65B3 JUMP JUMPDEST PUSH1 0x40 MLOAD DUP1 SWAP2 SUB SWAP1 RETURN JUMPDEST PUSH2 0x64D PUSH1 0x4 DUP1 CALLDATASIZE SUB DUP2 ADD SWAP1 PUSH2 0x648 SWAP2 SWAP1 PUSH2 0x65F8 JUMP JUMPDEST PUSH2 0x158D JUMP JUMPDEST PUSH1 0x40 MLOAD PUSH2 0x65A SWAP2 SWAP1 PUSH2 0x65DD JUMP JUMPDEST PUSH1 0x40 MLOAD DUP1 SWAP2 SUB SWAP1 RETURN JUMPDEST PUSH2 0x66B PUSH2 0x15D9 JUMP JUMPDEST STOP JUMPDEST PUSH2 0x675 PUSH2 0x18AA JUMP JUMPDEST PUSH1 0x40 MLOAD PUSH2 0x682 SWAP2 SWAP1 PUSH2 0x6890 JUMP JUMPDEST PUSH1 0x40 MLOAD DUP1 SWAP2 SUB SWAP1 RETURN JUMPDEST PUSH2 0x693 PUSH2 0x18C1 JUMP JUMPDEST PUSH1 0x40 MLOAD PUSH2 0x6A0 SWAP2 SWAP1 PUSH2 0x690A JUMP JUMPDEST PUSH1 0x40 MLOAD DUP1 SWAP2 SUB SWAP1 RETURN JUMPDEST PUSH2 0x6B1 PUSH2 0x18E7 JUMP JUMPDEST STOP JUMPDEST PUSH2 0x6CD PUSH1 0x4 DUP1 CALLDATASIZE SUB DUP2 ADD SWAP1 PUSH2 0x6C8 SWAP2 SWAP1 PUSH2 0x69AC JUMP JUMPDEST PUSH2 0x1A8A JUMP JUMPDEST STOP JUMPDEST PUSH2 0x6D7 PUSH2 0x1D02 JUMP JUMPDEST PUSH1 0x40 MLOAD PUSH2 0x6E6 SWAP4 SWAP3 SWAP2 SWAP1 PUSH2 0x6A20 JUMP JUMPDEST PUSH1 0x40 MLOAD DUP1 SWAP2 SUB SWAP1 RETURN JUMPDEST PUSH2 0x709 PUSH1 0x4 DUP1 CALLDATASIZE SUB DUP2 ADD SWAP1 PUSH2 0x704 SWAP2 SWAP1 PUSH2 0x67A9 JUMP JUMPDEST PUSH2 0x1D27 JUMP JUMPDEST STOP JUMPDEST PUSH2 0x725 PUSH1 0x4 DUP1 CALLDATASIZE SUB DUP2 ADD SWAP1 PUSH2 0x720 SWAP2 SWAP1 PUSH2 0x65F8 JUMP JUMPDEST PUSH2 0x1E4A JUMP JUMPDEST PUSH1 0x40 MLOAD PUSH2 0x732 SWAP2 SWAP1 PUSH2 0x65DD JUMP JUMPDEST PUSH1 0x40 MLOAD DUP1 SWAP2 SUB SWAP1 RETURN JUMPDEST PUSH2 0x743 PUSH2 0x1E5C JUMP JUMPDEST PUSH1 0x40 MLOAD PUSH2 0x750 SWAP2 SWAP1 PUSH2 0x682D JUMP JUMPDEST PUSH1 0x40 MLOAD DUP1 SWAP2 SUB SWAP1 RETURN JUMPDEST PUSH2 0x761 PUSH2 0x1E6F JUMP JUMPDEST PUSH1 0x40 MLOAD PUSH2 0x76E SWAP2 SWAP1 PUSH2 0x682D JUMP JUMPDEST PUSH1 0x40 MLOAD DUP1 SWAP2 SUB SWAP1 RETURN JUMPDEST PUSH2 0x791 PUSH1 0x4 DUP1 CALLDATASIZE SUB DUP2 ADD SWAP1 PUSH2 0x78C SWAP2 SWAP1 PUSH2 0x65F8 JUMP JUMPDEST PUSH2 0x1E86 JUMP JUMPDEST PUSH1 0x40 MLOAD PUSH2 0x79E SWAP2 SWAP1 PUSH2 0x682D JUMP JUMPDEST PUSH1 0x40 MLOAD DUP1 SWAP2 SUB SWAP1 RETURN JUMPDEST PUSH2 0x7C1 PUSH1 0x4 DUP1 CALLDATASIZE SUB DUP2 ADD SWAP1 PUSH2 0x7BC SWAP2 SWAP1 PUSH2 0x6625 JUMP JUMPDEST PUSH2 0x1ED4 JUMP JUMPDEST PUSH1 0x40 MLOAD PUSH2 0x7CE SWAP2 SWAP1 PUSH2 0x65DD JUMP JUMPDEST PUSH1 0x40 MLOAD DUP1 SWAP2 SUB SWAP1 RETURN JUMPDEST PUSH2 0x7DF PUSH2 0x1F02 JUMP JUMPDEST STOP JUMPDEST PUSH2 0x7E9 PUSH2 0x2247 JUMP JUMPDEST PUSH1 0x40 MLOAD PUSH2 0x7F6 SWAP2 SWAP1 PUSH2 0x65B3 JUMP JUMPDEST PUSH1 0x40 MLOAD DUP1 SWAP2 SUB SWAP1 RETURN JUMPDEST PUSH2 0x819 PUSH1 0x4 DUP1 CALLDATASIZE SUB DUP2 ADD SWAP1 PUSH2 0x814 SWAP2 SWAP1 PUSH2 0x6625 JUMP JUMPDEST PUSH2 0x2271 JUMP JUMPDEST PUSH1 0x40 MLOAD PUSH2 0x826 SWAP2 SWAP1 PUSH2 0x6A57 JUMP JUMPDEST PUSH1 0x40 MLOAD DUP1 SWAP2 SUB SWAP1 RETURN JUMPDEST PUSH2 0x837 PUSH2 0x22AC JUMP JUMPDEST STOP JUMPDEST PUSH2 0x841 PUSH2 0x23EB JUMP JUMPDEST PUSH1 0x40 MLOAD PUSH2 0x84E SWAP2 SWAP1 PUSH2 0x65DD JUMP JUMPDEST PUSH1 0x40 MLOAD DUP1 SWAP2 SUB SWAP1 RETURN JUMPDEST PUSH2 0x85F PUSH2 0x23F7 JUMP JUMPDEST PUSH1 0x40 MLOAD PUSH2 0x86C SWAP2 SWAP1 PUSH2 0x6890 JUMP JUMPDEST PUSH1 0x40 MLOAD DUP1 SWAP2 SUB SWAP1 RETURN JUMPDEST PUSH2 0x87D PUSH2 0x240A JUMP JUMPDEST PUSH1 0x40 MLOAD PUSH2 0x88A SWAP2 SWAP1 PUSH2 0x65DD JUMP JUMPDEST PUSH1 0x40 MLOAD DUP1 SWAP2 SUB SWAP1 RETURN JUMPDEST PUSH2 0x89B PUSH2 0x2410 JUMP JUMPDEST PUSH1 0x40 MLOAD PUSH2 0x8A8 SWAP2 SWAP1 PUSH2 0x65B3 JUMP JUMPDEST PUSH1 0x40 MLOAD DUP1 SWAP2 SUB SWAP1 RETURN JUMPDEST PUSH2 0x8CB PUSH1 0x4 DUP1 CALLDATASIZE SUB DUP2 ADD SWAP1 PUSH2 0x8C6 SWAP2 SWAP1 PUSH2 0x6625 JUMP JUMPDEST PUSH2 0x243A JUMP JUMPDEST STOP JUMPDEST PUSH2 0x8D5 PUSH2 0x2604 JUMP JUMPDEST PUSH1 0x40 MLOAD PUSH2 0x8E2 SWAP2 SWAP1 PUSH2 0x682D JUMP JUMPDEST PUSH1 0x40 MLOAD DUP1 SWAP2 SUB SWAP1 RETURN JUMPDEST PUSH2 0x905 PUSH1 0x4 DUP1 CALLDATASIZE SUB DUP2 ADD SWAP1 PUSH2 0x900 SWAP2 SWAP1 PUSH2 0x6625 JUMP JUMPDEST PUSH2 0x2642 JUMP JUMPDEST STOP JUMPDEST PUSH2 0x90F PUSH2 0x27DA JUMP JUMPDEST PUSH1 0x40 MLOAD PUSH2 0x91C SWAP2 SWAP1 PUSH2 0x65B3 JUMP JUMPDEST PUSH1 0x40 MLOAD DUP1 SWAP2 SUB SWAP1 RETURN JUMPDEST PUSH2 0x92D PUSH2 0x27E9 JUMP JUMPDEST PUSH1 0x40 MLOAD PUSH2 0x93A SWAP2 SWAP1 PUSH2 0x65B3 JUMP JUMPDEST PUSH1 0x40 MLOAD DUP1 SWAP2 SUB SWAP1 RETURN JUMPDEST PUSH2 0x94B PUSH2 0x280F JUMP JUMPDEST PUSH1 0x40 MLOAD PUSH2 0x958 SWAP2 SWAP1 PUSH2 0x65DD JUMP JUMPDEST PUSH1 0x40 MLOAD DUP1 SWAP2 SUB SWAP1 RETURN JUMPDEST PUSH2 0x97B PUSH1 0x4 DUP1 CALLDATASIZE SUB DUP2 ADD SWAP1 PUSH2 0x976 SWAP2 SWAP1 PUSH2 0x6A72 JUMP JUMPDEST PUSH2 0x2815 JUMP JUMPDEST STOP JUMPDEST PUSH2 0x985 PUSH2 0x2B61 JUMP JUMPDEST PUSH1 0x40 MLOAD PUSH2 0x992 SWAP2 SWAP1 PUSH2 0x65DD JUMP JUMPDEST PUSH1 0x40 MLOAD DUP1 SWAP2 SUB SWAP1 RETURN JUMPDEST PUSH2 0x9A3 PUSH2 0x2B67 JUMP JUMPDEST STOP JUMPDEST PUSH2 0x9BF PUSH1 0x4 DUP1 CALLDATASIZE SUB DUP2 ADD SWAP1 PUSH2 0x9BA SWAP2 SWAP1 PUSH2 0x6625 JUMP JUMPDEST PUSH2 0x2E1C JUMP JUMPDEST PUSH1 0x40 MLOAD PUSH2 0x9CC SWAP2 SWAP1 PUSH2 0x6ACB JUMP JUMPDEST PUSH1 0x40 MLOAD DUP1 SWAP2 SUB SWAP1 RETURN JUMPDEST PUSH2 0x9EF PUSH1 0x4 DUP1 CALLDATASIZE SUB DUP2 ADD SWAP1 PUSH2 0x9EA SWAP2 SWAP1 PUSH2 0x6625 JUMP JUMPDEST PUSH2 0x2E5A JUMP JUMPDEST PUSH1 0x40 MLOAD PUSH2 0x9FC SWAP2 SWAP1 PUSH2 0x65DD JUMP JUMPDEST PUSH1 0x40 MLOAD DUP1 SWAP2 SUB SWAP1 RETURN JUMPDEST PUSH2 0xA0D PUSH2 0x2E7E JUMP JUMPDEST PUSH1 0x40 MLOAD PUSH2 0xA1A SWAP2 SWAP1 PUSH2 0x65B3 JUMP JUMPDEST PUSH1 0x40 MLOAD DUP1 SWAP2 SUB SWAP1 RETURN JUMPDEST PUSH2 0xA2B PUSH2 0x2EA4 JUMP JUMPDEST PUSH1 0x40 MLOAD PUSH2 0xA38 SWAP2 SWAP1 PUSH2 0x65DD JUMP JUMPDEST PUSH1 0x40 MLOAD DUP1 SWAP2 SUB SWAP1 RETURN JUMPDEST PUSH2 0xA49 PUSH2 0x2EAA JUMP JUMPDEST PUSH1 0x40 MLOAD PUSH2 0xA56 SWAP2 SWAP1 PUSH2 0x65DD JUMP JUMPDEST PUSH1 0x40 MLOAD DUP1 SWAP2 SUB SWAP1 RETURN JUMPDEST PUSH2 0xA67 PUSH2 0x2EB0 JUMP JUMPDEST PUSH1 0x40 MLOAD PUSH2 0xA74 SWAP2 SWAP1 PUSH2 0x65B3 JUMP JUMPDEST PUSH1 0x40 MLOAD DUP1 SWAP2 SUB SWAP1 RETURN JUMPDEST PUSH2 0xA97 PUSH1 0x4 DUP1 CALLDATASIZE SUB DUP2 ADD SWAP1 PUSH2 0xA92 SWAP2 SWAP1 PUSH2 0x65F8 JUMP JUMPDEST PUSH2 0x2ED6 JUMP JUMPDEST STOP JUMPDEST PUSH2 0xAA1 PUSH2 0x3095 JUMP JUMPDEST PUSH1 0x40 MLOAD PUSH2 0xAB0 SWAP4 SWAP3 SWAP2 SWAP1 PUSH2 0x6A20 JUMP JUMPDEST PUSH1 0x40 MLOAD DUP1 SWAP2 SUB SWAP1 RETURN JUMPDEST PUSH2 0xAC1 PUSH2 0x30C4 JUMP JUMPDEST PUSH1 0x40 MLOAD PUSH2 0xACE SWAP2 SWAP1 PUSH2 0x65DD JUMP JUMPDEST PUSH1 0x40 MLOAD DUP1 SWAP2 SUB SWAP1 RETURN JUMPDEST PUSH2 0xADF PUSH2 0x30CA JUMP JUMPDEST STOP JUMPDEST PUSH2 0xAE9 PUSH2 0x3388 JUMP JUMPDEST PUSH1 0x40 MLOAD PUSH2 0xAF6 SWAP2 SWAP1 PUSH2 0x65DD JUMP JUMPDEST PUSH1 0x40 MLOAD DUP1 SWAP2 SUB SWAP1 RETURN JUMPDEST PUSH2 0xB07 PUSH2 0x3392 JUMP JUMPDEST PUSH1 0x40 MLOAD PUSH2 0xB14 SWAP2 SWAP1 PUSH2 0x65B3 JUMP JUMPDEST PUSH1 0x40 MLOAD DUP1 SWAP2 SUB SWAP1 RETURN JUMPDEST PUSH2 0xB37 PUSH1 0x4 DUP1 CALLDATASIZE SUB DUP2 ADD SWAP1 PUSH2 0xB32 SWAP2 SWAP1 PUSH2 0x67A9 JUMP JUMPDEST PUSH2 0x33BC JUMP JUMPDEST PUSH1 0x40 MLOAD PUSH2 0xB45 SWAP3 SWAP2 SWAP1 PUSH2 0x67E9 JUMP JUMPDEST PUSH1 0x40 MLOAD DUP1 SWAP2 SUB SWAP1 RETURN JUMPDEST PUSH2 0xB68 PUSH1 0x4 DUP1 CALLDATASIZE SUB DUP2 ADD SWAP1 PUSH2 0xB63 SWAP2 SWAP1 PUSH2 0x6625 JUMP JUMPDEST PUSH2 0x340D JUMP JUMPDEST STOP JUMPDEST PUSH2 0xB72 PUSH2 0x3608 JUMP JUMPDEST PUSH1 0x40 MLOAD PUSH2 0xB7F SWAP2 SWAP1 PUSH2 0x65DD JUMP JUMPDEST PUSH1 0x40 MLOAD DUP1 SWAP2 SUB SWAP1 RETURN JUMPDEST PUSH2 0xB90 PUSH2 0x36A0 JUMP JUMPDEST PUSH1 0x40 MLOAD PUSH2 0xB9D SWAP2 SWAP1 PUSH2 0x65DD JUMP JUMPDEST PUSH1 0x40 MLOAD DUP1 SWAP2 SUB SWAP1 RETURN JUMPDEST PUSH2 0xBC0 PUSH1 0x4 DUP1 CALLDATASIZE SUB DUP2 ADD SWAP1 PUSH2 0xBBB SWAP2 SWAP1 PUSH2 0x6C5E JUMP JUMPDEST PUSH2 0x36AA JUMP JUMPDEST STOP JUMPDEST PUSH2 0xBCA PUSH2 0x3A29 JUMP JUMPDEST PUSH1 0x40 MLOAD PUSH2 0xBD7 SWAP2 SWAP1 PUSH2 0x6CC8 JUMP JUMPDEST PUSH1 0x40 MLOAD DUP1 SWAP2 SUB SWAP1 RETURN JUMPDEST PUSH1 0x4 PUSH1 0x2 SWAP1 SLOAD SWAP1 PUSH2 0x100 EXP SWAP1 DIV PUSH20 0xFFFFFFFFFFFFFFFFFFFFFFFFFFFFFFFFFFFFFFFF AND PUSH20 0xFFFFFFFFFFFFFFFFFFFFFFFFFFFFFFFFFFFFFFFF AND CALLER PUSH20 0xFFFFFFFFFFFFFFFFFFFFFFFFFFFFFFFFFFFFFFFF AND EQ ISZERO DUP1 ISZERO PUSH2 0xC8C JUMPI POP PUSH1 0x6 PUSH1 0x0 SWAP1 SLOAD SWAP1 PUSH2 0x100 EXP SWAP1 DIV PUSH20 0xFFFFFFFFFFFFFFFFFFFFFFFFFFFFFFFFFFFFFFFF AND PUSH20 0xFFFFFFFFFFFFFFFFFFFFFFFFFFFFFFFFFFFFFFFF AND CALLER PUSH20 0xFFFFFFFFFFFFFFFFFFFFFFFFFFFFFFFFFFFFFFFF AND EQ ISZERO JUMPDEST ISZERO PUSH2 0xD16 JUMPI CALLER PUSH1 0x4 PUSH1 0x2 SWAP1 SLOAD SWAP1 PUSH2 0x100 EXP SWAP1 DIV PUSH20 0xFFFFFFFFFFFFFFFFFFFFFFFFFFFFFFFFFFFFFFFF AND PUSH1 0x6 PUSH1 0x0 SWAP1 SLOAD SWAP1 PUSH2 0x100 EXP SWAP1 DIV PUSH20 0xFFFFFFFFFFFFFFFFFFFFFFFFFFFFFFFFFFFFFFFF AND PUSH1 0x40 MLOAD PUSH32 0xFCDF0CA900000000000000000000000000000000000000000000000000000000 DUP2 MSTORE PUSH1 0x4 ADD PUSH2 0xD0D SWAP4 SWAP3 SWAP2 SWAP1 PUSH2 0x6CE3 JUMP JUMPDEST PUSH1 0x40 MLOAD DUP1 SWAP2 SUB SWAP1 REVERT JUMPDEST PUSH2 0xD1E PUSH2 0x3A4F JUMP JUMPDEST PUSH2 0xD5D JUMPI PUSH1 0x40 MLOAD PUSH32 0x8C379A000000000000000000000000000000000000000000000000000000000 DUP2 MSTORE PUSH1 0x4 ADD PUSH2 0xD54 SWAP1 PUSH2 0x6D77 JUMP JUMPDEST PUSH1 0x40 MLOAD DUP1 SWAP2 SUB SWAP1 REVERT JUMPDEST PUSH2 0xD67 DUP3 DUP3 PUSH2 0x3A8C JUMP JUMPDEST PUSH1 0xC SLOAD TIMESTAMP PUSH2 0xD75 SWAP2 SWAP1 PUSH2 0x6DC6 JUMP JUMPDEST PUSH1 0xF DUP2 SWAP1 SSTORE POP PUSH32 0xC7D85F06E6B08F27932C244291A8ABB580DA345CE5C683A15C711079D4726200 TIMESTAMP PUSH1 0xF SLOAD PUSH1 0x40 MLOAD PUSH2 0xDAE SWAP3 SWAP2 SWAP1 PUSH2 0x6DFA JUMP JUMPDEST PUSH1 0x40 MLOAD DUP1 SWAP2 SUB SWAP1 LOG1 POP POP JUMP JUMPDEST PUSH1 0x0 PUSH2 0xDC4 PUSH2 0x27DA JUMP JUMPDEST SWAP1 POP SWAP1 JUMP JUMPDEST PUSH1 0x14 DUP2 JUMP JUMPDEST PUSH1 0x0 DUP1 PUSH1 0x10 PUSH1 0x0 DUP5 PUSH20 0xFFFFFFFFFFFFFFFFFFFFFFFFFFFFFFFFFFFFFFFF AND PUSH20 0xFFFFFFFFFFFFFFFFFFFFFFFFFFFFFFFFFFFFFFFF AND DUP2 MSTORE PUSH1 0x20 ADD SWAP1 DUP2 MSTORE PUSH1 0x20 ADD PUSH1 0x0 KECCAK256 SWAP1 POP PUSH1 0x0 DUP1 JUMPDEST DUP3 DUP1 SLOAD SWAP1 POP DUP2 LT ISZERO PUSH2 0xE6C JUMPI PUSH2 0xE4C DUP4 DUP3 DUP2 SLOAD DUP2 LT PUSH2 0xE38 JUMPI PUSH2 0xE37 PUSH2 0x6E23 JUMP JUMPDEST JUMPDEST SWAP1 PUSH1 0x0 MSTORE PUSH1 0x20 PUSH1 0x0 KECCAK256 SWAP1 PUSH1 0x2 MUL ADD DUP4 PUSH2 0x3ABB JUMP JUMPDEST DUP3 PUSH2 0xE57 SWAP2 SWAP1 PUSH2 0x6DC6 JUMP JUMPDEST SWAP2 POP DUP1 DUP1 PUSH2 0xE64 SWAP1 PUSH2 0x6E52 JUMP JUMPDEST SWAP2 POP POP PUSH2 0xE16 JUMP JUMPDEST POP DUP1 SWAP3 POP POP POP SWAP2 SWAP1 POP JUMP JUMPDEST PUSH1 0x0 PUSH1 0x1 DUP1 SLOAD SWAP1 POP SWAP1 POP SWAP1 JUMP JUMPDEST CALLER PUSH20 0xFFFFFFFFFFFFFFFFFFFFFFFFFFFFFFFFFFFFFFFF AND PUSH1 0x4 PUSH1 0x2 SWAP1 SLOAD SWAP1 PUSH2 0x100 EXP SWAP1 DIV PUSH20 0xFFFFFFFFFFFFFFFFFFFFFFFFFFFFFFFFFFFFFFFF AND PUSH20 0xFFFFFFFFFFFFFFFFFFFFFFFFFFFFFFFFFFFFFFFF AND EQ PUSH2 0xF14 JUMPI PUSH1 0x40 MLOAD PUSH32 0x8C379A000000000000000000000000000000000000000000000000000000000 DUP2 MSTORE PUSH1 0x4 ADD PUSH2 0xF0B SWAP1 PUSH2 0x6F0C JUMP JUMPDEST PUSH1 0x40 MLOAD DUP1 SWAP2 SUB SWAP1 REVERT JUMPDEST PUSH2 0xF1C PUSH2 0x3A4F JUMP JUMPDEST PUSH2 0xF5B JUMPI PUSH1 0x40 MLOAD PUSH32 0x8C379A000000000000000000000000000000000000000000000000000000000 DUP2 MSTORE PUSH1 0x4 ADD PUSH2 0xF52 SWAP1 PUSH2 0x6D77 JUMP JUMPDEST PUSH1 0x40 MLOAD DUP1 SWAP2 SUB SWAP1 REVERT JUMPDEST PUSH1 0x0 PUSH1 0xD SLOAD SWAP1 POP DUP2 PUSH1 0xD DUP2 SWAP1 SSTORE POP PUSH32 0x30E4F9C7F8A1AF88BE510044D9C65E449FF53FD41DAF3BEAB41C740C2CC9B121 PUSH1 0xD SLOAD DUP3 PUSH1 0x40 MLOAD PUSH2 0xF9C SWAP3 SWAP2 SWAP1 PUSH2 0x6DFA JUMP JUMPDEST PUSH1 0x40 MLOAD DUP1 SWAP2 SUB SWAP1 LOG1 POP POP JUMP JUMPDEST CALLER PUSH20 0xFFFFFFFFFFFFFFFFFFFFFFFFFFFFFFFFFFFFFFFF AND PUSH1 0x4 PUSH1 0x2 SWAP1 SLOAD SWAP1 PUSH2 0x100 EXP SWAP1 DIV PUSH20 0xFFFFFFFFFFFFFFFFFFFFFFFFFFFFFFFFFFFFFFFF AND PUSH20 0xFFFFFFFFFFFFFFFFFFFFFFFFFFFFFFFFFFFFFFFF AND EQ PUSH2 0x1038 JUMPI PUSH1 0x40 MLOAD PUSH32 0x8C379A000000000000000000000000000000000000000000000000000000000 DUP2 MSTORE PUSH1 0x4 ADD PUSH2 0x102F SWAP1 PUSH2 0x6F0C JUMP JUMPDEST PUSH1 0x40 MLOAD DUP1 SWAP2 SUB SWAP1 REVERT JUMPDEST PUSH2 0x1040 PUSH2 0x3A4F JUMP JUMPDEST PUSH2 0x107F JUMPI PUSH1 0x40 MLOAD PUSH32 0x8C379A000000000000000000000000000000000000000000000000000000000 DUP2 MSTORE PUSH1 0x4 ADD PUSH2 0x1076 SWAP1 PUSH2 0x6D77 JUMP JUMPDEST PUSH1 0x40 MLOAD DUP1 SWAP2 SUB SWAP1 REVERT JUMPDEST PUSH2 0x1088 DUP2 PUSH2 0x1327 JUMP JUMPDEST POP JUMP JUMPDEST PUSH1 0x8 SLOAD DUP2 JUMP JUMPDEST PUSH1 0x0 DUP2 DUP2 SLOAD DUP2 LT PUSH2 0x10A1 JUMPI PUSH1 0x0 DUP1 REVERT JUMPDEST SWAP1 PUSH1 0x0 MSTORE PUSH1 0x20 PUSH1 0x0 KECCAK256 SWAP1 PUSH1 0x4 MUL ADD PUSH1 0x0 SWAP2 POP SWAP1 POP DUP1 PUSH1 0x0 ADD PUSH1 0x40 MLOAD DUP1 PUSH1 0x60 ADD PUSH1 0x40 MSTORE SWAP1 DUP2 PUSH1 0x0 DUP3 ADD PUSH1 0x0 SWAP1 SLOAD SWAP1 PUSH2 0x100 EXP SWAP1 DIV PUSH20 0xFFFFFFFFFFFFFFFFFFFFFFFFFFFFFFFFFFFFFFFF AND PUSH20 0xFFFFFFFFFFFFFFFFFFFFFFFFFFFFFFFFFFFFFFFF AND PUSH20 0xFFFFFFFFFFFFFFFFFFFFFFFFFFFFFFFFFFFFFFFF AND DUP2 MSTORE PUSH1 0x20 ADD PUSH1 0x0 DUP3 ADD PUSH1 0x14 SWAP1 SLOAD SWAP1 PUSH2 0x100 EXP SWAP1 DIV PUSH4 0xFFFFFFFF AND PUSH4 0xFFFFFFFF AND PUSH4 0xFFFFFFFF AND DUP2 MSTORE PUSH1 0x20 ADD PUSH1 0x1 DUP3 ADD SLOAD DUP2 MSTORE POP POP SWAP1 DUP1 PUSH1 0x2 ADD PUSH1 0x0 SWAP1 SLOAD SWAP1 PUSH2 0x100 EXP SWAP1 DIV PUSH1 0xFF AND SWAP1 DUP1 PUSH1 0x2 ADD PUSH1 0x1 SWAP1 SLOAD SWAP1 PUSH2 0x100 EXP SWAP1 DIV PUSH4 0xFFFFFFFF AND SWAP1 DUP1 PUSH1 0x2 ADD PUSH1 0x5 SWAP1 SLOAD SWAP1 PUSH2 0x100 EXP SWAP1 DIV PUSH1 0x3 SIGNEXTEND SWAP1 DUP1 PUSH1 0x3 ADD SLOAD SWAP1 POP DUP6 JUMP JUMPDEST PUSH1 0x0 DUP1 PUSH1 0x0 PUSH1 0x10 PUSH1 0x0 DUP7 PUSH20 0xFFFFFFFFFFFFFFFFFFFFFFFFFFFFFFFFFFFFFFFF AND PUSH20 0xFFFFFFFFFFFFFFFFFFFFFFFFFFFFFFFFFFFFFFFF AND DUP2 MSTORE PUSH1 0x20 ADD SWAP1 DUP2 MSTORE PUSH1 0x20 ADD PUSH1 0x0 KECCAK256 DUP5 DUP2 SLOAD DUP2 LT PUSH2 0x11E7 JUMPI PUSH2 0x11E6 PUSH2 0x6E23 JUMP JUMPDEST JUMPDEST SWAP1 PUSH1 0x0 MSTORE PUSH1 0x20 PUSH1 0x0 KECCAK256 SWAP1 PUSH1 0x2 MUL ADD SWAP1 POP DUP1 PUSH1 0x0 ADD PUSH1 0x0 SWAP1 SLOAD SWAP1 PUSH2 0x100 EXP SWAP1 DIV PUSH4 0xFFFFFFFF AND DUP2 PUSH1 0x1 ADD SLOAD SWAP3 POP SWAP3 POP POP SWAP3 POP SWAP3 SWAP1 POP JUMP JUMPDEST PUSH1 0x1 PUSH1 0x14 PUSH2 0x122A TIMESTAMP PUSH2 0x3ACF JUMP JUMPDEST PUSH2 0x1234 SWAP2 SWAP1 PUSH2 0x6F2C JUMP JUMPDEST PUSH2 0x123E SWAP2 SWAP1 PUSH2 0x6F2C JUMP JUMPDEST PUSH1 0x0 DUP3 DUP2 SLOAD DUP2 LT PUSH2 0x1252 JUMPI PUSH2 0x1251 PUSH2 0x6E23 JUMP JUMPDEST JUMPDEST SWAP1 PUSH1 0x0 MSTORE PUSH1 0x20 PUSH1 0x0 KECCAK256 SWAP1 PUSH1 0x4 MUL ADD PUSH1 0x2 ADD PUSH1 0x1 PUSH2 0x100 EXP DUP2 SLOAD DUP2 PUSH4 0xFFFFFFFF MUL NOT AND SWAP1 DUP4 PUSH4 0xFFFFFFFF AND MUL OR SWAP1 SSTORE POP POP JUMP JUMPDEST PUSH1 0x0 DUP1 DUP3 DUP2 SLOAD DUP2 LT PUSH2 0x1299 JUMPI PUSH2 0x1298 PUSH2 0x6E23 JUMP JUMPDEST JUMPDEST SWAP1 PUSH1 0x0 MSTORE PUSH1 0x20 PUSH1 0x0 KECCAK256 SWAP1 PUSH1 0x4 MUL ADD PUSH1 0x2 ADD PUSH1 0x1 SWAP1 SLOAD SWAP1 PUSH2 0x100 EXP SWAP1 DIV PUSH4 0xFFFFFFFF AND PUSH4 0xFFFFFFFF AND SWAP1 POP SWAP2 SWAP1 POP JUMP JUMPDEST PUSH1 0xE SLOAD DUP2 JUMP JUMPDEST PUSH1 0x0 PUSH1 0x14 PUSH1 0x0 DUP4 DUP2 SLOAD DUP2 LT PUSH2 0x12E6 JUMPI PUSH2 0x12E5 PUSH2 0x6E23 JUMP JUMPDEST JUMPDEST SWAP1 PUSH1 0x0 MSTORE PUSH1 0x20 PUSH1 0x0 KECCAK256 SWAP1 PUSH1 0x4 MUL ADD PUSH1 0x2 ADD PUSH1 0x1 SWAP1 SLOAD SWAP1 PUSH2 0x100 EXP SWAP1 DIV PUSH4 0xFFFFFFFF AND PUSH2 0x1312 SWAP2 SWAP1 PUSH2 0x6F64 JUMP JUMPDEST PUSH4 0xFFFFFFFF AND TIMESTAMP GT SWAP1 POP SWAP2 SWAP1 POP JUMP JUMPDEST PUSH1 0x12 SLOAD DUP2 JUMP JUMPDEST PUSH1 0x0 PUSH20 0xFFFFFFFFFFFFFFFFFFFFFFFFFFFFFFFFFFFFFFFF AND PUSH1 0x4 PUSH1 0x2 SWAP1 SLOAD SWAP1 PUSH2 0x100 EXP SWAP1 DIV PUSH20 0xFFFFFFFFFFFFFFFFFFFFFFFFFFFFFFFFFFFFFFFF AND PUSH20 0xFFFFFFFFFFFFFFFFFFFFFFFFFFFFFFFFFFFFFFFF AND EQ DUP1 PUSH2 0x13D1 JUMPI POP CALLER PUSH20 0xFFFFFFFFFFFFFFFFFFFFFFFFFFFFFFFFFFFFFFFF AND PUSH1 0x4 PUSH1 0x2 SWAP1 SLOAD SWAP1 PUSH2 0x100 EXP SWAP1 DIV PUSH20 0xFFFFFFFFFFFFFFFFFFFFFFFFFFFFFFFFFFFFFFFF AND PUSH20 0xFFFFFFFFFFFFFFFFFFFFFFFFFFFFFFFFFFFFFFFF AND EQ JUMPDEST PUSH2 0x1410 JUMPI PUSH1 0x40 MLOAD PUSH32 0x8C379A000000000000000000000000000000000000000000000000000000000 DUP2 MSTORE PUSH1 0x4 ADD PUSH2 0x1407 SWAP1 PUSH2 0x6FE8 JUMP JUMPDEST PUSH1 0x40 MLOAD DUP1 SWAP2 SUB SWAP1 REVERT JUMPDEST PUSH1 0x0 PUSH20 0xFFFFFFFFFFFFFFFFFFFFFFFFFFFFFFFFFFFFFFFF AND DUP2 PUSH20 0xFFFFFFFFFFFFFFFFFFFFFFFFFFFFFFFFFFFFFFFF AND SUB PUSH2 0x147F JUMPI PUSH1 0x40 MLOAD PUSH32 0x8C379A000000000000000000000000000000000000000000000000000000000 DUP2 MSTORE PUSH1 0x4 ADD PUSH2 0x1476 SWAP1 PUSH2 0x7054 JUMP JUMPDEST PUSH1 0x40 MLOAD DUP1 SWAP2 SUB SWAP1 REVERT JUMPDEST PUSH1 0x0 PUSH1 0x4 PUSH1 0x2 SWAP1 SLOAD SWAP1 PUSH2 0x100 EXP SWAP1 DIV PUSH20 0xFFFFFFFFFFFFFFFFFFFFFFFFFFFFFFFFFFFFFFFF AND SWAP1 POP DUP2 PUSH1 0x4 PUSH1 0x2 PUSH2 0x100 EXP DUP2 SLOAD DUP2 PUSH20 0xFFFFFFFFFFFFFFFFFFFFFFFFFFFFFFFFFFFFFFFF MUL NOT AND SWAP1 DUP4 PUSH20 0xFFFFFFFFFFFFFFFFFFFFFFFFFFFFFFFFFFFFFFFF AND MUL OR SWAP1 SSTORE POP DUP1 PUSH20 0xFFFFFFFFFFFFFFFFFFFFFFFFFFFFFFFFFFFFFFFF AND PUSH1 0x4 PUSH1 0x2 SWAP1 SLOAD SWAP1 PUSH2 0x100 EXP SWAP1 DIV PUSH20 0xFFFFFFFFFFFFFFFFFFFFFFFFFFFFFFFFFFFFFFFF AND PUSH20 0xFFFFFFFFFFFFFFFFFFFFFFFFFFFFFFFFFFFFFFFF AND PUSH32 0x384899BD253D83B23DAA4D29AAA2EFE0563D1132B43101E9AD667235AEB951B PUSH1 0x40 MLOAD PUSH1 0x40 MLOAD DUP1 SWAP2 SUB SWAP1 LOG3 POP POP JUMP JUMPDEST PUSH1 0x5 PUSH1 0x0 SWAP1 SLOAD SWAP1 PUSH2 0x100 EXP SWAP1 DIV PUSH20 0xFFFFFFFFFFFFFFFFFFFFFFFFFFFFFFFFFFFFFFFF AND DUP2 JUMP JUMPDEST PUSH1 0x0 PUSH1 0x10 PUSH1 0x0 DUP4 PUSH20 0xFFFFFFFFFFFFFFFFFFFFFFFFFFFFFFFFFFFFFFFF AND PUSH20 0xFFFFFFFFFFFFFFFFFFFFFFFFFFFFFFFFFFFFFFFF AND DUP2 MSTORE PUSH1 0x20 ADD SWAP1 DUP2 MSTORE PUSH1 0x20 ADD PUSH1 0x0 KECCAK256 DUP1 SLOAD SWAP1 POP SWAP1 POP SWAP2 SWAP1 POP JUMP JUMPDEST PUSH2 0x15E2 CALLER PUSH2 0x1E86 JUMP JUMPDEST PUSH2 0x1621 JUMPI PUSH1 0x40 MLOAD PUSH32 0x8C379A000000000000000000000000000000000000000000000000000000000 DUP2 MSTORE PUSH1 0x4 ADD PUSH2 0x1618 SWAP1 PUSH2 0x70C0 JUMP JUMPDEST PUSH1 0x40 MLOAD DUP1 SWAP2 SUB SWAP1 REVERT JUMPDEST PUSH1 0xF SLOAD TIMESTAMP GT ISZERO PUSH2 0x166C JUMPI TIMESTAMP PUSH1 0xF SLOAD PUSH1 0x40 MLOAD PUSH32 0x33D020A000000000000000000000000000000000000000000000000000000000 DUP2 MSTORE PUSH1 0x4 ADD PUSH2 0x1663 SWAP3 SWAP2 SWAP1 PUSH2 0x6DFA JUMP JUMPDEST PUSH1 0x40 MLOAD DUP1 SWAP2 SUB SWAP1 REVERT JUMPDEST PUSH2 0x1674 PUSH2 0x3A4F JUMP JUMPDEST PUSH2 0x16B3 JUMPI PUSH1 0x40 MLOAD PUSH32 0x8C379A000000000000000000000000000000000000000000000000000000000 DUP2 MSTORE PUSH1 0x4 ADD PUSH2 0x16AA SWAP1 PUSH2 0x6D77 JUMP JUMPDEST PUSH1 0x40 MLOAD DUP1 SWAP2 SUB SWAP1 REVERT JUMPDEST PUSH1 0x2 PUSH1 0x3 SLOAD SUB PUSH2 0x16F8 JUMPI PUSH1 0x40 MLOAD PUSH32 0x8C379A000000000000000000000000000000000000000000000000000000000 DUP2 MSTORE PUSH1 0x4 ADD PUSH2 0x16EF SWAP1 PUSH2 0x712C JUMP JUMPDEST PUSH1 0x40 MLOAD DUP1 SWAP2 SUB SWAP1 REVERT JUMPDEST PUSH1 0x2 PUSH1 0x3 DUP2 SWAP1 SSTORE POP PUSH1 0x0 CALLER SWAP1 POP PUSH1 0x0 PUSH2 0x1710 DUP3 PUSH2 0x3B22 JUMP JUMPDEST PUSH4 0xFFFFFFFF AND SWAP1 POP PUSH1 0x0 PUSH1 0xD SLOAD DUP3 PUSH2 0x1728 SWAP2 SWAP1 PUSH2 0x6DC6 JUMP JUMPDEST SWAP1 POP DUP1 TIMESTAMP LT ISZERO PUSH2 0x1771 JUMPI TIMESTAMP DUP2 PUSH1 0x40 MLOAD PUSH32 0xF5F28AA600000000000000000000000000000000000000000000000000000000 DUP2 MSTORE PUSH1 0x4 ADD PUSH2 0x1768 SWAP3 SWAP2 SWAP1 PUSH2 0x6DFA JUMP JUMPDEST PUSH1 0x40 MLOAD DUP1 SWAP2 SUB SWAP1 REVERT JUMPDEST PUSH1 0xA PUSH1 0x0 SWAP1 SLOAD SWAP1 PUSH2 0x100 EXP SWAP1 DIV PUSH20 0xFFFFFFFFFFFFFFFFFFFFFFFFFFFFFFFFFFFFFFFF AND PUSH20 0xFFFFFFFFFFFFFFFFFFFFFFFFFFFFFFFFFFFFFFFF AND PUSH4 0x41F29548 PUSH1 0x10 PUSH1 0x0 DUP7 PUSH20 0xFFFFFFFFFFFFFFFFFFFFFFFFFFFFFFFFFFFFFFFF AND PUSH20 0xFFFFFFFFFFFFFFFFFFFFFFFFFFFFFFFFFFFFFFFF AND DUP2 MSTORE PUSH1 0x20 ADD SWAP1 DUP2 MSTORE PUSH1 0x20 ADD PUSH1 0x0 KECCAK256 PUSH1 0x40 MLOAD DUP3 PUSH4 0xFFFFFFFF AND PUSH1 0xE0 SHL DUP2 MSTORE PUSH1 0x4 ADD PUSH2 0x180A SWAP2 SWAP1 PUSH2 0x72A1 JUMP JUMPDEST PUSH1 0x0 PUSH1 0x40 MLOAD DUP1 DUP4 SUB DUP2 PUSH1 0x0 DUP8 DUP1 EXTCODESIZE ISZERO DUP1 ISZERO PUSH2 0x1824 JUMPI PUSH1 0x0 DUP1 REVERT JUMPDEST POP GAS CALL ISZERO DUP1 ISZERO PUSH2 0x1838 JUMPI RETURNDATASIZE PUSH1 0x0 DUP1 RETURNDATACOPY RETURNDATASIZE PUSH1 0x0 REVERT JUMPDEST POP POP POP POP PUSH1 0x0 PUSH2 0x1847 DUP5 PUSH2 0xDCE JUMP JUMPDEST SWAP1 POP PUSH1 0x0 PUSH2 0x1855 DUP6 DUP4 PUSH2 0x3B9F JUMP JUMPDEST SWAP1 POP PUSH32 0x56B9213D96821764325D9F0ED0B224A86EA80368461ECFFC358C20FE046C85CB DUP6 DUP4 DUP4 PUSH1 0x40 MLOAD PUSH2 0x188A SWAP4 SWAP3 SWAP2 SWAP1 PUSH2 0x72C3 JUMP JUMPDEST PUSH1 0x40 MLOAD DUP1 SWAP2 SUB SWAP1 LOG1 PUSH2 0x189B DUP6 PUSH2 0x3CAC JUMP JUMPDEST POP POP POP POP POP PUSH1 0x1 PUSH1 0x3 DUP2 SWAP1 SSTORE POP JUMP JUMPDEST PUSH1 0x0 PUSH1 0x6 PUSH1 0x14 SWAP1 SLOAD SWAP1 PUSH2 0x100 EXP SWAP1 DIV PUSH1 0xFF AND SWAP1 POP SWAP1 JUMP JUMPDEST PUSH1 0xB PUSH1 0x0 SWAP1 SLOAD SWAP1 PUSH2 0x100 EXP SWAP1 DIV PUSH20 0xFFFFFFFFFFFFFFFFFFFFFFFFFFFFFFFFFFFFFFFF AND DUP2 JUMP JUMPDEST PUSH2 0x18F0 CALLER PUSH2 0x1E86 JUMP JUMPDEST PUSH2 0x192F JUMPI PUSH1 0x40 MLOAD PUSH32 0x8C379A000000000000000000000000000000000000000000000000000000000 DUP2 MSTORE PUSH1 0x4 ADD PUSH2 0x1926 SWAP1 PUSH2 0x70C0 JUMP JUMPDEST PUSH1 0x40 MLOAD DUP1 SWAP2 SUB SWAP1 REVERT JUMPDEST PUSH1 0x1 PUSH1 0x2 DUP2 GT ISZERO PUSH2 0x1943 JUMPI PUSH2 0x1942 PUSH2 0x66C1 JUMP JUMPDEST JUMPDEST PUSH1 0x6 PUSH1 0x14 SWAP1 SLOAD SWAP1 PUSH2 0x100 EXP SWAP1 DIV PUSH1 0xFF AND PUSH1 0x2 DUP2 GT ISZERO PUSH2 0x1965 JUMPI PUSH2 0x1964 PUSH2 0x66C1 JUMP JUMPDEST JUMPDEST EQ PUSH2 0x19A5 JUMPI PUSH1 0x40 MLOAD PUSH32 0x8C379A000000000000000000000000000000000000000000000000000000000 DUP2 MSTORE PUSH1 0x4 ADD PUSH2 0x199C SWAP1 PUSH2 0x7346 JUMP JUMPDEST PUSH1 0x40 MLOAD DUP1 SWAP2 SUB SWAP1 REVERT JUMPDEST PUSH1 0x0 PUSH1 0x8 SLOAD GT PUSH2 0x19EA JUMPI PUSH1 0x40 MLOAD PUSH32 0x8C379A000000000000000000000000000000000000000000000000000000000 DUP2 MSTORE PUSH1 0x4 ADD PUSH2 0x19E1 SWAP1 PUSH2 0x73B2 JUMP JUMPDEST PUSH1 0x40 MLOAD DUP1 SWAP2 SUB SWAP1 REVERT JUMPDEST PUSH1 0x2 PUSH1 0x3 SLOAD SUB PUSH2 0x1A2F JUMPI PUSH1 0x40 MLOAD PUSH32 0x8C379A000000000000000000000000000000000000000000000000000000000 DUP2 MSTORE PUSH1 0x4 ADD PUSH2 0x1A26 SWAP1 PUSH2 0x712C JUMP JUMPDEST PUSH1 0x40 MLOAD DUP1 SWAP2 SUB SWAP1 REVERT JUMPDEST PUSH1 0x2 PUSH1 0x3 DUP2 SWAP1 SSTORE POP PUSH1 0x0 PUSH2 0x1A43 PUSH1 0x0 PUSH2 0x3DBB JUMP JUMPDEST POP SWAP1 POP PUSH32 0x7085F26B6DB92A35464D222F0AD9C4C67A7A7A0BCB8D4A6C5F3F52D90469EBC9 CALLER DUP3 PUSH1 0x40 MLOAD PUSH2 0x1A77 SWAP3 SWAP2 SWAP1 PUSH2 0x73D2 JUMP JUMPDEST PUSH1 0x40 MLOAD DUP1 SWAP2 SUB SWAP1 LOG1 POP PUSH1 0x1 PUSH1 0x3 DUP2 SWAP1 SSTORE POP JUMP JUMPDEST PUSH2 0x1A92 PUSH2 0x3A4F JUMP JUMPDEST PUSH2 0x1AD1 JUMPI PUSH1 0x40 MLOAD PUSH32 0x8C379A000000000000000000000000000000000000000000000000000000000 DUP2 MSTORE PUSH1 0x4 ADD PUSH2 0x1AC8 SWAP1 PUSH2 0x6D77 JUMP JUMPDEST PUSH1 0x40 MLOAD DUP1 SWAP2 SUB SWAP1 REVERT JUMPDEST DUP4 PUSH1 0x0 DUP1 DUP3 DUP2 SLOAD DUP2 LT PUSH2 0x1AE7 JUMPI PUSH2 0x1AE6 PUSH2 0x6E23 JUMP JUMPDEST JUMPDEST SWAP1 PUSH1 0x0 MSTORE PUSH1 0x20 PUSH1 0x0 KECCAK256 SWAP1 PUSH1 0x4 MUL ADD PUSH1 0x0 ADD SWAP1 POP PUSH1 0x0 PUSH20 0xFFFFFFFFFFFFFFFFFFFFFFFFFFFFFFFFFFFFFFFF AND DUP2 PUSH1 0x0 ADD PUSH1 0x0 SWAP1 SLOAD SWAP1 PUSH2 0x100 EXP SWAP1 DIV PUSH20 0xFFFFFFFFFFFFFFFFFFFFFFFFFFFFFFFFFFFFFFFF AND PUSH20 0xFFFFFFFFFFFFFFFFFFFFFFFFFFFFFFFFFFFFFFFF AND SUB PUSH2 0x1B8F JUMPI DUP2 PUSH1 0x40 MLOAD PUSH32 0x14E9E96E00000000000000000000000000000000000000000000000000000000 DUP2 MSTORE PUSH1 0x4 ADD PUSH2 0x1B86 SWAP2 SWAP1 PUSH2 0x65DD JUMP JUMPDEST PUSH1 0x40 MLOAD DUP1 SWAP2 SUB SWAP1 REVERT JUMPDEST DUP1 PUSH1 0x0 ADD PUSH1 0x0 SWAP1 SLOAD SWAP1 PUSH2 0x100 EXP SWAP1 DIV PUSH20 0xFFFFFFFFFFFFFFFFFFFFFFFFFFFFFFFFFFFFFFFF AND PUSH20 0xFFFFFFFFFFFFFFFFFFFFFFFFFFFFFFFFFFFFFFFF AND CALLER PUSH20 0xFFFFFFFFFFFFFFFFFFFFFFFFFFFFFFFFFFFFFFFF AND EQ PUSH2 0x1C4B JUMPI DUP2 DUP2 PUSH1 0x0 ADD PUSH1 0x0 SWAP1 SLOAD SWAP1 PUSH2 0x100 EXP SWAP1 DIV PUSH20 0xFFFFFFFFFFFFFFFFFFFFFFFFFFFFFFFFFFFFFFFF AND CALLER PUSH1 0x40 MLOAD PUSH32 0x89F4D78300000000000000000000000000000000000000000000000000000000 DUP2 MSTORE PUSH1 0x4 ADD PUSH2 0x1C42 SWAP4 SWAP3 SWAP2 SWAP1 PUSH2 0x73FB JUMP JUMPDEST PUSH1 0x40 MLOAD DUP1 SWAP2 SUB SWAP1 REVERT JUMPDEST PUSH1 0x0 PUSH1 0x1 DUP1 SLOAD SWAP1 POP SWAP1 POP PUSH1 0x0 DUP1 DUP9 DUP2 SLOAD DUP2 LT PUSH2 0x1C6A JUMPI PUSH2 0x1C69 PUSH2 0x6E23 JUMP JUMPDEST JUMPDEST SWAP1 PUSH1 0x0 MSTORE PUSH1 0x20 PUSH1 0x0 KECCAK256 SWAP1 PUSH1 0x4 MUL ADD SWAP1 POP PUSH2 0x1C84 DUP9 DUP3 PUSH2 0x3F7B JUMP JUMPDEST ISZERO PUSH2 0x1C96 JUMPI PUSH2 0x1C91 PUSH2 0x4007 JUMP JUMPDEST PUSH2 0x1CA4 JUMP JUMPDEST PUSH2 0x1CA3 DUP9 DUP3 DUP10 DUP10 DUP10 PUSH2 0x428A JUMP JUMPDEST JUMPDEST PUSH1 0x1 DUP3 PUSH2 0x1CB1 SWAP2 SWAP1 PUSH2 0x6DC6 JUMP JUMPDEST PUSH1 0x1 DUP1 SLOAD SWAP1 POP GT ISZERO PUSH2 0x1CF8 JUMPI PUSH1 0x40 MLOAD PUSH32 0x8C379A000000000000000000000000000000000000000000000000000000000 DUP2 MSTORE PUSH1 0x4 ADD PUSH2 0x1CEF SWAP1 PUSH2 0x747E JUMP JUMPDEST PUSH1 0x40 MLOAD DUP1 SWAP2 SUB SWAP1 REVERT JUMPDEST POP POP POP POP POP POP POP POP JUMP JUMPDEST PUSH1 0x13 DUP1 PUSH1 0x0 ADD PUSH1 0x0 SWAP1 SLOAD SWAP1 PUSH2 0x100 EXP SWAP1 DIV PUSH1 0xFF AND SWAP1 DUP1 PUSH1 0x1 ADD SLOAD SWAP1 DUP1 PUSH1 0x2 ADD SLOAD SWAP1 POP DUP4 JUMP JUMPDEST PUSH1 0x5 PUSH1 0x0 SWAP1 SLOAD SWAP1 PUSH2 0x100 EXP SWAP1 DIV PUSH20 0xFFFFFFFFFFFFFFFFFFFFFFFFFFFFFFFFFFFFFFFF AND PUSH20 0xFFFFFFFFFFFFFFFFFFFFFFFFFFFFFFFFFFFFFFFF AND CALLER PUSH20 0xFFFFFFFFFFFFFFFFFFFFFFFFFFFFFFFFFFFFFFFF AND EQ PUSH2 0x1DB7 JUMPI PUSH1 0x40 MLOAD PUSH32 0x8C379A000000000000000000000000000000000000000000000000000000000 DUP2 MSTORE PUSH1 0x4 ADD PUSH2 0x1DAE SWAP1 PUSH2 0x74EA JUMP JUMPDEST PUSH1 0x40 MLOAD DUP1 SWAP2 SUB SWAP1 REVERT JUMPDEST PUSH1 0xB PUSH1 0x0 SWAP1 SLOAD SWAP1 PUSH2 0x100 EXP SWAP1 DIV PUSH20 0xFFFFFFFFFFFFFFFFFFFFFFFFFFFFFFFFFFFFFFFF AND PUSH20 0xFFFFFFFFFFFFFFFFFFFFFFFFFFFFFFFFFFFFFFFF AND PUSH4 0x40C10F19 DUP4 DUP4 PUSH1 0x40 MLOAD DUP4 PUSH4 0xFFFFFFFF AND PUSH1 0xE0 SHL DUP2 MSTORE PUSH1 0x4 ADD PUSH2 0x1E14 SWAP3 SWAP2 SWAP1 PUSH2 0x73D2 JUMP JUMPDEST PUSH1 0x0 PUSH1 0x40 MLOAD DUP1 DUP4 SUB DUP2 PUSH1 0x0 DUP8 DUP1 EXTCODESIZE ISZERO DUP1 ISZERO PUSH2 0x1E2E JUMPI PUSH1 0x0 DUP1 REVERT JUMPDEST POP GAS CALL ISZERO DUP1 ISZERO PUSH2 0x1E42 JUMPI RETURNDATASIZE PUSH1 0x0 DUP1 RETURNDATACOPY RETURNDATASIZE PUSH1 0x0 REVERT JUMPDEST POP POP POP POP POP POP JUMP JUMPDEST PUSH1 0x0 PUSH2 0x1E55 DUP3 PUSH2 0x43C1 JUMP JUMPDEST SWAP1 POP SWAP2 SWAP1 POP JUMP JUMPDEST PUSH1 0x4 PUSH1 0x1 SWAP1 SLOAD SWAP1 PUSH2 0x100 EXP SWAP1 DIV PUSH1 0xFF AND DUP2 JUMP JUMPDEST PUSH1 0x0 PUSH1 0x4 PUSH1 0x0 SWAP1 SLOAD SWAP1 PUSH2 0x100 EXP SWAP1 DIV PUSH1 0xFF AND SWAP1 POP SWAP1 JUMP JUMPDEST PUSH1 0x0 DUP1 PUSH1 0x10 PUSH1 0x0 DUP5 PUSH20 0xFFFFFFFFFFFFFFFFFFFFFFFFFFFFFFFFFFFFFFFF AND PUSH20 0xFFFFFFFFFFFFFFFFFFFFFFFFFFFFFFFFFFFFFFFF AND DUP2 MSTORE PUSH1 0x20 ADD SWAP1 DUP2 MSTORE PUSH1 0x20 ADD PUSH1 0x0 KECCAK256 DUP1 SLOAD SWAP1 POP GT SWAP1 POP SWAP2 SWAP1 POP JUMP JUMPDEST PUSH1 0x0 DUP1 DUP3 DUP2 SLOAD DUP2 LT PUSH2 0x1EE9 JUMPI PUSH2 0x1EE8 PUSH2 0x6E23 JUMP JUMPDEST JUMPDEST SWAP1 PUSH1 0x0 MSTORE PUSH1 0x20 PUSH1 0x0 KECCAK256 SWAP1 PUSH1 0x4 MUL ADD PUSH1 0x3 ADD SLOAD SWAP1 POP SWAP2 SWAP1 POP JUMP JUMPDEST CALLER PUSH20 0xFFFFFFFFFFFFFFFFFFFFFFFFFFFFFFFFFFFFFFFF AND PUSH1 0x4 PUSH1 0x2 SWAP1 SLOAD SWAP1 PUSH2 0x100 EXP SWAP1 DIV PUSH20 0xFFFFFFFFFFFFFFFFFFFFFFFFFFFFFFFFFFFFFFFF AND PUSH20 0xFFFFFFFFFFFFFFFFFFFFFFFFFFFFFFFFFFFFFFFF AND EQ PUSH2 0x1F92 JUMPI PUSH1 0x40 MLOAD PUSH32 0x8C379A000000000000000000000000000000000000000000000000000000000 DUP2 MSTORE PUSH1 0x4 ADD PUSH2 0x1F89 SWAP1 PUSH2 0x6F0C JUMP JUMPDEST PUSH1 0x40 MLOAD DUP1 SWAP2 SUB SWAP1 REVERT JUMPDEST PUSH1 0x0 PUSH1 0x2 DUP2 GT ISZERO PUSH2 0x1FA6 JUMPI PUSH2 0x1FA5 PUSH2 0x66C1 JUMP JUMPDEST JUMPDEST PUSH1 0x6 PUSH1 0x14 SWAP1 SLOAD SWAP1 PUSH2 0x100 EXP SWAP1 DIV PUSH1 0xFF AND PUSH1 0x2 DUP2 GT ISZERO PUSH2 0x1FC8 JUMPI PUSH2 0x1FC7 PUSH2 0x66C1 JUMP JUMPDEST JUMPDEST SUB PUSH2 0x2008 JUMPI PUSH1 0x40 MLOAD PUSH32 0x8C379A000000000000000000000000000000000000000000000000000000000 DUP2 MSTORE PUSH1 0x4 ADD PUSH2 0x1FFF SWAP1 PUSH2 0x7556 JUMP JUMPDEST PUSH1 0x40 MLOAD DUP1 SWAP2 SUB SWAP1 REVERT JUMPDEST PUSH1 0x0 PUSH1 0x8 SLOAD GT PUSH2 0x204D JUMPI PUSH1 0x40 MLOAD PUSH32 0x8C379A000000000000000000000000000000000000000000000000000000000 DUP2 MSTORE PUSH1 0x4 ADD PUSH2 0x2044 SWAP1 PUSH2 0x73B2 JUMP JUMPDEST PUSH1 0x40 MLOAD DUP1 SWAP2 SUB SWAP1 REVERT JUMPDEST PUSH1 0x0 PUSH2 0x2057 PUSH2 0x27DA JUMP JUMPDEST SWAP1 POP PUSH1 0x0 ADDRESS SWAP1 POP DUP1 PUSH20 0xFFFFFFFFFFFFFFFFFFFFFFFFFFFFFFFFFFFFFFFF AND PUSH1 0xB PUSH1 0x0 SWAP1 SLOAD SWAP1 PUSH2 0x100 EXP SWAP1 DIV PUSH20 0xFFFFFFFFFFFFFFFFFFFFFFFFFFFFFFFFFFFFFFFF AND PUSH20 0xFFFFFFFFFFFFFFFFFFFFFFFFFFFFFFFFFFFFFFFF AND PUSH4 0x893D20E8 PUSH1 0x40 MLOAD DUP2 PUSH4 0xFFFFFFFF AND PUSH1 0xE0 SHL DUP2 MSTORE PUSH1 0x4 ADD PUSH1 0x20 PUSH1 0x40 MLOAD DUP1 DUP4 SUB DUP2 DUP7 GAS STATICCALL ISZERO DUP1 ISZERO PUSH2 0x20E2 JUMPI RETURNDATASIZE PUSH1 0x0 DUP1 RETURNDATACOPY RETURNDATASIZE PUSH1 0x0 REVERT JUMPDEST POP POP POP POP PUSH1 0x40 MLOAD RETURNDATASIZE PUSH1 0x1F NOT PUSH1 0x1F DUP3 ADD AND DUP3 ADD DUP1 PUSH1 0x40 MSTORE POP DUP2 ADD SWAP1 PUSH2 0x2106 SWAP2 SWAP1 PUSH2 0x758B JUMP JUMPDEST PUSH20 0xFFFFFFFFFFFFFFFFFFFFFFFFFFFFFFFFFFFFFFFF AND EQ PUSH2 0x215C JUMPI PUSH1 0x40 MLOAD PUSH32 0x8C379A000000000000000000000000000000000000000000000000000000000 DUP2 MSTORE PUSH1 0x4 ADD PUSH2 0x2153 SWAP1 PUSH2 0x7604 JUMP JUMPDEST PUSH1 0x40 MLOAD DUP1 SWAP2 SUB SWAP1 REVERT JUMPDEST PUSH1 0xB PUSH1 0x0 SWAP1 SLOAD SWAP1 PUSH2 0x100 EXP SWAP1 DIV PUSH20 0xFFFFFFFFFFFFFFFFFFFFFFFFFFFFFFFFFFFFFFFF AND PUSH20 0xFFFFFFFFFFFFFFFFFFFFFFFFFFFFFFFFFFFFFFFF AND PUSH4 0x2AF4C31E DUP4 PUSH1 0x40 MLOAD DUP3 PUSH4 0xFFFFFFFF AND PUSH1 0xE0 SHL DUP2 MSTORE PUSH1 0x4 ADD PUSH2 0x21B7 SWAP2 SWAP1 PUSH2 0x65B3 JUMP JUMPDEST PUSH1 0x0 PUSH1 0x40 MLOAD DUP1 DUP4 SUB DUP2 PUSH1 0x0 DUP8 DUP1 EXTCODESIZE ISZERO DUP1 ISZERO PUSH2 0x21D1 JUMPI PUSH1 0x0 DUP1 REVERT JUMPDEST POP GAS CALL ISZERO DUP1 ISZERO PUSH2 0x21E5 JUMPI RETURNDATASIZE PUSH1 0x0 DUP1 RETURNDATACOPY RETURNDATASIZE PUSH1 0x0 REVERT JUMPDEST POP POP POP POP DUP2 PUSH20 0xFFFFFFFFFFFFFFFFFFFFFFFFFFFFFFFFFFFFFFFF AND DUP2 PUSH20 0xFFFFFFFFFFFFFFFFFFFFFFFFFFFFFFFFFFFFFFFF AND PUSH32 0x20AEAE9B0357225B1E06369F3F026DBF8B24F7D00B187BFC35F6CAC4604359B PUSH1 0x40 MLOAD PUSH1 0x40 MLOAD DUP1 SWAP2 SUB SWAP1 LOG3 POP POP JUMP JUMPDEST PUSH1 0x0 PUSH1 0xA PUSH1 0x0 SWAP1 SLOAD SWAP1 PUSH2 0x100 EXP SWAP1 DIV PUSH20 0xFFFFFFFFFFFFFFFFFFFFFFFFFFFFFFFFFFFFFFFF AND SWAP1 POP SWAP1 JUMP JUMPDEST PUSH1 0x0 DUP1 DUP3 DUP2 SLOAD DUP2 LT PUSH2 0x2286 JUMPI PUSH2 0x2285 PUSH2 0x6E23 JUMP JUMPDEST JUMPDEST SWAP1 PUSH1 0x0 MSTORE PUSH1 0x20 PUSH1 0x0 KECCAK256 SWAP1 PUSH1 0x4 MUL ADD PUSH1 0x2 ADD PUSH1 0x0 SWAP1 SLOAD SWAP1 PUSH2 0x100 EXP SWAP1 DIV PUSH1 0xFF AND SWAP1 POP SWAP2 SWAP1 POP JUMP JUMPDEST CALLER PUSH20 0xFFFFFFFFFFFFFFFFFFFFFFFFFFFFFFFFFFFFFFFF AND PUSH1 0x4 PUSH1 0x2 SWAP1 SLOAD SWAP1 PUSH2 0x100 EXP SWAP1 DIV PUSH20 0xFFFFFFFFFFFFFFFFFFFFFFFFFFFFFFFFFFFFFFFF AND PUSH20 0xFFFFFFFFFFFFFFFFFFFFFFFFFFFFFFFFFFFFFFFF AND EQ PUSH2 0x233C JUMPI PUSH1 0x40 MLOAD PUSH32 0x8C379A000000000000000000000000000000000000000000000000000000000 DUP2 MSTORE PUSH1 0x4 ADD PUSH2 0x2333 SWAP1 PUSH2 0x7670 JUMP JUMPDEST PUSH1 0x40 MLOAD DUP1 SWAP2 SUB SWAP1 REVERT JUMPDEST PUSH1 0x0 PUSH1 0x4 PUSH1 0x2 SWAP1 SLOAD SWAP1 PUSH2 0x100 EXP SWAP1 DIV PUSH20 0xFFFFFFFFFFFFFFFFFFFFFFFFFFFFFFFFFFFFFFFF AND SWAP1 POP PUSH1 0x0 PUSH1 0x4 PUSH1 0x2 PUSH2 0x100 EXP DUP2 SLOAD DUP2 PUSH20 0xFFFFFFFFFFFFFFFFFFFFFFFFFFFFFFFFFFFFFFFF MUL NOT AND SWAP1 DUP4 PUSH20 0xFFFFFFFFFFFFFFFFFFFFFFFFFFFFFFFFFFFFFFFF AND MUL OR SWAP1 SSTORE POP DUP1 PUSH20 0xFFFFFFFFFFFFFFFFFFFFFFFFFFFFFFFFFFFFFFFF AND PUSH32 0xF8DF31144D9C2F0F6B59D69B8B98ABD5459D07F2742C4DF920B25AAE33C64820 PUSH1 0x40 MLOAD PUSH1 0x40 MLOAD DUP1 SWAP2 SUB SWAP1 LOG2 POP JUMP JUMPDEST PUSH1 0x0 DUP1 DUP1 SLOAD SWAP1 POP SWAP1 POP SWAP1 JUMP JUMPDEST PUSH1 0x6 PUSH1 0x14 SWAP1 SLOAD SWAP1 PUSH2 0x100 EXP SWAP1 DIV PUSH1 0xFF AND DUP2 JUMP JUMPDEST PUSH1 0xD SLOAD DUP2 JUMP JUMPDEST PUSH1 0x0 PUSH1 0xB PUSH1 0x0 SWAP1 SLOAD SWAP1 PUSH2 0x100 EXP SWAP1 DIV PUSH20 0xFFFFFFFFFFFFFFFFFFFFFFFFFFFFFFFFFFFFFFFF AND SWAP1 POP SWAP1 JUMP JUMPDEST PUSH1 0x4 PUSH1 0x2 SWAP1 SLOAD SWAP1 PUSH2 0x100 EXP SWAP1 DIV PUSH20 0xFFFFFFFFFFFFFFFFFFFFFFFFFFFFFFFFFFFFFFFF AND PUSH20 0xFFFFFFFFFFFFFFFFFFFFFFFFFFFFFFFFFFFFFFFF AND CALLER PUSH20 0xFFFFFFFFFFFFFFFFFFFFFFFFFFFFFFFFFFFFFFFF AND EQ ISZERO DUP1 ISZERO PUSH2 0x24E6 JUMPI POP PUSH1 0x6 PUSH1 0x0 SWAP1 SLOAD SWAP1 PUSH2 0x100 EXP SWAP1 DIV PUSH20 0xFFFFFFFFFFFFFFFFFFFFFFFFFFFFFFFFFFFFFFFF AND PUSH20 0xFFFFFFFFFFFFFFFFFFFFFFFFFFFFFFFFFFFFFFFF AND CALLER PUSH20 0xFFFFFFFFFFFFFFFFFFFFFFFFFFFFFFFFFFFFFFFF AND EQ ISZERO JUMPDEST ISZERO PUSH2 0x2570 JUMPI CALLER PUSH1 0x4 PUSH1 0x2 SWAP1 SLOAD SWAP1 PUSH2 0x100 EXP SWAP1 DIV PUSH20 0xFFFFFFFFFFFFFFFFFFFFFFFFFFFFFFFFFFFFFFFF AND PUSH1 0x6 PUSH1 0x0 SWAP1 SLOAD SWAP1 PUSH2 0x100 EXP SWAP1 DIV PUSH20 0xFFFFFFFFFFFFFFFFFFFFFFFFFFFFFFFFFFFFFFFF AND PUSH1 0x40 MLOAD PUSH32 0xFCDF0CA900000000000000000000000000000000000000000000000000000000 DUP2 MSTORE PUSH1 0x4 ADD PUSH2 0x2567 SWAP4 SWAP3 SWAP2 SWAP1 PUSH2 0x6CE3 JUMP JUMPDEST PUSH1 0x40 MLOAD DUP1 SWAP2 SUB SWAP1 REVERT JUMPDEST PUSH2 0x2578 PUSH2 0x3A4F JUMP JUMPDEST PUSH2 0x25B7 JUMPI PUSH1 0x40 MLOAD PUSH32 0x8C379A000000000000000000000000000000000000000000000000000000000 DUP2 MSTORE PUSH1 0x4 ADD PUSH2 0x25AE SWAP1 PUSH2 0x6D77 JUMP JUMPDEST PUSH1 0x40 MLOAD DUP1 SWAP2 SUB SWAP1 REVERT JUMPDEST PUSH1 0x0 PUSH1 0x9 SLOAD SWAP1 POP DUP2 PUSH1 0x9 DUP2 SWAP1 SSTORE POP PUSH32 0xF1B5288CC309EFF01E4C9E078FD1649F383EA4F81E3D379B5195DF66ED4234A4 PUSH1 0x9 SLOAD DUP3 PUSH1 0x40 MLOAD PUSH2 0x25F8 SWAP3 SWAP2 SWAP1 PUSH2 0x6DFA JUMP JUMPDEST PUSH1 0x40 MLOAD DUP1 SWAP2 SUB SWAP1 LOG1 POP POP JUMP JUMPDEST PUSH1 0x0 DUP1 PUSH1 0x2 DUP2 GT ISZERO PUSH2 0x2619 JUMPI PUSH2 0x2618 PUSH2 0x66C1 JUMP JUMPDEST JUMPDEST PUSH1 0x6 PUSH1 0x14 SWAP1 SLOAD SWAP1 PUSH2 0x100 EXP SWAP1 DIV PUSH1 0xFF AND PUSH1 0x2 DUP2 GT ISZERO PUSH2 0x263B JUMPI PUSH2 0x263A PUSH2 0x66C1 JUMP JUMPDEST JUMPDEST EQ ISZERO SWAP1 POP SWAP1 JUMP JUMPDEST PUSH2 0x264A PUSH2 0x3A4F JUMP JUMPDEST PUSH2 0x2689 JUMPI PUSH1 0x40 MLOAD PUSH32 0x8C379A000000000000000000000000000000000000000000000000000000000 DUP2 MSTORE PUSH1 0x4 ADD PUSH2 0x2680 SWAP1 PUSH2 0x6D77 JUMP JUMPDEST PUSH1 0x40 MLOAD DUP1 SWAP2 SUB SWAP1 REVERT JUMPDEST PUSH1 0x0 PUSH1 0x1 DUP1 SLOAD SWAP1 POP SWAP1 POP PUSH1 0x0 DUP1 DUP4 DUP2 SLOAD DUP2 LT PUSH2 0x26A8 JUMPI PUSH2 0x26A7 PUSH2 0x6E23 JUMP JUMPDEST JUMPDEST SWAP1 PUSH1 0x0 MSTORE PUSH1 0x20 PUSH1 0x0 KECCAK256 SWAP1 PUSH1 0x4 MUL ADD SWAP1 POP PUSH2 0x26C2 DUP4 DUP3 PUSH2 0x3F7B JUMP JUMPDEST PUSH2 0x2705 JUMPI DUP3 TIMESTAMP PUSH1 0x40 MLOAD PUSH32 0x598575F400000000000000000000000000000000000000000000000000000000 DUP2 MSTORE PUSH1 0x4 ADD PUSH2 0x26FC SWAP3 SWAP2 SWAP1 PUSH2 0x6DFA JUMP JUMPDEST PUSH1 0x40 MLOAD DUP1 SWAP2 SUB SWAP1 REVERT JUMPDEST PUSH1 0x0 DUP4 DUP2 SLOAD DUP2 LT PUSH2 0x2719 JUMPI PUSH2 0x2718 PUSH2 0x6E23 JUMP JUMPDEST JUMPDEST SWAP1 PUSH1 0x0 MSTORE PUSH1 0x20 PUSH1 0x0 KECCAK256 SWAP1 PUSH1 0x4 MUL ADD PUSH1 0x2 ADD PUSH1 0x1 SWAP1 SLOAD SWAP1 PUSH2 0x100 EXP SWAP1 DIV PUSH4 0xFFFFFFFF AND PUSH4 0xFFFFFFFF AND DUP4 PUSH32 0x6B08BEE316ED64851542EC4AD08063D5F5D812999963CF2A1CAF64E8E108D5AC TIMESTAMP PUSH1 0x40 MLOAD PUSH2 0x2771 SWAP2 SWAP1 PUSH2 0x65DD JUMP JUMPDEST PUSH1 0x40 MLOAD DUP1 SWAP2 SUB SWAP1 LOG3 PUSH2 0x2781 PUSH2 0x4007 JUMP JUMPDEST PUSH1 0x1 DUP3 PUSH2 0x278E SWAP2 SWAP1 PUSH2 0x6DC6 JUMP JUMPDEST PUSH1 0x1 DUP1 SLOAD SWAP1 POP GT ISZERO PUSH2 0x27D5 JUMPI PUSH1 0x40 MLOAD PUSH32 0x8C379A000000000000000000000000000000000000000000000000000000000 DUP2 MSTORE PUSH1 0x4 ADD PUSH2 0x27CC SWAP1 PUSH2 0x76DC JUMP JUMPDEST PUSH1 0x40 MLOAD DUP1 SWAP2 SUB SWAP1 REVERT JUMPDEST POP POP POP JUMP JUMPDEST PUSH1 0x0 PUSH2 0x27E4 PUSH2 0x446E JUMP JUMPDEST SWAP1 POP SWAP1 JUMP JUMPDEST PUSH1 0x4 PUSH1 0x2 SWAP1 SLOAD SWAP1 PUSH2 0x100 EXP SWAP1 DIV PUSH20 0xFFFFFFFFFFFFFFFFFFFFFFFFFFFFFFFFFFFFFFFF AND DUP2 JUMP JUMPDEST PUSH1 0xF SLOAD DUP2 JUMP JUMPDEST PUSH2 0x281D PUSH2 0x4498 JUMP JUMPDEST DUP2 PUSH1 0x9 SLOAD DUP2 LT ISZERO PUSH2 0x2863 JUMPI PUSH1 0x40 MLOAD PUSH32 0x8C379A000000000000000000000000000000000000000000000000000000000 DUP2 MSTORE PUSH1 0x4 ADD PUSH2 0x285A SWAP1 PUSH2 0x776E JUMP JUMPDEST PUSH1 0x40 MLOAD DUP1 SWAP2 SUB SWAP1 REVERT JUMPDEST DUP3 PUSH1 0x0 PUSH1 0x2 PUSH1 0x0 SWAP1 SLOAD SWAP1 PUSH2 0x100 EXP SWAP1 DIV PUSH20 0xFFFFFFFFFFFFFFFFFFFFFFFFFFFFFFFFFFFFFFFF AND PUSH20 0xFFFFFFFFFFFFFFFFFFFFFFFFFFFFFFFFFFFFFFFF AND PUSH4 0x70A08231 CALLER PUSH1 0x40 MLOAD DUP3 PUSH4 0xFFFFFFFF AND PUSH1 0xE0 SHL DUP2 MSTORE PUSH1 0x4 ADD PUSH2 0x28C1 SWAP2 SWAP1 PUSH2 0x65B3 JUMP JUMPDEST PUSH1 0x20 PUSH1 0x40 MLOAD DUP1 DUP4 SUB DUP2 DUP7 GAS STATICCALL ISZERO DUP1 ISZERO PUSH2 0x28DE JUMPI RETURNDATASIZE PUSH1 0x0 DUP1 RETURNDATACOPY RETURNDATASIZE PUSH1 0x0 REVERT JUMPDEST POP POP POP POP PUSH1 0x40 MLOAD RETURNDATASIZE PUSH1 0x1F NOT PUSH1 0x1F DUP3 ADD AND DUP3 ADD DUP1 PUSH1 0x40 MSTORE POP DUP2 ADD SWAP1 PUSH2 0x2902 SWAP2 SWAP1 PUSH2 0x77A3 JUMP JUMPDEST SWAP1 POP DUP2 DUP2 LT ISZERO PUSH2 0x2947 JUMPI PUSH1 0x40 MLOAD PUSH32 0x8C379A000000000000000000000000000000000000000000000000000000000 DUP2 MSTORE PUSH1 0x4 ADD PUSH2 0x293E SWAP1 PUSH2 0x7842 JUMP JUMPDEST PUSH1 0x40 MLOAD DUP1 SWAP2 SUB SWAP1 REVERT JUMPDEST DUP5 DUP1 PUSH2 0x2951 PUSH2 0x44E2 JUMP JUMPDEST LT ISZERO PUSH2 0x2992 JUMPI PUSH1 0x40 MLOAD PUSH32 0x8C379A000000000000000000000000000000000000000000000000000000000 DUP2 MSTORE PUSH1 0x4 ADD PUSH2 0x2989 SWAP1 PUSH2 0x78AE JUMP JUMPDEST PUSH1 0x40 MLOAD DUP1 SWAP2 SUB SWAP1 REVERT JUMPDEST PUSH2 0x299A PUSH2 0x3A4F JUMP JUMPDEST PUSH2 0x29D9 JUMPI PUSH1 0x40 MLOAD PUSH32 0x8C379A000000000000000000000000000000000000000000000000000000000 DUP2 MSTORE PUSH1 0x4 ADD PUSH2 0x29D0 SWAP1 PUSH2 0x6D77 JUMP JUMPDEST PUSH1 0x40 MLOAD DUP1 SWAP2 SUB SWAP1 REVERT JUMPDEST PUSH1 0x2 PUSH1 0x3 SLOAD SUB PUSH2 0x2A1E JUMPI PUSH1 0x40 MLOAD PUSH32 0x8C379A000000000000000000000000000000000000000000000000000000000 DUP2 MSTORE PUSH1 0x4 ADD PUSH2 0x2A15 SWAP1 PUSH2 0x712C JUMP JUMPDEST PUSH1 0x40 MLOAD DUP1 SWAP2 SUB SWAP1 REVERT JUMPDEST PUSH1 0x2 PUSH1 0x3 DUP2 SWAP1 SSTORE POP PUSH1 0x0 CALLER SWAP1 POP PUSH1 0x2 PUSH1 0x0 SWAP1 SLOAD SWAP1 PUSH2 0x100 EXP SWAP1 DIV PUSH20 0xFFFFFFFFFFFFFFFFFFFFFFFFFFFFFFFFFFFFFFFF AND PUSH20 0xFFFFFFFFFFFFFFFFFFFFFFFFFFFFFFFFFFFFFFFF AND DUP7 PUSH20 0xFFFFFFFFFFFFFFFFFFFFFFFFFFFFFFFFFFFFFFFF AND EQ PUSH2 0x2ABB JUMPI PUSH1 0x40 MLOAD PUSH32 0x8C379A000000000000000000000000000000000000000000000000000000000 DUP2 MSTORE PUSH1 0x4 ADD PUSH2 0x2AB2 SWAP1 PUSH2 0x791A JUMP JUMPDEST PUSH1 0x40 MLOAD DUP1 SWAP2 SUB SWAP1 REVERT JUMPDEST PUSH1 0x0 PUSH2 0x2AC6 DUP3 PUSH2 0x1E86 JUMP JUMPDEST SWAP1 POP DUP1 ISZERO PUSH2 0x2ADC JUMPI PUSH2 0x2AD7 DUP3 PUSH2 0x458C JUMP JUMPDEST PUSH2 0x2B3C JUMP JUMPDEST DUP8 PUSH1 0x11 SLOAD DUP4 PUSH20 0xFFFFFFFFFFFFFFFFFFFFFFFFFFFFFFFFFFFFFFFF AND PUSH32 0x61A270F3E063AAF439CAB58626368C6657BE20E3CE9350B8CA4870680EE250FC PUSH1 0x40 MLOAD PUSH1 0x40 MLOAD DUP1 SWAP2 SUB SWAP1 LOG4 PUSH1 0x11 PUSH1 0x0 DUP2 SLOAD DUP1 SWAP3 SWAP2 SWAP1 PUSH2 0x2B36 SWAP1 PUSH2 0x6E52 JUMP JUMPDEST SWAP2 SWAP1 POP SSTORE POP JUMPDEST PUSH2 0x2B46 DUP3 DUP10 PUSH2 0x4619 JUMP JUMPDEST PUSH2 0x2B4F DUP9 PUSH2 0x4732 JUMP JUMPDEST POP POP PUSH1 0x1 PUSH1 0x3 DUP2 SWAP1 SSTORE POP POP POP POP POP POP POP JUMP JUMPDEST PUSH1 0x7 SLOAD DUP2 JUMP JUMPDEST CALLER PUSH20 0xFFFFFFFFFFFFFFFFFFFFFFFFFFFFFFFFFFFFFFFF AND PUSH1 0x4 PUSH1 0x2 SWAP1 SLOAD SWAP1 PUSH2 0x100 EXP SWAP1 DIV PUSH20 0xFFFFFFFFFFFFFFFFFFFFFFFFFFFFFFFFFFFFFFFF AND PUSH20 0xFFFFFFFFFFFFFFFFFFFFFFFFFFFFFFFFFFFFFFFF AND EQ PUSH2 0x2BF7 JUMPI PUSH1 0x40 MLOAD PUSH32 0x8C379A000000000000000000000000000000000000000000000000000000000 DUP2 MSTORE PUSH1 0x4 ADD PUSH2 0x2BEE SWAP1 PUSH2 0x7670 JUMP JUMPDEST PUSH1 0x40 MLOAD DUP1 SWAP2 SUB SWAP1 REVERT JUMPDEST PUSH1 0x0 PUSH1 0x2 DUP2 GT ISZERO PUSH2 0x2C0B JUMPI PUSH2 0x2C0A PUSH2 0x66C1 JUMP JUMPDEST JUMPDEST PUSH1 0x6 PUSH1 0x14 SWAP1 SLOAD SWAP1 PUSH2 0x100 EXP SWAP1 DIV PUSH1 0xFF AND PUSH1 0x2 DUP2 GT ISZERO PUSH2 0x2C2D JUMPI PUSH2 0x2C2C PUSH2 0x66C1 JUMP JUMPDEST JUMPDEST SUB PUSH2 0x2C6D JUMPI PUSH1 0x40 MLOAD PUSH32 0x8C379A000000000000000000000000000000000000000000000000000000000 DUP2 MSTORE PUSH1 0x4 ADD PUSH2 0x2C64 SWAP1 PUSH2 0x7556 JUMP JUMPDEST PUSH1 0x40 MLOAD DUP1 SWAP2 SUB SWAP1 REVERT JUMPDEST PUSH1 0x0 PUSH1 0x8 SLOAD GT PUSH2 0x2CB2 JUMPI PUSH1 0x40 MLOAD PUSH32 0x8C379A000000000000000000000000000000000000000000000000000000000 DUP2 MSTORE PUSH1 0x4 ADD PUSH2 0x2CA9 SWAP1 PUSH2 0x73B2 JUMP JUMPDEST PUSH1 0x40 MLOAD DUP1 SWAP2 SUB SWAP1 REVERT JUMPDEST PUSH2 0x2CBA PUSH2 0x2604 JUMP JUMPDEST PUSH2 0x2D0A JUMPI PUSH1 0x6 PUSH1 0x14 SWAP1 SLOAD SWAP1 PUSH2 0x100 EXP SWAP1 DIV PUSH1 0xFF AND PUSH1 0x40 MLOAD PUSH32 0xF52F27BA00000000000000000000000000000000000000000000000000000000 DUP2 MSTORE PUSH1 0x4 ADD PUSH2 0x2D01 SWAP2 SWAP1 PUSH2 0x6890 JUMP JUMPDEST PUSH1 0x40 MLOAD DUP1 SWAP2 SUB SWAP1 REVERT JUMPDEST PUSH1 0x0 PUSH1 0xA PUSH1 0x0 SWAP1 SLOAD SWAP1 PUSH2 0x100 EXP SWAP1 DIV PUSH20 0xFFFFFFFFFFFFFFFFFFFFFFFFFFFFFFFFFFFFFFFF AND PUSH20 0xFFFFFFFFFFFFFFFFFFFFFFFFFFFFFFFFFFFFFFFF AND PUSH4 0xBF6CC08 PUSH1 0x40 MLOAD DUP2 PUSH4 0xFFFFFFFF AND PUSH1 0xE0 SHL DUP2 MSTORE PUSH1 0x4 ADD PUSH1 0x20 PUSH1 0x40 MLOAD DUP1 DUP4 SUB DUP2 DUP7 GAS STATICCALL ISZERO DUP1 ISZERO PUSH2 0x2D79 JUMPI RETURNDATASIZE PUSH1 0x0 DUP1 RETURNDATACOPY RETURNDATASIZE PUSH1 0x0 REVERT JUMPDEST POP POP POP POP PUSH1 0x40 MLOAD RETURNDATASIZE PUSH1 0x1F NOT PUSH1 0x1F DUP3 ADD AND DUP3 ADD DUP1 PUSH1 0x40 MSTORE POP DUP2 ADD SWAP1 PUSH2 0x2D9D SWAP2 SWAP1 PUSH2 0x77A3 JUMP JUMPDEST SWAP1 POP PUSH1 0x0 DUP2 GT ISZERO PUSH2 0x2DE5 JUMPI DUP1 PUSH1 0x40 MLOAD PUSH32 0x2AFE4DDF00000000000000000000000000000000000000000000000000000000 DUP2 MSTORE PUSH1 0x4 ADD PUSH2 0x2DDC SWAP2 SWAP1 PUSH2 0x65DD JUMP JUMPDEST PUSH1 0x40 MLOAD DUP1 SWAP2 SUB SWAP1 REVERT JUMPDEST PUSH2 0x2DED PUSH2 0x22AC JUMP JUMPDEST PUSH32 0x4311812A419209AFAA8088BF757E8D09870F8A925D08D5321D8F931E600C0D1A PUSH1 0x40 MLOAD PUSH1 0x40 MLOAD DUP1 SWAP2 SUB SWAP1 LOG1 POP JUMP JUMPDEST PUSH1 0x0 DUP1 DUP3 DUP2 SLOAD DUP2 LT PUSH2 0x2E31 JUMPI PUSH2 0x2E30 PUSH2 0x6E23 JUMP JUMPDEST JUMPDEST SWAP1 PUSH1 0x0 MSTORE PUSH1 0x20 PUSH1 0x0 KECCAK256 SWAP1 PUSH1 0x4 MUL ADD PUSH1 0x2 ADD PUSH1 0x5 SWAP1 SLOAD SWAP1 PUSH2 0x100 EXP SWAP1 DIV PUSH1 0x3 SIGNEXTEND PUSH1 0x3 SIGNEXTEND SWAP1 POP SWAP2 SWAP1 POP JUMP JUMPDEST PUSH1 0x1 DUP2 DUP2 SLOAD DUP2 LT PUSH2 0x2E6A JUMPI PUSH1 0x0 DUP1 REVERT JUMPDEST SWAP1 PUSH1 0x0 MSTORE PUSH1 0x20 PUSH1 0x0 KECCAK256 ADD PUSH1 0x0 SWAP2 POP SWAP1 POP SLOAD DUP2 JUMP JUMPDEST PUSH1 0x2 PUSH1 0x0 SWAP1 SLOAD SWAP1 PUSH2 0x100 EXP SWAP1 DIV PUSH20 0xFFFFFFFFFFFFFFFFFFFFFFFFFFFFFFFFFFFFFFFF AND DUP2 JUMP JUMPDEST PUSH1 0xC SLOAD DUP2 JUMP JUMPDEST PUSH1 0x9 SLOAD DUP2 JUMP JUMPDEST PUSH1 0x6 PUSH1 0x0 SWAP1 SLOAD SWAP1 PUSH2 0x100 EXP SWAP1 DIV PUSH20 0xFFFFFFFFFFFFFFFFFFFFFFFFFFFFFFFFFFFFFFFF AND DUP2 JUMP JUMPDEST CALLER PUSH20 0xFFFFFFFFFFFFFFFFFFFFFFFFFFFFFFFFFFFFFFFF AND PUSH1 0x4 PUSH1 0x2 SWAP1 SLOAD SWAP1 PUSH2 0x100 EXP SWAP1 DIV PUSH20 0xFFFFFFFFFFFFFFFFFFFFFFFFFFFFFFFFFFFFFFFF AND PUSH20 0xFFFFFFFFFFFFFFFFFFFFFFFFFFFFFFFFFFFFFFFF AND EQ PUSH2 0x2F66 JUMPI PUSH1 0x40 MLOAD PUSH32 0x8C379A000000000000000000000000000000000000000000000000000000000 DUP2 MSTORE PUSH1 0x4 ADD PUSH2 0x2F5D SWAP1 PUSH2 0x6F0C JUMP JUMPDEST PUSH1 0x40 MLOAD DUP1 SWAP2 SUB SWAP1 REVERT JUMPDEST PUSH2 0x2F6E PUSH2 0x3A4F JUMP JUMPDEST PUSH2 0x2FAD JUMPI PUSH1 0x40 MLOAD PUSH32 0x8C379A000000000000000000000000000000000000000000000000000000000 DUP2 MSTORE PUSH1 0x4 ADD PUSH2 0x2FA4 SWAP1 PUSH2 0x6D77 JUMP JUMPDEST PUSH1 0x40 MLOAD DUP1 SWAP2 SUB SWAP1 REVERT JUMPDEST PUSH1 0x0 PUSH1 0x6 PUSH1 0x0 SWAP1 SLOAD SWAP1 PUSH2 0x100 EXP SWAP1 DIV PUSH20 0xFFFFFFFFFFFFFFFFFFFFFFFFFFFFFFFFFFFFFFFF AND SWAP1 POP DUP2 PUSH1 0x6 PUSH1 0x0 PUSH2 0x100 EXP DUP2 SLOAD DUP2 PUSH20 0xFFFFFFFFFFFFFFFFFFFFFFFFFFFFFFFFFFFFFFFF MUL NOT AND SWAP1 DUP4 PUSH20 0xFFFFFFFFFFFFFFFFFFFFFFFFFFFFFFFFFFFFFFFF AND MUL OR SWAP1 SSTORE POP DUP1 PUSH20 0xFFFFFFFFFFFFFFFFFFFFFFFFFFFFFFFFFFFFFFFF AND PUSH1 0x6 PUSH1 0x0 SWAP1 SLOAD SWAP1 PUSH2 0x100 EXP SWAP1 DIV PUSH20 0xFFFFFFFFFFFFFFFFFFFFFFFFFFFFFFFFFFFFFFFF AND PUSH20 0xFFFFFFFFFFFFFFFFFFFFFFFFFFFFFFFFFFFFFFFF AND PUSH32 0xEF9FC1DEE6010109E6E3B21E51D44028E246DBAD8A5A71EA192A30B19E1F457F PUSH1 0x40 MLOAD PUSH1 0x40 MLOAD DUP1 SWAP2 SUB SWAP1 LOG3 POP POP JUMP JUMPDEST PUSH1 0x0 DUP1 PUSH1 0x0 PUSH1 0x13 PUSH1 0x0 ADD PUSH1 0x0 SWAP1 SLOAD SWAP1 PUSH2 0x100 EXP SWAP1 DIV PUSH1 0xFF AND PUSH1 0x13 PUSH1 0x1 ADD SLOAD PUSH1 0x13 PUSH1 0x2 ADD SLOAD SWAP3 POP SWAP3 POP SWAP3 POP SWAP1 SWAP2 SWAP3 JUMP JUMPDEST PUSH1 0x11 SLOAD DUP2 JUMP JUMPDEST PUSH2 0x30D3 CALLER PUSH2 0x1E86 JUMP JUMPDEST PUSH2 0x3112 JUMPI PUSH1 0x40 MLOAD PUSH32 0x8C379A000000000000000000000000000000000000000000000000000000000 DUP2 MSTORE PUSH1 0x4 ADD PUSH2 0x3109 SWAP1 PUSH2 0x70C0 JUMP JUMPDEST PUSH1 0x40 MLOAD DUP1 SWAP2 SUB SWAP1 REVERT JUMPDEST PUSH1 0x2 DUP1 DUP2 GT ISZERO PUSH2 0x3125 JUMPI PUSH2 0x3124 PUSH2 0x66C1 JUMP JUMPDEST JUMPDEST PUSH1 0x6 PUSH1 0x14 SWAP1 SLOAD SWAP1 PUSH2 0x100 EXP SWAP1 DIV PUSH1 0xFF AND PUSH1 0x2 DUP2 GT ISZERO PUSH2 0x3147 JUMPI PUSH2 0x3146 PUSH2 0x66C1 JUMP JUMPDEST JUMPDEST EQ PUSH2 0x3187 JUMPI PUSH1 0x40 MLOAD PUSH32 0x8C379A000000000000000000000000000000000000000000000000000000000 DUP2 MSTORE PUSH1 0x4 ADD PUSH2 0x317E SWAP1 PUSH2 0x7986 JUMP JUMPDEST PUSH1 0x40 MLOAD DUP1 SWAP2 SUB SWAP1 REVERT JUMPDEST PUSH1 0x0 PUSH1 0x8 SLOAD GT PUSH2 0x31CC JUMPI PUSH1 0x40 MLOAD PUSH32 0x8C379A000000000000000000000000000000000000000000000000000000000 DUP2 MSTORE PUSH1 0x4 ADD PUSH2 0x31C3 SWAP1 PUSH2 0x73B2 JUMP JUMPDEST PUSH1 0x40 MLOAD DUP1 SWAP2 SUB SWAP1 REVERT JUMPDEST PUSH1 0x2 PUSH1 0x3 SLOAD SUB PUSH2 0x3211 JUMPI PUSH1 0x40 MLOAD PUSH32 0x8C379A000000000000000000000000000000000000000000000000000000000 DUP2 MSTORE PUSH1 0x4 ADD PUSH2 0x3208 SWAP1 PUSH2 0x712C JUMP JUMPDEST PUSH1 0x40 MLOAD DUP1 SWAP2 SUB SWAP1 REVERT JUMPDEST PUSH1 0x2 PUSH1 0x3 DUP2 SWAP1 SSTORE POP PUSH1 0x0 CALLER SWAP1 POP PUSH1 0x13 PUSH1 0x0 ADD PUSH1 0x0 SWAP1 SLOAD SWAP1 PUSH2 0x100 EXP SWAP1 DIV PUSH1 0xFF AND PUSH2 0x3270 JUMPI PUSH1 0x40 MLOAD PUSH32 0x8C379A000000000000000000000000000000000000000000000000000000000 DUP2 MSTORE PUSH1 0x4 ADD PUSH2 0x3267 SWAP1 PUSH2 0x79F2 JUMP JUMPDEST PUSH1 0x40 MLOAD DUP1 SWAP2 SUB SWAP1 REVERT JUMPDEST PUSH1 0x0 PUSH1 0x13 PUSH1 0x2 ADD SLOAD GT PUSH2 0x32B8 JUMPI PUSH1 0x40 MLOAD PUSH32 0x8C379A000000000000000000000000000000000000000000000000000000000 DUP2 MSTORE PUSH1 0x4 ADD PUSH2 0x32AF SWAP1 PUSH2 0x7A5E JUMP JUMPDEST PUSH1 0x40 MLOAD DUP1 SWAP2 SUB SWAP1 REVERT JUMPDEST PUSH1 0x0 PUSH2 0x3301 PUSH1 0x10 PUSH1 0x0 DUP5 PUSH20 0xFFFFFFFFFFFFFFFFFFFFFFFFFFFFFFFFFFFFFFFF AND PUSH20 0xFFFFFFFFFFFFFFFFFFFFFFFFFFFFFFFFFFFFFFFF AND DUP2 MSTORE PUSH1 0x20 ADD SWAP1 DUP2 MSTORE PUSH1 0x20 ADD PUSH1 0x0 KECCAK256 PUSH2 0x4921 JUMP JUMPDEST SWAP1 POP PUSH1 0x0 PUSH1 0x13 PUSH1 0x2 ADD SLOAD PUSH1 0x13 PUSH1 0x1 ADD SLOAD DUP4 PUSH2 0x331C SWAP2 SWAP1 PUSH2 0x7A7E JUMP JUMPDEST PUSH2 0x3326 SWAP2 SWAP1 PUSH2 0x7B07 JUMP JUMPDEST SWAP1 POP PUSH1 0x0 PUSH2 0x3334 DUP5 DUP4 PUSH2 0x3B9F JUMP JUMPDEST SWAP1 POP PUSH32 0x1E3BBCECB5F1430943B3C5FFA81F48FF8B3E5994B0DB8D95905EA8FCAB4BB4E5 DUP5 DUP4 DUP4 PUSH1 0x40 MLOAD PUSH2 0x3369 SWAP4 SWAP3 SWAP2 SWAP1 PUSH2 0x72C3 JUMP JUMPDEST PUSH1 0x40 MLOAD DUP1 SWAP2 SUB SWAP1 LOG1 PUSH2 0x337A DUP5 PUSH2 0x3CAC JUMP JUMPDEST POP POP POP POP PUSH1 0x1 PUSH1 0x3 DUP2 SWAP1 SSTORE POP JUMP JUMPDEST PUSH1 0x0 PUSH1 0xF SLOAD SWAP1 POP SWAP1 JUMP JUMPDEST PUSH1 0x0 PUSH1 0x2 PUSH1 0x0 SWAP1 SLOAD SWAP1 PUSH2 0x100 EXP SWAP1 DIV PUSH20 0xFFFFFFFFFFFFFFFFFFFFFFFFFFFFFFFFFFFFFFFF AND SWAP1 POP SWAP1 JUMP JUMPDEST PUSH1 0x10 PUSH1 0x20 MSTORE DUP2 PUSH1 0x0 MSTORE PUSH1 0x40 PUSH1 0x0 KECCAK256 DUP2 DUP2 SLOAD DUP2 LT PUSH2 0x33D8 JUMPI PUSH1 0x0 DUP1 REVERT JUMPDEST SWAP1 PUSH1 0x0 MSTORE PUSH1 0x20 PUSH1 0x0 KECCAK256 SWAP1 PUSH1 0x2 MUL ADD PUSH1 0x0 SWAP2 POP SWAP2 POP POP DUP1 PUSH1 0x0 ADD PUSH1 0x0 SWAP1 SLOAD SWAP1 PUSH2 0x100 EXP SWAP1 DIV PUSH4 0xFFFFFFFF AND SWAP1 DUP1 PUSH1 0x1 ADD SLOAD SWAP1 POP DUP3 JUMP JUMPDEST PUSH2 0x3415 PUSH2 0x3A4F JUMP JUMPDEST PUSH2 0x3454 JUMPI PUSH1 0x40 MLOAD PUSH32 0x8C379A000000000000000000000000000000000000000000000000000000000 DUP2 MSTORE PUSH1 0x4 ADD PUSH2 0x344B SWAP1 PUSH2 0x6D77 JUMP JUMPDEST PUSH1 0x40 MLOAD DUP1 SWAP2 SUB SWAP1 REVERT JUMPDEST DUP1 PUSH1 0x0 PUSH20 0xFFFFFFFFFFFFFFFFFFFFFFFFFFFFFFFFFFFFFFFF AND PUSH1 0x0 DUP3 DUP2 SLOAD DUP2 LT PUSH2 0x3481 JUMPI PUSH2 0x3480 PUSH2 0x6E23 JUMP JUMPDEST JUMPDEST SWAP1 PUSH1 0x0 MSTORE PUSH1 0x20 PUSH1 0x0 KECCAK256 SWAP1 PUSH1 0x4 MUL ADD PUSH1 0x0 ADD PUSH1 0x0 ADD PUSH1 0x0 SWAP1 SLOAD SWAP1 PUSH2 0x100 EXP SWAP1 DIV PUSH20 0xFFFFFFFFFFFFFFFFFFFFFFFFFFFFFFFFFFFFFFFF AND PUSH20 0xFFFFFFFFFFFFFFFFFFFFFFFFFFFFFFFFFFFFFFFF AND EQ PUSH2 0x350C JUMPI PUSH1 0x40 MLOAD PUSH32 0x8C379A000000000000000000000000000000000000000000000000000000000 DUP2 MSTORE PUSH1 0x4 ADD PUSH2 0x3503 SWAP1 PUSH2 0x7B84 JUMP JUMPDEST PUSH1 0x40 MLOAD DUP1 SWAP2 SUB SWAP1 REVERT JUMPDEST PUSH1 0x0 PUSH1 0x1 DUP1 SLOAD SWAP1 POP SWAP1 POP PUSH1 0x0 DUP1 DUP5 DUP2 SLOAD DUP2 LT PUSH2 0x352B JUMPI PUSH2 0x352A PUSH2 0x6E23 JUMP JUMPDEST JUMPDEST SWAP1 PUSH1 0x0 MSTORE PUSH1 0x20 PUSH1 0x0 KECCAK256 SWAP1 PUSH1 0x4 MUL ADD SWAP1 POP PUSH2 0x3545 DUP5 DUP3 PUSH2 0x3F7B JUMP JUMPDEST ISZERO PUSH2 0x3557 JUMPI PUSH2 0x3552 PUSH2 0x4007 JUMP JUMPDEST PUSH2 0x35AE JUMP JUMPDEST PUSH2 0x3561 DUP5 DUP3 PUSH2 0x4986 JUMP JUMPDEST ISZERO PUSH2 0x3575 JUMPI PUSH2 0x3570 DUP2 DUP6 PUSH2 0x4C8C JUMP JUMPDEST PUSH2 0x35AD JUMP JUMPDEST PUSH32 0x16EA14668FF604D3C6B8D2BD3A6890CEDB8506333E86046EC0C00163FE9BC09E DUP5 PUSH1 0x40 MLOAD PUSH2 0x35A4 SWAP2 SWAP1 PUSH2 0x65DD JUMP JUMPDEST PUSH1 0x40 MLOAD DUP1 SWAP2 SUB SWAP1 LOG1 JUMPDEST JUMPDEST PUSH1 0x1 DUP3 PUSH2 0x35BB SWAP2 SWAP1 PUSH2 0x6DC6 JUMP JUMPDEST PUSH1 0x1 DUP1 SLOAD SWAP1 POP GT ISZERO PUSH2 0x3602 JUMPI PUSH1 0x40 MLOAD PUSH32 0x8C379A000000000000000000000000000000000000000000000000000000000 DUP2 MSTORE PUSH1 0x4 ADD PUSH2 0x35F9 SWAP1 PUSH2 0x747E JUMP JUMPDEST PUSH1 0x40 MLOAD DUP1 SWAP2 SUB SWAP1 REVERT JUMPDEST POP POP POP POP JUMP JUMPDEST PUSH1 0x0 PUSH1 0xA PUSH1 0x0 SWAP1 SLOAD SWAP1 PUSH2 0x100 EXP SWAP1 DIV PUSH20 0xFFFFFFFFFFFFFFFFFFFFFFFFFFFFFFFFFFFFFFFF AND PUSH20 0xFFFFFFFFFFFFFFFFFFFFFFFFFFFFFFFFFFFFFFFF AND PUSH4 0xBF6CC08 PUSH1 0x40 MLOAD DUP2 PUSH4 0xFFFFFFFF AND PUSH1 0xE0 SHL DUP2 MSTORE PUSH1 0x4 ADD PUSH1 0x20 PUSH1 0x40 MLOAD DUP1 DUP4 SUB DUP2 DUP7 GAS STATICCALL ISZERO DUP1 ISZERO PUSH2 0x3677 JUMPI RETURNDATASIZE PUSH1 0x0 DUP1 RETURNDATACOPY RETURNDATASIZE PUSH1 0x0 REVERT JUMPDEST POP POP POP POP PUSH1 0x40 MLOAD RETURNDATASIZE PUSH1 0x1F NOT PUSH1 0x1F DUP3 ADD AND DUP3 ADD DUP1 PUSH1 0x40 MSTORE POP DUP2 ADD SWAP1 PUSH2 0x369B SWAP2 SWAP1 PUSH2 0x77A3 JUMP JUMPDEST SWAP1 POP SWAP1 JUMP JUMPDEST PUSH1 0x0 PUSH1 0x7 SLOAD SWAP1 POP SWAP1 JUMP JUMPDEST PUSH1 0x4 PUSH1 0x1 SWAP1 SLOAD SWAP1 PUSH2 0x100 EXP SWAP1 DIV PUSH1 0xFF AND ISZERO PUSH2 0x36FA JUMPI PUSH1 0x40 MLOAD PUSH32 0x8C379A000000000000000000000000000000000000000000000000000000000 DUP2 MSTORE PUSH1 0x4 ADD PUSH2 0x36F1 SWAP1 PUSH2 0x7BF0 JUMP JUMPDEST PUSH1 0x40 MLOAD DUP1 SWAP2 SUB SWAP1 REVERT JUMPDEST PUSH2 0x3707 DUP2 PUSH1 0x0 ADD MLOAD PUSH2 0x4D30 JUMP JUMPDEST PUSH1 0x0 PUSH20 0xFFFFFFFFFFFFFFFFFFFFFFFFFFFFFFFFFFFFFFFF AND DUP2 PUSH2 0x100 ADD MLOAD PUSH20 0xFFFFFFFFFFFFFFFFFFFFFFFFFFFFFFFFFFFFFFFF AND SUB PUSH2 0x377B JUMPI PUSH1 0x40 MLOAD PUSH32 0x8C379A000000000000000000000000000000000000000000000000000000000 DUP2 MSTORE PUSH1 0x4 ADD PUSH2 0x3772 SWAP1 PUSH2 0x7C5C JUMP JUMPDEST PUSH1 0x40 MLOAD DUP1 SWAP2 SUB SWAP1 REVERT JUMPDEST CALLER PUSH1 0x5 PUSH1 0x0 PUSH2 0x100 EXP DUP2 SLOAD DUP2 PUSH20 0xFFFFFFFFFFFFFFFFFFFFFFFFFFFFFFFFFFFFFFFF MUL NOT AND SWAP1 DUP4 PUSH20 0xFFFFFFFFFFFFFFFFFFFFFFFFFFFFFFFFFFFFFFFF AND MUL OR SWAP1 SSTORE POP TIMESTAMP PUSH1 0x7 DUP2 SWAP1 SSTORE POP PUSH1 0x0 PUSH1 0x6 PUSH1 0x14 PUSH2 0x100 EXP DUP2 SLOAD DUP2 PUSH1 0xFF MUL NOT AND SWAP1 DUP4 PUSH1 0x2 DUP2 GT ISZERO PUSH2 0x37E9 JUMPI PUSH2 0x37E8 PUSH2 0x66C1 JUMP JUMPDEST JUMPDEST MUL OR SWAP1 SSTORE POP PUSH1 0x0 PUSH1 0x6 PUSH1 0x0 PUSH2 0x100 EXP DUP2 SLOAD DUP2 PUSH20 0xFFFFFFFFFFFFFFFFFFFFFFFFFFFFFFFFFFFFFFFF MUL NOT AND SWAP1 DUP4 PUSH20 0xFFFFFFFFFFFFFFFFFFFFFFFFFFFFFFFFFFFFFFFF AND MUL OR SWAP1 SSTORE POP PUSH1 0x0 PUSH1 0x8 DUP2 SWAP1 SSTORE POP PUSH1 0x0 PUSH1 0xF DUP2 SWAP1 SSTORE POP PUSH1 0x40 MLOAD DUP1 PUSH1 0x60 ADD PUSH1 0x40 MSTORE DUP1 PUSH1 0x0 ISZERO ISZERO DUP2 MSTORE PUSH1 0x20 ADD PUSH1 0x0 DUP2 MSTORE PUSH1 0x20 ADD PUSH1 0x0 DUP2 MSTORE POP PUSH1 0x13 PUSH1 0x0 DUP3 ADD MLOAD DUP2 PUSH1 0x0 ADD PUSH1 0x0 PUSH2 0x100 EXP DUP2 SLOAD DUP2 PUSH1 0xFF MUL NOT AND SWAP1 DUP4 ISZERO ISZERO MUL OR SWAP1 SSTORE POP PUSH1 0x20 DUP3 ADD MLOAD DUP2 PUSH1 0x1 ADD SSTORE PUSH1 0x40 DUP3 ADD MLOAD DUP2 PUSH1 0x2 ADD SSTORE SWAP1 POP POP DUP1 PUSH2 0x100 ADD MLOAD PUSH1 0x2 PUSH1 0x0 PUSH2 0x100 EXP DUP2 SLOAD DUP2 PUSH20 0xFFFFFFFFFFFFFFFFFFFFFFFFFFFFFFFFFFFFFFFF MUL NOT AND SWAP1 DUP4 PUSH20 0xFFFFFFFFFFFFFFFFFFFFFFFFFFFFFFFFFFFFFFFF AND MUL OR SWAP1 SSTORE POP PUSH1 0x0 PUSH1 0x11 SLOAD EQ PUSH2 0x3924 JUMPI PUSH1 0x40 MLOAD PUSH32 0x8C379A000000000000000000000000000000000000000000000000000000000 DUP2 MSTORE PUSH1 0x4 ADD PUSH2 0x391B SWAP1 PUSH2 0x7CC8 JUMP JUMPDEST PUSH1 0x40 MLOAD DUP1 SWAP2 SUB SWAP1 REVERT JUMPDEST PUSH1 0x0 PUSH1 0x12 SLOAD EQ PUSH2 0x3969 JUMPI PUSH1 0x40 MLOAD PUSH32 0x8C379A000000000000000000000000000000000000000000000000000000000 DUP2 MSTORE PUSH1 0x4 ADD PUSH2 0x3960 SWAP1 PUSH2 0x7D34 JUMP JUMPDEST PUSH1 0x40 MLOAD DUP1 SWAP2 SUB SWAP1 REVERT JUMPDEST PUSH2 0x397B DUP2 PUSH1 0x40 ADD MLOAD DUP3 PUSH1 0xA0 ADD MLOAD PUSH2 0x3A8C JUMP JUMPDEST DUP1 PUSH1 0x20 ADD MLOAD PUSH1 0xA PUSH1 0x0 PUSH2 0x100 EXP DUP2 SLOAD DUP2 PUSH20 0xFFFFFFFFFFFFFFFFFFFFFFFFFFFFFFFFFFFFFFFF MUL NOT AND SWAP1 DUP4 PUSH20 0xFFFFFFFFFFFFFFFFFFFFFFFFFFFFFFFFFFFFFFFF AND MUL OR SWAP1 SSTORE POP DUP1 PUSH1 0x60 ADD MLOAD PUSH1 0xB PUSH1 0x0 PUSH2 0x100 EXP DUP2 SLOAD DUP2 PUSH20 0xFFFFFFFFFFFFFFFFFFFFFFFFFFFFFFFFFFFFFFFF MUL NOT AND SWAP1 DUP4 PUSH20 0xFFFFFFFFFFFFFFFFFFFFFFFFFFFFFFFFFFFFFFFF AND MUL OR SWAP1 SSTORE POP DUP1 PUSH1 0x80 ADD MLOAD PUSH1 0xE DUP2 SWAP1 SSTORE POP DUP1 PUSH1 0xC0 ADD MLOAD PUSH1 0xC DUP2 SWAP1 SSTORE POP DUP1 PUSH1 0xE0 ADD MLOAD PUSH1 0xD DUP2 SWAP1 SSTORE POP POP JUMP JUMPDEST PUSH1 0xA PUSH1 0x0 SWAP1 SLOAD SWAP1 PUSH2 0x100 EXP SWAP1 DIV PUSH20 0xFFFFFFFFFFFFFFFFFFFFFFFFFFFFFFFFFFFFFFFF AND DUP2 JUMP JUMPDEST PUSH1 0x0 DUP1 PUSH1 0x2 DUP2 GT ISZERO PUSH2 0x3A64 JUMPI PUSH2 0x3A63 PUSH2 0x66C1 JUMP JUMPDEST JUMPDEST PUSH1 0x6 PUSH1 0x14 SWAP1 SLOAD SWAP1 PUSH2 0x100 EXP SWAP1 DIV PUSH1 0xFF AND PUSH1 0x2 DUP2 GT ISZERO PUSH2 0x3A86 JUMPI PUSH2 0x3A85 PUSH2 0x66C1 JUMP JUMPDEST JUMPDEST EQ SWAP1 POP SWAP1 JUMP JUMPDEST PUSH2 0x3A99 DUP3 TIMESTAMP PUSH1 0x0 DUP1 PUSH2 0x4DD3 JUMP JUMPDEST PUSH2 0x3AA2 DUP3 PUSH2 0x4F33 JUMP JUMPDEST PUSH1 0x1 PUSH1 0x0 PUSH2 0x3AB0 SWAP2 SWAP1 PUSH2 0x6049 JUMP JUMPDEST DUP1 PUSH1 0x9 DUP2 SWAP1 SSTORE POP POP POP JUMP JUMPDEST PUSH1 0x0 PUSH2 0x3AC7 DUP4 DUP4 PUSH2 0x50B3 JUMP JUMPDEST SWAP1 POP SWAP3 SWAP2 POP POP JUMP JUMPDEST PUSH1 0x0 PUSH4 0xFFFFFFFF DUP1 AND DUP3 GT ISZERO PUSH2 0x3B1A JUMPI PUSH1 0x40 MLOAD PUSH32 0x8C379A000000000000000000000000000000000000000000000000000000000 DUP2 MSTORE PUSH1 0x4 ADD PUSH2 0x3B11 SWAP1 PUSH2 0x7DC6 JUMP JUMPDEST PUSH1 0x40 MLOAD DUP1 SWAP2 SUB SWAP1 REVERT JUMPDEST DUP2 SWAP1 POP SWAP2 SWAP1 POP JUMP JUMPDEST PUSH1 0x0 PUSH1 0x10 PUSH1 0x0 DUP4 PUSH20 0xFFFFFFFFFFFFFFFFFFFFFFFFFFFFFFFFFFFFFFFF AND PUSH20 0xFFFFFFFFFFFFFFFFFFFFFFFFFFFFFFFFFFFFFFFF AND DUP2 MSTORE PUSH1 0x20 ADD SWAP1 DUP2 MSTORE PUSH1 0x20 ADD PUSH1 0x0 KECCAK256 PUSH1 0x0 DUP2 SLOAD DUP2 LT PUSH2 0x3B76 JUMPI PUSH2 0x3B75 PUSH2 0x6E23 JUMP JUMPDEST JUMPDEST SWAP1 PUSH1 0x0 MSTORE PUSH1 0x20 PUSH1 0x0 KECCAK256 SWAP1 PUSH1 0x2 MUL ADD PUSH1 0x0 ADD PUSH1 0x0 SWAP1 SLOAD SWAP1 PUSH2 0x100 EXP SWAP1 DIV PUSH4 0xFFFFFFFF AND SWAP1 POP SWAP2 SWAP1 POP JUMP JUMPDEST PUSH1 0x0 DUP1 PUSH1 0xA PUSH1 0x0 SWAP1 SLOAD SWAP1 PUSH2 0x100 EXP SWAP1 DIV PUSH20 0xFFFFFFFFFFFFFFFFFFFFFFFFFFFFFFFFFFFFFFFF AND PUSH20 0xFFFFFFFFFFFFFFFFFFFFFFFFFFFFFFFFFFFFFFFF AND PUSH4 0xF7755B92 DUP6 DUP6 PUSH1 0x40 MLOAD DUP4 PUSH4 0xFFFFFFFF AND PUSH1 0xE0 SHL DUP2 MSTORE PUSH1 0x4 ADD PUSH2 0x3BFF SWAP3 SWAP2 SWAP1 PUSH2 0x73D2 JUMP JUMPDEST PUSH1 0x20 PUSH1 0x40 MLOAD DUP1 DUP4 SUB DUP2 PUSH1 0x0 DUP8 GAS CALL ISZERO DUP1 ISZERO PUSH2 0x3C1E JUMPI RETURNDATASIZE PUSH1 0x0 DUP1 RETURNDATACOPY RETURNDATASIZE PUSH1 0x0 REVERT JUMPDEST POP POP POP POP PUSH1 0x40 MLOAD RETURNDATASIZE PUSH1 0x1F NOT PUSH1 0x1F DUP3 ADD AND DUP3 ADD DUP1 PUSH1 0x40 MSTORE POP DUP2 ADD SWAP1 PUSH2 0x3C42 SWAP2 SWAP1 PUSH2 0x77A3 JUMP JUMPDEST SWAP1 POP PUSH1 0x0 PUSH2 0x3C4F DUP6 PUSH2 0x3B22 JUMP JUMPDEST SWAP1 POP DUP5 PUSH20 0xFFFFFFFFFFFFFFFFFFFFFFFFFFFFFFFFFFFFFFFF AND PUSH32 0x1D9A073A752D431B741CE470B611992DC77EC72C11959D2DA7FA4A0F235711E3 DUP3 DUP7 PUSH1 0x40 MLOAD PUSH2 0x3C99 SWAP3 SWAP2 SWAP1 PUSH2 0x67E9 JUMP JUMPDEST PUSH1 0x40 MLOAD DUP1 SWAP2 SUB SWAP1 LOG2 DUP2 SWAP3 POP POP POP SWAP3 SWAP2 POP POP JUMP JUMPDEST PUSH2 0x3CB5 DUP2 PUSH2 0x1E86 JUMP JUMPDEST PUSH2 0x3CF4 JUMPI PUSH1 0x40 MLOAD PUSH32 0x8C379A000000000000000000000000000000000000000000000000000000000 DUP2 MSTORE PUSH1 0x4 ADD PUSH2 0x3CEB SWAP1 PUSH2 0x7E32 JUMP JUMPDEST PUSH1 0x40 MLOAD DUP1 SWAP2 SUB SWAP1 REVERT JUMPDEST PUSH1 0x0 PUSH1 0x10 PUSH1 0x0 DUP4 PUSH20 0xFFFFFFFFFFFFFFFFFFFFFFFFFFFFFFFFFFFFFFFF AND PUSH20 0xFFFFFFFFFFFFFFFFFFFFFFFFFFFFFFFFFFFFFFFF AND DUP2 MSTORE PUSH1 0x20 ADD SWAP1 DUP2 MSTORE PUSH1 0x20 ADD PUSH1 0x0 KECCAK256 DUP1 SLOAD SWAP1 POP SWAP1 POP PUSH1 0x10 PUSH1 0x0 DUP4 PUSH20 0xFFFFFFFFFFFFFFFFFFFFFFFFFFFFFFFFFFFFFFFF AND PUSH20 0xFFFFFFFFFFFFFFFFFFFFFFFFFFFFFFFFFFFFFFFF AND DUP2 MSTORE PUSH1 0x20 ADD SWAP1 DUP2 MSTORE PUSH1 0x20 ADD PUSH1 0x0 KECCAK256 PUSH1 0x0 PUSH2 0x3D86 SWAP2 SWAP1 PUSH2 0x606A JUMP JUMPDEST DUP1 PUSH1 0x12 PUSH1 0x0 DUP3 DUP3 SLOAD PUSH2 0x3D98 SWAP2 SWAP1 PUSH2 0x7E52 JUMP JUMPDEST SWAP3 POP POP DUP2 SWAP1 SSTORE POP PUSH1 0x11 PUSH1 0x0 DUP2 SLOAD DUP1 SWAP3 SWAP2 SWAP1 PUSH2 0x3DB2 SWAP1 PUSH2 0x7E86 JUMP JUMPDEST SWAP2 SWAP1 POP SSTORE POP POP POP JUMP JUMPDEST PUSH1 0x0 DUP1 PUSH2 0x3DC7 CALLER PUSH2 0x1E86 JUMP JUMPDEST PUSH2 0x3E06 JUMPI PUSH1 0x40 MLOAD PUSH32 0x8C379A000000000000000000000000000000000000000000000000000000000 DUP2 MSTORE PUSH1 0x4 ADD PUSH2 0x3DFD SWAP1 PUSH2 0x70C0 JUMP JUMPDEST PUSH1 0x40 MLOAD DUP1 SWAP2 SUB SWAP1 REVERT JUMPDEST PUSH1 0x1 PUSH1 0x2 DUP2 GT ISZERO PUSH2 0x3E1A JUMPI PUSH2 0x3E19 PUSH2 0x66C1 JUMP JUMPDEST JUMPDEST PUSH1 0x6 PUSH1 0x14 SWAP1 SLOAD SWAP1 PUSH2 0x100 EXP SWAP1 DIV PUSH1 0xFF AND PUSH1 0x2 DUP2 GT ISZERO PUSH2 0x3E3C JUMPI PUSH2 0x3E3B PUSH2 0x66C1 JUMP JUMPDEST JUMPDEST EQ PUSH2 0x3E7C JUMPI PUSH1 0x40 MLOAD PUSH32 0x8C379A000000000000000000000000000000000000000000000000000000000 DUP2 MSTORE PUSH1 0x4 ADD PUSH2 0x3E73 SWAP1 PUSH2 0x7346 JUMP JUMPDEST PUSH1 0x40 MLOAD DUP1 SWAP2 SUB SWAP1 REVERT JUMPDEST PUSH1 0x0 PUSH1 0x8 SLOAD GT PUSH2 0x3EC1 JUMPI PUSH1 0x40 MLOAD PUSH32 0x8C379A000000000000000000000000000000000000000000000000000000000 DUP2 MSTORE PUSH1 0x4 ADD PUSH2 0x3EB8 SWAP1 PUSH2 0x73B2 JUMP JUMPDEST PUSH1 0x40 MLOAD DUP1 SWAP2 SUB SWAP1 REVERT JUMPDEST PUSH1 0x0 CALLER SWAP1 POP PUSH2 0x3ECF DUP2 PUSH2 0x43C1 JUMP JUMPDEST SWAP3 POP PUSH32 0xFFFFFFFFFFFFFFFFFFFFFFFFFFFFFFFFFFFFFFFFFFFFFFFFFFFFFFFFFFFFFFFF SWAP2 POP PUSH1 0x0 PUSH1 0x1 DUP2 GT ISZERO PUSH2 0x3F08 JUMPI PUSH2 0x3F07 PUSH2 0x66C1 JUMP JUMPDEST JUMPDEST DUP5 PUSH1 0x1 DUP2 GT ISZERO PUSH2 0x3F1B JUMPI PUSH2 0x3F1A PUSH2 0x66C1 JUMP JUMPDEST JUMPDEST SUB PUSH2 0x3F2F JUMPI PUSH2 0x3F2A DUP2 DUP5 PUSH2 0x51B0 JUMP JUMPDEST PUSH2 0x3F6C JUMP JUMPDEST DUP4 PUSH1 0x40 MLOAD PUSH32 0x2082F59200000000000000000000000000000000000000000000000000000000 DUP2 MSTORE PUSH1 0x4 ADD PUSH2 0x3F63 SWAP2 SWAP1 PUSH2 0x7EF7 JUMP JUMPDEST PUSH1 0x40 MLOAD DUP1 SWAP2 SUB SWAP1 REVERT JUMPDEST PUSH2 0x3F75 DUP2 PUSH2 0x3CAC JUMP JUMPDEST POP SWAP2 POP SWAP2 JUMP JUMPDEST PUSH1 0x0 PUSH2 0x3F87 DUP4 DUP4 PUSH2 0x558B JUMP JUMPDEST PUSH2 0x3F90 DUP4 PUSH2 0x12CE JUMP JUMPDEST ISZERO PUSH2 0x3FFC JUMPI PUSH2 0x3FA0 DUP3 PUSH1 0x2 PUSH2 0x5609 JUMP JUMPDEST DUP2 PUSH1 0x2 ADD PUSH1 0x1 SWAP1 SLOAD SWAP1 PUSH2 0x100 EXP SWAP1 DIV PUSH4 0xFFFFFFFF AND PUSH4 0xFFFFFFFF AND DUP4 PUSH32 0x6B08BEE316ED64851542EC4AD08063D5F5D812999963CF2A1CAF64E8E108D5AC TIMESTAMP PUSH1 0x40 MLOAD PUSH2 0x3FEB SWAP2 SWAP1 PUSH2 0x65DD JUMP JUMPDEST PUSH1 0x40 MLOAD DUP1 SWAP2 SUB SWAP1 LOG3 PUSH1 0x1 SWAP1 POP PUSH2 0x4001 JUMP JUMPDEST PUSH1 0x0 SWAP1 POP JUMPDEST SWAP3 SWAP2 POP POP JUMP JUMPDEST PUSH2 0x4011 PUSH1 0x2 PUSH2 0x569A JUMP JUMPDEST PUSH2 0x4019 PUSH2 0x576B JUMP JUMPDEST PUSH1 0x0 PUSH1 0xA PUSH1 0x0 SWAP1 SLOAD SWAP1 PUSH2 0x100 EXP SWAP1 DIV PUSH20 0xFFFFFFFFFFFFFFFFFFFFFFFFFFFFFFFFFFFFFFFF AND PUSH20 0xFFFFFFFFFFFFFFFFFFFFFFFFFFFFFFFFFFFFFFFF AND PUSH4 0xBF6CC08 PUSH1 0x40 MLOAD DUP2 PUSH4 0xFFFFFFFF AND PUSH1 0xE0 SHL DUP2 MSTORE PUSH1 0x4 ADD PUSH1 0x20 PUSH1 0x40 MLOAD DUP1 DUP4 SUB DUP2 DUP7 GAS STATICCALL ISZERO DUP1 ISZERO PUSH2 0x4088 JUMPI RETURNDATASIZE PUSH1 0x0 DUP1 RETURNDATACOPY RETURNDATASIZE PUSH1 0x0 REVERT JUMPDEST POP POP POP POP PUSH1 0x40 MLOAD RETURNDATASIZE PUSH1 0x1F NOT PUSH1 0x1F DUP3 ADD AND DUP3 ADD DUP1 PUSH1 0x40 MSTORE POP DUP2 ADD SWAP1 PUSH2 0x40AC SWAP2 SWAP1 PUSH2 0x77A3 JUMP JUMPDEST SWAP1 POP PUSH1 0x0 PUSH1 0xA PUSH1 0x0 SWAP1 SLOAD SWAP1 PUSH2 0x100 EXP SWAP1 DIV PUSH20 0xFFFFFFFFFFFFFFFFFFFFFFFFFFFFFFFFFFFFFFFF AND PUSH20 0xFFFFFFFFFFFFFFFFFFFFFFFFFFFFFFFFFFFFFFFF AND PUSH4 0x15018FD6 PUSH1 0x40 MLOAD DUP2 PUSH4 0xFFFFFFFF AND PUSH1 0xE0 SHL DUP2 MSTORE PUSH1 0x4 ADD PUSH1 0x20 PUSH1 0x40 MLOAD DUP1 DUP4 SUB DUP2 DUP7 GAS STATICCALL ISZERO DUP1 ISZERO PUSH2 0x411D JUMPI RETURNDATASIZE PUSH1 0x0 DUP1 RETURNDATACOPY RETURNDATASIZE PUSH1 0x0 REVERT JUMPDEST POP POP POP POP PUSH1 0x40 MLOAD RETURNDATASIZE PUSH1 0x1F NOT PUSH1 0x1F DUP3 ADD AND DUP3 ADD DUP1 PUSH1 0x40 MSTORE POP DUP2 ADD SWAP1 PUSH2 0x4141 SWAP2 SWAP1 PUSH2 0x77A3 JUMP JUMPDEST SWAP1 POP PUSH1 0x13 PUSH1 0x0 ADD PUSH1 0x0 SWAP1 SLOAD SWAP1 PUSH2 0x100 EXP SWAP1 DIV PUSH1 0xFF AND ISZERO PUSH2 0x4196 JUMPI PUSH1 0x40 MLOAD PUSH32 0x8C379A000000000000000000000000000000000000000000000000000000000 DUP2 MSTORE PUSH1 0x4 ADD PUSH2 0x418D SWAP1 PUSH2 0x7F84 JUMP JUMPDEST PUSH1 0x40 MLOAD DUP1 SWAP2 SUB SWAP1 REVERT JUMPDEST PUSH1 0x40 MLOAD DUP1 PUSH1 0x60 ADD PUSH1 0x40 MSTORE DUP1 PUSH1 0x1 ISZERO ISZERO DUP2 MSTORE PUSH1 0x20 ADD DUP4 DUP2 MSTORE PUSH1 0x20 ADD DUP3 DUP2 MSTORE POP PUSH1 0x13 PUSH1 0x0 DUP3 ADD MLOAD DUP2 PUSH1 0x0 ADD PUSH1 0x0 PUSH2 0x100 EXP DUP2 SLOAD DUP2 PUSH1 0xFF MUL NOT AND SWAP1 DUP4 ISZERO ISZERO MUL OR SWAP1 SSTORE POP PUSH1 0x20 DUP3 ADD MLOAD DUP2 PUSH1 0x1 ADD SSTORE PUSH1 0x40 DUP3 ADD MLOAD DUP2 PUSH1 0x2 ADD SSTORE SWAP1 POP POP PUSH1 0x0 PUSH1 0x8 SLOAD EQ PUSH2 0x4232 JUMPI PUSH1 0x40 MLOAD PUSH32 0x8C379A000000000000000000000000000000000000000000000000000000000 DUP2 MSTORE PUSH1 0x4 ADD PUSH2 0x4229 SWAP1 PUSH2 0x7FF0 JUMP JUMPDEST PUSH1 0x40 MLOAD DUP1 SWAP2 SUB SWAP1 REVERT JUMPDEST TIMESTAMP PUSH1 0x8 DUP2 SWAP1 SSTORE POP ADDRESS PUSH20 0xFFFFFFFFFFFFFFFFFFFFFFFFFFFFFFFFFFFFFFFF AND PUSH31 0x4CA7A344EBEE7B920D425EE9C48A6423CE6BEA12A3321271C35FAF22AA3A21 TIMESTAMP PUSH1 0x40 MLOAD PUSH2 0x427E SWAP2 SWAP1 PUSH2 0x65DD JUMP JUMPDEST PUSH1 0x40 MLOAD DUP1 SWAP2 SUB SWAP1 LOG2 POP POP JUMP JUMPDEST PUSH1 0x0 DUP5 PUSH1 0x0 ADD SWAP1 POP DUP1 PUSH1 0x0 ADD PUSH1 0x0 SWAP1 SLOAD SWAP1 PUSH2 0x100 EXP SWAP1 DIV PUSH20 0xFFFFFFFFFFFFFFFFFFFFFFFFFFFFFFFFFFFFFFFF AND PUSH20 0xFFFFFFFFFFFFFFFFFFFFFFFFFFFFFFFFFFFFFFFF AND CALLER PUSH20 0xFFFFFFFFFFFFFFFFFFFFFFFFFFFFFFFFFFFFFFFF AND EQ PUSH2 0x4324 JUMPI PUSH1 0x40 MLOAD PUSH32 0x8C379A000000000000000000000000000000000000000000000000000000000 DUP2 MSTORE PUSH1 0x4 ADD PUSH2 0x431B SWAP1 PUSH2 0x805C JUMP JUMPDEST PUSH1 0x40 MLOAD DUP1 SWAP2 SUB SWAP1 REVERT JUMPDEST DUP4 ISZERO PUSH2 0x4374 JUMPI PUSH2 0x4334 DUP6 DUP8 PUSH2 0x4C8C JUMP JUMPDEST PUSH32 0xCEE2A1520A638A8770319DBD0A7A04C3637D572574FF64E22348F8CDBE675268 DUP7 DUP5 DUP5 PUSH1 0x40 MLOAD PUSH2 0x4367 SWAP4 SWAP3 SWAP2 SWAP1 PUSH2 0x80B8 JUMP JUMPDEST PUSH1 0x40 MLOAD DUP1 SWAP2 SUB SWAP1 LOG1 PUSH2 0x43B9 JUMP JUMPDEST PUSH2 0x437D DUP6 PUSH2 0x5775 JUMP JUMPDEST PUSH32 0xE4D96E8897BF00472EEB376F43CEEF24D43765108E1A2A2B94286322C89956DA DUP7 DUP5 DUP5 PUSH1 0x40 MLOAD PUSH2 0x43B0 SWAP4 SWAP3 SWAP2 SWAP1 PUSH2 0x80B8 JUMP JUMPDEST PUSH1 0x40 MLOAD DUP1 SWAP2 SUB SWAP1 LOG1 JUMPDEST POP POP POP POP POP POP JUMP JUMPDEST PUSH1 0x0 DUP1 PUSH1 0x0 SWAP1 POP PUSH1 0x0 PUSH1 0x10 PUSH1 0x0 DUP6 PUSH20 0xFFFFFFFFFFFFFFFFFFFFFFFFFFFFFFFFFFFFFFFF AND PUSH20 0xFFFFFFFFFFFFFFFFFFFFFFFFFFFFFFFFFFFFFFFF AND DUP2 MSTORE PUSH1 0x20 ADD SWAP1 DUP2 MSTORE PUSH1 0x20 ADD PUSH1 0x0 KECCAK256 SWAP1 POP PUSH1 0x0 JUMPDEST DUP2 DUP1 SLOAD SWAP1 POP DUP2 LT ISZERO PUSH2 0x4463 JUMPI PUSH2 0x4443 DUP3 DUP3 DUP2 SLOAD DUP2 LT PUSH2 0x4430 JUMPI PUSH2 0x442F PUSH2 0x6E23 JUMP JUMPDEST JUMPDEST SWAP1 PUSH1 0x0 MSTORE PUSH1 0x20 PUSH1 0x0 KECCAK256 SWAP1 PUSH1 0x2 MUL ADD PUSH2 0x578B JUMP JUMPDEST DUP4 PUSH2 0x444E SWAP2 SWAP1 PUSH2 0x6DC6 JUMP JUMPDEST SWAP3 POP DUP1 DUP1 PUSH2 0x445B SWAP1 PUSH2 0x6E52 JUMP JUMPDEST SWAP2 POP POP PUSH2 0x440E JUMP JUMPDEST POP DUP2 SWAP3 POP POP POP SWAP2 SWAP1 POP JUMP JUMPDEST PUSH1 0x0 PUSH1 0x4 PUSH1 0x2 SWAP1 SLOAD SWAP1 PUSH2 0x100 EXP SWAP1 DIV PUSH20 0xFFFFFFFFFFFFFFFFFFFFFFFFFFFFFFFFFFFFFFFF AND SWAP1 POP SWAP1 JUMP JUMPDEST PUSH2 0x44A0 PUSH2 0x1E6F JUMP JUMPDEST ISZERO PUSH2 0x44E0 JUMPI PUSH1 0x40 MLOAD PUSH32 0x8C379A000000000000000000000000000000000000000000000000000000000 DUP2 MSTORE PUSH1 0x4 ADD PUSH2 0x44D7 SWAP1 PUSH2 0x8136 JUMP JUMPDEST PUSH1 0x40 MLOAD DUP1 SWAP2 SUB SWAP1 REVERT JUMPDEST JUMP JUMPDEST PUSH1 0x0 DUP1 PUSH1 0x2 PUSH1 0x0 SWAP1 SLOAD SWAP1 PUSH2 0x100 EXP SWAP1 DIV PUSH20 0xFFFFFFFFFFFFFFFFFFFFFFFFFFFFFFFFFFFFFFFF AND SWAP1 POP DUP1 PUSH20 0xFFFFFFFFFFFFFFFFFFFFFFFFFFFFFFFFFFFFFFFF AND PUSH4 0xDD62ED3E CALLER ADDRESS PUSH1 0x40 MLOAD DUP4 PUSH4 0xFFFFFFFF AND PUSH1 0xE0 SHL DUP2 MSTORE PUSH1 0x4 ADD PUSH2 0x4545 SWAP3 SWAP2 SWAP1 PUSH2 0x8156 JUMP JUMPDEST PUSH1 0x20 PUSH1 0x40 MLOAD DUP1 DUP4 SUB DUP2 DUP7 GAS STATICCALL ISZERO DUP1 ISZERO PUSH2 0x4562 JUMPI RETURNDATASIZE PUSH1 0x0 DUP1 RETURNDATACOPY RETURNDATASIZE PUSH1 0x0 REVERT JUMPDEST POP POP POP POP PUSH1 0x40 MLOAD RETURNDATASIZE PUSH1 0x1F NOT PUSH1 0x1F DUP3 ADD AND DUP3 ADD DUP1 PUSH1 0x40 MSTORE POP DUP2 ADD SWAP1 PUSH2 0x4586 SWAP2 SWAP1 PUSH2 0x77A3 JUMP JUMPDEST SWAP2 POP POP SWAP1 JUMP JUMPDEST PUSH1 0x14 PUSH1 0x10 PUSH1 0x0 DUP4 PUSH20 0xFFFFFFFFFFFFFFFFFFFFFFFFFFFFFFFFFFFFFFFF AND PUSH20 0xFFFFFFFFFFFFFFFFFFFFFFFFFFFFFFFFFFFFFFFF AND DUP2 MSTORE PUSH1 0x20 ADD SWAP1 DUP2 MSTORE PUSH1 0x20 ADD PUSH1 0x0 KECCAK256 DUP1 SLOAD SWAP1 POP LT PUSH2 0x4616 JUMPI DUP1 PUSH1 0x14 PUSH1 0x40 MLOAD PUSH32 0x3687AEFB00000000000000000000000000000000000000000000000000000000 DUP2 MSTORE PUSH1 0x4 ADD PUSH2 0x460D SWAP3 SWAP2 SWAP1 PUSH2 0x73D2 JUMP JUMPDEST PUSH1 0x40 MLOAD DUP1 SWAP2 SUB SWAP1 REVERT JUMPDEST POP JUMP JUMPDEST PUSH1 0x0 PUSH2 0x4624 TIMESTAMP PUSH2 0x3ACF JUMP JUMPDEST SWAP1 POP PUSH1 0x10 PUSH1 0x0 DUP5 PUSH20 0xFFFFFFFFFFFFFFFFFFFFFFFFFFFFFFFFFFFFFFFF AND PUSH20 0xFFFFFFFFFFFFFFFFFFFFFFFFFFFFFFFFFFFFFFFF AND DUP2 MSTORE PUSH1 0x20 ADD SWAP1 DUP2 MSTORE PUSH1 0x20 ADD PUSH1 0x0 KECCAK256 PUSH1 0x40 MLOAD DUP1 PUSH1 0x40 ADD PUSH1 0x40 MSTORE DUP1 DUP4 PUSH4 0xFFFFFFFF AND DUP2 MSTORE PUSH1 0x20 ADD DUP5 DUP2 MSTORE POP SWAP1 DUP1 PUSH1 0x1 DUP2 SLOAD ADD DUP1 DUP3 SSTORE DUP1 SWAP2 POP POP PUSH1 0x1 SWAP1 SUB SWAP1 PUSH1 0x0 MSTORE PUSH1 0x20 PUSH1 0x0 KECCAK256 SWAP1 PUSH1 0x2 MUL ADD PUSH1 0x0 SWAP1 SWAP2 SWAP1 SWAP2 SWAP1 SWAP2 POP PUSH1 0x0 DUP3 ADD MLOAD DUP2 PUSH1 0x0 ADD PUSH1 0x0 PUSH2 0x100 EXP DUP2 SLOAD DUP2 PUSH4 0xFFFFFFFF MUL NOT AND SWAP1 DUP4 PUSH4 0xFFFFFFFF AND MUL OR SWAP1 SSTORE POP PUSH1 0x20 DUP3 ADD MLOAD DUP2 PUSH1 0x1 ADD SSTORE POP POP PUSH1 0x12 PUSH1 0x0 DUP2 SLOAD DUP1 SWAP3 SWAP2 SWAP1 PUSH2 0x46EF SWAP1 PUSH2 0x6E52 JUMP JUMPDEST SWAP2 SWAP1 POP SSTORE POP PUSH32 0x38C1014DA5BA7F6E648A3D7B723408B2AB2C74245BB0401FBC351C73ED442218 DUP4 DUP4 PUSH1 0x40 MLOAD PUSH2 0x4725 SWAP3 SWAP2 SWAP1 PUSH2 0x73D2 JUMP JUMPDEST PUSH1 0x40 MLOAD DUP1 SWAP2 SUB SWAP1 LOG1 POP POP POP JUMP JUMPDEST PUSH1 0x0 CALLER SWAP1 POP PUSH1 0x0 PUSH1 0x2 PUSH1 0x0 SWAP1 SLOAD SWAP1 PUSH2 0x100 EXP SWAP1 DIV PUSH20 0xFFFFFFFFFFFFFFFFFFFFFFFFFFFFFFFFFFFFFFFF AND SWAP1 POP DUP3 PUSH2 0x4767 PUSH2 0x44E2 JUMP JUMPDEST LT ISZERO PUSH2 0x47A8 JUMPI PUSH1 0x40 MLOAD PUSH32 0x8C379A000000000000000000000000000000000000000000000000000000000 DUP2 MSTORE PUSH1 0x4 ADD PUSH2 0x479F SWAP1 PUSH2 0x81CB JUMP JUMPDEST PUSH1 0x40 MLOAD DUP1 SWAP2 SUB SWAP1 REVERT JUMPDEST PUSH1 0x0 DUP2 PUSH20 0xFFFFFFFFFFFFFFFFFFFFFFFFFFFFFFFFFFFFFFFF AND PUSH4 0x23B872DD DUP5 PUSH1 0xA PUSH1 0x0 SWAP1 SLOAD SWAP1 PUSH2 0x100 EXP SWAP1 DIV PUSH20 0xFFFFFFFFFFFFFFFFFFFFFFFFFFFFFFFFFFFFFFFF AND DUP8 PUSH1 0x40 MLOAD DUP5 PUSH4 0xFFFFFFFF AND PUSH1 0xE0 SHL DUP2 MSTORE PUSH1 0x4 ADD PUSH2 0x4809 SWAP4 SWAP3 SWAP2 SWAP1 PUSH2 0x81EB JUMP JUMPDEST PUSH1 0x20 PUSH1 0x40 MLOAD DUP1 DUP4 SUB DUP2 PUSH1 0x0 DUP8 GAS CALL ISZERO DUP1 ISZERO PUSH2 0x4828 JUMPI RETURNDATASIZE PUSH1 0x0 DUP1 RETURNDATACOPY RETURNDATASIZE PUSH1 0x0 REVERT JUMPDEST POP POP POP POP PUSH1 0x40 MLOAD RETURNDATASIZE PUSH1 0x1F NOT PUSH1 0x1F DUP3 ADD AND DUP3 ADD DUP1 PUSH1 0x40 MSTORE POP DUP2 ADD SWAP1 PUSH2 0x484C SWAP2 SWAP1 PUSH2 0x8237 JUMP JUMPDEST SWAP1 POP DUP1 PUSH2 0x488E JUMPI PUSH1 0x40 MLOAD PUSH32 0x8C379A000000000000000000000000000000000000000000000000000000000 DUP2 MSTORE PUSH1 0x4 ADD PUSH2 0x4885 SWAP1 PUSH2 0x82D6 JUMP JUMPDEST PUSH1 0x40 MLOAD DUP1 SWAP2 SUB SWAP1 REVERT JUMPDEST PUSH1 0xA PUSH1 0x0 SWAP1 SLOAD SWAP1 PUSH2 0x100 EXP SWAP1 DIV PUSH20 0xFFFFFFFFFFFFFFFFFFFFFFFFFFFFFFFFFFFFFFFF AND PUSH20 0xFFFFFFFFFFFFFFFFFFFFFFFFFFFFFFFFFFFFFFFF AND PUSH4 0x3E4CCB40 DUP6 PUSH1 0x40 MLOAD DUP3 PUSH4 0xFFFFFFFF AND PUSH1 0xE0 SHL DUP2 MSTORE PUSH1 0x4 ADD PUSH2 0x48E9 SWAP2 SWAP1 PUSH2 0x65DD JUMP JUMPDEST PUSH1 0x0 PUSH1 0x40 MLOAD DUP1 DUP4 SUB DUP2 PUSH1 0x0 DUP8 DUP1 EXTCODESIZE ISZERO DUP1 ISZERO PUSH2 0x4903 JUMPI PUSH1 0x0 DUP1 REVERT JUMPDEST POP GAS CALL ISZERO DUP1 ISZERO PUSH2 0x4917 JUMPI RETURNDATASIZE PUSH1 0x0 DUP1 RETURNDATACOPY RETURNDATASIZE PUSH1 0x0 REVERT JUMPDEST POP POP POP POP POP POP POP POP JUMP JUMPDEST PUSH1 0x0 DUP1 PUSH1 0x0 SWAP1 POP PUSH1 0x0 JUMPDEST DUP4 DUP1 SLOAD SWAP1 POP DUP2 LT ISZERO PUSH2 0x497C JUMPI DUP4 DUP2 DUP2 SLOAD DUP2 LT PUSH2 0x494A JUMPI PUSH2 0x4949 PUSH2 0x6E23 JUMP JUMPDEST JUMPDEST SWAP1 PUSH1 0x0 MSTORE PUSH1 0x20 PUSH1 0x0 KECCAK256 SWAP1 PUSH1 0x2 MUL ADD PUSH1 0x1 ADD SLOAD DUP3 PUSH2 0x4967 SWAP2 SWAP1 PUSH2 0x6DC6 JUMP JUMPDEST SWAP2 POP DUP1 DUP1 PUSH2 0x4974 SWAP1 PUSH2 0x6E52 JUMP JUMPDEST SWAP2 POP POP PUSH2 0x492B JUMP JUMPDEST POP DUP1 SWAP2 POP POP SWAP2 SWAP1 POP JUMP JUMPDEST PUSH1 0x0 DUP3 PUSH1 0x0 PUSH20 0xFFFFFFFFFFFFFFFFFFFFFFFFFFFFFFFFFFFFFFFF AND PUSH1 0x0 DUP3 DUP2 SLOAD DUP2 LT PUSH2 0x49B5 JUMPI PUSH2 0x49B4 PUSH2 0x6E23 JUMP JUMPDEST JUMPDEST SWAP1 PUSH1 0x0 MSTORE PUSH1 0x20 PUSH1 0x0 KECCAK256 SWAP1 PUSH1 0x4 MUL ADD PUSH1 0x0 ADD PUSH1 0x0 ADD PUSH1 0x0 SWAP1 SLOAD SWAP1 PUSH2 0x100 EXP SWAP1 DIV PUSH20 0xFFFFFFFFFFFFFFFFFFFFFFFFFFFFFFFFFFFFFFFF AND PUSH20 0xFFFFFFFFFFFFFFFFFFFFFFFFFFFFFFFFFFFFFFFF AND EQ PUSH2 0x4A40 JUMPI PUSH1 0x40 MLOAD PUSH32 0x8C379A000000000000000000000000000000000000000000000000000000000 DUP2 MSTORE PUSH1 0x4 ADD PUSH2 0x4A37 SWAP1 PUSH2 0x7B84 JUMP JUMPDEST PUSH1 0x40 MLOAD DUP1 SWAP2 SUB SWAP1 REVERT JUMPDEST PUSH1 0x0 DUP4 PUSH1 0x0 ADD SWAP1 POP PUSH1 0x0 DUP2 PUSH1 0x1 ADD SLOAD GT DUP1 PUSH2 0x4A75 JUMPI POP PUSH1 0x0 DUP2 PUSH1 0x0 ADD PUSH1 0x14 SWAP1 SLOAD SWAP1 PUSH2 0x100 EXP SWAP1 DIV PUSH4 0xFFFFFFFF AND PUSH4 0xFFFFFFFF AND GT JUMPDEST PUSH2 0x4AB4 JUMPI PUSH1 0x40 MLOAD PUSH32 0x8C379A000000000000000000000000000000000000000000000000000000000 DUP2 MSTORE PUSH1 0x4 ADD PUSH2 0x4AAB SWAP1 PUSH2 0x8342 JUMP JUMPDEST PUSH1 0x40 MLOAD DUP1 SWAP2 SUB SWAP1 REVERT JUMPDEST PUSH2 0x4ABD DUP6 PUSH2 0x5799 JUMP JUMPDEST PUSH1 0x0 DUP2 PUSH1 0x1 ADD SLOAD GT ISZERO PUSH2 0x4BA1 JUMPI PUSH1 0x0 PUSH2 0x4AD4 PUSH2 0x5829 JUMP JUMPDEST PUSH20 0xFFFFFFFFFFFFFFFFFFFFFFFFFFFFFFFFFFFFFFFF AND PUSH4 0xBF6CC08 PUSH1 0x40 MLOAD DUP2 PUSH4 0xFFFFFFFF AND PUSH1 0xE0 SHL DUP2 MSTORE PUSH1 0x4 ADD PUSH1 0x20 PUSH1 0x40 MLOAD DUP1 DUP4 SUB DUP2 DUP7 GAS STATICCALL ISZERO DUP1 ISZERO PUSH2 0x4B1E JUMPI RETURNDATASIZE PUSH1 0x0 DUP1 RETURNDATACOPY RETURNDATASIZE PUSH1 0x0 REVERT JUMPDEST POP POP POP POP PUSH1 0x40 MLOAD RETURNDATASIZE PUSH1 0x1F NOT PUSH1 0x1F DUP3 ADD AND DUP3 ADD DUP1 PUSH1 0x40 MSTORE POP DUP2 ADD SWAP1 PUSH2 0x4B42 SWAP2 SWAP1 PUSH2 0x77A3 JUMP JUMPDEST SWAP1 POP DUP2 PUSH1 0x1 ADD SLOAD DUP2 LT PUSH2 0x4B96 JUMPI DUP2 PUSH1 0x1 ADD SLOAD PUSH32 0x134C5576A740EABE5D305A7DED03EC36718A9502B10AB4BE9330A3BF38079A8F DUP3 PUSH1 0x40 MLOAD PUSH2 0x4B83 SWAP2 SWAP1 PUSH2 0x65DD JUMP JUMPDEST PUSH1 0x40 MLOAD DUP1 SWAP2 SUB SWAP1 LOG2 PUSH1 0x1 SWAP4 POP POP POP PUSH2 0x4C85 JUMP JUMPDEST PUSH1 0x0 SWAP4 POP POP POP PUSH2 0x4C85 JUMP JUMPDEST PUSH1 0x0 DUP2 PUSH1 0x0 ADD PUSH1 0x14 SWAP1 SLOAD SWAP1 PUSH2 0x100 EXP SWAP1 DIV PUSH4 0xFFFFFFFF AND PUSH4 0xFFFFFFFF AND GT PUSH2 0x4BFE JUMPI PUSH1 0x40 MLOAD PUSH32 0x8C379A000000000000000000000000000000000000000000000000000000000 DUP2 MSTORE PUSH1 0x4 ADD PUSH2 0x4BF5 SWAP1 PUSH2 0x83AE JUMP JUMPDEST PUSH1 0x40 MLOAD DUP1 SWAP2 SUB SWAP1 REVERT JUMPDEST DUP1 PUSH1 0x0 ADD PUSH1 0x14 SWAP1 SLOAD SWAP1 PUSH2 0x100 EXP SWAP1 DIV PUSH4 0xFFFFFFFF AND PUSH4 0xFFFFFFFF AND PUSH2 0x4C21 PUSH2 0x5853 JUMP JUMPDEST LT PUSH2 0x4C7F JUMPI PUSH2 0x4C2E PUSH2 0x5853 JUMP JUMPDEST DUP2 PUSH1 0x0 ADD PUSH1 0x14 SWAP1 SLOAD SWAP1 PUSH2 0x100 EXP SWAP1 DIV PUSH4 0xFFFFFFFF AND PUSH4 0xFFFFFFFF AND PUSH32 0x362682442867C8A8FECF4FB43ADA618F590EC216C609D91BC6FF4AB2E94E10FB PUSH1 0x40 MLOAD PUSH1 0x40 MLOAD DUP1 SWAP2 SUB SWAP1 LOG3 PUSH1 0x1 SWAP3 POP POP PUSH2 0x4C85 JUMP JUMPDEST PUSH1 0x0 SWAP3 POP POP JUMPDEST POP SWAP3 SWAP2 POP POP JUMP JUMPDEST PUSH2 0x4C95 DUP2 PUSH2 0x5799 JUMP JUMPDEST PUSH2 0x4C9E DUP2 PUSH2 0x585D JUMP JUMPDEST PUSH2 0x4CA9 DUP3 PUSH1 0x1 PUSH2 0x5609 JUMP JUMPDEST PUSH1 0x1 DUP2 SWAP1 DUP1 PUSH1 0x1 DUP2 SLOAD ADD DUP1 DUP3 SSTORE DUP1 SWAP2 POP POP PUSH1 0x1 SWAP1 SUB SWAP1 PUSH1 0x0 MSTORE PUSH1 0x20 PUSH1 0x0 KECCAK256 ADD PUSH1 0x0 SWAP1 SWAP2 SWAP1 SWAP2 SWAP1 SWAP2 POP SSTORE PUSH2 0x4CDB DUP3 PUSH2 0x5948 JUMP JUMPDEST PUSH1 0x0 DUP1 SLOAD SWAP1 POP PUSH1 0x1 DUP1 SLOAD SWAP1 POP SUB PUSH2 0x4CF5 JUMPI PUSH2 0x4CF4 PUSH2 0x5A50 JUMP JUMPDEST JUMPDEST PUSH32 0x8271178D75AD065E3C4FF55E53CA029D638F5283025F5E2595CC1C1B10C8BB4B DUP2 PUSH1 0x40 MLOAD PUSH2 0x4D24 SWAP2 SWAP1 PUSH2 0x65DD JUMP JUMPDEST PUSH1 0x40 MLOAD DUP1 SWAP2 SUB SWAP1 LOG1 POP POP JUMP JUMPDEST PUSH1 0x4 PUSH1 0x1 SWAP1 SLOAD SWAP1 PUSH2 0x100 EXP SWAP1 DIV PUSH1 0xFF AND ISZERO PUSH2 0x4D80 JUMPI PUSH1 0x40 MLOAD PUSH32 0x8C379A000000000000000000000000000000000000000000000000000000000 DUP2 MSTORE PUSH1 0x4 ADD PUSH2 0x4D77 SWAP1 PUSH2 0x7BF0 JUMP JUMPDEST PUSH1 0x40 MLOAD DUP1 SWAP2 SUB SWAP1 REVERT JUMPDEST PUSH1 0x1 PUSH1 0x4 PUSH1 0x1 PUSH2 0x100 EXP DUP2 SLOAD DUP2 PUSH1 0xFF MUL NOT AND SWAP1 DUP4 ISZERO ISZERO MUL OR SWAP1 SSTORE POP PUSH2 0x4DA4 DUP2 PUSH2 0x1327 JUMP JUMPDEST PUSH32 0x6D15517E52ECE26DBBF31262AD0035A73B9C67DB5D9DA70679E2A83D235B6580 PUSH1 0x40 MLOAD PUSH1 0x40 MLOAD DUP1 SWAP2 SUB SWAP1 LOG1 POP JUMP JUMPDEST PUSH1 0x0 DUP3 EQ DUP1 PUSH2 0x4DE3 JUMPI POP DUP2 DUP5 MLOAD LT ISZERO JUMPDEST PUSH2 0x4E22 JUMPI PUSH1 0x40 MLOAD PUSH32 0x8C379A000000000000000000000000000000000000000000000000000000000 DUP2 MSTORE PUSH1 0x4 ADD PUSH2 0x4E19 SWAP1 PUSH2 0x841A JUMP JUMPDEST PUSH1 0x40 MLOAD DUP1 SWAP2 SUB SWAP1 REVERT JUMPDEST PUSH1 0x0 DUP2 EQ DUP1 PUSH2 0x4E32 JUMPI POP DUP1 DUP5 MLOAD GT ISZERO JUMPDEST PUSH2 0x4E71 JUMPI PUSH1 0x40 MLOAD PUSH32 0x8C379A000000000000000000000000000000000000000000000000000000000 DUP2 MSTORE PUSH1 0x4 ADD PUSH2 0x4E68 SWAP1 PUSH2 0x8486 JUMP JUMPDEST PUSH1 0x40 MLOAD DUP1 SWAP2 SUB SWAP1 REVERT JUMPDEST PUSH1 0x0 JUMPDEST DUP5 MLOAD DUP2 LT ISZERO PUSH2 0x4F2C JUMPI PUSH2 0x4EA6 DUP2 DUP7 DUP4 DUP2 MLOAD DUP2 LT PUSH2 0x4E94 JUMPI PUSH2 0x4E93 PUSH2 0x6E23 JUMP JUMPDEST JUMPDEST PUSH1 0x20 MUL PUSH1 0x20 ADD ADD MLOAD PUSH1 0x40 ADD MLOAD DUP7 PUSH2 0x5B06 JUMP JUMPDEST PUSH2 0x4ECE DUP2 DUP7 DUP4 DUP2 MLOAD DUP2 LT PUSH2 0x4EBD JUMPI PUSH2 0x4EBC PUSH2 0x6E23 JUMP JUMPDEST JUMPDEST PUSH1 0x20 MUL PUSH1 0x20 ADD ADD MLOAD PUSH1 0x0 ADD MLOAD PUSH2 0x5B87 JUMP JUMPDEST PUSH1 0x0 DUP6 DUP3 DUP2 MLOAD DUP2 LT PUSH2 0x4EE3 JUMPI PUSH2 0x4EE2 PUSH2 0x6E23 JUMP JUMPDEST JUMPDEST PUSH1 0x20 MUL PUSH1 0x20 ADD ADD MLOAD PUSH1 0x20 ADD SWAP1 PUSH1 0x2 DUP2 GT ISZERO PUSH2 0x4F01 JUMPI PUSH2 0x4F00 PUSH2 0x66C1 JUMP JUMPDEST JUMPDEST SWAP1 DUP2 PUSH1 0x2 DUP2 GT ISZERO PUSH2 0x4F15 JUMPI PUSH2 0x4F14 PUSH2 0x66C1 JUMP JUMPDEST JUMPDEST DUP2 MSTORE POP POP DUP1 DUP1 PUSH2 0x4F24 SWAP1 PUSH2 0x6E52 JUMP JUMPDEST SWAP2 POP POP PUSH2 0x4E74 JUMP JUMPDEST POP POP POP POP POP JUMP JUMPDEST PUSH1 0x0 DUP1 PUSH2 0x4F40 SWAP2 SWAP1 PUSH2 0x608E JUMP JUMPDEST PUSH1 0x0 JUMPDEST DUP2 MLOAD DUP2 LT ISZERO PUSH2 0x50AF JUMPI PUSH1 0x0 DUP3 DUP3 DUP2 MLOAD DUP2 LT PUSH2 0x4F61 JUMPI PUSH2 0x4F60 PUSH2 0x6E23 JUMP JUMPDEST JUMPDEST PUSH1 0x20 MUL PUSH1 0x20 ADD ADD MLOAD SWAP1 DUP1 PUSH1 0x1 DUP2 SLOAD ADD DUP1 DUP3 SSTORE DUP1 SWAP2 POP POP PUSH1 0x1 SWAP1 SUB SWAP1 PUSH1 0x0 MSTORE PUSH1 0x20 PUSH1 0x0 KECCAK256 SWAP1 PUSH1 0x4 MUL ADD PUSH1 0x0 SWAP1 SWAP2 SWAP1 SWAP2 SWAP1 SWAP2 POP PUSH1 0x0 DUP3 ADD MLOAD DUP2 PUSH1 0x0 ADD PUSH1 0x0 DUP3 ADD MLOAD DUP2 PUSH1 0x0 ADD PUSH1 0x0 PUSH2 0x100 EXP DUP2 SLOAD DUP2 PUSH20 0xFFFFFFFFFFFFFFFFFFFFFFFFFFFFFFFFFFFFFFFF MUL NOT AND SWAP1 DUP4 PUSH20 0xFFFFFFFFFFFFFFFFFFFFFFFFFFFFFFFFFFFFFFFF AND MUL OR SWAP1 SSTORE POP PUSH1 0x20 DUP3 ADD MLOAD DUP2 PUSH1 0x0 ADD PUSH1 0x14 PUSH2 0x100 EXP DUP2 SLOAD DUP2 PUSH4 0xFFFFFFFF MUL NOT AND SWAP1 DUP4 PUSH4 0xFFFFFFFF AND MUL OR SWAP1 SSTORE POP PUSH1 0x40 DUP3 ADD MLOAD DUP2 PUSH1 0x1 ADD SSTORE POP POP PUSH1 0x20 DUP3 ADD MLOAD DUP2 PUSH1 0x2 ADD PUSH1 0x0 PUSH2 0x100 EXP DUP2 SLOAD DUP2 PUSH1 0xFF MUL NOT AND SWAP1 DUP4 PUSH1 0x2 DUP2 GT ISZERO PUSH2 0x5040 JUMPI PUSH2 0x503F PUSH2 0x66C1 JUMP JUMPDEST JUMPDEST MUL OR SWAP1 SSTORE POP PUSH1 0x40 DUP3 ADD MLOAD DUP2 PUSH1 0x2 ADD PUSH1 0x1 PUSH2 0x100 EXP DUP2 SLOAD DUP2 PUSH4 0xFFFFFFFF MUL NOT AND SWAP1 DUP4 PUSH4 0xFFFFFFFF AND MUL OR SWAP1 SSTORE POP PUSH1 0x60 DUP3 ADD MLOAD DUP2 PUSH1 0x2 ADD PUSH1 0x5 PUSH2 0x100 EXP DUP2 SLOAD DUP2 PUSH4 0xFFFFFFFF MUL NOT AND SWAP1 DUP4 PUSH1 0x3 SIGNEXTEND PUSH4 0xFFFFFFFF AND MUL OR SWAP1 SSTORE POP PUSH1 0x80 DUP3 ADD MLOAD DUP2 PUSH1 0x3 ADD SSTORE POP POP DUP1 DUP1 PUSH1 0x1 ADD SWAP2 POP POP PUSH2 0x4F43 JUMP JUMPDEST POP POP JUMP JUMPDEST PUSH1 0x0 DUP1 DUP3 PUSH1 0xA PUSH1 0x0 SWAP1 SLOAD SWAP1 PUSH2 0x100 EXP SWAP1 DIV PUSH20 0xFFFFFFFFFFFFFFFFFFFFFFFFFFFFFFFFFFFFFFFF AND PUSH20 0xFFFFFFFFFFFFFFFFFFFFFFFFFFFFFFFFFFFFFFFF AND PUSH4 0xBF6CC08 PUSH1 0x40 MLOAD DUP2 PUSH4 0xFFFFFFFF AND PUSH1 0xE0 SHL DUP2 MSTORE PUSH1 0x4 ADD PUSH1 0x20 PUSH1 0x40 MLOAD DUP1 DUP4 SUB DUP2 DUP7 GAS STATICCALL ISZERO DUP1 ISZERO PUSH2 0x5124 JUMPI RETURNDATASIZE PUSH1 0x0 DUP1 RETURNDATACOPY RETURNDATASIZE PUSH1 0x0 REVERT JUMPDEST POP POP POP POP PUSH1 0x40 MLOAD RETURNDATASIZE PUSH1 0x1F NOT PUSH1 0x1F DUP3 ADD AND DUP3 ADD DUP1 PUSH1 0x40 MSTORE POP DUP2 ADD SWAP1 PUSH2 0x5148 SWAP2 SWAP1 PUSH2 0x77A3 JUMP JUMPDEST PUSH2 0x5152 SWAP2 SWAP1 PUSH2 0x7E52 JUMP JUMPDEST SWAP1 POP PUSH1 0x0 PUSH1 0x12 SLOAD GT PUSH2 0x5199 JUMPI PUSH1 0x40 MLOAD PUSH32 0x8C379A000000000000000000000000000000000000000000000000000000000 DUP2 MSTORE PUSH1 0x4 ADD PUSH2 0x5190 SWAP1 PUSH2 0x84F2 JUMP JUMPDEST PUSH1 0x40 MLOAD DUP1 SWAP2 SUB SWAP1 REVERT JUMPDEST PUSH1 0x12 SLOAD DUP2 PUSH2 0x51A7 SWAP2 SWAP1 PUSH2 0x7B07 JUMP JUMPDEST SWAP2 POP POP SWAP3 SWAP2 POP POP JUMP JUMPDEST PUSH1 0x1 PUSH1 0x2 DUP2 GT ISZERO PUSH2 0x51C4 JUMPI PUSH2 0x51C3 PUSH2 0x66C1 JUMP JUMPDEST JUMPDEST PUSH1 0x6 PUSH1 0x14 SWAP1 SLOAD SWAP1 PUSH2 0x100 EXP SWAP1 DIV PUSH1 0xFF AND PUSH1 0x2 DUP2 GT ISZERO PUSH2 0x51E6 JUMPI PUSH2 0x51E5 PUSH2 0x66C1 JUMP JUMPDEST JUMPDEST EQ PUSH2 0x5226 JUMPI PUSH1 0x40 MLOAD PUSH32 0x8C379A000000000000000000000000000000000000000000000000000000000 DUP2 MSTORE PUSH1 0x4 ADD PUSH2 0x521D SWAP1 PUSH2 0x7346 JUMP JUMPDEST PUSH1 0x40 MLOAD DUP1 SWAP2 SUB SWAP1 REVERT JUMPDEST PUSH1 0x0 PUSH1 0x8 SLOAD GT PUSH2 0x526B JUMPI PUSH1 0x40 MLOAD PUSH32 0x8C379A000000000000000000000000000000000000000000000000000000000 DUP2 MSTORE PUSH1 0x4 ADD PUSH2 0x5262 SWAP1 PUSH2 0x73B2 JUMP JUMPDEST PUSH1 0x40 MLOAD DUP1 SWAP2 SUB SWAP1 REVERT JUMPDEST ADDRESS PUSH20 0xFFFFFFFFFFFFFFFFFFFFFFFFFFFFFFFFFFFFFFFF AND PUSH1 0xB PUSH1 0x0 SWAP1 SLOAD SWAP1 PUSH2 0x100 EXP SWAP1 DIV PUSH20 0xFFFFFFFFFFFFFFFFFFFFFFFFFFFFFFFFFFFFFFFF AND PUSH20 0xFFFFFFFFFFFFFFFFFFFFFFFFFFFFFFFFFFFFFFFF AND PUSH4 0x893D20E8 PUSH1 0x40 MLOAD DUP2 PUSH4 0xFFFFFFFF AND PUSH1 0xE0 SHL DUP2 MSTORE PUSH1 0x4 ADD PUSH1 0x20 PUSH1 0x40 MLOAD DUP1 DUP4 SUB DUP2 DUP7 GAS STATICCALL ISZERO DUP1 ISZERO PUSH2 0x52EF JUMPI RETURNDATASIZE PUSH1 0x0 DUP1 RETURNDATACOPY RETURNDATASIZE PUSH1 0x0 REVERT JUMPDEST POP POP POP POP PUSH1 0x40 MLOAD RETURNDATASIZE PUSH1 0x1F NOT PUSH1 0x1F DUP3 ADD AND DUP3 ADD DUP1 PUSH1 0x40 MSTORE POP DUP2 ADD SWAP1 PUSH2 0x5313 SWAP2 SWAP1 PUSH2 0x758B JUMP JUMPDEST PUSH20 0xFFFFFFFFFFFFFFFFFFFFFFFFFFFFFFFFFFFFFFFF AND EQ PUSH2 0x5369 JUMPI PUSH1 0x40 MLOAD PUSH32 0x8C379A000000000000000000000000000000000000000000000000000000000 DUP2 MSTORE PUSH1 0x4 ADD PUSH2 0x5360 SWAP1 PUSH2 0x855E JUMP JUMPDEST PUSH1 0x40 MLOAD DUP1 SWAP2 SUB SWAP1 REVERT JUMPDEST PUSH1 0x0 PUSH1 0xB PUSH1 0x0 SWAP1 SLOAD SWAP1 PUSH2 0x100 EXP SWAP1 DIV PUSH20 0xFFFFFFFFFFFFFFFFFFFFFFFFFFFFFFFFFFFFFFFF AND PUSH20 0xFFFFFFFFFFFFFFFFFFFFFFFFFFFFFFFFFFFFFFFF AND PUSH4 0x70A08231 DUP5 PUSH1 0x40 MLOAD DUP3 PUSH4 0xFFFFFFFF AND PUSH1 0xE0 SHL DUP2 MSTORE PUSH1 0x4 ADD PUSH2 0x53C6 SWAP2 SWAP1 PUSH2 0x65B3 JUMP JUMPDEST PUSH1 0x20 PUSH1 0x40 MLOAD DUP1 DUP4 SUB DUP2 DUP7 GAS STATICCALL ISZERO DUP1 ISZERO PUSH2 0x53E3 JUMPI RETURNDATASIZE PUSH1 0x0 DUP1 RETURNDATACOPY RETURNDATASIZE PUSH1 0x0 REVERT JUMPDEST POP POP POP POP PUSH1 0x40 MLOAD RETURNDATASIZE PUSH1 0x1F NOT PUSH1 0x1F DUP3 ADD AND DUP3 ADD DUP1 PUSH1 0x40 MSTORE POP DUP2 ADD SWAP1 PUSH2 0x5407 SWAP2 SWAP1 PUSH2 0x77A3 JUMP JUMPDEST SWAP1 POP PUSH1 0xB PUSH1 0x0 SWAP1 SLOAD SWAP1 PUSH2 0x100 EXP SWAP1 DIV PUSH20 0xFFFFFFFFFFFFFFFFFFFFFFFFFFFFFFFFFFFFFFFF AND PUSH20 0xFFFFFFFFFFFFFFFFFFFFFFFFFFFFFFFFFFFFFFFF AND PUSH4 0x40C10F19 DUP5 DUP5 PUSH1 0x40 MLOAD DUP4 PUSH4 0xFFFFFFFF AND PUSH1 0xE0 SHL DUP2 MSTORE PUSH1 0x4 ADD PUSH2 0x5466 SWAP3 SWAP2 SWAP1 PUSH2 0x73D2 JUMP JUMPDEST PUSH1 0x0 PUSH1 0x40 MLOAD DUP1 DUP4 SUB DUP2 PUSH1 0x0 DUP8 DUP1 EXTCODESIZE ISZERO DUP1 ISZERO PUSH2 0x5480 JUMPI PUSH1 0x0 DUP1 REVERT JUMPDEST POP GAS CALL ISZERO DUP1 ISZERO PUSH2 0x5494 JUMPI RETURNDATASIZE PUSH1 0x0 DUP1 RETURNDATACOPY RETURNDATASIZE PUSH1 0x0 REVERT JUMPDEST POP POP POP POP PUSH1 0x0 PUSH1 0xB PUSH1 0x0 SWAP1 SLOAD SWAP1 PUSH2 0x100 EXP SWAP1 DIV PUSH20 0xFFFFFFFFFFFFFFFFFFFFFFFFFFFFFFFFFFFFFFFF AND PUSH20 0xFFFFFFFFFFFFFFFFFFFFFFFFFFFFFFFFFFFFFFFF AND PUSH4 0x70A08231 DUP6 PUSH1 0x40 MLOAD DUP3 PUSH4 0xFFFFFFFF AND PUSH1 0xE0 SHL DUP2 MSTORE PUSH1 0x4 ADD PUSH2 0x54F5 SWAP2 SWAP1 PUSH2 0x65B3 JUMP JUMPDEST PUSH1 0x20 PUSH1 0x40 MLOAD DUP1 DUP4 SUB DUP2 DUP7 GAS STATICCALL ISZERO DUP1 ISZERO PUSH2 0x5512 JUMPI RETURNDATASIZE PUSH1 0x0 DUP1 RETURNDATACOPY RETURNDATASIZE PUSH1 0x0 REVERT JUMPDEST POP POP POP POP PUSH1 0x40 MLOAD RETURNDATASIZE PUSH1 0x1F NOT PUSH1 0x1F DUP3 ADD AND DUP3 ADD DUP1 PUSH1 0x40 MSTORE POP DUP2 ADD SWAP1 PUSH2 0x5536 SWAP2 SWAP1 PUSH2 0x77A3 JUMP JUMPDEST SWAP1 POP DUP3 DUP3 PUSH2 0x5544 SWAP2 SWAP1 PUSH2 0x6DC6 JUMP JUMPDEST DUP2 EQ PUSH2 0x5585 JUMPI PUSH1 0x40 MLOAD PUSH32 0x8C379A000000000000000000000000000000000000000000000000000000000 DUP2 MSTORE PUSH1 0x4 ADD PUSH2 0x557C SWAP1 PUSH2 0x85CA JUMP JUMPDEST PUSH1 0x40 MLOAD DUP1 SWAP2 SUB SWAP1 REVERT JUMPDEST POP POP POP POP JUMP JUMPDEST PUSH1 0x0 PUSH1 0x2 DUP2 GT ISZERO PUSH2 0x559F JUMPI PUSH2 0x559E PUSH2 0x66C1 JUMP JUMPDEST JUMPDEST DUP2 PUSH1 0x2 ADD PUSH1 0x0 SWAP1 SLOAD SWAP1 PUSH2 0x100 EXP SWAP1 DIV PUSH1 0xFF AND PUSH1 0x2 DUP2 GT ISZERO PUSH2 0x55C3 JUMPI PUSH2 0x55C2 PUSH2 0x66C1 JUMP JUMPDEST JUMPDEST EQ PUSH2 0x5605 JUMPI DUP2 PUSH1 0x40 MLOAD PUSH32 0xB3FE19C500000000000000000000000000000000000000000000000000000000 DUP2 MSTORE PUSH1 0x4 ADD PUSH2 0x55FC SWAP2 SWAP1 PUSH2 0x65DD JUMP JUMPDEST PUSH1 0x40 MLOAD DUP1 SWAP2 SUB SWAP1 REVERT JUMPDEST POP POP JUMP JUMPDEST PUSH1 0x0 DUP3 PUSH1 0x2 ADD PUSH1 0x0 SWAP1 SLOAD SWAP1 PUSH2 0x100 EXP SWAP1 DIV PUSH1 0xFF AND SWAP1 POP DUP2 DUP4 PUSH1 0x2 ADD PUSH1 0x0 PUSH2 0x100 EXP DUP2 SLOAD DUP2 PUSH1 0xFF MUL NOT AND SWAP1 DUP4 PUSH1 0x2 DUP2 GT ISZERO PUSH2 0x5646 JUMPI PUSH2 0x5645 PUSH2 0x66C1 JUMP JUMPDEST JUMPDEST MUL OR SWAP1 SSTORE POP PUSH32 0x5B58E487123EE87389D1F6F52C3DA619B1A1F2D349E5E3BE50C6D08C29EEA843 DUP4 PUSH1 0x2 ADD PUSH1 0x0 SWAP1 SLOAD SWAP1 PUSH2 0x100 EXP SWAP1 DIV PUSH1 0xFF AND DUP3 PUSH1 0x40 MLOAD PUSH2 0x568D SWAP3 SWAP2 SWAP1 PUSH2 0x85EA JUMP JUMPDEST PUSH1 0x40 MLOAD DUP1 SWAP2 SUB SWAP1 LOG1 POP POP POP JUMP JUMPDEST PUSH2 0x56A2 PUSH2 0x3A4F JUMP JUMPDEST PUSH2 0x56E1 JUMPI PUSH1 0x40 MLOAD PUSH32 0x8C379A000000000000000000000000000000000000000000000000000000000 DUP2 MSTORE PUSH1 0x4 ADD PUSH2 0x56D8 SWAP1 PUSH2 0x6D77 JUMP JUMPDEST PUSH1 0x40 MLOAD DUP1 SWAP2 SUB SWAP1 REVERT JUMPDEST PUSH1 0x0 PUSH1 0x6 PUSH1 0x14 SWAP1 SLOAD SWAP1 PUSH2 0x100 EXP SWAP1 DIV PUSH1 0xFF AND SWAP1 POP DUP2 PUSH1 0x6 PUSH1 0x14 PUSH2 0x100 EXP DUP2 SLOAD DUP2 PUSH1 0xFF MUL NOT AND SWAP1 DUP4 PUSH1 0x2 DUP2 GT ISZERO PUSH2 0x571A JUMPI PUSH2 0x5719 PUSH2 0x66C1 JUMP JUMPDEST JUMPDEST MUL OR SWAP1 SSTORE POP PUSH32 0x5F7190D4B692F775B7A269B78D81C502863F0E560F02F61BE875619F3C16FE09 PUSH1 0x6 PUSH1 0x14 SWAP1 SLOAD SWAP1 PUSH2 0x100 EXP SWAP1 DIV PUSH1 0xFF AND DUP3 PUSH1 0x40 MLOAD PUSH2 0x575F SWAP3 SWAP2 SWAP1 PUSH2 0x8613 JUMP JUMPDEST PUSH1 0x40 MLOAD DUP1 SWAP2 SUB SWAP1 LOG1 POP POP JUMP JUMPDEST PUSH1 0x0 PUSH1 0xF DUP2 SWAP1 SSTORE POP JUMP JUMPDEST PUSH2 0x5780 DUP2 PUSH1 0x2 PUSH2 0x5609 JUMP JUMPDEST PUSH2 0x5788 PUSH2 0x4007 JUMP JUMPDEST POP JUMP JUMPDEST PUSH1 0x0 DUP2 PUSH1 0x1 ADD SLOAD SWAP1 POP SWAP2 SWAP1 POP JUMP JUMPDEST PUSH1 0x0 DUP1 DUP3 DUP2 SLOAD DUP2 LT PUSH2 0x57AE JUMPI PUSH2 0x57AD PUSH2 0x6E23 JUMP JUMPDEST JUMPDEST SWAP1 PUSH1 0x0 MSTORE PUSH1 0x20 PUSH1 0x0 KECCAK256 SWAP1 PUSH1 0x4 MUL ADD SWAP1 POP PUSH1 0x0 DUP2 PUSH1 0x2 ADD PUSH1 0x5 SWAP1 SLOAD SWAP1 PUSH2 0x100 EXP SWAP1 DIV PUSH1 0x3 SIGNEXTEND PUSH1 0x3 SIGNEXTEND SWAP1 POP PUSH2 0x57E0 DUP2 PUSH2 0x5DA9 JUMP JUMPDEST ISZERO PUSH2 0x5824 JUMPI DUP1 DUP4 PUSH1 0x40 MLOAD PUSH32 0xA1B07EEF00000000000000000000000000000000000000000000000000000000 DUP2 MSTORE PUSH1 0x4 ADD PUSH2 0x581B SWAP3 SWAP2 SWAP1 PUSH2 0x863C JUMP JUMPDEST PUSH1 0x40 MLOAD DUP1 SWAP2 SUB SWAP1 REVERT JUMPDEST POP POP POP JUMP JUMPDEST PUSH1 0x0 PUSH1 0xA PUSH1 0x0 SWAP1 SLOAD SWAP1 PUSH2 0x100 EXP SWAP1 DIV PUSH20 0xFFFFFFFFFFFFFFFFFFFFFFFFFFFFFFFFFFFFFFFF AND SWAP1 POP SWAP1 JUMP JUMPDEST PUSH1 0x0 PUSH1 0x11 SLOAD SWAP1 POP SWAP1 JUMP JUMPDEST PUSH1 0x0 DUP1 DUP3 DUP2 SLOAD DUP2 LT PUSH2 0x5872 JUMPI PUSH2 0x5871 PUSH2 0x6E23 JUMP JUMPDEST JUMPDEST SWAP1 PUSH1 0x0 MSTORE PUSH1 0x20 PUSH1 0x0 KECCAK256 SWAP1 PUSH1 0x4 MUL ADD PUSH1 0x3 ADD SLOAD SWAP1 POP PUSH1 0x0 PUSH2 0x5890 PUSH2 0x5829 JUMP JUMPDEST PUSH20 0xFFFFFFFFFFFFFFFFFFFFFFFFFFFFFFFFFFFFFFFF AND PUSH4 0xBF6CC08 PUSH1 0x40 MLOAD DUP2 PUSH4 0xFFFFFFFF AND PUSH1 0xE0 SHL DUP2 MSTORE PUSH1 0x4 ADD PUSH1 0x20 PUSH1 0x40 MLOAD DUP1 DUP4 SUB DUP2 DUP7 GAS STATICCALL ISZERO DUP1 ISZERO PUSH2 0x58DA JUMPI RETURNDATASIZE PUSH1 0x0 DUP1 RETURNDATACOPY RETURNDATASIZE PUSH1 0x0 REVERT JUMPDEST POP POP POP POP PUSH1 0x40 MLOAD RETURNDATASIZE PUSH1 0x1F NOT PUSH1 0x1F DUP3 ADD AND DUP3 ADD DUP1 PUSH1 0x40 MSTORE POP DUP2 ADD SWAP1 PUSH2 0x58FE SWAP2 SWAP1 PUSH2 0x77A3 JUMP JUMPDEST SWAP1 POP DUP2 DUP2 LT ISZERO PUSH2 0x5943 JUMPI PUSH1 0x40 MLOAD PUSH32 0x8C379A000000000000000000000000000000000000000000000000000000000 DUP2 MSTORE PUSH1 0x4 ADD PUSH2 0x593A SWAP1 PUSH2 0x86B1 JUMP JUMPDEST PUSH1 0x40 MLOAD DUP1 SWAP2 SUB SWAP1 REVERT JUMPDEST POP POP POP JUMP JUMPDEST PUSH1 0x0 DUP2 PUSH1 0x3 ADD SLOAD SWAP1 POP PUSH1 0x0 PUSH2 0x595C DUP3 PUSH2 0x5E1F JUMP JUMPDEST SWAP1 POP PUSH2 0x5966 PUSH2 0x5829 JUMP JUMPDEST PUSH20 0xFFFFFFFFFFFFFFFFFFFFFFFFFFFFFFFFFFFFFFFF AND PUSH4 0x893D20E8 PUSH1 0x40 MLOAD DUP2 PUSH4 0xFFFFFFFF AND PUSH1 0xE0 SHL DUP2 MSTORE PUSH1 0x4 ADD PUSH1 0x20 PUSH1 0x40 MLOAD DUP1 DUP4 SUB DUP2 DUP7 GAS STATICCALL ISZERO DUP1 ISZERO PUSH2 0x59B0 JUMPI RETURNDATASIZE PUSH1 0x0 DUP1 RETURNDATACOPY RETURNDATASIZE PUSH1 0x0 REVERT JUMPDEST POP POP POP POP PUSH1 0x40 MLOAD RETURNDATASIZE PUSH1 0x1F NOT PUSH1 0x1F DUP3 ADD AND DUP3 ADD DUP1 PUSH1 0x40 MSTORE POP DUP2 ADD SWAP1 PUSH2 0x59D4 SWAP2 SWAP1 PUSH2 0x758B JUMP JUMPDEST PUSH20 0xFFFFFFFFFFFFFFFFFFFFFFFFFFFFFFFFFFFFFFFF AND ADDRESS PUSH20 0xFFFFFFFFFFFFFFFFFFFFFFFFFFFFFFFFFFFFFFFF AND EQ PUSH2 0x5A41 JUMPI PUSH1 0x40 MLOAD PUSH32 0x8C379A000000000000000000000000000000000000000000000000000000000 DUP2 MSTORE PUSH1 0x4 ADD PUSH2 0x5A38 SWAP1 PUSH2 0x871D JUMP JUMPDEST PUSH1 0x40 MLOAD DUP1 SWAP2 SUB SWAP1 REVERT JUMPDEST PUSH2 0x5A4B DUP3 DUP3 PUSH2 0x5E48 JUMP JUMPDEST POP POP POP JUMP JUMPDEST PUSH2 0x5A5A PUSH1 0x1 PUSH2 0x569A JUMP JUMPDEST PUSH2 0x5A62 PUSH2 0x576B JUMP JUMPDEST PUSH1 0x0 PUSH1 0x8 SLOAD EQ PUSH2 0x5AA7 JUMPI PUSH1 0x40 MLOAD PUSH32 0x8C379A000000000000000000000000000000000000000000000000000000000 DUP2 MSTORE PUSH1 0x4 ADD PUSH2 0x5A9E SWAP1 PUSH2 0x7FF0 JUMP JUMPDEST PUSH1 0x40 MLOAD DUP1 SWAP2 SUB SWAP1 REVERT JUMPDEST TIMESTAMP PUSH1 0x8 DUP2 SWAP1 SSTORE POP ADDRESS PUSH20 0xFFFFFFFFFFFFFFFFFFFFFFFFFFFFFFFFFFFFFFFF AND PUSH32 0xBE080B86E27FDA1CA5D795282FDE3E7FFC0A9A85F3A4060794DAEDB7F1A4E256 TIMESTAMP PUSH1 0x40 MLOAD PUSH2 0x5AF4 SWAP2 SWAP1 PUSH2 0x65DD JUMP JUMPDEST PUSH1 0x40 MLOAD DUP1 SWAP2 SUB SWAP1 LOG2 PUSH2 0x5B04 PUSH2 0x5F65 JUMP JUMPDEST JUMP JUMPDEST PUSH3 0x15180 DUP2 PUSH2 0x5B15 SWAP2 SWAP1 PUSH2 0x6DC6 JUMP JUMPDEST DUP3 PUSH4 0xFFFFFFFF AND LT DUP1 PUSH2 0x5B3C JUMPI POP PUSH4 0x1E13380 DUP2 PUSH2 0x5B33 SWAP2 SWAP1 PUSH2 0x6DC6 JUMP JUMPDEST DUP3 PUSH4 0xFFFFFFFF AND GT JUMPDEST ISZERO PUSH2 0x5B82 JUMPI DUP3 DUP3 DUP3 PUSH1 0x40 MLOAD PUSH32 0x4753F59500000000000000000000000000000000000000000000000000000000 DUP2 MSTORE PUSH1 0x4 ADD PUSH2 0x5B79 SWAP4 SWAP3 SWAP2 SWAP1 PUSH2 0x873D JUMP JUMPDEST PUSH1 0x40 MLOAD DUP1 SWAP2 SUB SWAP1 REVERT JUMPDEST POP POP POP JUMP JUMPDEST PUSH1 0x0 DUP1 PUSH20 0xFFFFFFFFFFFFFFFFFFFFFFFFFFFFFFFFFFFFFFFF AND DUP3 PUSH1 0x0 ADD MLOAD PUSH20 0xFFFFFFFFFFFFFFFFFFFFFFFFFFFFFFFFFFFFFFFF AND EQ ISZERO DUP1 PUSH2 0x5BCC JUMPI POP PUSH1 0x0 DUP3 PUSH1 0x40 ADD MLOAD GT JUMPDEST DUP1 PUSH2 0x5BE1 JUMPI POP PUSH1 0x0 DUP3 PUSH1 0x20 ADD MLOAD PUSH4 0xFFFFFFFF AND GT JUMPDEST SWAP1 POP DUP1 PUSH2 0x5C25 JUMPI DUP3 PUSH1 0x40 MLOAD PUSH32 0x51DD5CF200000000000000000000000000000000000000000000000000000000 DUP2 MSTORE PUSH1 0x4 ADD PUSH2 0x5C1C SWAP2 SWAP1 PUSH2 0x65DD JUMP JUMPDEST PUSH1 0x40 MLOAD DUP1 SWAP2 SUB SWAP1 REVERT JUMPDEST PUSH1 0x0 DUP1 PUSH20 0xFFFFFFFFFFFFFFFFFFFFFFFFFFFFFFFFFFFFFFFF AND DUP4 PUSH1 0x0 ADD MLOAD PUSH20 0xFFFFFFFFFFFFFFFFFFFFFFFFFFFFFFFFFFFFFFFF AND EQ DUP1 PUSH2 0x5C7F JUMPI POP PUSH1 0x0 DUP4 PUSH1 0x40 ADD MLOAD EQ DUP1 ISZERO PUSH2 0x5C7E JUMPI POP PUSH1 0x0 DUP4 PUSH1 0x20 ADD MLOAD PUSH4 0xFFFFFFFF AND EQ JUMPDEST JUMPDEST SWAP1 POP PUSH1 0x0 DUP1 DUP5 PUSH1 0x40 ADD MLOAD EQ DUP1 PUSH2 0x5CDB JUMPI POP PUSH1 0x0 PUSH20 0xFFFFFFFFFFFFFFFFFFFFFFFFFFFFFFFFFFFFFFFF AND DUP5 PUSH1 0x0 ADD MLOAD PUSH20 0xFFFFFFFFFFFFFFFFFFFFFFFFFFFFFFFFFFFFFFFF AND EQ DUP1 ISZERO PUSH2 0x5CDA JUMPI POP PUSH1 0x0 DUP5 PUSH1 0x20 ADD MLOAD PUSH4 0xFFFFFFFF AND EQ JUMPDEST JUMPDEST SWAP1 POP PUSH1 0x0 DUP1 DUP6 PUSH1 0x20 ADD MLOAD PUSH4 0xFFFFFFFF AND EQ DUP1 PUSH2 0x5D37 JUMPI POP PUSH1 0x0 PUSH20 0xFFFFFFFFFFFFFFFFFFFFFFFFFFFFFFFFFFFFFFFF AND DUP6 PUSH1 0x0 ADD MLOAD PUSH20 0xFFFFFFFFFFFFFFFFFFFFFFFFFFFFFFFFFFFFFFFF AND EQ DUP1 ISZERO PUSH2 0x5D36 JUMPI POP PUSH1 0x0 DUP6 PUSH1 0x40 ADD MLOAD EQ JUMPDEST JUMPDEST SWAP1 POP DUP3 ISZERO DUP1 PUSH2 0x5D44 JUMPI POP DUP2 ISZERO JUMPDEST DUP1 PUSH2 0x5D4D JUMPI POP DUP1 ISZERO JUMPDEST ISZERO PUSH2 0x5DA1 JUMPI DUP6 DUP6 PUSH1 0x0 ADD MLOAD DUP7 PUSH1 0x40 ADD MLOAD DUP8 PUSH1 0x20 ADD MLOAD PUSH1 0x40 MLOAD PUSH32 0x7EE0DC5000000000000000000000000000000000000000000000000000000000 DUP2 MSTORE PUSH1 0x4 ADD PUSH2 0x5D98 SWAP5 SWAP4 SWAP3 SWAP2 SWAP1 PUSH2 0x87A5 JUMP JUMPDEST PUSH1 0x40 MLOAD DUP1 SWAP2 SUB SWAP1 REVERT JUMPDEST POP POP POP POP POP POP JUMP JUMPDEST PUSH1 0x0 DUP1 DUP3 SLT ISZERO PUSH2 0x5DBC JUMPI PUSH1 0x0 SWAP1 POP PUSH2 0x5E1A JUMP JUMPDEST PUSH1 0x1 PUSH1 0x2 DUP2 GT ISZERO PUSH2 0x5DD0 JUMPI PUSH2 0x5DCF PUSH2 0x66C1 JUMP JUMPDEST JUMPDEST PUSH1 0x0 DUP4 DUP2 SLOAD DUP2 LT PUSH2 0x5DE4 JUMPI PUSH2 0x5DE3 PUSH2 0x6E23 JUMP JUMPDEST JUMPDEST SWAP1 PUSH1 0x0 MSTORE PUSH1 0x20 PUSH1 0x0 KECCAK256 SWAP1 PUSH1 0x4 MUL ADD PUSH1 0x2 ADD PUSH1 0x0 SWAP1 SLOAD SWAP1 PUSH2 0x100 EXP SWAP1 DIV PUSH1 0xFF AND PUSH1 0x2 DUP2 GT ISZERO PUSH2 0x5E15 JUMPI PUSH2 0x5E14 PUSH2 0x66C1 JUMP JUMPDEST JUMPDEST EQ ISZERO SWAP1 POP JUMPDEST SWAP2 SWAP1 POP JUMP JUMPDEST PUSH1 0x0 PUSH2 0x3E8 PUSH2 0x5E2C PUSH2 0x6015 JUMP JUMPDEST DUP4 PUSH2 0x5E37 SWAP2 SWAP1 PUSH2 0x7A7E JUMP JUMPDEST PUSH2 0x5E41 SWAP2 SWAP1 PUSH2 0x7B07 JUMP JUMPDEST SWAP1 POP SWAP2 SWAP1 POP JUMP JUMPDEST PUSH1 0x0 PUSH2 0x5E52 PUSH2 0x601F JUMP JUMPDEST SWAP1 POP PUSH2 0x5E5C PUSH2 0x5829 JUMP JUMPDEST PUSH20 0xFFFFFFFFFFFFFFFFFFFFFFFFFFFFFFFFFFFFFFFF AND PUSH4 0x60F8F11F DUP5 DUP5 PUSH2 0x5E81 PUSH2 0x601F JUMP JUMPDEST PUSH1 0x40 MLOAD DUP5 PUSH4 0xFFFFFFFF AND PUSH1 0xE0 SHL DUP2 MSTORE PUSH1 0x4 ADD PUSH2 0x5E9F SWAP4 SWAP3 SWAP2 SWAP1 PUSH2 0x87EA JUMP JUMPDEST PUSH1 0x0 PUSH1 0x40 MLOAD DUP1 DUP4 SUB DUP2 PUSH1 0x0 DUP8 DUP1 EXTCODESIZE ISZERO DUP1 ISZERO PUSH2 0x5EB9 JUMPI PUSH1 0x0 DUP1 REVERT JUMPDEST POP GAS CALL ISZERO DUP1 ISZERO PUSH2 0x5ECD JUMPI RETURNDATASIZE PUSH1 0x0 DUP1 RETURNDATACOPY RETURNDATASIZE PUSH1 0x0 REVERT JUMPDEST POP POP POP POP DUP1 PUSH20 0xFFFFFFFFFFFFFFFFFFFFFFFFFFFFFFFFFFFFFFFF AND PUSH4 0x598C68B PUSH1 0x2 PUSH1 0x0 SWAP1 SLOAD SWAP1 PUSH2 0x100 EXP SWAP1 DIV PUSH20 0xFFFFFFFFFFFFFFFFFFFFFFFFFFFFFFFFFFFFFFFF AND DUP5 PUSH1 0x40 MLOAD DUP4 PUSH4 0xFFFFFFFF AND PUSH1 0xE0 SHL DUP2 MSTORE PUSH1 0x4 ADD PUSH2 0x5F2E SWAP3 SWAP2 SWAP1 PUSH2 0x73D2 JUMP JUMPDEST PUSH1 0x0 PUSH1 0x40 MLOAD DUP1 DUP4 SUB DUP2 PUSH1 0x0 DUP8 DUP1 EXTCODESIZE ISZERO DUP1 ISZERO PUSH2 0x5F48 JUMPI PUSH1 0x0 DUP1 REVERT JUMPDEST POP GAS CALL ISZERO DUP1 ISZERO PUSH2 0x5F5C JUMPI RETURNDATASIZE PUSH1 0x0 DUP1 RETURNDATACOPY RETURNDATASIZE PUSH1 0x0 REVERT JUMPDEST POP POP POP POP POP POP POP JUMP JUMPDEST PUSH1 0x0 PUSH1 0xA PUSH1 0x0 SWAP1 SLOAD SWAP1 PUSH2 0x100 EXP SWAP1 DIV PUSH20 0xFFFFFFFFFFFFFFFFFFFFFFFFFFFFFFFFFFFFFFFF AND PUSH20 0xFFFFFFFFFFFFFFFFFFFFFFFFFFFFFFFFFFFFFFFF AND PUSH4 0xBF6CC08 PUSH1 0x40 MLOAD DUP2 PUSH4 0xFFFFFFFF AND PUSH1 0xE0 SHL DUP2 MSTORE PUSH1 0x4 ADD PUSH1 0x20 PUSH1 0x40 MLOAD DUP1 DUP4 SUB DUP2 DUP7 GAS STATICCALL ISZERO DUP1 ISZERO PUSH2 0x5FD4 JUMPI RETURNDATASIZE PUSH1 0x0 DUP1 RETURNDATACOPY RETURNDATASIZE PUSH1 0x0 REVERT JUMPDEST POP POP POP POP PUSH1 0x40 MLOAD RETURNDATASIZE PUSH1 0x1F NOT PUSH1 0x1F DUP3 ADD AND DUP3 ADD DUP1 PUSH1 0x40 MSTORE POP DUP2 ADD SWAP1 PUSH2 0x5FF8 SWAP2 SWAP1 PUSH2 0x77A3 JUMP JUMPDEST SWAP1 POP PUSH1 0x0 PUSH2 0x6005 DUP3 PUSH2 0x5E1F JUMP JUMPDEST SWAP1 POP PUSH2 0x6011 DUP3 DUP3 PUSH2 0x5E48 JUMP JUMPDEST POP POP JUMP JUMPDEST PUSH1 0x0 PUSH1 0xE SLOAD SWAP1 POP SWAP1 JUMP JUMPDEST PUSH1 0x0 PUSH1 0x5 PUSH1 0x0 SWAP1 SLOAD SWAP1 PUSH2 0x100 EXP SWAP1 DIV PUSH20 0xFFFFFFFFFFFFFFFFFFFFFFFFFFFFFFFFFFFFFFFF AND SWAP1 POP SWAP1 JUMP JUMPDEST POP DUP1 SLOAD PUSH1 0x0 DUP3 SSTORE SWAP1 PUSH1 0x0 MSTORE PUSH1 0x20 PUSH1 0x0 KECCAK256 SWAP1 DUP2 ADD SWAP1 PUSH2 0x6067 SWAP2 SWAP1 PUSH2 0x60B2 JUMP JUMPDEST POP JUMP JUMPDEST POP DUP1 SLOAD PUSH1 0x0 DUP3 SSTORE PUSH1 0x2 MUL SWAP1 PUSH1 0x0 MSTORE PUSH1 0x20 PUSH1 0x0 KECCAK256 SWAP1 DUP2 ADD SWAP1 PUSH2 0x608B SWAP2 SWAP1 PUSH2 0x60CF JUMP JUMPDEST POP JUMP JUMPDEST POP DUP1 SLOAD PUSH1 0x0 DUP3 SSTORE PUSH1 0x4 MUL SWAP1 PUSH1 0x0 MSTORE PUSH1 0x20 PUSH1 0x0 KECCAK256 SWAP1 DUP2 ADD SWAP1 PUSH2 0x60AF SWAP2 SWAP1 PUSH2 0x6105 JUMP JUMPDEST POP JUMP JUMPDEST JUMPDEST DUP1 DUP3 GT ISZERO PUSH2 0x60CB JUMPI PUSH1 0x0 DUP2 PUSH1 0x0 SWAP1 SSTORE POP PUSH1 0x1 ADD PUSH2 0x60B3 JUMP JUMPDEST POP SWAP1 JUMP JUMPDEST JUMPDEST DUP1 DUP3 GT ISZERO PUSH2 0x6101 JUMPI PUSH1 0x0 DUP1 DUP3 ADD PUSH1 0x0 PUSH2 0x100 EXP DUP2 SLOAD SWAP1 PUSH4 0xFFFFFFFF MUL NOT AND SWAP1 SSTORE PUSH1 0x1 DUP3 ADD PUSH1 0x0 SWAP1 SSTORE POP PUSH1 0x2 ADD PUSH2 0x60D0 JUMP JUMPDEST POP SWAP1 JUMP JUMPDEST JUMPDEST DUP1 DUP3 GT ISZERO PUSH2 0x61AF JUMPI PUSH1 0x0 DUP1 DUP3 ADD PUSH1 0x0 DUP1 DUP3 ADD PUSH1 0x0 PUSH2 0x100 EXP DUP2 SLOAD SWAP1 PUSH20 0xFFFFFFFFFFFFFFFFFFFFFFFFFFFFFFFFFFFFFFFF MUL NOT AND SWAP1 SSTORE PUSH1 0x0 DUP3 ADD PUSH1 0x14 PUSH2 0x100 EXP DUP2 SLOAD SWAP1 PUSH4 0xFFFFFFFF MUL NOT AND SWAP1 SSTORE PUSH1 0x1 DUP3 ADD PUSH1 0x0 SWAP1 SSTORE POP POP PUSH1 0x2 DUP3 ADD PUSH1 0x0 PUSH2 0x100 EXP DUP2 SLOAD SWAP1 PUSH1 0xFF MUL NOT AND SWAP1 SSTORE PUSH1 0x2 DUP3 ADD PUSH1 0x1 PUSH2 0x100 EXP DUP2 SLOAD SWAP1 PUSH4 0xFFFFFFFF MUL NOT AND SWAP1 SSTORE PUSH1 0x2 DUP3 ADD PUSH1 0x5 PUSH2 0x100 EXP DUP2 SLOAD SWAP1 PUSH4 0xFFFFFFFF MUL NOT AND SWAP1 SSTORE PUSH1 0x3 DUP3 ADD PUSH1 0x0 SWAP1 SSTORE POP PUSH1 0x4 ADD PUSH2 0x6106 JUMP JUMPDEST POP SWAP1 JUMP JUMPDEST PUSH1 0x0 PUSH1 0x40 MLOAD SWAP1 POP SWAP1 JUMP JUMPDEST PUSH1 0x0 DUP1 REVERT JUMPDEST PUSH1 0x0 DUP1 REVERT JUMPDEST PUSH1 0x0 DUP1 REVERT JUMPDEST PUSH1 0x0 PUSH1 0x1F NOT PUSH1 0x1F DUP4 ADD AND SWAP1 POP SWAP2 SWAP1 POP JUMP JUMPDEST PUSH32 0x4E487B7100000000000000000000000000000000000000000000000000000000 PUSH1 0x0 MSTORE PUSH1 0x41 PUSH1 0x4 MSTORE PUSH1 0x24 PUSH1 0x0 REVERT JUMPDEST PUSH2 0x6215 DUP3 PUSH2 0x61CC JUMP JUMPDEST DUP2 ADD DUP2 DUP2 LT PUSH8 0xFFFFFFFFFFFFFFFF DUP3 GT OR ISZERO PUSH2 0x6234 JUMPI PUSH2 0x6233 PUSH2 0x61DD JUMP JUMPDEST JUMPDEST DUP1 PUSH1 0x40 MSTORE POP POP POP JUMP JUMPDEST PUSH1 0x0 PUSH2 0x6247 PUSH2 0x61B3 JUMP JUMPDEST SWAP1 POP PUSH2 0x6253 DUP3 DUP3 PUSH2 0x620C JUMP JUMPDEST SWAP2 SWAP1 POP JUMP JUMPDEST PUSH1 0x0 PUSH8 0xFFFFFFFFFFFFFFFF DUP3 GT ISZERO PUSH2 0x6273 JUMPI PUSH2 0x6272 PUSH2 0x61DD JUMP JUMPDEST JUMPDEST PUSH1 0x20 DUP3 MUL SWAP1 POP PUSH1 0x20 DUP2 ADD SWAP1 POP SWAP2 SWAP1 POP JUMP JUMPDEST PUSH1 0x0 DUP1 REVERT JUMPDEST PUSH1 0x0 DUP1 REVERT JUMPDEST PUSH1 0x0 DUP1 REVERT JUMPDEST PUSH1 0x0 PUSH20 0xFFFFFFFFFFFFFFFFFFFFFFFFFFFFFFFFFFFFFFFF DUP3 AND SWAP1 POP SWAP2 SWAP1 POP JUMP JUMPDEST PUSH1 0x0 PUSH2 0x62BE DUP3 PUSH2 0x6293 JUMP JUMPDEST SWAP1 POP SWAP2 SWAP1 POP JUMP JUMPDEST PUSH2 0x62CE DUP2 PUSH2 0x62B3 JUMP JUMPDEST DUP2 EQ PUSH2 0x62D9 JUMPI PUSH1 0x0 DUP1 REVERT JUMPDEST POP JUMP JUMPDEST PUSH1 0x0 DUP2 CALLDATALOAD SWAP1 POP PUSH2 0x62EB DUP2 PUSH2 0x62C5 JUMP JUMPDEST SWAP3 SWAP2 POP POP JUMP JUMPDEST PUSH1 0x0 PUSH4 0xFFFFFFFF DUP3 AND SWAP1 POP SWAP2 SWAP1 POP JUMP JUMPDEST PUSH2 0x630A DUP2 PUSH2 0x62F1 JUMP JUMPDEST DUP2 EQ PUSH2 0x6315 JUMPI PUSH1 0x0 DUP1 REVERT JUMPDEST POP JUMP JUMPDEST PUSH1 0x0 DUP2 CALLDATALOAD SWAP1 POP PUSH2 0x6327 DUP2 PUSH2 0x6301 JUMP JUMPDEST SWAP3 SWAP2 POP POP JUMP JUMPDEST PUSH1 0x0 DUP2 SWAP1 POP SWAP2 SWAP1 POP JUMP JUMPDEST PUSH2 0x6340 DUP2 PUSH2 0x632D JUMP JUMPDEST DUP2 EQ PUSH2 0x634B JUMPI PUSH1 0x0 DUP1 REVERT JUMPDEST POP JUMP JUMPDEST PUSH1 0x0 DUP2 CALLDATALOAD SWAP1 POP PUSH2 0x635D DUP2 PUSH2 0x6337 JUMP JUMPDEST SWAP3 SWAP2 POP POP JUMP JUMPDEST PUSH1 0x0 PUSH1 0x60 DUP3 DUP5 SUB SLT ISZERO PUSH2 0x6379 JUMPI PUSH2 0x6378 PUSH2 0x6289 JUMP JUMPDEST JUMPDEST PUSH2 0x6383 PUSH1 0x60 PUSH2 0x623D JUMP JUMPDEST SWAP1 POP PUSH1 0x0 PUSH2 0x6393 DUP5 DUP3 DUP6 ADD PUSH2 0x62DC JUMP JUMPDEST PUSH1 0x0 DUP4 ADD MSTORE POP PUSH1 0x20 PUSH2 0x63A7 DUP5 DUP3 DUP6 ADD PUSH2 0x6318 JUMP JUMPDEST PUSH1 0x20 DUP4 ADD MSTORE POP PUSH1 0x40 PUSH2 0x63BB DUP5 DUP3 DUP6 ADD PUSH2 0x634E JUMP JUMPDEST PUSH1 0x40 DUP4 ADD MSTORE POP SWAP3 SWAP2 POP POP JUMP JUMPDEST PUSH1 0x3 DUP2 LT PUSH2 0x63D4 JUMPI PUSH1 0x0 DUP1 REVERT JUMPDEST POP JUMP JUMPDEST PUSH1 0x0 DUP2 CALLDATALOAD SWAP1 POP PUSH2 0x63E6 DUP2 PUSH2 0x63C7 JUMP JUMPDEST SWAP3 SWAP2 POP POP JUMP JUMPDEST PUSH1 0x0 DUP2 PUSH1 0x3 SIGNEXTEND SWAP1 POP SWAP2 SWAP1 POP JUMP JUMPDEST PUSH2 0x6402 DUP2 PUSH2 0x63EC JUMP JUMPDEST DUP2 EQ PUSH2 0x640D JUMPI PUSH1 0x0 DUP1 REVERT JUMPDEST POP JUMP JUMPDEST PUSH1 0x0 DUP2 CALLDATALOAD SWAP1 POP PUSH2 0x641F DUP2 PUSH2 0x63F9 JUMP JUMPDEST SWAP3 SWAP2 POP POP JUMP JUMPDEST PUSH1 0x0 PUSH1 0xE0 DUP3 DUP5 SUB SLT ISZERO PUSH2 0x643B JUMPI PUSH2 0x643A PUSH2 0x6289 JUMP JUMPDEST JUMPDEST PUSH2 0x6445 PUSH1 0xA0 PUSH2 0x623D JUMP JUMPDEST SWAP1 POP PUSH1 0x0 PUSH2 0x6455 DUP5 DUP3 DUP6 ADD PUSH2 0x6363 JUMP JUMPDEST PUSH1 0x0 DUP4 ADD MSTORE POP PUSH1 0x60 PUSH2 0x6469 DUP5 DUP3 DUP6 ADD PUSH2 0x63D7 JUMP JUMPDEST PUSH1 0x20 DUP4 ADD MSTORE POP PUSH1 0x80 PUSH2 0x647D DUP5 DUP3 DUP6 ADD PUSH2 0x6318 JUMP JUMPDEST PUSH1 0x40 DUP4 ADD MSTORE POP PUSH1 0xA0 PUSH2 0x6491 DUP5 DUP3 DUP6 ADD PUSH2 0x6410 JUMP JUMPDEST PUSH1 0x60 DUP4 ADD MSTORE POP PUSH1 0xC0 PUSH2 0x64A5 DUP5 DUP3 DUP6 ADD PUSH2 0x634E JUMP JUMPDEST PUSH1 0x80 DUP4 ADD MSTORE POP SWAP3 SWAP2 POP POP JUMP JUMPDEST PUSH1 0x0 PUSH2 0x64C4 PUSH2 0x64BF DUP5 PUSH2 0x6258 JUMP JUMPDEST PUSH2 0x623D JUMP JUMPDEST SWAP1 POP DUP1 DUP4 DUP3 MSTORE PUSH1 0x20 DUP3 ADD SWAP1 POP PUSH1 0xE0 DUP5 MUL DUP4 ADD DUP6 DUP2 GT ISZERO PUSH2 0x64E7 JUMPI PUSH2 0x64E6 PUSH2 0x6284 JUMP JUMPDEST JUMPDEST DUP4 JUMPDEST DUP2 DUP2 LT ISZERO PUSH2 0x6510 JUMPI DUP1 PUSH2 0x64FC DUP9 DUP3 PUSH2 0x6425 JUMP JUMPDEST DUP5 MSTORE PUSH1 0x20 DUP5 ADD SWAP4 POP POP PUSH1 0xE0 DUP2 ADD SWAP1 POP PUSH2 0x64E9 JUMP JUMPDEST POP POP POP SWAP4 SWAP3 POP POP POP JUMP JUMPDEST PUSH1 0x0 DUP3 PUSH1 0x1F DUP4 ADD SLT PUSH2 0x652F JUMPI PUSH2 0x652E PUSH2 0x61C7 JUMP JUMPDEST JUMPDEST DUP2 CALLDATALOAD PUSH2 0x653F DUP5 DUP3 PUSH1 0x20 DUP7 ADD PUSH2 0x64B1 JUMP JUMPDEST SWAP2 POP POP SWAP3 SWAP2 POP POP JUMP JUMPDEST PUSH1 0x0 DUP1 PUSH1 0x40 DUP4 DUP6 SUB SLT ISZERO PUSH2 0x655F JUMPI PUSH2 0x655E PUSH2 0x61BD JUMP JUMPDEST JUMPDEST PUSH1 0x0 DUP4 ADD CALLDATALOAD PUSH8 0xFFFFFFFFFFFFFFFF DUP2 GT ISZERO PUSH2 0x657D JUMPI PUSH2 0x657C PUSH2 0x61C2 JUMP JUMPDEST JUMPDEST PUSH2 0x6589 DUP6 DUP3 DUP7 ADD PUSH2 0x651A JUMP JUMPDEST SWAP3 POP POP PUSH1 0x20 PUSH2 0x659A DUP6 DUP3 DUP7 ADD PUSH2 0x634E JUMP JUMPDEST SWAP2 POP POP SWAP3 POP SWAP3 SWAP1 POP JUMP JUMPDEST PUSH2 0x65AD DUP2 PUSH2 0x62B3 JUMP JUMPDEST DUP3 MSTORE POP POP JUMP JUMPDEST PUSH1 0x0 PUSH1 0x20 DUP3 ADD SWAP1 POP PUSH2 0x65C8 PUSH1 0x0 DUP4 ADD DUP5 PUSH2 0x65A4 JUMP JUMPDEST SWAP3 SWAP2 POP POP JUMP JUMPDEST PUSH2 0x65D7 DUP2 PUSH2 0x632D JUMP JUMPDEST DUP3 MSTORE POP POP JUMP JUMPDEST PUSH1 0x0 PUSH1 0x20 DUP3 ADD SWAP1 POP PUSH2 0x65F2 PUSH1 0x0 DUP4 ADD DUP5 PUSH2 0x65CE JUMP JUMPDEST SWAP3 SWAP2 POP POP JUMP JUMPDEST PUSH1 0x0 PUSH1 0x20 DUP3 DUP5 SUB SLT ISZERO PUSH2 0x660E JUMPI PUSH2 0x660D PUSH2 0x61BD JUMP JUMPDEST JUMPDEST PUSH1 0x0 PUSH2 0x661C DUP5 DUP3 DUP6 ADD PUSH2 0x62DC JUMP JUMPDEST SWAP2 POP POP SWAP3 SWAP2 POP POP JUMP JUMPDEST PUSH1 0x0 PUSH1 0x20 DUP3 DUP5 SUB SLT ISZERO PUSH2 0x663B JUMPI PUSH2 0x663A PUSH2 0x61BD JUMP JUMPDEST JUMPDEST PUSH1 0x0 PUSH2 0x6649 DUP5 DUP3 DUP6 ADD PUSH2 0x634E JUMP JUMPDEST SWAP2 POP POP SWAP3 SWAP2 POP POP JUMP JUMPDEST PUSH2 0x665B DUP2 PUSH2 0x62B3 JUMP JUMPDEST DUP3 MSTORE POP POP JUMP JUMPDEST PUSH2 0x666A DUP2 PUSH2 0x62F1 JUMP JUMPDEST DUP3 MSTORE POP POP JUMP JUMPDEST PUSH2 0x6679 DUP2 PUSH2 0x632D JUMP JUMPDEST DUP3 MSTORE POP POP JUMP JUMPDEST PUSH1 0x60 DUP3 ADD PUSH1 0x0 DUP3 ADD MLOAD PUSH2 0x6695 PUSH1 0x0 DUP6 ADD DUP3 PUSH2 0x6652 JUMP JUMPDEST POP PUSH1 0x20 DUP3 ADD MLOAD PUSH2 0x66A8 PUSH1 0x20 DUP6 ADD DUP3 PUSH2 0x6661 JUMP JUMPDEST POP PUSH1 0x40 DUP3 ADD MLOAD PUSH2 0x66BB PUSH1 0x40 DUP6 ADD DUP3 PUSH2 0x6670 JUMP JUMPDEST POP POP POP POP JUMP JUMPDEST PUSH32 0x4E487B7100000000000000000000000000000000000000000000000000000000 PUSH1 0x0 MSTORE PUSH1 0x21 PUSH1 0x4 MSTORE PUSH1 0x24 PUSH1 0x0 REVERT JUMPDEST PUSH1 0x3 DUP2 LT PUSH2 0x6701 JUMPI PUSH2 0x6700 PUSH2 0x66C1 JUMP JUMPDEST JUMPDEST POP JUMP JUMPDEST PUSH1 0x0 DUP2 SWAP1 POP PUSH2 0x6712 DUP3 PUSH2 0x66F0 JUMP JUMPDEST SWAP2 SWAP1 POP JUMP JUMPDEST PUSH1 0x0 PUSH2 0x6722 DUP3 PUSH2 0x6704 JUMP JUMPDEST SWAP1 POP SWAP2 SWAP1 POP JUMP JUMPDEST PUSH2 0x6732 DUP2 PUSH2 0x6717 JUMP JUMPDEST DUP3 MSTORE POP POP JUMP JUMPDEST PUSH2 0x6741 DUP2 PUSH2 0x62F1 JUMP JUMPDEST DUP3 MSTORE POP POP JUMP JUMPDEST PUSH2 0x6750 DUP2 PUSH2 0x63EC JUMP JUMPDEST DUP3 MSTORE POP POP JUMP JUMPDEST PUSH1 0x0 PUSH1 0xE0 DUP3 ADD SWAP1 POP PUSH2 0x676B PUSH1 0x0 DUP4 ADD DUP9 PUSH2 0x667F JUMP JUMPDEST PUSH2 0x6778 PUSH1 0x60 DUP4 ADD DUP8 PUSH2 0x6729 JUMP JUMPDEST PUSH2 0x6785 PUSH1 0x80 DUP4 ADD DUP7 PUSH2 0x6738 JUMP JUMPDEST PUSH2 0x6792 PUSH1 0xA0 DUP4 ADD DUP6 PUSH2 0x6747 JUMP JUMPDEST PUSH2 0x679F PUSH1 0xC0 DUP4 ADD DUP5 PUSH2 0x65CE JUMP JUMPDEST SWAP7 SWAP6 POP POP POP POP POP POP JUMP JUMPDEST PUSH1 0x0 DUP1 PUSH1 0x40 DUP4 DUP6 SUB SLT ISZERO PUSH2 0x67C0 JUMPI PUSH2 0x67BF PUSH2 0x61BD JUMP JUMPDEST JUMPDEST PUSH1 0x0 PUSH2 0x67CE DUP6 DUP3 DUP7 ADD PUSH2 0x62DC JUMP JUMPDEST SWAP3 POP POP PUSH1 0x20 PUSH2 0x67DF DUP6 DUP3 DUP7 ADD PUSH2 0x634E JUMP JUMPDEST SWAP2 POP POP SWAP3 POP SWAP3 SWAP1 POP JUMP JUMPDEST PUSH1 0x0 PUSH1 0x40 DUP3 ADD SWAP1 POP PUSH2 0x67FE PUSH1 0x0 DUP4 ADD DUP6 PUSH2 0x6738 JUMP JUMPDEST PUSH2 0x680B PUSH1 0x20 DUP4 ADD DUP5 PUSH2 0x65CE JUMP JUMPDEST SWAP4 SWAP3 POP POP POP JUMP JUMPDEST PUSH1 0x0 DUP2 ISZERO ISZERO SWAP1 POP SWAP2 SWAP1 POP JUMP JUMPDEST PUSH2 0x6827 DUP2 PUSH2 0x6812 JUMP JUMPDEST DUP3 MSTORE POP POP JUMP JUMPDEST PUSH1 0x0 PUSH1 0x20 DUP3 ADD SWAP1 POP PUSH2 0x6842 PUSH1 0x0 DUP4 ADD DUP5 PUSH2 0x681E JUMP JUMPDEST SWAP3 SWAP2 POP POP JUMP JUMPDEST PUSH1 0x3 DUP2 LT PUSH2 0x6859 JUMPI PUSH2 0x6858 PUSH2 0x66C1 JUMP JUMPDEST JUMPDEST POP JUMP JUMPDEST PUSH1 0x0 DUP2 SWAP1 POP PUSH2 0x686A DUP3 PUSH2 0x6848 JUMP JUMPDEST SWAP2 SWAP1 POP JUMP JUMPDEST PUSH1 0x0 PUSH2 0x687A DUP3 PUSH2 0x685C JUMP JUMPDEST SWAP1 POP SWAP2 SWAP1 POP JUMP JUMPDEST PUSH2 0x688A DUP2 PUSH2 0x686F JUMP JUMPDEST DUP3 MSTORE POP POP JUMP JUMPDEST PUSH1 0x0 PUSH1 0x20 DUP3 ADD SWAP1 POP PUSH2 0x68A5 PUSH1 0x0 DUP4 ADD DUP5 PUSH2 0x6881 JUMP JUMPDEST SWAP3 SWAP2 POP POP JUMP JUMPDEST PUSH1 0x0 DUP2 SWAP1 POP SWAP2 SWAP1 POP JUMP JUMPDEST PUSH1 0x0 PUSH2 0x68D0 PUSH2 0x68CB PUSH2 0x68C6 DUP5 PUSH2 0x6293 JUMP JUMPDEST PUSH2 0x68AB JUMP JUMPDEST PUSH2 0x6293 JUMP JUMPDEST SWAP1 POP SWAP2 SWAP1 POP JUMP JUMPDEST PUSH1 0x0 PUSH2 0x68E2 DUP3 PUSH2 0x68B5 JUMP JUMPDEST SWAP1 POP SWAP2 SWAP1 POP JUMP JUMPDEST PUSH1 0x0 PUSH2 0x68F4 DUP3 PUSH2 0x68D7 JUMP JUMPDEST SWAP1 POP SWAP2 SWAP1 POP JUMP JUMPDEST PUSH2 0x6904 DUP2 PUSH2 0x68E9 JUMP JUMPDEST DUP3 MSTORE POP POP JUMP JUMPDEST PUSH1 0x0 PUSH1 0x20 DUP3 ADD SWAP1 POP PUSH2 0x691F PUSH1 0x0 DUP4 ADD DUP5 PUSH2 0x68FB JUMP JUMPDEST SWAP3 SWAP2 POP POP JUMP JUMPDEST PUSH2 0x692E DUP2 PUSH2 0x6812 JUMP JUMPDEST DUP2 EQ PUSH2 0x6939 JUMPI PUSH1 0x0 DUP1 REVERT JUMPDEST POP JUMP JUMPDEST PUSH1 0x0 DUP2 CALLDATALOAD SWAP1 POP PUSH2 0x694B DUP2 PUSH2 0x6925 JUMP JUMPDEST SWAP3 SWAP2 POP POP JUMP JUMPDEST PUSH1 0x0 DUP1 REVERT JUMPDEST PUSH1 0x0 DUP1 DUP4 PUSH1 0x1F DUP5 ADD SLT PUSH2 0x696C JUMPI PUSH2 0x696B PUSH2 0x61C7 JUMP JUMPDEST JUMPDEST DUP3 CALLDATALOAD SWAP1 POP PUSH8 0xFFFFFFFFFFFFFFFF DUP2 GT ISZERO PUSH2 0x6989 JUMPI PUSH2 0x6988 PUSH2 0x6951 JUMP JUMPDEST JUMPDEST PUSH1 0x20 DUP4 ADD SWAP2 POP DUP4 PUSH1 0x1 DUP3 MUL DUP4 ADD GT ISZERO PUSH2 0x69A5 JUMPI PUSH2 0x69A4 PUSH2 0x6284 JUMP JUMPDEST JUMPDEST SWAP3 POP SWAP3 SWAP1 POP JUMP JUMPDEST PUSH1 0x0 DUP1 PUSH1 0x0 DUP1 PUSH1 0x60 DUP6 DUP8 SUB SLT ISZERO PUSH2 0x69C6 JUMPI PUSH2 0x69C5 PUSH2 0x61BD JUMP JUMPDEST JUMPDEST PUSH1 0x0 PUSH2 0x69D4 DUP8 DUP3 DUP9 ADD PUSH2 0x634E JUMP JUMPDEST SWAP5 POP POP PUSH1 0x20 PUSH2 0x69E5 DUP8 DUP3 DUP9 ADD PUSH2 0x693C JUMP JUMPDEST SWAP4 POP POP PUSH1 0x40 DUP6 ADD CALLDATALOAD PUSH8 0xFFFFFFFFFFFFFFFF DUP2 GT ISZERO PUSH2 0x6A06 JUMPI PUSH2 0x6A05 PUSH2 0x61C2 JUMP JUMPDEST JUMPDEST PUSH2 0x6A12 DUP8 DUP3 DUP9 ADD PUSH2 0x6956 JUMP JUMPDEST SWAP3 POP SWAP3 POP POP SWAP3 SWAP6 SWAP2 SWAP5 POP SWAP3 POP JUMP JUMPDEST PUSH1 0x0 PUSH1 0x60 DUP3 ADD SWAP1 POP PUSH2 0x6A35 PUSH1 0x0 DUP4 ADD DUP7 PUSH2 0x681E JUMP JUMPDEST PUSH2 0x6A42 PUSH1 0x20 DUP4 ADD DUP6 PUSH2 0x65CE JUMP JUMPDEST PUSH2 0x6A4F PUSH1 0x40 DUP4 ADD DUP5 PUSH2 0x65CE JUMP JUMPDEST SWAP5 SWAP4 POP POP POP POP JUMP JUMPDEST PUSH1 0x0 PUSH1 0x20 DUP3 ADD SWAP1 POP PUSH2 0x6A6C PUSH1 0x0 DUP4 ADD DUP5 PUSH2 0x6729 JUMP JUMPDEST SWAP3 SWAP2 POP POP JUMP JUMPDEST PUSH1 0x0 DUP1 PUSH1 0x40 DUP4 DUP6 SUB SLT ISZERO PUSH2 0x6A89 JUMPI PUSH2 0x6A88 PUSH2 0x61BD JUMP JUMPDEST JUMPDEST PUSH1 0x0 PUSH2 0x6A97 DUP6 DUP3 DUP7 ADD PUSH2 0x634E JUMP JUMPDEST SWAP3 POP POP PUSH1 0x20 PUSH2 0x6AA8 DUP6 DUP3 DUP7 ADD PUSH2 0x62DC JUMP JUMPDEST SWAP2 POP POP SWAP3 POP SWAP3 SWAP1 POP JUMP JUMPDEST PUSH1 0x0 DUP2 SWAP1 POP SWAP2 SWAP1 POP JUMP JUMPDEST PUSH2 0x6AC5 DUP2 PUSH2 0x6AB2 JUMP JUMPDEST DUP3 MSTORE POP POP JUMP JUMPDEST PUSH1 0x0 PUSH1 0x20 DUP3 ADD SWAP1 POP PUSH2 0x6AE0 PUSH1 0x0 DUP4 ADD DUP5 PUSH2 0x6ABC JUMP JUMPDEST SWAP3 SWAP2 POP POP JUMP JUMPDEST PUSH1 0x0 PUSH2 0x6AF1 DUP3 PUSH2 0x62B3 JUMP JUMPDEST SWAP1 POP SWAP2 SWAP1 POP JUMP JUMPDEST PUSH2 0x6B01 DUP2 PUSH2 0x6AE6 JUMP JUMPDEST DUP2 EQ PUSH2 0x6B0C JUMPI PUSH1 0x0 DUP1 REVERT JUMPDEST POP JUMP JUMPDEST PUSH1 0x0 DUP2 CALLDATALOAD SWAP1 POP PUSH2 0x6B1E DUP2 PUSH2 0x6AF8 JUMP JUMPDEST SWAP3 SWAP2 POP POP JUMP JUMPDEST PUSH1 0x0 PUSH2 0x6B2F DUP3 PUSH2 0x62B3 JUMP JUMPDEST SWAP1 POP SWAP2 SWAP1 POP JUMP JUMPDEST PUSH2 0x6B3F DUP2 PUSH2 0x6B24 JUMP JUMPDEST DUP2 EQ PUSH2 0x6B4A JUMPI PUSH1 0x0 DUP1 REVERT JUMPDEST POP JUMP JUMPDEST PUSH1 0x0 DUP2 CALLDATALOAD SWAP1 POP PUSH2 0x6B5C DUP2 PUSH2 0x6B36 JUMP JUMPDEST SWAP3 SWAP2 POP POP JUMP JUMPDEST PUSH1 0x0 PUSH2 0x120 DUP3 DUP5 SUB SLT ISZERO PUSH2 0x6B79 JUMPI PUSH2 0x6B78 PUSH2 0x6289 JUMP JUMPDEST JUMPDEST PUSH2 0x6B84 PUSH2 0x120 PUSH2 0x623D JUMP JUMPDEST SWAP1 POP PUSH1 0x0 PUSH2 0x6B94 DUP5 DUP3 DUP6 ADD PUSH2 0x62DC JUMP JUMPDEST PUSH1 0x0 DUP4 ADD MSTORE POP PUSH1 0x20 PUSH2 0x6BA8 DUP5 DUP3 DUP6 ADD PUSH2 0x6B0F JUMP JUMPDEST PUSH1 0x20 DUP4 ADD MSTORE POP PUSH1 0x40 DUP3 ADD CALLDATALOAD PUSH8 0xFFFFFFFFFFFFFFFF DUP2 GT ISZERO PUSH2 0x6BCC JUMPI PUSH2 0x6BCB PUSH2 0x628E JUMP JUMPDEST JUMPDEST PUSH2 0x6BD8 DUP5 DUP3 DUP6 ADD PUSH2 0x651A JUMP JUMPDEST PUSH1 0x40 DUP4 ADD MSTORE POP PUSH1 0x60 PUSH2 0x6BEC DUP5 DUP3 DUP6 ADD PUSH2 0x6B4D JUMP JUMPDEST PUSH1 0x60 DUP4 ADD MSTORE POP PUSH1 0x80 PUSH2 0x6C00 DUP5 DUP3 DUP6 ADD PUSH2 0x634E JUMP JUMPDEST PUSH1 0x80 DUP4 ADD MSTORE POP PUSH1 0xA0 PUSH2 0x6C14 DUP5 DUP3 DUP6 ADD PUSH2 0x634E JUMP JUMPDEST PUSH1 0xA0 DUP4 ADD MSTORE POP PUSH1 0xC0 PUSH2 0x6C28 DUP5 DUP3 DUP6 ADD PUSH2 0x634E JUMP JUMPDEST PUSH1 0xC0 DUP4 ADD MSTORE POP PUSH1 0xE0 PUSH2 0x6C3C DUP5 DUP3 DUP6 ADD PUSH2 0x634E JUMP JUMPDEST PUSH1 0xE0 DUP4 ADD MSTORE POP PUSH2 0x100 PUSH2 0x6C51 DUP5 DUP3 DUP6 ADD PUSH2 0x62DC JUMP JUMPDEST PUSH2 0x100 DUP4 ADD MSTORE POP SWAP3 SWAP2 POP POP JUMP JUMPDEST PUSH1 0x0 PUSH1 0x20 DUP3 DUP5 SUB SLT ISZERO PUSH2 0x6C74 JUMPI PUSH2 0x6C73 PUSH2 0x61BD JUMP JUMPDEST JUMPDEST PUSH1 0x0 DUP3 ADD CALLDATALOAD PUSH8 0xFFFFFFFFFFFFFFFF DUP2 GT ISZERO PUSH2 0x6C92 JUMPI PUSH2 0x6C91 PUSH2 0x61C2 JUMP JUMPDEST JUMPDEST PUSH2 0x6C9E DUP5 DUP3 DUP6 ADD PUSH2 0x6B62 JUMP JUMPDEST SWAP2 POP POP SWAP3 SWAP2 POP POP JUMP JUMPDEST PUSH1 0x0 PUSH2 0x6CB2 DUP3 PUSH2 0x68D7 JUMP JUMPDEST SWAP1 POP SWAP2 SWAP1 POP JUMP JUMPDEST PUSH2 0x6CC2 DUP2 PUSH2 0x6CA7 JUMP JUMPDEST DUP3 MSTORE POP POP JUMP JUMPDEST PUSH1 0x0 PUSH1 0x20 DUP3 ADD SWAP1 POP PUSH2 0x6CDD PUSH1 0x0 DUP4 ADD DUP5 PUSH2 0x6CB9 JUMP JUMPDEST SWAP3 SWAP2 POP POP JUMP JUMPDEST PUSH1 0x0 PUSH1 0x60 DUP3 ADD SWAP1 POP PUSH2 0x6CF8 PUSH1 0x0 DUP4 ADD DUP7 PUSH2 0x65A4 JUMP JUMPDEST PUSH2 0x6D05 PUSH1 0x20 DUP4 ADD DUP6 PUSH2 0x65A4 JUMP JUMPDEST PUSH2 0x6D12 PUSH1 0x40 DUP4 ADD DUP5 PUSH2 0x65A4 JUMP JUMPDEST SWAP5 SWAP4 POP POP POP POP JUMP JUMPDEST PUSH1 0x0 DUP3 DUP3 MSTORE PUSH1 0x20 DUP3 ADD SWAP1 POP SWAP3 SWAP2 POP POP JUMP JUMPDEST PUSH32 0x6E6F206C6F6E6765722072756E6E696E67000000000000000000000000000000 PUSH1 0x0 DUP3 ADD MSTORE POP JUMP JUMPDEST PUSH1 0x0 PUSH2 0x6D61 PUSH1 0x11 DUP4 PUSH2 0x6D1A JUMP JUMPDEST SWAP2 POP PUSH2 0x6D6C DUP3 PUSH2 0x6D2B JUMP JUMPDEST PUSH1 0x20 DUP3 ADD SWAP1 POP SWAP2 SWAP1 POP JUMP JUMPDEST PUSH1 0x0 PUSH1 0x20 DUP3 ADD SWAP1 POP DUP2 DUP2 SUB PUSH1 0x0 DUP4 ADD MSTORE PUSH2 0x6D90 DUP2 PUSH2 0x6D54 JUMP JUMPDEST SWAP1 POP SWAP2 SWAP1 POP JUMP JUMPDEST PUSH32 0x4E487B7100000000000000000000000000000000000000000000000000000000 PUSH1 0x0 MSTORE PUSH1 0x11 PUSH1 0x4 MSTORE PUSH1 0x24 PUSH1 0x0 REVERT JUMPDEST PUSH1 0x0 PUSH2 0x6DD1 DUP3 PUSH2 0x632D JUMP JUMPDEST SWAP2 POP PUSH2 0x6DDC DUP4 PUSH2 0x632D JUMP JUMPDEST SWAP3 POP DUP3 DUP3 ADD SWAP1 POP DUP1 DUP3 GT ISZERO PUSH2 0x6DF4 JUMPI PUSH2 0x6DF3 PUSH2 0x6D97 JUMP JUMPDEST JUMPDEST SWAP3 SWAP2 POP POP JUMP JUMPDEST PUSH1 0x0 PUSH1 0x40 DUP3 ADD SWAP1 POP PUSH2 0x6E0F PUSH1 0x0 DUP4 ADD DUP6 PUSH2 0x65CE JUMP JUMPDEST PUSH2 0x6E1C PUSH1 0x20 DUP4 ADD DUP5 PUSH2 0x65CE JUMP JUMPDEST SWAP4 SWAP3 POP POP POP JUMP JUMPDEST PUSH32 0x4E487B7100000000000000000000000000000000000000000000000000000000 PUSH1 0x0 MSTORE PUSH1 0x32 PUSH1 0x4 MSTORE PUSH1 0x24 PUSH1 0x0 REVERT JUMPDEST PUSH1 0x0 PUSH2 0x6E5D DUP3 PUSH2 0x632D JUMP JUMPDEST SWAP2 POP PUSH32 0xFFFFFFFFFFFFFFFFFFFFFFFFFFFFFFFFFFFFFFFFFFFFFFFFFFFFFFFFFFFFFFFF DUP3 SUB PUSH2 0x6E8F JUMPI PUSH2 0x6E8E PUSH2 0x6D97 JUMP JUMPDEST JUMPDEST PUSH1 0x1 DUP3 ADD SWAP1 POP SWAP2 SWAP1 POP JUMP JUMPDEST PUSH32 0x6F6E6C7949665465616D57616C6C65743A2063616C6C6572206973206E6F7420 PUSH1 0x0 DUP3 ADD MSTORE PUSH32 0x746865206F776E65720000000000000000000000000000000000000000000000 PUSH1 0x20 DUP3 ADD MSTORE POP JUMP JUMPDEST PUSH1 0x0 PUSH2 0x6EF6 PUSH1 0x29 DUP4 PUSH2 0x6D1A JUMP JUMPDEST SWAP2 POP PUSH2 0x6F01 DUP3 PUSH2 0x6E9A JUMP JUMPDEST PUSH1 0x40 DUP3 ADD SWAP1 POP SWAP2 SWAP1 POP JUMP JUMPDEST PUSH1 0x0 PUSH1 0x20 DUP3 ADD SWAP1 POP DUP2 DUP2 SUB PUSH1 0x0 DUP4 ADD MSTORE PUSH2 0x6F25 DUP2 PUSH2 0x6EE9 JUMP JUMPDEST SWAP1 POP SWAP2 SWAP1 POP JUMP JUMPDEST PUSH1 0x0 PUSH2 0x6F37 DUP3 PUSH2 0x62F1 JUMP JUMPDEST SWAP2 POP PUSH2 0x6F42 DUP4 PUSH2 0x62F1 JUMP JUMPDEST SWAP3 POP DUP3 DUP3 SUB SWAP1 POP PUSH4 0xFFFFFFFF DUP2 GT ISZERO PUSH2 0x6F5E JUMPI PUSH2 0x6F5D PUSH2 0x6D97 JUMP JUMPDEST JUMPDEST SWAP3 SWAP2 POP POP JUMP JUMPDEST PUSH1 0x0 PUSH2 0x6F6F DUP3 PUSH2 0x62F1 JUMP JUMPDEST SWAP2 POP PUSH2 0x6F7A DUP4 PUSH2 0x62F1 JUMP JUMPDEST SWAP3 POP DUP3 DUP3 ADD SWAP1 POP PUSH4 0xFFFFFFFF DUP2 GT ISZERO PUSH2 0x6F96 JUMPI PUSH2 0x6F95 PUSH2 0x6D97 JUMP JUMPDEST JUMPDEST SWAP3 SWAP2 POP POP JUMP JUMPDEST PUSH32 0x6F6E6C794F776E65724F724E756C6C0000000000000000000000000000000000 PUSH1 0x0 DUP3 ADD MSTORE POP JUMP JUMPDEST PUSH1 0x0 PUSH2 0x6FD2 PUSH1 0xF DUP4 PUSH2 0x6D1A JUMP JUMPDEST SWAP2 POP PUSH2 0x6FDD DUP3 PUSH2 0x6F9C JUMP JUMPDEST PUSH1 0x20 DUP3 ADD SWAP1 POP SWAP2 SWAP1 POP JUMP JUMPDEST PUSH1 0x0 PUSH1 0x20 DUP3 ADD SWAP1 POP DUP2 DUP2 SUB PUSH1 0x0 DUP4 ADD MSTORE PUSH2 0x7001 DUP2 PUSH2 0x6FC5 JUMP JUMPDEST SWAP1 POP SWAP2 SWAP1 POP JUMP JUMPDEST PUSH32 0x6E6577206F776E65722063616E6E6F74206265207A65726F0000000000000000 PUSH1 0x0 DUP3 ADD MSTORE POP JUMP JUMPDEST PUSH1 0x0 PUSH2 0x703E PUSH1 0x18 DUP4 PUSH2 0x6D1A JUMP JUMPDEST SWAP2 POP PUSH2 0x7049 DUP3 PUSH2 0x7008 JUMP JUMPDEST PUSH1 0x20 DUP3 ADD SWAP1 POP SWAP2 SWAP1 POP JUMP JUMPDEST PUSH1 0x0 PUSH1 0x20 DUP3 ADD SWAP1 POP DUP2 DUP2 SUB PUSH1 0x0 DUP4 ADD MSTORE PUSH2 0x706D DUP2 PUSH2 0x7031 JUMP JUMPDEST SWAP1 POP SWAP2 SWAP1 POP JUMP JUMPDEST PUSH32 0x6E6F74206120706C656467657200000000000000000000000000000000000000 PUSH1 0x0 DUP3 ADD MSTORE POP JUMP JUMPDEST PUSH1 0x0 PUSH2 0x70AA PUSH1 0xD DUP4 PUSH2 0x6D1A JUMP JUMPDEST SWAP2 POP PUSH2 0x70B5 DUP3 PUSH2 0x7074 JUMP JUMPDEST PUSH1 0x20 DUP3 ADD SWAP1 POP SWAP2 SWAP1 POP JUMP JUMPDEST PUSH1 0x0 PUSH1 0x20 DUP3 ADD SWAP1 POP DUP2 DUP2 SUB PUSH1 0x0 DUP4 ADD MSTORE PUSH2 0x70D9 DUP2 PUSH2 0x709D JUMP JUMPDEST SWAP1 POP SWAP2 SWAP1 POP JUMP JUMPDEST PUSH32 0x5265656E7472616E637947756172643A207265656E7472616E742063616C6C00 PUSH1 0x0 DUP3 ADD MSTORE POP JUMP JUMPDEST PUSH1 0x0 PUSH2 0x7116 PUSH1 0x1F DUP4 PUSH2 0x6D1A JUMP JUMPDEST SWAP2 POP PUSH2 0x7121 DUP3 PUSH2 0x70E0 JUMP JUMPDEST PUSH1 0x20 DUP3 ADD SWAP1 POP SWAP2 SWAP1 POP JUMP JUMPDEST PUSH1 0x0 PUSH1 0x20 DUP3 ADD SWAP1 POP DUP2 DUP2 SUB PUSH1 0x0 DUP4 ADD MSTORE PUSH2 0x7145 DUP2 PUSH2 0x7109 JUMP JUMPDEST SWAP1 POP SWAP2 SWAP1 POP JUMP JUMPDEST PUSH1 0x0 DUP2 SLOAD SWAP1 POP SWAP2 SWAP1 POP JUMP JUMPDEST PUSH1 0x0 DUP3 DUP3 MSTORE PUSH1 0x20 DUP3 ADD SWAP1 POP SWAP3 SWAP2 POP POP JUMP JUMPDEST PUSH1 0x0 DUP2 SWAP1 POP DUP2 PUSH1 0x0 MSTORE PUSH1 0x20 PUSH1 0x0 KECCAK256 SWAP1 POP SWAP2 SWAP1 POP JUMP JUMPDEST PUSH1 0x0 DUP2 PUSH1 0x0 SHR SWAP1 POP SWAP2 SWAP1 POP JUMP JUMPDEST PUSH1 0x0 PUSH4 0xFFFFFFFF DUP3 AND SWAP1 POP SWAP2 SWAP1 POP JUMP JUMPDEST PUSH1 0x0 PUSH2 0x71AD PUSH2 0x71A8 DUP4 PUSH2 0x717D JUMP JUMPDEST PUSH2 0x718A JUMP JUMPDEST SWAP1 POP SWAP2 SWAP1 POP JUMP JUMPDEST PUSH1 0x0 DUP2 SWAP1 POP SWAP2 SWAP1 POP JUMP JUMPDEST PUSH1 0x0 PUSH2 0x71D1 PUSH2 0x71CC DUP4 PUSH2 0x717D JUMP JUMPDEST PUSH2 0x71B4 JUMP JUMPDEST SWAP1 POP SWAP2 SWAP1 POP JUMP JUMPDEST PUSH1 0x40 DUP3 ADD PUSH1 0x0 DUP1 DUP4 ADD SLOAD SWAP1 POP PUSH2 0x71ED DUP2 PUSH2 0x719A JUMP JUMPDEST PUSH2 0x71FA PUSH1 0x0 DUP7 ADD DUP3 PUSH2 0x6661 JUMP JUMPDEST POP PUSH1 0x1 DUP4 ADD SLOAD SWAP1 POP PUSH2 0x720B DUP2 PUSH2 0x71BE JUMP JUMPDEST PUSH2 0x7218 PUSH1 0x20 DUP7 ADD DUP3 PUSH2 0x6670 JUMP JUMPDEST POP POP POP POP POP JUMP JUMPDEST PUSH1 0x0 PUSH2 0x722B DUP4 DUP4 PUSH2 0x71D8 JUMP JUMPDEST PUSH1 0x40 DUP4 ADD SWAP1 POP SWAP3 SWAP2 POP POP JUMP JUMPDEST PUSH1 0x0 PUSH1 0x2 DUP3 ADD SWAP1 POP SWAP2 SWAP1 POP JUMP JUMPDEST PUSH1 0x0 PUSH2 0x724F DUP3 PUSH2 0x714C JUMP JUMPDEST PUSH2 0x7259 DUP2 DUP6 PUSH2 0x7157 JUMP JUMPDEST SWAP4 POP PUSH2 0x7264 DUP4 PUSH2 0x7168 JUMP JUMPDEST DUP1 PUSH1 0x0 JUMPDEST DUP4 DUP2 LT ISZERO PUSH2 0x7294 JUMPI DUP2 PUSH2 0x727B DUP9 DUP3 PUSH2 0x721F JUMP JUMPDEST SWAP8 POP PUSH2 0x7286 DUP4 PUSH2 0x7237 JUMP JUMPDEST SWAP3 POP POP PUSH1 0x1 DUP2 ADD SWAP1 POP PUSH2 0x7268 JUMP JUMPDEST POP DUP6 SWAP4 POP POP POP POP SWAP3 SWAP2 POP POP JUMP JUMPDEST PUSH1 0x0 PUSH1 0x20 DUP3 ADD SWAP1 POP DUP2 DUP2 SUB PUSH1 0x0 DUP4 ADD MSTORE PUSH2 0x72BB DUP2 DUP5 PUSH2 0x7244 JUMP JUMPDEST SWAP1 POP SWAP3 SWAP2 POP POP JUMP JUMPDEST PUSH1 0x0 PUSH1 0x60 DUP3 ADD SWAP1 POP PUSH2 0x72D8 PUSH1 0x0 DUP4 ADD DUP7 PUSH2 0x65A4 JUMP JUMPDEST PUSH2 0x72E5 PUSH1 0x20 DUP4 ADD DUP6 PUSH2 0x65CE JUMP JUMPDEST PUSH2 0x72F2 PUSH1 0x40 DUP4 ADD DUP5 PUSH2 0x65CE JUMP JUMPDEST SWAP5 SWAP4 POP POP POP POP JUMP JUMPDEST PUSH32 0x70726F6A656374206E6F74207375636365656465640000000000000000000000 PUSH1 0x0 DUP3 ADD MSTORE POP JUMP JUMPDEST PUSH1 0x0 PUSH2 0x7330 PUSH1 0x15 DUP4 PUSH2 0x6D1A JUMP JUMPDEST SWAP2 POP PUSH2 0x733B DUP3 PUSH2 0x72FA JUMP JUMPDEST PUSH1 0x20 DUP3 ADD SWAP1 POP SWAP2 SWAP1 POP JUMP JUMPDEST PUSH1 0x0 PUSH1 0x20 DUP3 ADD SWAP1 POP DUP2 DUP2 SUB PUSH1 0x0 DUP4 ADD MSTORE PUSH2 0x735F DUP2 PUSH2 0x7323 JUMP JUMPDEST SWAP1 POP SWAP2 SWAP1 POP JUMP JUMPDEST PUSH32 0x62616420656E6420646174650000000000000000000000000000000000000000 PUSH1 0x0 DUP3 ADD MSTORE POP JUMP JUMPDEST PUSH1 0x0 PUSH2 0x739C PUSH1 0xC DUP4 PUSH2 0x6D1A JUMP JUMPDEST SWAP2 POP PUSH2 0x73A7 DUP3 PUSH2 0x7366 JUMP JUMPDEST PUSH1 0x20 DUP3 ADD SWAP1 POP SWAP2 SWAP1 POP JUMP JUMPDEST PUSH1 0x0 PUSH1 0x20 DUP3 ADD SWAP1 POP DUP2 DUP2 SUB PUSH1 0x0 DUP4 ADD MSTORE PUSH2 0x73CB DUP2 PUSH2 0x738F JUMP JUMPDEST SWAP1 POP SWAP2 SWAP1 POP JUMP JUMPDEST PUSH1 0x0 PUSH1 0x40 DUP3 ADD SWAP1 POP PUSH2 0x73E7 PUSH1 0x0 DUP4 ADD DUP6 PUSH2 0x65A4 JUMP JUMPDEST PUSH2 0x73F4 PUSH1 0x20 DUP4 ADD DUP5 PUSH2 0x65CE JUMP JUMPDEST SWAP4 SWAP3 POP POP POP JUMP JUMPDEST PUSH1 0x0 PUSH1 0x60 DUP3 ADD SWAP1 POP PUSH2 0x7410 PUSH1 0x0 DUP4 ADD DUP7 PUSH2 0x65CE JUMP JUMPDEST PUSH2 0x741D PUSH1 0x20 DUP4 ADD DUP6 PUSH2 0x65A4 JUMP JUMPDEST PUSH2 0x742A PUSH1 0x40 DUP4 ADD DUP5 PUSH2 0x65A4 JUMP JUMPDEST SWAP5 SWAP4 POP POP POP POP JUMP JUMPDEST PUSH32 0x73696E676C65206D696C6573746F6E6520617070726F76656400000000000000 PUSH1 0x0 DUP3 ADD MSTORE POP JUMP JUMPDEST PUSH1 0x0 PUSH2 0x7468 PUSH1 0x19 DUP4 PUSH2 0x6D1A JUMP JUMPDEST SWAP2 POP PUSH2 0x7473 DUP3 PUSH2 0x7432 JUMP JUMPDEST PUSH1 0x20 DUP3 ADD SWAP1 POP SWAP2 SWAP1 POP JUMP JUMPDEST PUSH1 0x0 PUSH1 0x20 DUP3 ADD SWAP1 POP DUP2 DUP2 SUB PUSH1 0x0 DUP4 ADD MSTORE PUSH2 0x7497 DUP2 PUSH2 0x745B JUMP JUMPDEST SWAP1 POP SWAP2 SWAP1 POP JUMP JUMPDEST PUSH32 0x6E6F7420706C6174666F726D0000000000000000000000000000000000000000 PUSH1 0x0 DUP3 ADD MSTORE POP JUMP JUMPDEST PUSH1 0x0 PUSH2 0x74D4 PUSH1 0xC DUP4 PUSH2 0x6D1A JUMP JUMPDEST SWAP2 POP PUSH2 0x74DF DUP3 PUSH2 0x749E JUMP JUMPDEST PUSH1 0x20 DUP3 ADD SWAP1 POP SWAP2 SWAP1 POP JUMP JUMPDEST PUSH1 0x0 PUSH1 0x20 DUP3 ADD SWAP1 POP DUP2 DUP2 SUB PUSH1 0x0 DUP4 ADD MSTORE PUSH2 0x7503 DUP2 PUSH2 0x74C7 JUMP JUMPDEST SWAP1 POP SWAP2 SWAP1 POP JUMP JUMPDEST PUSH32 0x70726F6A656374206E6F7420636F6D706C657465640000000000000000000000 PUSH1 0x0 DUP3 ADD MSTORE POP JUMP JUMPDEST PUSH1 0x0 PUSH2 0x7540 PUSH1 0x15 DUP4 PUSH2 0x6D1A JUMP JUMPDEST SWAP2 POP PUSH2 0x754B DUP3 PUSH2 0x750A JUMP JUMPDEST PUSH1 0x20 DUP3 ADD SWAP1 POP SWAP2 SWAP1 POP JUMP JUMPDEST PUSH1 0x0 PUSH1 0x20 DUP3 ADD SWAP1 POP DUP2 DUP2 SUB PUSH1 0x0 DUP4 ADD MSTORE PUSH2 0x756F DUP2 PUSH2 0x7533 JUMP JUMPDEST SWAP1 POP SWAP2 SWAP1 POP JUMP JUMPDEST PUSH1 0x0 DUP2 MLOAD SWAP1 POP PUSH2 0x7585 DUP2 PUSH2 0x62C5 JUMP JUMPDEST SWAP3 SWAP2 POP POP JUMP JUMPDEST PUSH1 0x0 PUSH1 0x20 DUP3 DUP5 SUB SLT ISZERO PUSH2 0x75A1 JUMPI PUSH2 0x75A0 PUSH2 0x61BD JUMP JUMPDEST JUMPDEST PUSH1 0x0 PUSH2 0x75AF DUP5 DUP3 DUP6 ADD PUSH2 0x7576 JUMP JUMPDEST SWAP2 POP POP SWAP3 SWAP2 POP POP JUMP JUMPDEST PUSH32 0x6D7573742062652070726F6A6563740000000000000000000000000000000000 PUSH1 0x0 DUP3 ADD MSTORE POP JUMP JUMPDEST PUSH1 0x0 PUSH2 0x75EE PUSH1 0xF DUP4 PUSH2 0x6D1A JUMP JUMPDEST SWAP2 POP PUSH2 0x75F9 DUP3 PUSH2 0x75B8 JUMP JUMPDEST PUSH1 0x20 DUP3 ADD SWAP1 POP SWAP2 SWAP1 POP JUMP JUMPDEST PUSH1 0x0 PUSH1 0x20 DUP3 ADD SWAP1 POP DUP2 DUP2 SUB PUSH1 0x0 DUP4 ADD MSTORE PUSH2 0x761D DUP2 PUSH2 0x75E1 JUMP JUMPDEST SWAP1 POP SWAP2 SWAP1 POP JUMP JUMPDEST PUSH32 0x63616C6C6572206973206E6F74206F776E657200000000000000000000000000 PUSH1 0x0 DUP3 ADD MSTORE POP JUMP JUMPDEST PUSH1 0x0 PUSH2 0x765A PUSH1 0x13 DUP4 PUSH2 0x6D1A JUMP JUMPDEST SWAP2 POP PUSH2 0x7665 DUP3 PUSH2 0x7624 JUMP JUMPDEST PUSH1 0x20 DUP3 ADD SWAP1 POP SWAP2 SWAP1 POP JUMP JUMPDEST PUSH1 0x0 PUSH1 0x20 DUP3 ADD SWAP1 POP DUP2 DUP2 SUB PUSH1 0x0 DUP4 ADD MSTORE PUSH2 0x7689 DUP2 PUSH2 0x764D JUMP JUMPDEST SWAP1 POP SWAP2 SWAP1 POP JUMP JUMPDEST PUSH32 0x73696E676C65206D696C6573746F6E65206174206D6F73740000000000000000 PUSH1 0x0 DUP3 ADD MSTORE POP JUMP JUMPDEST PUSH1 0x0 PUSH2 0x76C6 PUSH1 0x18 DUP4 PUSH2 0x6D1A JUMP JUMPDEST SWAP2 POP PUSH2 0x76D1 DUP3 PUSH2 0x7690 JUMP JUMPDEST PUSH1 0x20 DUP3 ADD SWAP1 POP SWAP2 SWAP1 POP JUMP JUMPDEST PUSH1 0x0 PUSH1 0x20 DUP3 ADD SWAP1 POP DUP2 DUP2 SUB PUSH1 0x0 DUP4 ADD MSTORE PUSH2 0x76F5 DUP2 PUSH2 0x76B9 JUMP JUMPDEST SWAP1 POP SWAP2 SWAP1 POP JUMP JUMPDEST PUSH32 0x706C65646765206D75737420657863656564206D696E20746F6B656E20636F75 PUSH1 0x0 DUP3 ADD MSTORE PUSH32 0x6E74000000000000000000000000000000000000000000000000000000000000 PUSH1 0x20 DUP3 ADD MSTORE POP JUMP JUMPDEST PUSH1 0x0 PUSH2 0x7758 PUSH1 0x22 DUP4 PUSH2 0x6D1A JUMP JUMPDEST SWAP2 POP PUSH2 0x7763 DUP3 PUSH2 0x76FC JUMP JUMPDEST PUSH1 0x40 DUP3 ADD SWAP1 POP SWAP2 SWAP1 POP JUMP JUMPDEST PUSH1 0x0 PUSH1 0x20 DUP3 ADD SWAP1 POP DUP2 DUP2 SUB PUSH1 0x0 DUP4 ADD MSTORE PUSH2 0x7787 DUP2 PUSH2 0x774B JUMP JUMPDEST SWAP1 POP SWAP2 SWAP1 POP JUMP JUMPDEST PUSH1 0x0 DUP2 MLOAD SWAP1 POP PUSH2 0x779D DUP2 PUSH2 0x6337 JUMP JUMPDEST SWAP3 SWAP2 POP POP JUMP JUMPDEST PUSH1 0x0 PUSH1 0x20 DUP3 DUP5 SUB SLT ISZERO PUSH2 0x77B9 JUMPI PUSH2 0x77B8 PUSH2 0x61BD JUMP JUMPDEST JUMPDEST PUSH1 0x0 PUSH2 0x77C7 DUP5 DUP3 DUP6 ADD PUSH2 0x778E JUMP JUMPDEST SWAP2 POP POP SWAP3 SWAP2 POP POP JUMP JUMPDEST PUSH32 0x706C65646765722068617320696E73756666696369656E7420746F6B656E2062 PUSH1 0x0 DUP3 ADD MSTORE PUSH32 0x616C616E63650000000000000000000000000000000000000000000000000000 PUSH1 0x20 DUP3 ADD MSTORE POP JUMP JUMPDEST PUSH1 0x0 PUSH2 0x782C PUSH1 0x26 DUP4 PUSH2 0x6D1A JUMP JUMPDEST SWAP2 POP PUSH2 0x7837 DUP3 PUSH2 0x77D0 JUMP JUMPDEST PUSH1 0x40 DUP3 ADD SWAP1 POP SWAP2 SWAP1 POP JUMP JUMPDEST PUSH1 0x0 PUSH1 0x20 DUP3 ADD SWAP1 POP DUP2 DUP2 SUB PUSH1 0x0 DUP4 ADD MSTORE PUSH2 0x785B DUP2 PUSH2 0x781F JUMP JUMPDEST SWAP1 POP SWAP2 SWAP1 POP JUMP JUMPDEST PUSH32 0x6D6F6469666965723A20696E73756666696369656E7420616C6C6F77616E6365 PUSH1 0x0 DUP3 ADD MSTORE POP JUMP JUMPDEST PUSH1 0x0 PUSH2 0x7898 PUSH1 0x20 DUP4 PUSH2 0x6D1A JUMP JUMPDEST SWAP2 POP PUSH2 0x78A3 DUP3 PUSH2 0x7862 JUMP JUMPDEST PUSH1 0x20 DUP3 ADD SWAP1 POP SWAP2 SWAP1 POP JUMP JUMPDEST PUSH1 0x0 PUSH1 0x20 DUP3 ADD SWAP1 POP DUP2 DUP2 SUB PUSH1 0x0 DUP4 ADD MSTORE PUSH2 0x78C7 DUP2 PUSH2 0x788B JUMP JUMPDEST SWAP1 POP SWAP2 SWAP1 POP JUMP JUMPDEST PUSH32 0x626164207061796D656E7420746F6B656E000000000000000000000000000000 PUSH1 0x0 DUP3 ADD MSTORE POP JUMP JUMPDEST PUSH1 0x0 PUSH2 0x7904 PUSH1 0x11 DUP4 PUSH2 0x6D1A JUMP JUMPDEST SWAP2 POP PUSH2 0x790F DUP3 PUSH2 0x78CE JUMP JUMPDEST PUSH1 0x20 DUP3 ADD SWAP1 POP SWAP2 SWAP1 POP JUMP JUMPDEST PUSH1 0x0 PUSH1 0x20 DUP3 ADD SWAP1 POP DUP2 DUP2 SUB PUSH1 0x0 DUP4 ADD MSTORE PUSH2 0x7933 DUP2 PUSH2 0x78F7 JUMP JUMPDEST SWAP1 POP SWAP2 SWAP1 POP JUMP JUMPDEST PUSH32 0x70726F6A6563742072756E6E696E670000000000000000000000000000000000 PUSH1 0x0 DUP3 ADD MSTORE POP JUMP JUMPDEST PUSH1 0x0 PUSH2 0x7970 PUSH1 0xF DUP4 PUSH2 0x6D1A JUMP JUMPDEST SWAP2 POP PUSH2 0x797B DUP3 PUSH2 0x793A JUMP JUMPDEST PUSH1 0x20 DUP3 ADD SWAP1 POP SWAP2 SWAP1 POP JUMP JUMPDEST PUSH1 0x0 PUSH1 0x20 DUP3 ADD SWAP1 POP DUP2 DUP2 SUB PUSH1 0x0 DUP4 ADD MSTORE PUSH2 0x799F DUP2 PUSH2 0x7963 JUMP JUMPDEST SWAP1 POP SWAP2 SWAP1 POP JUMP JUMPDEST PUSH32 0x6F6E4661696C757265526566756E64506172616D73206E6F7420736574000000 PUSH1 0x0 DUP3 ADD MSTORE POP JUMP JUMPDEST PUSH1 0x0 PUSH2 0x79DC PUSH1 0x1D DUP4 PUSH2 0x6D1A JUMP JUMPDEST SWAP2 POP PUSH2 0x79E7 DUP3 PUSH2 0x79A6 JUMP JUMPDEST PUSH1 0x20 DUP3 ADD SWAP1 POP SWAP2 SWAP1 POP JUMP JUMPDEST PUSH1 0x0 PUSH1 0x20 DUP3 ADD SWAP1 POP DUP2 DUP2 SUB PUSH1 0x0 DUP4 ADD MSTORE PUSH2 0x7A0B DUP2 PUSH2 0x79CF JUMP JUMPDEST SWAP1 POP SWAP2 SWAP1 POP JUMP JUMPDEST PUSH32 0x6E6F20726566756E647300000000000000000000000000000000000000000000 PUSH1 0x0 DUP3 ADD MSTORE POP JUMP JUMPDEST PUSH1 0x0 PUSH2 0x7A48 PUSH1 0xA DUP4 PUSH2 0x6D1A JUMP JUMPDEST SWAP2 POP PUSH2 0x7A53 DUP3 PUSH2 0x7A12 JUMP JUMPDEST PUSH1 0x20 DUP3 ADD SWAP1 POP SWAP2 SWAP1 POP JUMP JUMPDEST PUSH1 0x0 PUSH1 0x20 DUP3 ADD SWAP1 POP DUP2 DUP2 SUB PUSH1 0x0 DUP4 ADD MSTORE PUSH2 0x7A77 DUP2 PUSH2 0x7A3B JUMP JUMPDEST SWAP1 POP SWAP2 SWAP1 POP JUMP JUMPDEST PUSH1 0x0 PUSH2 0x7A89 DUP3 PUSH2 0x632D JUMP JUMPDEST SWAP2 POP PUSH2 0x7A94 DUP4 PUSH2 0x632D JUMP JUMPDEST SWAP3 POP DUP2 PUSH32 0xFFFFFFFFFFFFFFFFFFFFFFFFFFFFFFFFFFFFFFFFFFFFFFFFFFFFFFFFFFFFFFFF DIV DUP4 GT DUP3 ISZERO ISZERO AND ISZERO PUSH2 0x7ACD JUMPI PUSH2 0x7ACC PUSH2 0x6D97 JUMP JUMPDEST JUMPDEST DUP3 DUP3 MUL SWAP1 POP SWAP3 SWAP2 POP POP JUMP JUMPDEST PUSH32 0x4E487B7100000000000000000000000000000000000000000000000000000000 PUSH1 0x0 MSTORE PUSH1 0x12 PUSH1 0x4 MSTORE PUSH1 0x24 PUSH1 0x0 REVERT JUMPDEST PUSH1 0x0 PUSH2 0x7B12 DUP3 PUSH2 0x632D JUMP JUMPDEST SWAP2 POP PUSH2 0x7B1D DUP4 PUSH2 0x632D JUMP JUMPDEST SWAP3 POP DUP3 PUSH2 0x7B2D JUMPI PUSH2 0x7B2C PUSH2 0x7AD8 JUMP JUMPDEST JUMPDEST DUP3 DUP3 DIV SWAP1 POP SWAP3 SWAP2 POP POP JUMP JUMPDEST PUSH32 0x6D696C6573746F6E65206E6F74206F6E636861696E0000000000000000000000 PUSH1 0x0 DUP3 ADD MSTORE POP JUMP JUMPDEST PUSH1 0x0 PUSH2 0x7B6E PUSH1 0x15 DUP4 PUSH2 0x6D1A JUMP JUMPDEST SWAP2 POP PUSH2 0x7B79 DUP3 PUSH2 0x7B38 JUMP JUMPDEST PUSH1 0x20 DUP3 ADD SWAP1 POP SWAP2 SWAP1 POP JUMP JUMPDEST PUSH1 0x0 PUSH1 0x20 DUP3 ADD SWAP1 POP DUP2 DUP2 SUB PUSH1 0x0 DUP4 ADD MSTORE PUSH2 0x7B9D DUP2 PUSH2 0x7B61 JUMP JUMPDEST SWAP1 POP SWAP2 SWAP1 POP JUMP JUMPDEST PUSH32 0x63616E206F6E6C7920626520696E697469616C697A6564206F6E636500000000 PUSH1 0x0 DUP3 ADD MSTORE POP JUMP JUMPDEST PUSH1 0x0 PUSH2 0x7BDA PUSH1 0x1C DUP4 PUSH2 0x6D1A JUMP JUMPDEST SWAP2 POP PUSH2 0x7BE5 DUP3 PUSH2 0x7BA4 JUMP JUMPDEST PUSH1 0x20 DUP3 ADD SWAP1 POP SWAP2 SWAP1 POP JUMP JUMPDEST PUSH1 0x0 PUSH1 0x20 DUP3 ADD SWAP1 POP DUP2 DUP2 SUB PUSH1 0x0 DUP4 ADD MSTORE PUSH2 0x7C09 DUP2 PUSH2 0x7BCD JUMP JUMPDEST SWAP1 POP SWAP2 SWAP1 POP JUMP JUMPDEST PUSH32 0x6D697373696E67207061796D656E7420746F6B656E0000000000000000000000 PUSH1 0x0 DUP3 ADD MSTORE POP JUMP JUMPDEST PUSH1 0x0 PUSH2 0x7C46 PUSH1 0x15 DUP4 PUSH2 0x6D1A JUMP JUMPDEST SWAP2 POP PUSH2 0x7C51 DUP3 PUSH2 0x7C10 JUMP JUMPDEST PUSH1 0x20 DUP3 ADD SWAP1 POP SWAP2 SWAP1 POP JUMP JUMPDEST PUSH1 0x0 PUSH1 0x20 DUP3 ADD SWAP1 POP DUP2 DUP2 SUB PUSH1 0x0 DUP4 ADD MSTORE PUSH2 0x7C75 DUP2 PUSH2 0x7C39 JUMP JUMPDEST SWAP1 POP SWAP2 SWAP1 POP JUMP JUMPDEST PUSH32 0x6E756D506C656467657273536F666172203D3D20300000000000000000000000 PUSH1 0x0 DUP3 ADD MSTORE POP JUMP JUMPDEST PUSH1 0x0 PUSH2 0x7CB2 PUSH1 0x15 DUP4 PUSH2 0x6D1A JUMP JUMPDEST SWAP2 POP PUSH2 0x7CBD DUP3 PUSH2 0x7C7C JUMP JUMPDEST PUSH1 0x20 DUP3 ADD SWAP1 POP SWAP2 SWAP1 POP JUMP JUMPDEST PUSH1 0x0 PUSH1 0x20 DUP3 ADD SWAP1 POP DUP2 DUP2 SUB PUSH1 0x0 DUP4 ADD MSTORE PUSH2 0x7CE1 DUP2 PUSH2 0x7CA5 JUMP JUMPDEST SWAP1 POP SWAP2 SWAP1 POP JUMP JUMPDEST PUSH32 0x746F74616C4E756D506C656467654576656E7473203D3D203000000000000000 PUSH1 0x0 DUP3 ADD MSTORE POP JUMP JUMPDEST PUSH1 0x0 PUSH2 0x7D1E PUSH1 0x19 DUP4 PUSH2 0x6D1A JUMP JUMPDEST SWAP2 POP PUSH2 0x7D29 DUP3 PUSH2 0x7CE8 JUMP JUMPDEST PUSH1 0x20 DUP3 ADD SWAP1 POP SWAP2 SWAP1 POP JUMP JUMPDEST PUSH1 0x0 PUSH1 0x20 DUP3 ADD SWAP1 POP DUP2 DUP2 SUB PUSH1 0x0 DUP4 ADD MSTORE PUSH2 0x7D4D DUP2 PUSH2 0x7D11 JUMP JUMPDEST SWAP1 POP SWAP2 SWAP1 POP JUMP JUMPDEST PUSH32 0x53616665436173743A2076616C756520646F65736E27742066697420696E2033 PUSH1 0x0 DUP3 ADD MSTORE PUSH32 0x3220626974730000000000000000000000000000000000000000000000000000 PUSH1 0x20 DUP3 ADD MSTORE POP JUMP JUMPDEST PUSH1 0x0 PUSH2 0x7DB0 PUSH1 0x26 DUP4 PUSH2 0x6D1A JUMP JUMPDEST SWAP2 POP PUSH2 0x7DBB DUP3 PUSH2 0x7D54 JUMP JUMPDEST PUSH1 0x40 DUP3 ADD SWAP1 POP SWAP2 SWAP1 POP JUMP JUMPDEST PUSH1 0x0 PUSH1 0x20 DUP3 ADD SWAP1 POP DUP2 DUP2 SUB PUSH1 0x0 DUP4 ADD MSTORE PUSH2 0x7DDF DUP2 PUSH2 0x7DA3 JUMP JUMPDEST SWAP1 POP SWAP2 SWAP1 POP JUMP JUMPDEST PUSH32 0x6E6F7420616E2061637469766520706C65646765720000000000000000000000 PUSH1 0x0 DUP3 ADD MSTORE POP JUMP JUMPDEST PUSH1 0x0 PUSH2 0x7E1C PUSH1 0x15 DUP4 PUSH2 0x6D1A JUMP JUMPDEST SWAP2 POP PUSH2 0x7E27 DUP3 PUSH2 0x7DE6 JUMP JUMPDEST PUSH1 0x20 DUP3 ADD SWAP1 POP SWAP2 SWAP1 POP JUMP JUMPDEST PUSH1 0x0 PUSH1 0x20 DUP3 ADD SWAP1 POP DUP2 DUP2 SUB PUSH1 0x0 DUP4 ADD MSTORE PUSH2 0x7E4B DUP2 PUSH2 0x7E0F JUMP JUMPDEST SWAP1 POP SWAP2 SWAP1 POP JUMP JUMPDEST PUSH1 0x0 PUSH2 0x7E5D DUP3 PUSH2 0x632D JUMP JUMPDEST SWAP2 POP PUSH2 0x7E68 DUP4 PUSH2 0x632D JUMP JUMPDEST SWAP3 POP DUP3 DUP3 SUB SWAP1 POP DUP2 DUP2 GT ISZERO PUSH2 0x7E80 JUMPI PUSH2 0x7E7F PUSH2 0x6D97 JUMP JUMPDEST JUMPDEST SWAP3 SWAP2 POP POP JUMP JUMPDEST PUSH1 0x0 PUSH2 0x7E91 DUP3 PUSH2 0x632D JUMP JUMPDEST SWAP2 POP PUSH1 0x0 DUP3 SUB PUSH2 0x7EA4 JUMPI PUSH2 0x7EA3 PUSH2 0x6D97 JUMP JUMPDEST JUMPDEST PUSH1 0x1 DUP3 SUB SWAP1 POP SWAP2 SWAP1 POP JUMP JUMPDEST PUSH1 0x2 DUP2 LT PUSH2 0x7EC0 JUMPI PUSH2 0x7EBF PUSH2 0x66C1 JUMP JUMPDEST JUMPDEST POP JUMP JUMPDEST PUSH1 0x0 DUP2 SWAP1 POP PUSH2 0x7ED1 DUP3 PUSH2 0x7EAF JUMP JUMPDEST SWAP2 SWAP1 POP JUMP JUMPDEST PUSH1 0x0 PUSH2 0x7EE1 DUP3 PUSH2 0x7EC3 JUMP JUMPDEST SWAP1 POP SWAP2 SWAP1 POP JUMP JUMPDEST PUSH2 0x7EF1 DUP2 PUSH2 0x7ED6 JUMP JUMPDEST DUP3 MSTORE POP POP JUMP JUMPDEST PUSH1 0x0 PUSH1 0x20 DUP3 ADD SWAP1 POP PUSH2 0x7F0C PUSH1 0x0 DUP4 ADD DUP5 PUSH2 0x7EE8 JUMP JUMPDEST SWAP3 SWAP2 POP POP JUMP JUMPDEST PUSH32 0x6F6E4661696C757265526566756E64506172616D7320616C7265616479207365 PUSH1 0x0 DUP3 ADD MSTORE PUSH32 0x7400000000000000000000000000000000000000000000000000000000000000 PUSH1 0x20 DUP3 ADD MSTORE POP JUMP JUMPDEST PUSH1 0x0 PUSH2 0x7F6E PUSH1 0x21 DUP4 PUSH2 0x6D1A JUMP JUMPDEST SWAP2 POP PUSH2 0x7F79 DUP3 PUSH2 0x7F12 JUMP JUMPDEST PUSH1 0x40 DUP3 ADD SWAP1 POP SWAP2 SWAP1 POP JUMP JUMPDEST PUSH1 0x0 PUSH1 0x20 DUP3 ADD SWAP1 POP DUP2 DUP2 SUB PUSH1 0x0 DUP4 ADD MSTORE PUSH2 0x7F9D DUP2 PUSH2 0x7F61 JUMP JUMPDEST SWAP1 POP SWAP2 SWAP1 POP JUMP JUMPDEST PUSH32 0x656E642074696D6520616C726561647920736574000000000000000000000000 PUSH1 0x0 DUP3 ADD MSTORE POP JUMP JUMPDEST PUSH1 0x0 PUSH2 0x7FDA PUSH1 0x14 DUP4 PUSH2 0x6D1A JUMP JUMPDEST SWAP2 POP PUSH2 0x7FE5 DUP3 PUSH2 0x7FA4 JUMP JUMPDEST PUSH1 0x20 DUP3 ADD SWAP1 POP SWAP2 SWAP1 POP JUMP JUMPDEST PUSH1 0x0 PUSH1 0x20 DUP3 ADD SWAP1 POP DUP2 DUP2 SUB PUSH1 0x0 DUP4 ADD MSTORE PUSH2 0x8009 DUP2 PUSH2 0x7FCD JUMP JUMPDEST SWAP1 POP SWAP2 SWAP1 POP JUMP JUMPDEST PUSH32 0x6E6F74206D696C6573746F6E6520617070726F76657200000000000000000000 PUSH1 0x0 DUP3 ADD MSTORE POP JUMP JUMPDEST PUSH1 0x0 PUSH2 0x8046 PUSH1 0x16 DUP4 PUSH2 0x6D1A JUMP JUMPDEST SWAP2 POP PUSH2 0x8051 DUP3 PUSH2 0x8010 JUMP JUMPDEST PUSH1 0x20 DUP3 ADD SWAP1 POP SWAP2 SWAP1 POP JUMP JUMPDEST PUSH1 0x0 PUSH1 0x20 DUP3 ADD SWAP1 POP DUP2 DUP2 SUB PUSH1 0x0 DUP4 ADD MSTORE PUSH2 0x8075 DUP2 PUSH2 0x8039 JUMP JUMPDEST SWAP1 POP SWAP2 SWAP1 POP JUMP JUMPDEST DUP3 DUP2 DUP4 CALLDATACOPY PUSH1 0x0 DUP4 DUP4 ADD MSTORE POP POP POP JUMP JUMPDEST PUSH1 0x0 PUSH2 0x8097 DUP4 DUP6 PUSH2 0x6D1A JUMP JUMPDEST SWAP4 POP PUSH2 0x80A4 DUP4 DUP6 DUP5 PUSH2 0x807C JUMP JUMPDEST PUSH2 0x80AD DUP4 PUSH2 0x61CC JUMP JUMPDEST DUP5 ADD SWAP1 POP SWAP4 SWAP3 POP POP POP JUMP JUMPDEST PUSH1 0x0 PUSH1 0x40 DUP3 ADD SWAP1 POP PUSH2 0x80CD PUSH1 0x0 DUP4 ADD DUP7 PUSH2 0x65CE JUMP JUMPDEST DUP2 DUP2 SUB PUSH1 0x20 DUP4 ADD MSTORE PUSH2 0x80E0 DUP2 DUP5 DUP7 PUSH2 0x808B JUMP JUMPDEST SWAP1 POP SWAP5 SWAP4 POP POP POP POP JUMP JUMPDEST PUSH32 0x5061757361626C653A2070617573656400000000000000000000000000000000 PUSH1 0x0 DUP3 ADD MSTORE POP JUMP JUMPDEST PUSH1 0x0 PUSH2 0x8120 PUSH1 0x10 DUP4 PUSH2 0x6D1A JUMP JUMPDEST SWAP2 POP PUSH2 0x812B DUP3 PUSH2 0x80EA JUMP JUMPDEST PUSH1 0x20 DUP3 ADD SWAP1 POP SWAP2 SWAP1 POP JUMP JUMPDEST PUSH1 0x0 PUSH1 0x20 DUP3 ADD SWAP1 POP DUP2 DUP2 SUB PUSH1 0x0 DUP4 ADD MSTORE PUSH2 0x814F DUP2 PUSH2 0x8113 JUMP JUMPDEST SWAP1 POP SWAP2 SWAP1 POP JUMP JUMPDEST PUSH1 0x0 PUSH1 0x40 DUP3 ADD SWAP1 POP PUSH2 0x816B PUSH1 0x0 DUP4 ADD DUP6 PUSH2 0x65A4 JUMP JUMPDEST PUSH2 0x8178 PUSH1 0x20 DUP4 ADD DUP5 PUSH2 0x65A4 JUMP JUMPDEST SWAP4 SWAP3 POP POP POP JUMP JUMPDEST PUSH32 0x696E73756666696369656E7420746F6B656E20616C6C6F77616E636500000000 PUSH1 0x0 DUP3 ADD MSTORE POP JUMP JUMPDEST PUSH1 0x0 PUSH2 0x81B5 PUSH1 0x1C DUP4 PUSH2 0x6D1A JUMP JUMPDEST SWAP2 POP PUSH2 0x81C0 DUP3 PUSH2 0x817F JUMP JUMPDEST PUSH1 0x20 DUP3 ADD SWAP1 POP SWAP2 SWAP1 POP JUMP JUMPDEST PUSH1 0x0 PUSH1 0x20 DUP3 ADD SWAP1 POP DUP2 DUP2 SUB PUSH1 0x0 DUP4 ADD MSTORE PUSH2 0x81E4 DUP2 PUSH2 0x81A8 JUMP JUMPDEST SWAP1 POP SWAP2 SWAP1 POP JUMP JUMPDEST PUSH1 0x0 PUSH1 0x60 DUP3 ADD SWAP1 POP PUSH2 0x8200 PUSH1 0x0 DUP4 ADD DUP7 PUSH2 0x65A4 JUMP JUMPDEST PUSH2 0x820D PUSH1 0x20 DUP4 ADD DUP6 PUSH2 0x65A4 JUMP JUMPDEST PUSH2 0x821A PUSH1 0x40 DUP4 ADD DUP5 PUSH2 0x65CE JUMP JUMPDEST SWAP5 SWAP4 POP POP POP POP JUMP JUMPDEST PUSH1 0x0 DUP2 MLOAD SWAP1 POP PUSH2 0x8231 DUP2 PUSH2 0x6925 JUMP JUMPDEST SWAP3 SWAP2 POP POP JUMP JUMPDEST PUSH1 0x0 PUSH1 0x20 DUP3 DUP5 SUB SLT ISZERO PUSH2 0x824D JUMPI PUSH2 0x824C PUSH2 0x61BD JUMP JUMPDEST JUMPDEST PUSH1 0x0 PUSH2 0x825B DUP5 DUP3 DUP6 ADD PUSH2 0x8222 JUMP JUMPDEST SWAP2 POP POP SWAP3 SWAP2 POP POP JUMP JUMPDEST PUSH32 0x4661696C656420746F207472616E73666572207061796D656E7420746F6B656E PUSH1 0x0 DUP3 ADD MSTORE PUSH32 0x7320746F207661756C7400000000000000000000000000000000000000000000 PUSH1 0x20 DUP3 ADD MSTORE POP JUMP JUMPDEST PUSH1 0x0 PUSH2 0x82C0 PUSH1 0x2A DUP4 PUSH2 0x6D1A JUMP JUMPDEST SWAP2 POP PUSH2 0x82CB DUP3 PUSH2 0x8264 JUMP JUMPDEST PUSH1 0x40 DUP3 ADD SWAP1 POP SWAP2 SWAP1 POP JUMP JUMPDEST PUSH1 0x0 PUSH1 0x20 DUP3 ADD SWAP1 POP DUP2 DUP2 SUB PUSH1 0x0 DUP4 ADD MSTORE PUSH2 0x82EF DUP2 PUSH2 0x82B3 JUMP JUMPDEST SWAP1 POP SWAP2 SWAP1 POP JUMP JUMPDEST PUSH32 0x6E6F74206F6E2D636861696E0000000000000000000000000000000000000000 PUSH1 0x0 DUP3 ADD MSTORE POP JUMP JUMPDEST PUSH1 0x0 PUSH2 0x832C PUSH1 0xC DUP4 PUSH2 0x6D1A JUMP JUMPDEST SWAP2 POP PUSH2 0x8337 DUP3 PUSH2 0x82F6 JUMP JUMPDEST PUSH1 0x20 DUP3 ADD SWAP1 POP SWAP2 SWAP1 POP JUMP JUMPDEST PUSH1 0x0 PUSH1 0x20 DUP3 ADD SWAP1 POP DUP2 DUP2 SUB PUSH1 0x0 DUP4 ADD MSTORE PUSH2 0x835B DUP2 PUSH2 0x831F JUMP JUMPDEST SWAP1 POP SWAP2 SWAP1 POP JUMP JUMPDEST PUSH32 0x6E756D2D706C656467657273206E6F7420736572000000000000000000000000 PUSH1 0x0 DUP3 ADD MSTORE POP JUMP JUMPDEST PUSH1 0x0 PUSH2 0x8398 PUSH1 0x14 DUP4 PUSH2 0x6D1A JUMP JUMPDEST SWAP2 POP PUSH2 0x83A3 DUP3 PUSH2 0x8362 JUMP JUMPDEST PUSH1 0x20 DUP3 ADD SWAP1 POP SWAP2 SWAP1 POP JUMP JUMPDEST PUSH1 0x0 PUSH1 0x20 DUP3 ADD SWAP1 POP DUP2 DUP2 SUB PUSH1 0x0 DUP4 ADD MSTORE PUSH2 0x83C7 DUP2 PUSH2 0x838B JUMP JUMPDEST SWAP1 POP SWAP2 SWAP1 POP JUMP JUMPDEST PUSH32 0x6E6F7420656E6F756768206D696C6573746F6E65730000000000000000000000 PUSH1 0x0 DUP3 ADD MSTORE POP JUMP JUMPDEST PUSH1 0x0 PUSH2 0x8404 PUSH1 0x15 DUP4 PUSH2 0x6D1A JUMP JUMPDEST SWAP2 POP PUSH2 0x840F DUP3 PUSH2 0x83CE JUMP JUMPDEST PUSH1 0x20 DUP3 ADD SWAP1 POP SWAP2 SWAP1 POP JUMP JUMPDEST PUSH1 0x0 PUSH1 0x20 DUP3 ADD SWAP1 POP DUP2 DUP2 SUB PUSH1 0x0 DUP4 ADD MSTORE PUSH2 0x8433 DUP2 PUSH2 0x83F7 JUMP JUMPDEST SWAP1 POP SWAP2 SWAP1 POP JUMP JUMPDEST PUSH32 0x746F6F206D616E79206D696C6573746F6E657300000000000000000000000000 PUSH1 0x0 DUP3 ADD MSTORE POP JUMP JUMPDEST PUSH1 0x0 PUSH2 0x8470 PUSH1 0x13 DUP4 PUSH2 0x6D1A JUMP JUMPDEST SWAP2 POP PUSH2 0x847B DUP3 PUSH2 0x843A JUMP JUMPDEST PUSH1 0x20 DUP3 ADD SWAP1 POP SWAP2 SWAP1 POP JUMP JUMPDEST PUSH1 0x0 PUSH1 0x20 DUP3 ADD SWAP1 POP DUP2 DUP2 SUB PUSH1 0x0 DUP4 ADD MSTORE PUSH2 0x849F DUP2 PUSH2 0x8463 JUMP JUMPDEST SWAP1 POP SWAP2 SWAP1 POP JUMP JUMPDEST PUSH32 0x626164206E756D416374697665506C6564676572730000000000000000000000 PUSH1 0x0 DUP3 ADD MSTORE POP JUMP JUMPDEST PUSH1 0x0 PUSH2 0x84DC PUSH1 0x15 DUP4 PUSH2 0x6D1A JUMP JUMPDEST SWAP2 POP PUSH2 0x84E7 DUP3 PUSH2 0x84A6 JUMP JUMPDEST PUSH1 0x20 DUP3 ADD SWAP1 POP SWAP2 SWAP1 POP JUMP JUMPDEST PUSH1 0x0 PUSH1 0x20 DUP3 ADD SWAP1 POP DUP2 DUP2 SUB PUSH1 0x0 DUP4 ADD MSTORE PUSH2 0x850B DUP2 PUSH2 0x84CF JUMP JUMPDEST SWAP1 POP SWAP2 SWAP1 POP JUMP JUMPDEST PUSH32 0x6D757374206265206F776E65642062792070726F6A6563740000000000000000 PUSH1 0x0 DUP3 ADD MSTORE POP JUMP JUMPDEST PUSH1 0x0 PUSH2 0x8548 PUSH1 0x18 DUP4 PUSH2 0x6D1A JUMP JUMPDEST SWAP2 POP PUSH2 0x8553 DUP3 PUSH2 0x8512 JUMP JUMPDEST PUSH1 0x20 DUP3 ADD SWAP1 POP SWAP2 SWAP1 POP JUMP JUMPDEST PUSH1 0x0 PUSH1 0x20 DUP3 ADD SWAP1 POP DUP2 DUP2 SUB PUSH1 0x0 DUP4 ADD MSTORE PUSH2 0x8577 DUP2 PUSH2 0x853B JUMP JUMPDEST SWAP1 POP SWAP2 SWAP1 POP JUMP JUMPDEST PUSH32 0x6D696E74696E67206661696C6564000000000000000000000000000000000000 PUSH1 0x0 DUP3 ADD MSTORE POP JUMP JUMPDEST PUSH1 0x0 PUSH2 0x85B4 PUSH1 0xE DUP4 PUSH2 0x6D1A JUMP JUMPDEST SWAP2 POP PUSH2 0x85BF DUP3 PUSH2 0x857E JUMP JUMPDEST PUSH1 0x20 DUP3 ADD SWAP1 POP SWAP2 SWAP1 POP JUMP JUMPDEST PUSH1 0x0 PUSH1 0x20 DUP3 ADD SWAP1 POP DUP2 DUP2 SUB PUSH1 0x0 DUP4 ADD MSTORE PUSH2 0x85E3 DUP2 PUSH2 0x85A7 JUMP JUMPDEST SWAP1 POP SWAP2 SWAP1 POP JUMP JUMPDEST PUSH1 0x0 PUSH1 0x40 DUP3 ADD SWAP1 POP PUSH2 0x85FF PUSH1 0x0 DUP4 ADD DUP6 PUSH2 0x6729 JUMP JUMPDEST PUSH2 0x860C PUSH1 0x20 DUP4 ADD DUP5 PUSH2 0x6729 JUMP JUMPDEST SWAP4 SWAP3 POP POP POP JUMP JUMPDEST PUSH1 0x0 PUSH1 0x40 DUP3 ADD SWAP1 POP PUSH2 0x8628 PUSH1 0x0 DUP4 ADD DUP6 PUSH2 0x6881 JUMP JUMPDEST PUSH2 0x8635 PUSH1 0x20 DUP4 ADD DUP5 PUSH2 0x6881 JUMP JUMPDEST SWAP4 SWAP3 POP POP POP JUMP JUMPDEST PUSH1 0x0 PUSH1 0x40 DUP3 ADD SWAP1 POP PUSH2 0x8651 PUSH1 0x0 DUP4 ADD DUP6 PUSH2 0x6ABC JUMP JUMPDEST PUSH2 0x865E PUSH1 0x20 DUP4 ADD DUP5 PUSH2 0x65CE JUMP JUMPDEST SWAP4 SWAP3 POP POP POP JUMP JUMPDEST PUSH32 0x6E6F7420656E6F7567682066756E647320696E207661756C7400000000000000 PUSH1 0x0 DUP3 ADD MSTORE POP JUMP JUMPDEST PUSH1 0x0 PUSH2 0x869B PUSH1 0x19 DUP4 PUSH2 0x6D1A JUMP JUMPDEST SWAP2 POP PUSH2 0x86A6 DUP3 PUSH2 0x8665 JUMP JUMPDEST PUSH1 0x20 DUP3 ADD SWAP1 POP SWAP2 SWAP1 POP JUMP JUMPDEST PUSH1 0x0 PUSH1 0x20 DUP3 ADD SWAP1 POP DUP2 DUP2 SUB PUSH1 0x0 DUP4 ADD MSTORE PUSH2 0x86CA DUP2 PUSH2 0x868E JUMP JUMPDEST SWAP1 POP SWAP2 SWAP1 POP JUMP JUMPDEST PUSH32 0x70726F6A20636F6E7472616374206D757374206F776E207661756C7400000000 PUSH1 0x0 DUP3 ADD MSTORE POP JUMP JUMPDEST PUSH1 0x0 PUSH2 0x8707 PUSH1 0x1C DUP4 PUSH2 0x6D1A JUMP JUMPDEST SWAP2 POP PUSH2 0x8712 DUP3 PUSH2 0x86D1 JUMP JUMPDEST PUSH1 0x20 DUP3 ADD SWAP1 POP SWAP2 SWAP1 POP JUMP JUMPDEST PUSH1 0x0 PUSH1 0x20 DUP3 ADD SWAP1 POP DUP2 DUP2 SUB PUSH1 0x0 DUP4 ADD MSTORE PUSH2 0x8736 DUP2 PUSH2 0x86FA JUMP JUMPDEST SWAP1 POP SWAP2 SWAP1 POP JUMP JUMPDEST PUSH1 0x0 PUSH1 0x60 DUP3 ADD SWAP1 POP PUSH2 0x8752 PUSH1 0x0 DUP4 ADD DUP7 PUSH2 0x65CE JUMP JUMPDEST PUSH2 0x875F PUSH1 0x20 DUP4 ADD DUP6 PUSH2 0x6738 JUMP JUMPDEST PUSH2 0x876C PUSH1 0x40 DUP4 ADD DUP5 PUSH2 0x65CE JUMP JUMPDEST SWAP5 SWAP4 POP POP POP POP JUMP JUMPDEST PUSH1 0x0 PUSH2 0x878F PUSH2 0x878A PUSH2 0x8785 DUP5 PUSH2 0x62F1 JUMP JUMPDEST PUSH2 0x68AB JUMP JUMPDEST PUSH2 0x632D JUMP JUMPDEST SWAP1 POP SWAP2 SWAP1 POP JUMP JUMPDEST PUSH2 0x879F DUP2 PUSH2 0x8774 JUMP JUMPDEST DUP3 MSTORE POP POP JUMP JUMPDEST PUSH1 0x0 PUSH1 0x80 DUP3 ADD SWAP1 POP PUSH2 0x87BA PUSH1 0x0 DUP4 ADD DUP8 PUSH2 0x65CE JUMP JUMPDEST PUSH2 0x87C7 PUSH1 0x20 DUP4 ADD DUP7 PUSH2 0x65A4 JUMP JUMPDEST PUSH2 0x87D4 PUSH1 0x40 DUP4 ADD DUP6 PUSH2 0x65CE JUMP JUMPDEST PUSH2 0x87E1 PUSH1 0x60 DUP4 ADD DUP5 PUSH2 0x8796 JUMP JUMPDEST SWAP6 SWAP5 POP POP POP POP POP JUMP JUMPDEST PUSH1 0x0 PUSH1 0x60 DUP3 ADD SWAP1 POP PUSH2 0x87FF PUSH1 0x0 DUP4 ADD DUP7 PUSH2 0x65CE JUMP JUMPDEST PUSH2 0x880C PUSH1 0x20 DUP4 ADD DUP6 PUSH2 0x65CE JUMP JUMPDEST PUSH2 0x8819 PUSH1 0x40 DUP4 ADD DUP5 PUSH2 0x65A4 JUMP JUMPDEST SWAP5 SWAP4 POP POP POP POP JUMP INVALID LOG2 PUSH5 0x6970667358 0x22 SLT KECCAK256 CREATE2 NOT EXTCODEHASH CREATE2 0xE5 DUP2 PUSH16 0xA8F2CDD1C30E63B5C5D808E2CF969529 GAS 0x22 0xED COINBASE 0xCF 0x49 SHR PUSH16 0x4464736F6C6343000810003300000000 "
		},
		"gasEstimates": {
			"creation": {
				"codeDepositCost": "6980600",
				"executionCost": "79651",
				"totalCost": "7060251"
			},
			"external": {
				"MAX_NUM_SINGLE_EOA_PLEDGES()": "443",
				"backdoor_markMilestoneAsOverdue(uint256)": "infinite",
				"calcOnGracePeriodPTokRefund(address)": "infinite",
				"changeOwnership(address)": "35317",
				"checkIfOnchainTargetWasReached(uint256)": "infinite",
				"clearTeamWallet()": "infinite",
				"current_endOfGracePeriod()": "2563",
				"delegate()": "2581",
				"getEndOfGracePeriod()": "2526",
				"getMilestoneOverdueTime(uint256)": "infinite",
				"getMilestoneResult(uint256)": "5099",
				"getMilestoneValueInPaymentTokens(uint256)": "infinite",
				"getNumEventsForPledger(address)": "2940",
				"getNumTokensToPledgerOnProjectSuccess(address)": "infinite",
				"getNumberOfMilestones()": "2558",
				"getNumberOfSuccessfulMilestones()": "2514",
				"getOnFailureParams()": "infinite",
				"getOwner()": "2697",
				"getPaymentTokenAddress()": "2633",
				"getPledgeEvent(address,uint256)": "infinite",
				"getPrerequisiteIndexForMilestone(uint256)": "5128",
				"getProjectStartTime()": "2547",
				"getProjectState()": "2753",
				"getProjectTokenAddress()": "2612",
				"getTeamWallet()": "2734",
				"getVaultAddress()": "2655",
				"getVaultBalance()": "infinite",
				"initialize((address,address,((address,uint32,uint256),uint8,uint32,int32,uint256)[],address,uint256,uint256,uint256,uint256,address))": "infinite",
				"isActivePledger(address)": "2928",
				"milestoneArr(uint256)": "infinite",
				"milestoneIsOverdue(uint256)": "infinite",
				"minPledgedSum()": "2563",
				"mintProjectTokens(address,uint256)": "infinite",
				"newPledge(uint256,address)": "infinite",
				"numPledgersSofar()": "2562",
				"onChangeExitGracePeriod()": "2541",
				"onExternalApproverResolve(uint256,bool,string)": "infinite",
				"onFailureRefundParams()": "infinite",
				"onGracePeriodPledgerRefund()": "infinite",
				"onMilestoneOverdue(uint256)": "infinite",
				"onProjectFailurePledgerRefund()": "infinite",
				"owner()": "2676",
				"paused()": "2613",
				"paymentTokenAddress()": "2604",
				"platformAddr()": "2583",
				"platformCutPromils()": "2497",
				"pledgerAddrToEventMap(address,uint256)": "infinite",
				"pledgerGraceExitWaitTime()": "2497",
				"projectEndTime()": "2564",
				"projectIsCompleted()": "2724",
				"projectStartTime()": "2518",
				"projectState()": "2745",
				"projectToken()": "infinite",
				"projectVault()": "infinite",
				"renounceOwnership()": "30132",
				"setDelegate(address)": "35157",
				"setMinPledgedSum(uint256)": "infinite",
				"setPledgerWaitTimeBeforeGraceExit(uint256)": "infinite",
				"setTeamWallet(address)": "39841",
				"successfulMilestoneIndexes(uint256)": "infinite",
				"totalNumPledgeEvents()": "2541",
				"transferProjectTokenOwnershipToTeam()": "infinite",
				"transferProjectTokensToPledgerOnProjectSuccess()": "infinite",
				"updateProjectDetails(((address,uint32,uint256),uint8,uint32,int32,uint256)[],uint256)": "infinite",
				"wasInitialized()": "2633"
			},
			"internal": {
				"_TODO_gracePTokRefundForSinglePledge(struct PledgeEvent storage pointer,uint256)": "infinite",
				"_TODO_numTokensOnProjectSuccessForSinglePledge(struct PledgeEvent storage pointer)": "2134",
				"_addNewPledgeEvent(address,uint256)": "infinite",
				"_calcProjectTokensToPledger(address)": "infinite",
				"_getNumPledgersSofar()": "2123",
				"_getPlatformAddress()": "2159",
				"_getPlatformCutPromils()": "2123",
				"_getProjectVault()": "2159",
				"_intToUint(int256)": "infinite",
				"_onProjectFailed()": "infinite",
				"_onProjectSucceeded()": "infinite",
				"_pTokRefundToPledger(address,uint256)": "infinite",
				"_paymentTokenAllowanceFromSender()": "infinite",
				"_projectNotCompleted()": "2292",
				"_setProjectState(enum ProjectState)": "infinite",
				"_simplePTokRefundForSinglePledge(struct PledgeEvent storage pointer,uint256)": "infinite",
				"_terminateGracePeriod()": "5023",
				"_transferAllVaultFundsToTeamWallet()": "infinite",
				"_transferPaymentTokensToVault(uint256)": "infinite",
				"_transferTokensOnSuccess(enum Project.OnSuccessReward)": "infinite",
				"_transferTokensToPledger(address,uint256)": "infinite",
				"_updateProject(struct Milestone memory[] memory,uint256)": "infinite",
				"calcPledgerTotalInvestment(struct PledgeEvent storage ref[] storage pointer)": "infinite",
				"getPledgerEnterTime(address)": "4457",
				"removeActivePledger(address)": "infinite",
				"verifyMaxNumPledgesNotExceeded(address)": "infinite"
			}
		},
		"methodIdentifiers": {
			"MAX_NUM_SINGLE_EOA_PLEDGES()": "0c2a0bda",
			"backdoor_markMilestoneAsOverdue(uint256)": "1f5d3fe3",
			"calcOnGracePeriodPTokRefund(address)": "1143f400",
			"changeOwnership(address)": "2af4c31e",
			"checkIfOnchainTargetWasReached(uint256)": "ea9fd872",
			"clearTeamWallet()": "96332753",
			"current_endOfGracePeriod()": "916056c7",
			"delegate()": "c89e4361",
			"getEndOfGracePeriod()": "de34783f",
			"getMilestoneOverdueTime(uint256)": "218cdf2e",
			"getMilestoneResult(uint256)": "65dbc1f6",
			"getMilestoneValueInPaymentTokens(uint256)": "6050018e",
			"getNumEventsForPledger(address)": "31e63e39",
			"getNumTokensToPledgerOnProjectSuccess(address)": "5914b3d3",
			"getNumberOfMilestones()": "7200a0f3",
			"getNumberOfSuccessfulMilestones()": "1217308b",
			"getOnFailureParams()": "d766d0b5",
			"getOwner()": "893d20e8",
			"getPaymentTokenAddress()": "dea182c1",
			"getPledgeEvent(address,uint256)": "1a6615b9",
			"getPrerequisiteIndexForMilestone(uint256)": "a72b90d4",
			"getProjectStartTime()": "f4390f02",
			"getProjectState()": "49958611",
			"getProjectTokenAddress()": "7cbb7b46",
			"getTeamWallet()": "0759a354",
			"getVaultAddress()": "65cacaa4",
			"getVaultBalance()": "ed12e8ef",
			"initialize((address,address,((address,uint32,uint256),uint8,uint32,int32,uint256)[],address,uint256,uint256,uint256,uint256,address))": "f4ac5458",
			"isActivePledger(address)": "60379588",
			"milestoneArr(uint256)": "1782eba9",
			"milestoneIsOverdue(uint256)": "2ada4f76",
			"minPledgedSum()": "c4e82085",
			"mintProjectTokens(address,uint256)": "5753c40e",
			"newPledge(uint256,address)": "94d0a60a",
			"numPledgersSofar()": "d9a18862",
			"onChangeExitGracePeriod()": "bad141b8",
			"onExternalApproverResolve(uint256,bool,string)": "4bc8d0db",
			"onFailureRefundParams()": "4f1351a4",
			"onGracePeriodPledgerRefund()": "380c2eeb",
			"onMilestoneOverdue(uint256)": "887445f4",
			"onProjectFailurePledgerRefund()": "db8c3f09",
			"owner()": "8da5cb5b",
			"paused()": "5c975abb",
			"paymentTokenAddress()": "afb18fe7",
			"platformAddr()": "2d4c8096",
			"platformCutPromils()": "265d1d58",
			"pledgerAddrToEventMap(address,uint256)": "e537a4ad",
			"pledgerGraceExitWaitTime()": "77036684",
			"projectEndTime()": "15643554",
			"projectIsCompleted()": "84a1293c",
			"projectStartTime()": "94febbf3",
			"projectState()": "748807ab",
			"projectToken()": "4b60ce77",
			"projectVault()": "f9e1e161",
			"renounceOwnership()": "715018a6",
			"setDelegate(address)": "ca5eb5e1",
			"setMinPledgedSum(uint256)": "81ac8a24",
			"setPledgerWaitTimeBeforeGraceExit(uint256)": "1286ba4d",
			"setTeamWallet(address)": "1525ff7d",
			"successfulMilestoneIndexes(uint256)": "ab5d258f",
			"totalNumPledgeEvents()": "2aecc4da",
			"transferProjectTokenOwnershipToTeam()": "62843c94",
			"transferProjectTokensToPledgerOnProjectSuccess()": "4b87d195",
			"updateProjectDetails(((address,uint32,uint256),uint8,uint32,int32,uint256)[],uint256)": "0450c6e2",
			"wasInitialized()": "5bedcc65"
		}
	},
	"abi": [
		{
			"inputs": [
				{
					"internalType": "uint256",
					"name": "index",
					"type": "uint256"
				},
				{
					"internalType": "address",
					"name": "externalApprover",
					"type": "address"
				},
				{
					"internalType": "uint256",
					"name": "fundingTarget",
					"type": "uint256"
				},
				{
					"internalType": "uint256",
					"name": "numPledgers",
					"type": "uint256"
				}
			],
			"name": "AmbiguousMilestoneApprover",
			"type": "error"
		},
		{
			"inputs": [
				{
					"internalType": "enum Project.OnSuccessReward",
					"name": "rewardType",
					"type": "uint8"
				}
			],
			"name": "BadRewardType",
			"type": "error"
		},
		{
			"inputs": [
				{
					"internalType": "address",
					"name": "caller",
					"type": "address"
				}
			],
			"name": "CallerNotAPledger",
			"type": "error"
		},
		{
			"inputs": [
				{
					"internalType": "uint256",
					"name": "milestoneIndex",
					"type": "uint256"
				},
				{
					"internalType": "address",
					"name": "externalApprover",
					"type": "address"
				},
				{
					"internalType": "address",
					"name": "msgSender",
					"type": "address"
				}
			],
			"name": "CanOnlyBeInvokedByAMilestoneApprover",
			"type": "error"
		},
		{
			"inputs": [
				{
					"internalType": "uint256",
					"name": "index",
					"type": "uint256"
				},
				{
					"internalType": "uint32",
					"name": "dueDate",
					"type": "uint32"
				},
				{
					"internalType": "uint256",
					"name": "timestamp",
					"type": "uint256"
				}
			],
			"name": "IllegalMilestoneDueDate",
			"type": "error"
		},
		{
			"inputs": [
				{
					"internalType": "address",
					"name": "pledgerAddr",
					"type": "address"
				},
				{
					"internalType": "uint256",
					"name": "maxNumEOAPledges",
					"type": "uint256"
				}
			],
			"name": "MaxMuberOfPedgesPerEOAWasReached",
			"type": "error"
		},
		{
			"inputs": [
				{
					"internalType": "uint256",
					"name": "milestoneIndex",
					"type": "uint256"
				}
			],
			"name": "MilestoneIsAlreadyResolved",
			"type": "error"
		},
		{
			"inputs": [
				{
					"internalType": "uint256",
					"name": "milestoneIndex",
					"type": "uint256"
				},
				{
					"internalType": "uint256",
					"name": "time",
					"type": "uint256"
				}
			],
			"name": "MilestoneIsNotOverdue",
			"type": "error"
		},
		{
			"inputs": [
				{
					"internalType": "address",
					"name": "addr",
					"type": "address"
				}
			],
			"name": "MissingPledgrRecord",
			"type": "error"
		},
		{
			"inputs": [
				{
					"internalType": "uint256",
					"name": "index",
					"type": "uint256"
				}
			],
			"name": "NoMilestoneApproverWasSet",
			"type": "error"
		},
		{
			"inputs": [
				{
					"internalType": "uint256",
					"name": "milestoneIndex",
					"type": "uint256"
				}
			],
			"name": "NotAnExpernallyApprovedMilestone",
			"type": "error"
		},
		{
			"inputs": [
				{
					"internalType": "address",
					"name": "msgSender",
					"type": "address"
				},
				{
					"internalType": "address",
					"name": "owner",
					"type": "address"
				},
				{
					"internalType": "address",
					"name": "delegate",
					"type": "address"
				}
			],
			"name": "OnlyOwnerOrDelegateCanPerformAction",
			"type": "error"
		},
		{
			"inputs": [
				{
					"internalType": "enum ProjectState",
					"name": "projectState",
					"type": "uint8"
				}
			],
			"name": "OperationCannotBeAppliedToRunningProject",
			"type": "error"
		},
		{
			"inputs": [
				{
					"internalType": "uint256",
					"name": "fundsInVault",
					"type": "uint256"
				}
			],
			"name": "OperationCannotBeAppliedWhileFundsInVault",
			"type": "error"
		},
		{
			"inputs": [
				{
					"internalType": "uint256",
					"name": "numPaymentTokens",
					"type": "uint256"
				},
				{
					"internalType": "uint256",
					"name": "minPledgedSum",
					"type": "uint256"
				}
			],
			"name": "PledgeMustExceedMinValue",
			"type": "error"
		},
		{
			"inputs": [
				{
					"internalType": "address",
					"name": "addr",
					"type": "address"
				}
			],
			"name": "PledgerAlreadyExist",
			"type": "error"
		},
		{
			"inputs": [
				{
					"internalType": "uint256",
					"name": "exitRequestTime",
					"type": "uint256"
				},
				{
					"internalType": "uint256",
					"name": "endOfGracePeriod",
					"type": "uint256"
				}
			],
			"name": "PledgerGraceExitRefusedOverdue",
			"type": "error"
		},
		{
			"inputs": [
				{
					"internalType": "uint256",
					"name": "exitRequestTime",
					"type": "uint256"
				},
				{
					"internalType": "uint256",
					"name": "exitAllowedStartTime",
					"type": "uint256"
				}
			],
			"name": "PledgerGraceExitRefusedTooSoon",
			"type": "error"
		},
		{
			"inputs": [
				{
					"internalType": "address",
					"name": "addr",
					"type": "address"
				},
				{
					"internalType": "uint256",
					"name": "value",
					"type": "uint256"
				},
				{
					"internalType": "uint256",
					"name": "minValue",
					"type": "uint256"
				}
			],
			"name": "PledgerMinRequirementNotMet",
			"type": "error"
		},
		{
			"inputs": [
				{
					"internalType": "int256",
					"name": "prerequisiteIndex",
					"type": "int256"
				},
				{
					"internalType": "uint256",
					"name": "milestoneIndex",
					"type": "uint256"
				}
			],
			"name": "PrerequisitesWasNotMet",
			"type": "error"
		},
		{
			"anonymous": false,
			"inputs": [
				{
					"indexed": true,
					"internalType": "address",
					"name": "newDelegate",
					"type": "address"
				},
				{
					"indexed": true,
					"internalType": "address",
					"name": "oldDelegate",
					"type": "address"
				}
			],
			"name": "DelegateChanged",
			"type": "event"
		},
		{
			"anonymous": false,
			"inputs": [
				{
					"indexed": false,
					"internalType": "address",
					"name": "pledger",
					"type": "address"
				},
				{
					"indexed": false,
					"internalType": "uint256",
					"name": "shouldBeRefunded",
					"type": "uint256"
				},
				{
					"indexed": false,
					"internalType": "uint256",
					"name": "actuallyRefunded",
					"type": "uint256"
				}
			],
			"name": "GracePeriodPledgerRefund",
			"type": "event"
		},
		{
			"anonymous": false,
			"inputs": [],
			"name": "MarkedAsInitialized",
			"type": "event"
		},
		{
			"anonymous": false,
			"inputs": [
				{
					"indexed": false,
					"internalType": "uint256",
					"name": "milestoneIndex_",
					"type": "uint256"
				},
				{
					"indexed": false,
					"internalType": "string",
					"name": "reason",
					"type": "string"
				}
			],
			"name": "MilestoneFailedByExternalApprover",
			"type": "event"
		},
		{
			"anonymous": false,
			"inputs": [
				{
					"indexed": true,
					"internalType": "uint256",
					"name": "milestoneIndex",
					"type": "uint256"
				},
				{
					"indexed": true,
					"internalType": "uint256",
					"name": "dueDate",
					"type": "uint256"
				},
				{
					"indexed": false,
					"internalType": "uint256",
					"name": "blockTimestamp",
					"type": "uint256"
				}
			],
			"name": "MilestoneIsOverdueEvent",
			"type": "event"
		},
		{
			"anonymous": false,
			"inputs": [
				{
					"indexed": false,
					"internalType": "enum MilestoneResult",
					"name": "newResult",
					"type": "uint8"
				},
				{
					"indexed": false,
					"internalType": "enum MilestoneResult",
					"name": "oldResult",
					"type": "uint8"
				}
			],
			"name": "MilestoneResultChanged",
			"type": "event"
		},
		{
			"anonymous": false,
			"inputs": [
				{
					"indexed": false,
					"internalType": "uint256",
					"name": "milestoneIndex_",
					"type": "uint256"
				},
				{
					"indexed": false,
					"internalType": "string",
					"name": "reason",
					"type": "string"
				}
			],
			"name": "MilestoneSucceededByExternalApprover",
			"type": "event"
		},
		{
			"anonymous": false,
			"inputs": [
				{
					"indexed": true,
					"internalType": "uint256",
					"name": "fundingTarget",
					"type": "uint256"
				},
				{
					"indexed": false,
					"internalType": "uint256",
					"name": "currentBalance",
					"type": "uint256"
				}
			],
			"name": "MilestoneSucceededFunding",
			"type": "event"
		},
		{
			"anonymous": false,
			"inputs": [
				{
					"indexed": true,
					"internalType": "uint256",
					"name": "numPledgersInMilestone",
					"type": "uint256"
				},
				{
					"indexed": true,
					"internalType": "uint256",
					"name": "numPledgersSofar",
					"type": "uint256"
				}
			],
			"name": "MilestoneSucceededNumPledgers",
			"type": "event"
		},
		{
			"anonymous": false,
			"inputs": [
				{
					"indexed": false,
					"internalType": "uint256",
					"name": "milestoneIndex_",
					"type": "uint256"
				}
			],
			"name": "MilestoneSuccess",
			"type": "event"
		},
		{
			"anonymous": false,
			"inputs": [
				{
					"indexed": false,
					"internalType": "uint256",
					"name": "newMinPledgedSum",
					"type": "uint256"
				},
				{
					"indexed": false,
					"internalType": "uint256",
					"name": "oldMinPledgedSum",
					"type": "uint256"
				}
			],
			"name": "MinPledgedSumWasSet",
			"type": "event"
		},
		{
			"anonymous": false,
			"inputs": [
				{
					"indexed": false,
					"internalType": "address",
					"name": "pledger",
					"type": "address"
				},
				{
					"indexed": false,
					"internalType": "uint256",
					"name": "sum",
					"type": "uint256"
				}
			],
			"name": "NewPledgeEvent",
			"type": "event"
		},
		{
			"anonymous": false,
			"inputs": [
				{
					"indexed": true,
					"internalType": "address",
					"name": "addr",
					"type": "address"
				},
				{
					"indexed": true,
					"internalType": "uint256",
					"name": "numPledgersSofar",
					"type": "uint256"
				},
				{
					"indexed": true,
					"internalType": "uint256",
					"name": "sum_",
					"type": "uint256"
				}
			],
			"name": "NewPledger",
			"type": "event"
		},
		{
			"anonymous": false,
			"inputs": [
				{
					"indexed": true,
					"internalType": "address",
					"name": "pledgerAddr_",
					"type": "address"
				},
				{
					"indexed": false,
					"internalType": "uint32",
					"name": "pledgerEnterTime",
					"type": "uint32"
				},
				{
					"indexed": false,
					"internalType": "uint256",
					"name": "refundSum_",
					"type": "uint256"
				}
			],
			"name": "OnFinalPTokRefundOfPledger",
			"type": "event"
		},
		{
			"anonymous": false,
			"inputs": [
				{
					"indexed": true,
					"internalType": "address",
					"name": "projectAddress",
					"type": "address"
				},
				{
					"indexed": false,
					"internalType": "uint256",
					"name": "endTime",
					"type": "uint256"
				}
			],
			"name": "OnProjectFailed",
			"type": "event"
		},
		{
			"anonymous": false,
			"inputs": [
				{
					"indexed": true,
					"internalType": "address",
					"name": "projectAddress",
					"type": "address"
				},
				{
					"indexed": false,
					"internalType": "uint256",
					"name": "endTime",
					"type": "uint256"
				}
			],
			"name": "OnProjectSucceeded",
			"type": "event"
		},
		{
			"anonymous": false,
			"inputs": [
				{
					"indexed": false,
					"internalType": "uint256",
					"name": "milestoneIndex_",
					"type": "uint256"
				}
			],
			"name": "OnchainMilestoneNotYetReached",
			"type": "event"
		},
		{
			"anonymous": false,
			"inputs": [
				{
					"indexed": true,
					"internalType": "address",
					"name": "owner_",
					"type": "address"
				},
				{
					"indexed": true,
					"internalType": "address",
					"name": "oldOwner_",
					"type": "address"
				}
			],
			"name": "OwnershipChanged",
			"type": "event"
		},
		{
			"anonymous": false,
			"inputs": [
				{
					"indexed": true,
					"internalType": "address",
					"name": "oldOwner_",
					"type": "address"
				}
			],
			"name": "OwnershipRenounced",
			"type": "event"
		},
		{
			"anonymous": false,
			"inputs": [
				{
					"indexed": false,
					"internalType": "address",
					"name": "account",
					"type": "address"
				}
			],
			"name": "Paused",
			"type": "event"
		},
		{
			"anonymous": false,
			"inputs": [
				{
					"indexed": false,
					"internalType": "uint256",
					"name": "newValue",
					"type": "uint256"
				},
				{
					"indexed": false,
					"internalType": "uint256",
					"name": "oldValue",
					"type": "uint256"
				}
			],
			"name": "PledgerGraceExitWaitTimeChanged",
			"type": "event"
		},
		{
			"anonymous": false,
			"inputs": [
				{
					"indexed": false,
					"internalType": "uint256",
					"name": "changeTime",
					"type": "uint256"
				},
				{
					"indexed": false,
					"internalType": "uint256",
					"name": "endOfGracePeriod",
					"type": "uint256"
				}
			],
			"name": "ProjectDetailedWereChanged",
			"type": "event"
		},
		{
			"anonymous": false,
			"inputs": [
				{
					"indexed": false,
					"internalType": "address",
					"name": "pledger",
					"type": "address"
				},
				{
					"indexed": false,
					"internalType": "uint256",
					"name": "shouldBeRefunded",
					"type": "uint256"
				},
				{
					"indexed": false,
					"internalType": "uint256",
					"name": "actuallyRefunded",
					"type": "uint256"
				}
			],
			"name": "ProjectFailurePledgerRefund",
			"type": "event"
		},
		{
			"anonymous": false,
			"inputs": [
				{
					"indexed": false,
					"internalType": "enum ProjectState",
					"name": "newState",
					"type": "uint8"
				},
				{
					"indexed": false,
					"internalType": "enum ProjectState",
					"name": "oldState",
					"type": "uint8"
				}
			],
			"name": "ProjectStateChanged",
			"type": "event"
		},
		{
			"anonymous": false,
			"inputs": [
				{
					"indexed": false,
					"internalType": "address",
					"name": "newWallet",
					"type": "address"
				},
				{
					"indexed": false,
					"internalType": "address",
					"name": "oldWallet",
					"type": "address"
				}
			],
			"name": "TeamWalletChanged",
			"type": "event"
		},
		{
			"anonymous": false,
			"inputs": [],
			"name": "TeamWalletRenounceOwnership",
			"type": "event"
		},
		{
			"anonymous": false,
			"inputs": [
				{
					"indexed": true,
					"internalType": "address",
					"name": "projectContract",
					"type": "address"
				},
				{
					"indexed": true,
					"internalType": "address",
					"name": "teamWallet",
					"type": "address"
				}
			],
			"name": "TokenOwnershipTransferredToTeamWallet",
			"type": "event"
		},
		{
			"anonymous": false,
			"inputs": [
				{
					"indexed": false,
					"internalType": "address",
					"name": "pledger",
					"type": "address"
				},
				{
					"indexed": false,
					"internalType": "uint256",
					"name": "numTokens",
					"type": "uint256"
				}
			],
			"name": "TransferProjectTokensToPledgerOnProjectSuccess",
			"type": "event"
		},
		{
			"anonymous": false,
			"inputs": [
				{
					"indexed": false,
					"internalType": "address",
					"name": "account",
					"type": "address"
				}
			],
			"name": "Unpaused",
			"type": "event"
		},
		{
			"inputs": [],
			"name": "MAX_NUM_SINGLE_EOA_PLEDGES",
			"outputs": [
				{
					"internalType": "uint256",
					"name": "",
					"type": "uint256"
				}
			],
			"stateMutability": "view",
			"type": "function"
		},
		{
			"inputs": [
				{
					"internalType": "uint256",
					"name": "milestoneIndex",
					"type": "uint256"
				}
			],
			"name": "backdoor_markMilestoneAsOverdue",
			"outputs": [],
			"stateMutability": "nonpayable",
			"type": "function"
		},
		{
			"inputs": [
				{
					"internalType": "address",
					"name": "pledgerAddr_",
					"type": "address"
				}
			],
			"name": "calcOnGracePeriodPTokRefund",
			"outputs": [
				{
					"internalType": "uint256",
					"name": "",
					"type": "uint256"
				}
			],
			"stateMutability": "view",
			"type": "function"
		},
		{
			"inputs": [
				{
					"internalType": "address",
					"name": "newOwner",
					"type": "address"
				}
			],
			"name": "changeOwnership",
			"outputs": [],
			"stateMutability": "nonpayable",
			"type": "function"
		},
		{
			"inputs": [
				{
					"internalType": "uint256",
					"name": "milestoneIndex_",
					"type": "uint256"
				}
			],
			"name": "checkIfOnchainTargetWasReached",
			"outputs": [],
			"stateMutability": "nonpayable",
			"type": "function"
		},
		{
			"inputs": [],
			"name": "clearTeamWallet",
			"outputs": [],
			"stateMutability": "nonpayable",
			"type": "function"
		},
		{
			"inputs": [],
			"name": "current_endOfGracePeriod",
			"outputs": [
				{
					"internalType": "uint256",
					"name": "",
					"type": "uint256"
				}
			],
			"stateMutability": "view",
			"type": "function"
		},
		{
			"inputs": [],
			"name": "delegate",
			"outputs": [
				{
					"internalType": "address",
					"name": "",
					"type": "address"
				}
			],
			"stateMutability": "view",
			"type": "function"
		},
		{
			"inputs": [],
			"name": "getEndOfGracePeriod",
			"outputs": [
				{
					"internalType": "uint256",
					"name": "",
					"type": "uint256"
				}
			],
			"stateMutability": "view",
			"type": "function"
		},
		{
			"inputs": [
				{
					"internalType": "uint256",
					"name": "milestoneIndex",
					"type": "uint256"
				}
			],
			"name": "getMilestoneOverdueTime",
			"outputs": [
				{
					"internalType": "uint256",
					"name": "",
					"type": "uint256"
				}
			],
			"stateMutability": "view",
			"type": "function"
		},
		{
			"inputs": [
				{
					"internalType": "uint256",
					"name": "milestoneIndex",
					"type": "uint256"
				}
			],
			"name": "getMilestoneResult",
			"outputs": [
				{
					"internalType": "enum MilestoneResult",
					"name": "",
					"type": "uint8"
				}
			],
			"stateMutability": "view",
			"type": "function"
		},
		{
			"inputs": [
				{
					"internalType": "uint256",
					"name": "milestoneIndex",
					"type": "uint256"
				}
			],
			"name": "getMilestoneValueInPaymentTokens",
			"outputs": [
				{
					"internalType": "uint256",
					"name": "",
					"type": "uint256"
				}
			],
			"stateMutability": "view",
			"type": "function"
		},
		{
			"inputs": [
				{
					"internalType": "address",
					"name": "pledgerAddr_",
					"type": "address"
				}
			],
			"name": "getNumEventsForPledger",
			"outputs": [
				{
					"internalType": "uint256",
					"name": "",
					"type": "uint256"
				}
			],
			"stateMutability": "view",
			"type": "function"
		},
		{
			"inputs": [
				{
					"internalType": "address",
					"name": "pledgerAddr_",
					"type": "address"
				}
			],
			"name": "getNumTokensToPledgerOnProjectSuccess",
			"outputs": [
				{
					"internalType": "uint256",
					"name": "",
					"type": "uint256"
				}
			],
			"stateMutability": "view",
			"type": "function"
		},
		{
			"inputs": [],
			"name": "getNumberOfMilestones",
			"outputs": [
				{
					"internalType": "uint256",
					"name": "",
					"type": "uint256"
				}
			],
			"stateMutability": "view",
			"type": "function"
		},
		{
			"inputs": [],
			"name": "getNumberOfSuccessfulMilestones",
			"outputs": [
				{
					"internalType": "uint256",
					"name": "",
					"type": "uint256"
				}
			],
			"stateMutability": "view",
			"type": "function"
		},
		{
			"inputs": [],
			"name": "getOnFailureParams",
			"outputs": [
				{
					"internalType": "bool",
					"name": "",
					"type": "bool"
				},
				{
					"internalType": "uint256",
					"name": "",
					"type": "uint256"
				},
				{
					"internalType": "uint256",
					"name": "",
					"type": "uint256"
				}
			],
			"stateMutability": "view",
			"type": "function"
		},
		{
			"inputs": [],
			"name": "getOwner",
			"outputs": [
				{
					"internalType": "address",
					"name": "",
					"type": "address"
				}
			],
			"stateMutability": "view",
			"type": "function"
		},
		{
			"inputs": [],
			"name": "getPaymentTokenAddress",
			"outputs": [
				{
					"internalType": "address",
					"name": "",
					"type": "address"
				}
			],
			"stateMutability": "view",
			"type": "function"
		},
		{
			"inputs": [
				{
					"internalType": "address",
					"name": "pledgerAddr_",
					"type": "address"
				},
				{
					"internalType": "uint256",
					"name": "eventIndex_",
					"type": "uint256"
				}
			],
			"name": "getPledgeEvent",
			"outputs": [
				{
					"internalType": "uint32",
					"name": "",
					"type": "uint32"
				},
				{
					"internalType": "uint256",
					"name": "",
					"type": "uint256"
				}
			],
			"stateMutability": "view",
			"type": "function"
		},
		{
			"inputs": [
				{
					"internalType": "uint256",
					"name": "milestoneIndex",
					"type": "uint256"
				}
			],
			"name": "getPrerequisiteIndexForMilestone",
			"outputs": [
				{
					"internalType": "int256",
					"name": "",
					"type": "int256"
				}
			],
			"stateMutability": "view",
			"type": "function"
		},
		{
			"inputs": [],
			"name": "getProjectStartTime",
			"outputs": [
				{
					"internalType": "uint256",
					"name": "",
					"type": "uint256"
				}
			],
			"stateMutability": "view",
			"type": "function"
		},
		{
			"inputs": [],
			"name": "getProjectState",
			"outputs": [
				{
					"internalType": "enum ProjectState",
					"name": "",
					"type": "uint8"
				}
			],
			"stateMutability": "view",
			"type": "function"
		},
		{
			"inputs": [],
			"name": "getProjectTokenAddress",
			"outputs": [
				{
					"internalType": "address",
					"name": "",
					"type": "address"
				}
			],
			"stateMutability": "view",
			"type": "function"
		},
		{
			"inputs": [],
			"name": "getTeamWallet",
			"outputs": [
				{
					"internalType": "address",
					"name": "",
					"type": "address"
				}
			],
			"stateMutability": "view",
			"type": "function"
		},
		{
			"inputs": [],
			"name": "getVaultAddress",
			"outputs": [
				{
					"internalType": "address",
					"name": "",
					"type": "address"
				}
			],
			"stateMutability": "view",
			"type": "function"
		},
		{
			"inputs": [],
			"name": "getVaultBalance",
			"outputs": [
				{
					"internalType": "uint256",
					"name": "",
					"type": "uint256"
				}
			],
			"stateMutability": "view",
			"type": "function"
		},
		{
			"inputs": [
				{
					"components": [
						{
							"internalType": "address",
							"name": "projectTeamWallet",
							"type": "address"
						},
						{
							"internalType": "contract IVault",
							"name": "vault",
							"type": "address"
						},
						{
							"components": [
								{
									"components": [
										{
											"internalType": "address",
											"name": "externalApprover",
											"type": "address"
										},
										{
											"internalType": "uint32",
											"name": "targetNumPledgers",
											"type": "uint32"
										},
										{
											"internalType": "uint256",
											"name": "fundingTarget",
											"type": "uint256"
										}
									],
									"internalType": "struct MilestoneApprover",
									"name": "milestoneApprover",
									"type": "tuple"
								},
								{
									"internalType": "enum MilestoneResult",
									"name": "result",
									"type": "uint8"
								},
								{
									"internalType": "uint32",
									"name": "dueDate",
									"type": "uint32"
								},
								{
									"internalType": "int32",
									"name": "prereqInd",
									"type": "int32"
								},
								{
									"internalType": "uint256",
									"name": "pTokValue",
									"type": "uint256"
								}
							],
							"internalType": "struct Milestone[]",
							"name": "milestones",
							"type": "tuple[]"
						},
						{
							"internalType": "contract IMintableOwnedERC20",
							"name": "projectToken",
							"type": "address"
						},
						{
							"internalType": "uint256",
							"name": "platformCutPromils",
							"type": "uint256"
						},
						{
							"internalType": "uint256",
							"name": "minPledgedSum",
							"type": "uint256"
						},
						{
							"internalType": "uint256",
							"name": "onChangeExitGracePeriod",
							"type": "uint256"
						},
						{
							"internalType": "uint256",
							"name": "pledgerGraceExitWaitTime",
							"type": "uint256"
						},
						{
							"internalType": "address",
							"name": "paymentToken",
							"type": "address"
						}
					],
					"internalType": "struct ProjectInitParams",
					"name": "params_",
					"type": "tuple"
				}
			],
			"name": "initialize",
			"outputs": [],
			"stateMutability": "nonpayable",
			"type": "function"
		},
		{
			"inputs": [
				{
					"internalType": "address",
					"name": "addr",
					"type": "address"
				}
			],
			"name": "isActivePledger",
			"outputs": [
				{
					"internalType": "bool",
					"name": "",
					"type": "bool"
				}
			],
			"stateMutability": "view",
			"type": "function"
		},
		{
			"inputs": [
				{
					"internalType": "uint256",
					"name": "",
					"type": "uint256"
				}
			],
			"name": "milestoneArr",
			"outputs": [
				{
					"components": [
						{
							"internalType": "address",
							"name": "externalApprover",
							"type": "address"
						},
						{
							"internalType": "uint32",
							"name": "targetNumPledgers",
							"type": "uint32"
						},
						{
							"internalType": "uint256",
							"name": "fundingTarget",
							"type": "uint256"
						}
					],
					"internalType": "struct MilestoneApprover",
					"name": "milestoneApprover",
					"type": "tuple"
				},
				{
					"internalType": "enum MilestoneResult",
					"name": "result",
					"type": "uint8"
				},
				{
					"internalType": "uint32",
					"name": "dueDate",
					"type": "uint32"
				},
				{
					"internalType": "int32",
					"name": "prereqInd",
					"type": "int32"
				},
				{
					"internalType": "uint256",
					"name": "pTokValue",
					"type": "uint256"
				}
			],
			"stateMutability": "view",
			"type": "function"
		},
		{
			"inputs": [
				{
					"internalType": "uint256",
					"name": "milestoneIndex_",
					"type": "uint256"
				}
			],
			"name": "milestoneIsOverdue",
			"outputs": [
				{
					"internalType": "bool",
					"name": "",
					"type": "bool"
				}
			],
			"stateMutability": "view",
			"type": "function"
		},
		{
			"inputs": [],
			"name": "minPledgedSum",
			"outputs": [
				{
					"internalType": "uint256",
					"name": "",
					"type": "uint256"
				}
			],
			"stateMutability": "view",
			"type": "function"
		},
		{
			"inputs": [
				{
					"internalType": "address",
					"name": "to",
					"type": "address"
				},
				{
					"internalType": "uint256",
					"name": "numTokens",
					"type": "uint256"
				}
			],
			"name": "mintProjectTokens",
			"outputs": [],
			"stateMutability": "nonpayable",
			"type": "function"
		},
		{
			"inputs": [
				{
					"internalType": "uint256",
					"name": "numPaymentTokens_",
					"type": "uint256"
				},
				{
					"internalType": "address",
					"name": "paymentTokenAddr_",
					"type": "address"
				}
			],
			"name": "newPledge",
			"outputs": [],
			"stateMutability": "nonpayable",
			"type": "function"
		},
		{
			"inputs": [],
			"name": "numPledgersSofar",
			"outputs": [
				{
					"internalType": "uint256",
					"name": "",
					"type": "uint256"
				}
			],
			"stateMutability": "view",
			"type": "function"
		},
		{
			"inputs": [],
			"name": "onChangeExitGracePeriod",
			"outputs": [
				{
					"internalType": "uint256",
					"name": "",
					"type": "uint256"
				}
			],
			"stateMutability": "view",
			"type": "function"
		},
		{
			"inputs": [
				{
					"internalType": "uint256",
					"name": "milestoneIndex_",
					"type": "uint256"
				},
				{
					"internalType": "bool",
					"name": "succeeded",
					"type": "bool"
				},
				{
					"internalType": "string",
					"name": "reason",
					"type": "string"
				}
			],
			"name": "onExternalApproverResolve",
			"outputs": [],
			"stateMutability": "nonpayable",
			"type": "function"
		},
		{
			"inputs": [],
			"name": "onFailureRefundParams",
			"outputs": [
				{
					"internalType": "bool",
					"name": "exists",
					"type": "bool"
				},
				{
					"internalType": "uint256",
					"name": "totalPTokInVault",
					"type": "uint256"
				},
				{
					"internalType": "uint256",
					"name": "totalAllPledgerPTok",
					"type": "uint256"
				}
			],
			"stateMutability": "view",
			"type": "function"
		},
		{
			"inputs": [],
			"name": "onGracePeriodPledgerRefund",
			"outputs": [],
			"stateMutability": "nonpayable",
			"type": "function"
		},
		{
			"inputs": [
				{
					"internalType": "uint256",
					"name": "milestoneIndex_",
					"type": "uint256"
				}
			],
			"name": "onMilestoneOverdue",
			"outputs": [],
			"stateMutability": "nonpayable",
			"type": "function"
		},
		{
			"inputs": [],
			"name": "onProjectFailurePledgerRefund",
			"outputs": [],
			"stateMutability": "nonpayable",
			"type": "function"
		},
		{
			"inputs": [],
			"name": "owner",
			"outputs": [
				{
					"internalType": "address",
					"name": "",
					"type": "address"
				}
			],
			"stateMutability": "view",
			"type": "function"
		},
		{
			"inputs": [],
			"name": "paused",
			"outputs": [
				{
					"internalType": "bool",
					"name": "",
					"type": "bool"
				}
			],
			"stateMutability": "view",
			"type": "function"
		},
		{
			"inputs": [],
			"name": "paymentTokenAddress",
			"outputs": [
				{
					"internalType": "address",
					"name": "",
					"type": "address"
				}
			],
			"stateMutability": "view",
			"type": "function"
		},
		{
			"inputs": [],
			"name": "platformAddr",
			"outputs": [
				{
					"internalType": "address",
					"name": "",
					"type": "address"
				}
			],
			"stateMutability": "view",
			"type": "function"
		},
		{
			"inputs": [],
			"name": "platformCutPromils",
			"outputs": [
				{
					"internalType": "uint256",
					"name": "",
					"type": "uint256"
				}
			],
			"stateMutability": "view",
			"type": "function"
		},
		{
			"inputs": [
				{
					"internalType": "address",
					"name": "",
					"type": "address"
				},
				{
					"internalType": "uint256",
					"name": "",
					"type": "uint256"
				}
			],
			"name": "pledgerAddrToEventMap",
			"outputs": [
				{
					"internalType": "uint32",
					"name": "date",
					"type": "uint32"
				},
				{
					"internalType": "uint256",
					"name": "sum",
					"type": "uint256"
				}
			],
			"stateMutability": "view",
			"type": "function"
		},
		{
			"inputs": [],
			"name": "pledgerGraceExitWaitTime",
			"outputs": [
				{
					"internalType": "uint256",
					"name": "",
					"type": "uint256"
				}
			],
			"stateMutability": "view",
			"type": "function"
		},
		{
			"inputs": [],
			"name": "projectEndTime",
			"outputs": [
				{
					"internalType": "uint256",
					"name": "",
					"type": "uint256"
				}
			],
			"stateMutability": "view",
			"type": "function"
		},
		{
			"inputs": [],
			"name": "projectIsCompleted",
			"outputs": [
				{
					"internalType": "bool",
					"name": "",
					"type": "bool"
				}
			],
			"stateMutability": "view",
			"type": "function"
		},
		{
			"inputs": [],
			"name": "projectStartTime",
			"outputs": [
				{
					"internalType": "uint256",
					"name": "",
					"type": "uint256"
				}
			],
			"stateMutability": "view",
			"type": "function"
		},
		{
			"inputs": [],
			"name": "projectState",
			"outputs": [
				{
					"internalType": "enum ProjectState",
					"name": "",
					"type": "uint8"
				}
			],
			"stateMutability": "view",
			"type": "function"
		},
		{
			"inputs": [],
			"name": "projectToken",
			"outputs": [
				{
					"internalType": "contract IMintableOwnedERC20",
					"name": "",
					"type": "address"
				}
			],
			"stateMutability": "view",
			"type": "function"
		},
		{
			"inputs": [],
			"name": "projectVault",
			"outputs": [
				{
					"internalType": "contract IVault",
					"name": "",
					"type": "address"
				}
			],
			"stateMutability": "view",
			"type": "function"
		},
		{
			"inputs": [],
			"name": "renounceOwnership",
			"outputs": [],
			"stateMutability": "nonpayable",
			"type": "function"
		},
		{
			"inputs": [
				{
					"internalType": "address",
					"name": "newDelegate",
					"type": "address"
				}
			],
			"name": "setDelegate",
			"outputs": [],
			"stateMutability": "nonpayable",
			"type": "function"
		},
		{
			"inputs": [
				{
					"internalType": "uint256",
					"name": "newMin",
					"type": "uint256"
				}
			],
			"name": "setMinPledgedSum",
			"outputs": [],
			"stateMutability": "nonpayable",
			"type": "function"
		},
		{
			"inputs": [
				{
					"internalType": "uint256",
					"name": "newWaitTime",
					"type": "uint256"
				}
			],
			"name": "setPledgerWaitTimeBeforeGraceExit",
			"outputs": [],
			"stateMutability": "nonpayable",
			"type": "function"
		},
		{
			"inputs": [
				{
					"internalType": "address",
					"name": "newWallet",
					"type": "address"
				}
			],
			"name": "setTeamWallet",
			"outputs": [],
			"stateMutability": "nonpayable",
			"type": "function"
		},
		{
			"inputs": [
				{
					"internalType": "uint256",
					"name": "",
					"type": "uint256"
				}
			],
			"name": "successfulMilestoneIndexes",
			"outputs": [
				{
					"internalType": "uint256",
					"name": "",
					"type": "uint256"
				}
			],
			"stateMutability": "view",
			"type": "function"
		},
		{
			"inputs": [],
			"name": "totalNumPledgeEvents",
			"outputs": [
				{
					"internalType": "uint256",
					"name": "",
					"type": "uint256"
				}
			],
			"stateMutability": "view",
			"type": "function"
		},
		{
			"inputs": [],
			"name": "transferProjectTokenOwnershipToTeam",
			"outputs": [],
			"stateMutability": "nonpayable",
			"type": "function"
		},
		{
			"inputs": [],
			"name": "transferProjectTokensToPledgerOnProjectSuccess",
			"outputs": [],
			"stateMutability": "nonpayable",
			"type": "function"
		},
		{
			"inputs": [
				{
					"components": [
						{
							"components": [
								{
									"internalType": "address",
									"name": "externalApprover",
									"type": "address"
								},
								{
									"internalType": "uint32",
									"name": "targetNumPledgers",
									"type": "uint32"
								},
								{
									"internalType": "uint256",
									"name": "fundingTarget",
									"type": "uint256"
								}
							],
							"internalType": "struct MilestoneApprover",
							"name": "milestoneApprover",
							"type": "tuple"
						},
						{
							"internalType": "enum MilestoneResult",
							"name": "result",
							"type": "uint8"
						},
						{
							"internalType": "uint32",
							"name": "dueDate",
							"type": "uint32"
						},
						{
							"internalType": "int32",
							"name": "prereqInd",
							"type": "int32"
						},
						{
							"internalType": "uint256",
							"name": "pTokValue",
							"type": "uint256"
						}
					],
					"internalType": "struct Milestone[]",
					"name": "milestones_",
					"type": "tuple[]"
				},
				{
					"internalType": "uint256",
					"name": "minPledgedSum_",
					"type": "uint256"
				}
			],
			"name": "updateProjectDetails",
			"outputs": [],
			"stateMutability": "nonpayable",
			"type": "function"
		},
		{
			"inputs": [],
			"name": "wasInitialized",
			"outputs": [
				{
					"internalType": "bool",
					"name": "",
					"type": "bool"
				}
			],
			"stateMutability": "view",
			"type": "function"
		}
	]
}