{
	"data": {
		"bytecode": {
			"linkReferences": {},
			"object": "60c06040526001600060146101000a81548160ff02191690831515021790555062093a80600355621275006004556006600d553480156200003f57600080fd5b50604051620077a8380380620077a88339818101604052810190620000659190620002a5565b8282620000876200007b6200016f60201b60201c565b6200017760201b60201c565b6000600260006101000a81548160ff0219169083151502179055508173ffffffffffffffffffffffffffffffffffffffff1660808173ffffffffffffffffffffffffffffffffffffffff16815250508073ffffffffffffffffffffffffffffffffffffffff1660a08173ffffffffffffffffffffffffffffffffffffffff16815250506001600981905550610190600a8190555050506001600b8190555080600c60006101000a81548173ffffffffffffffffffffffffffffffffffffffff021916908373ffffffffffffffffffffffffffffffffffffffff16021790555050505062000301565b600033905090565b60008060009054906101000a900473ffffffffffffffffffffffffffffffffffffffff169050816000806101000a81548173ffffffffffffffffffffffffffffffffffffffff021916908373ffffffffffffffffffffffffffffffffffffffff1602179055508173ffffffffffffffffffffffffffffffffffffffff168173ffffffffffffffffffffffffffffffffffffffff167f8be0079c531659141344cd1fd0a4f28419497f9722a3daafe3b4186f6b6457e060405160405180910390a35050565b600080fd5b600073ffffffffffffffffffffffffffffffffffffffff82169050919050565b60006200026d8262000240565b9050919050565b6200027f8162000260565b81146200028b57600080fd5b50565b6000815190506200029f8162000274565b92915050565b600080600060608486031215620002c157620002c06200023b565b5b6000620002d1868287016200028e565b9350506020620002e4868287016200028e565b9250506040620002f7868287016200028e565b9150509250925092565b60805160a05161747362000335600039600081816108f40152610b7d015260008181610dc701526117c601526174736000f3fe60806040523480156200001157600080fd5b5060043610620002385760003560e01c8063770366841162000135578063bad141b811620000bd578063d1b812cd1162000087578063d1b812cd1462000667578063d63418621462000689578063daeb39b514620006a9578063f2fde38b14620006c9578063feac994214620006e95762000238565b8063bad141b814620005cd578063be733d3c14620005ef578063c33857de146200060f578063cc13fd3b14620006315762000238565b806395c8297511620000ff57806395c82975146200051f578063a3839d3f1462000541578063a5d65e931462000577578063af7a060c14620005975762000238565b8063770366841462000483578063796b89b914620004a557806388d5e3ce14620004c75780638da5cb5b14620004fd5762000238565b806325ea346f11620001c55780635bc4675c116200018f5780635bc4675c14620003c95780635c975abb14620003ff578063684cc79514620004215780636eb395351462000441578063715018a614620004775762000238565b806325ea346f1462000345578063265d1d581462000365578063279b136614620003875780635a067baa14620003a75762000238565b80630b8f3ee611620002075780630b8f3ee614620002c15780631286ba4d14620002e35780631685f29714620003035780631af2be9f14620003235762000238565b80630255a03b146200023d57806305598159146200025d5780630598c68b146200027f5780630b1e4238146200029f575b600080fd5b6200025b600480360381019062000255919062002b97565b62000709565b005b62000267620007e6565b60405162000276919062002be6565b60405180910390f35b6200029d600480360381019062000297919062002c6f565b620007f9565b005b620002a9620008f2565b604051620002b8919062002cc7565b60405180910390f35b620002cb62000916565b604051620002da919062002cf5565b60405180910390f35b620003016004803603810190620002fb919062002d12565b6200091c565b005b6200032160048036038101906200031b919062002d44565b62000975565b005b6200032d620009dd565b6040516200033c919062002cf5565b60405180910390f35b6200036360048036038101906200035d919062003288565b620009e3565b005b6200036f6200150e565b6040516200037e919062002cf5565b60405180910390f35b620003a560048036038101906200039f91906200333e565b62001514565b005b620003b1620015bf565b604051620003c0919062002cf5565b60405180910390f35b620003e76004803603810190620003e1919062003385565b620015cc565b604051620003f6919062003422565b60405180910390f35b62000409620015ff565b60405162000418919062002be6565b60405180910390f35b6200043f60048036038101906200043991906200333e565b62001616565b005b6200045f600480360381019062000459919062003385565b6200173d565b6040516200046e919062002be6565b60405180910390f35b620004816200175d565b005b6200048d62001775565b6040516200049c919062002cf5565b60405180910390f35b620004af6200177b565b604051620004be919062002cf5565b60405180910390f35b620004e56004803603810190620004df919062003385565b62001783565b604051620004f4919062002cf5565b60405180910390f35b620005076200179b565b60405162000516919062002cc7565b60405180910390f35b62000529620017c4565b60405162000538919062002cc7565b60405180910390f35b6200055f600480360381019062000559919062003385565b620017e8565b6040516200056e919062002be6565b60405180910390f35b6200059560048036038101906200058f91906200333e565b62001808565b005b620005b56004803603810190620005af919062003385565b620018b3565b604051620005c4919062002be6565b60405180910390f35b620005d7620018d3565b604051620005e6919062002cf5565b60405180910390f35b6200060d60048036038101906200060791906200343f565b620018d9565b005b6200061962001955565b60405162000628919062002cf5565b60405180910390f35b6200064f600480360381019062000649919062002d12565b6200195a565b6040516200065e919062002cc7565b60405180910390f35b620006716200199a565b60405162000680919062003496565b60405180910390f35b620006a76004803603810190620006a1919062002d12565b620019c0565b005b620006c76004803603810190620006c1919062002d12565b62001a19565b005b620006e76004803603810190620006e1919062003385565b62001ab9565b005b620007076004803603810190620007019190620034b3565b62001b43565b005b6200071362001bb0565b6200071d62001c35565b6000600c60009054906101000a900473ffffffffffffffffffffffffffffffffffffffff16905081600c60006101000a81548173ffffffffffffffffffffffffffffffffffffffff021916908373ffffffffffffffffffffffffffffffffffffffff1602179055507f8e68ed0ed26d2aa6bca301133b429d046e7add45cb19160e3dcedd714271ddaa600c60009054906101000a900473ffffffffffffffffffffffffffffffffffffffff1682604051620007da929190620034fa565b60405180910390a15050565b600060149054906101000a900460ff1681565b620008043362001c83565b62000846576040517f08c379a00000000000000000000000000000000000000000000000000000000081526004016200083d9062003588565b60405180910390fd5b80600e60008473ffffffffffffffffffffffffffffffffffffffff1673ffffffffffffffffffffffffffffffffffffffff1681526020019081526020016000206000828254620008979190620035d9565b925050819055503373ffffffffffffffffffffffffffffffffffffffff167f338c545a8e5e070c15914aca67d4bea288f89df50423c4d0a30d7b7820ab20d482604051620008e6919062002cf5565b60405180910390a25050565b7f000000000000000000000000000000000000000000000000000000000000000081565b600a5481565b6200092662001bb0565b60006004549050816004819055507f30e4f9c7f8a1af88be510044d9c65e449ff53fd41daf3beab41c740c2cc9b121600454826040516200096992919062003614565b60405180910390a15050565b6200097f62001bb0565b620009956200098d6200179b565b838362001d5f565b7ffcee77aee7d834c3616e216f4b062dbcec802e05a967a6f76cd63a5765496043620009c06200179b565b83604051620009d192919062003641565b60405180910390a15050565b60095481565b620009ed62001f0c565b62000a2f576040517f08c379a000000000000000000000000000000000000000000000000000000000815260040162000a2690620036be565b60405180910390fd5b806009548151101562000a79576040517f08c379a000000000000000000000000000000000000000000000000000000000815260040162000a709062003730565b60405180910390fd5b600a548151111562000ac2576040517f08c379a000000000000000000000000000000000000000000000000000000000815260040162000ab990620037a2565b60405180910390fd5b62000acc62001f7f565b60006007805490509050600033905062000aea856040015162001fce565b62000b2c576040517f08c379a000000000000000000000000000000000000000000000000000000000815260040162000b239062003814565b60405180910390fd5b62000b3e8442600954600a546200205d565b600073ffffffffffffffffffffffffffffffffffffffff16856000015173ffffffffffffffffffffffffffffffffffffffff160362000bf55762000bb87f000000000000000000000000000000000000000000000000000000000000000073ffffffffffffffffffffffffffffffffffffffff16620021dc565b856000019073ffffffffffffffffffffffffffffffffffffffff16908173ffffffffffffffffffffffffffffffffffffffff168152505062000c05565b62000c048560000151620022b3565b5b600073ffffffffffffffffffffffffffffffffffffffff16856020015173ffffffffffffffffffffffffffffffffffffffff160362000cc45760008560600151866080015160405162000c589062002afc565b62000c65929190620038ae565b604051809103906000f08015801562000c82573d6000803e3d6000fd5b50905080866020019073ffffffffffffffffffffffffffffffffffffffff16908173ffffffffffffffffffffffffffffffffffffffff16815250505062000cd4565b62000cd3856020015162002442565b5b6000856020015190503073ffffffffffffffffffffffffffffffffffffffff168173ffffffffffffffffffffffffffffffffffffffff1663893d20e86040518163ffffffff1660e01b8152600401602060405180830381865afa15801562000d40573d6000803e3d6000fd5b505050506040513d601f19601f8201168201806040525081019062000d66919062003900565b73ffffffffffffffffffffffffffffffffffffffff161462000dbf576040517f08c379a000000000000000000000000000000000000000000000000000000000815260040162000db690620039a8565b60405180910390fd5b600062000e027f000000000000000000000000000000000000000000000000000000000000000073ffffffffffffffffffffffffffffffffffffffff16620021dc565b9050866000015173ffffffffffffffffffffffffffffffffffffffff1663c4d66de8826040518263ffffffff1660e01b815260040162000e43919062002cc7565b600060405180830381600087803b15801562000e5e57600080fd5b505af115801562000e73573d6000803e3d6000fd5b505050508073ffffffffffffffffffffffffffffffffffffffff16876000015173ffffffffffffffffffffffffffffffffffffffff1663893d20e86040518163ffffffff1660e01b8152600401602060405180830381865afa15801562000ede573d6000803e3d6000fd5b505050506040513d601f19601f8201168201806040525081019062000f04919062003900565b73ffffffffffffffffffffffffffffffffffffffff161462000f5d576040517f08c379a000000000000000000000000000000000000000000000000000000000815260040162000f549062003a1a565b60405180910390fd5b60006040518061012001604052808573ffffffffffffffffffffffffffffffffffffffff168152602001896000015173ffffffffffffffffffffffffffffffffffffffff1681526020018881526020018473ffffffffffffffffffffffffffffffffffffffff16815260200162000fd3620025a1565b81526020018960a00151815260200160035481526020016004548152602001896040015173ffffffffffffffffffffffffffffffffffffffff1681525090508173ffffffffffffffffffffffffffffffffffffffff1663f4ac5458826040518263ffffffff1660e01b81526004016200104d919062003d98565b600060405180830381600087803b1580156200106857600080fd5b505af11580156200107d573d6000803e3d6000fd5b505050508373ffffffffffffffffffffffffffffffffffffffff168273ffffffffffffffffffffffffffffffffffffffff1663893d20e86040518163ffffffff1660e01b8152600401602060405180830381865afa158015620010e4573d6000803e3d6000fd5b505050506040513d601f19601f820116820180604052508101906200110a919062003900565b73ffffffffffffffffffffffffffffffffffffffff161462001163576040517f08c379a00000000000000000000000000000000000000000000000000000000081526004016200115a9062003e0c565b60405180910390fd5b81600560008473ffffffffffffffffffffffffffffffffffffffff1673ffffffffffffffffffffffffffffffffffffffff16815260200190815260200160002060006101000a81548173ffffffffffffffffffffffffffffffffffffffff021916908373ffffffffffffffffffffffffffffffffffffffff1602179055506007829080600181540180825580915050600190039060005260206000200160009091909190916101000a81548173ffffffffffffffffffffffffffffffffffffffff021916908373ffffffffffffffffffffffffffffffffffffffff1602179055508273ffffffffffffffffffffffffffffffffffffffff1663c3856dd5836040518263ffffffff1660e01b81526004016200127f919062003422565b600060405180830381600087803b1580156200129a57600080fd5b505af1158015620012af573d6000803e3d6000fd5b505050508273ffffffffffffffffffffffffffffffffffffffff16630ddfa1568960c001516040518263ffffffff1660e01b8152600401620012f2919062002cf5565b600060405180830381600087803b1580156200130d57600080fd5b505af115801562001322573d6000803e3d6000fd5b505050508273ffffffffffffffffffffffffffffffffffffffff16632af4c31e836040518263ffffffff1660e01b815260040162001361919062002cc7565b600060405180830381600087803b1580156200137c57600080fd5b505af115801562001391573d6000803e3d6000fd5b505050508173ffffffffffffffffffffffffffffffffffffffff168373ffffffffffffffffffffffffffffffffffffffff1663893d20e86040518163ffffffff1660e01b8152600401602060405180830381865afa158015620013f8573d6000803e3d6000fd5b505050506040513d601f19601f820116820180604052508101906200141e919062003900565b73ffffffffffffffffffffffffffffffffffffffff161462001477576040517f08c379a00000000000000000000000000000000000000000000000000000000081526004016200146e9062003ea4565b60405180910390fd5b876000015173ffffffffffffffffffffffffffffffffffffffff168273ffffffffffffffffffffffffffffffffffffffff16867f768ca9a2690bb4dcdc8a76e37a297710292c25ea0d2c6a19f1a60a667ce486bc8a518c602001518d606001518e608001518f60c00151600354600454604051620014fc979695949392919062003ec6565b60405180910390a45050505050505050565b600d5481565b6200151e62001bb0565b80600860008473ffffffffffffffffffffffffffffffffffffffff1673ffffffffffffffffffffffffffffffffffffffff16815260200190815260200160002060006101000a81548160ff0219169083151502179055508015158273ffffffffffffffffffffffffffffffffffffffff167fcb27316e4c294dbd6259292315713cba48b6d131e45979befc3657958cc5baf760405160405180910390a35050565b6000600780549050905090565b60056020528060005260406000206000915054906101000a900473ffffffffffffffffffffffffffffffffffffffff1681565b6000600260009054906101000a900460ff16905090565b6200162062001bb0565b600073ffffffffffffffffffffffffffffffffffffffff168273ffffffffffffffffffffffffffffffffffffffff160362001692576040517f08c379a0000000000000000000000000000000000000000000000000000000008152600401620016899062003fa1565b60405180910390fd5b80600660008473ffffffffffffffffffffffffffffffffffffffff1673ffffffffffffffffffffffffffffffffffffffff16815260200190815260200160002060006101000a81548160ff0219169083151502179055508173ffffffffffffffffffffffffffffffffffffffff167f913eb45a6b9c0eef201a0ca08ba90ef347aa5330972c612123a01db6aef5adc38260405162001731919062002be6565b60405180910390a25050565b60016020528060005260406000206000915054906101000a900460ff1681565b6200176762001bb0565b620017736000620025ab565b565b60045481565b600042905090565b600e6020528060005260406000206000915090505481565b60008060009054906101000a900473ffffffffffffffffffffffffffffffffffffffff16905090565b7f000000000000000000000000000000000000000000000000000000000000000081565b60066020528060005260406000206000915054906101000a900460ff1681565b6200181262001bb0565b80600160008473ffffffffffffffffffffffffffffffffffffffff1673ffffffffffffffffffffffffffffffffffffffff16815260200190815260200160002060006101000a81548160ff0219169083151502179055508015158273ffffffffffffffffffffffffffffffffffffffff167f124a4100d72918c516edd5da571e325eceacab225ab7b85c8496d70c638d4f5060405160405180910390a35050565b60086020528060005260406000206000915054906101000a900460ff1681565b60035481565b620018e362001bb0565b60008060149054906101000a900460ff16905081600060146101000a81548160ff021916908315150217905550801515600060149054906101000a900460ff1615157f02e159cf7954f1c380c45a4213433dd148960788d130a7a9f6779391158f4edf60405160405180910390a35050565b601481565b600781815481106200196b57600080fd5b906000526020600020016000915054906101000a900473ffffffffffffffffffffffffffffffffffffffff1681565b600c60009054906101000a900473ffffffffffffffffffffffffffffffffffffffff1681565b620019ca62001bb0565b60006003549050816003819055507f360d4ea951ccea990cedc596e311eec2dd390cb74348c6c754f5bb0cf02acf656003548260405162001a0d92919062003614565b60405180910390a15050565b62001a2362001bb0565b601481111562001a6a576040517f08c379a000000000000000000000000000000000000000000000000000000000815260040162001a619062004013565b60405180910390fd5b6000600d54905081600d819055507f307c6d665b2784039bcbc7a05ef46d165292101a54bd1fe037036f9ea96e7b6981600d5460405162001aad92919062003614565b60405180910390a15050565b62001ac362001bb0565b600073ffffffffffffffffffffffffffffffffffffffff168173ffffffffffffffffffffffffffffffffffffffff160362001b35576040517f08c379a000000000000000000000000000000000000000000000000000000000815260040162001b2c90620040ab565b60405180910390fd5b62001b4081620025ab565b50565b62001b4d62001bb0565b600060095490506000600a5490508360098190555082600a8190555080827f1855cffd4cf3e4971fe04a2b5bf4826b4dd9dd64c752058388c6cc0fbb66c196600954600a5460405162001ba292919062003614565b60405180910390a350505050565b62001bba6200266f565b73ffffffffffffffffffffffffffffffffffffffff1662001bda6200179b565b73ffffffffffffffffffffffffffffffffffffffff161462001c33576040517f08c379a000000000000000000000000000000000000000000000000000000000815260040162001c2a906200411d565b60405180910390fd5b565b62001c3f620015ff565b62001c81576040517f08c379a000000000000000000000000000000000000000000000000000000000815260040162001c78906200418f565b60405180910390fd5b565b600080600560008473ffffffffffffffffffffffffffffffffffffffff1673ffffffffffffffffffffffffffffffffffffffff16815260200190815260200160002060009054906101000a900473ffffffffffffffffffffffffffffffffffffffff1673ffffffffffffffffffffffffffffffffffffffff1663f4390f026040518163ffffffff1660e01b8152600401602060405180830381865afa15801562001d31573d6000803e3d6000fd5b505050506040513d601f19601f8201168201806040525081019062001d579190620041c8565b119050919050565b81600e60008373ffffffffffffffffffffffffffffffffffffffff1673ffffffffffffffffffffffffffffffffffffffff16815260200190815260200160002054101562001de4576040517f08c379a000000000000000000000000000000000000000000000000000000000815260040162001ddb906200424a565b60405180910390fd5b81600e60008373ffffffffffffffffffffffffffffffffffffffff1673ffffffffffffffffffffffffffffffffffffffff168152602001908152602001600020600082825462001e3591906200426c565b9250508190555060008173ffffffffffffffffffffffffffffffffffffffff1663a9059cbb85856040518363ffffffff1660e01b815260040162001e7b92919062003641565b6020604051808303816000875af115801562001e9b573d6000803e3d6000fd5b505050506040513d601f19601f8201168201806040525081019062001ec19190620042be565b90508062001f06576040517f08c379a000000000000000000000000000000000000000000000000000000000815260040162001efd9062004366565b60405180910390fd5b50505050565b60008060149054906101000a900460ff1662001f2c576001905062001f7c565b600160003373ffffffffffffffffffffffffffffffffffffffff1673ffffffffffffffffffffffffffffffffffffffff16815260200190815260200160002060009054906101000a900460ff1690505b90565b62001f89620015ff565b1562001fcc576040517f08c379a000000000000000000000000000000000000000000000000000000000815260040162001fc390620043d8565b60405180910390fd5b565b60008073ffffffffffffffffffffffffffffffffffffffff168273ffffffffffffffffffffffffffffffffffffffff1614158015620020565750600660008373ffffffffffffffffffffffffffffffffffffffff1673ffffffffffffffffffffffffffffffffffffffff16815260200190815260200160002060009054906101000a900460ff165b9050919050565b60008214806200206e575081845110155b620020b0576040517f08c379a0000000000000000000000000000000000000000000000000000000008152600401620020a79062003730565b60405180910390fd5b6000811480620020c1575080845111155b62002103576040517f08c379a0000000000000000000000000000000000000000000000000000000008152600401620020fa90620037a2565b60405180910390fd5b60005b8451811015620021d5576200213e818683815181106200212b576200212a620043fa565b5b6020026020010151604001518662002677565b6200216b81868381518110620021595762002158620043fa565b5b60200260200101516000015162002700565b6000858281518110620021835762002182620043fa565b5b6020026020010151602001906002811115620021a457620021a362003b08565b5b90816002811115620021bb57620021ba62003b08565b5b815250508080620021cc9062004429565b91505062002106565b5050505050565b60006040517f3d602d80600a3d3981f3363d3d373d3d3d363d7300000000000000000000000081528260601b60148201527f5af43d82803e903d91602b57fd5bf3000000000000000000000000000000000060288201526037816000f0915050600073ffffffffffffffffffffffffffffffffffffffff168173ffffffffffffffffffffffffffffffffffffffff1603620022ae576040517f08c379a0000000000000000000000000000000000000000000000000000000008152600401620022a590620044c6565b60405180910390fd5b919050565b620022be8162002932565b620023045780336040517ff69f5012000000000000000000000000000000000000000000000000000000008152600401620022fb929190620034fa565b60405180910390fd5b6200230f8162002988565b6200235357806040517faf7301ae0000000000000000000000000000000000000000000000000000000081526004016200234a919062002cc7565b60405180910390fd5b60008173ffffffffffffffffffffffffffffffffffffffff1663893d20e86040518163ffffffff1660e01b8152600401602060405180830381865afa158015620023a1573d6000803e3d6000fd5b505050506040513d601f19601f82011682018060405250810190620023c7919062003900565b90503073ffffffffffffffffffffffffffffffffffffffff168173ffffffffffffffffffffffffffffffffffffffff16146200243e5781816040517f7537c23c00000000000000000000000000000000000000000000000000000000815260040162002435929190620034fa565b60405180910390fd5b5050565b6200246e817f2d52206c00000000000000000000000000000000000000000000000000000000620029bd565b620024b257806040517f08fbd170000000000000000000000000000000000000000000000000000000008152600401620024a9919062002cc7565b60405180910390fd5b60008173ffffffffffffffffffffffffffffffffffffffff1663893d20e86040518163ffffffff1660e01b8152600401602060405180830381865afa15801562002500573d6000803e3d6000fd5b505050506040513d601f19601f8201168201806040525081019062002526919062003900565b90503073ffffffffffffffffffffffffffffffffffffffff168173ffffffffffffffffffffffffffffffffffffffff16146200259d5781816040517f78a42d3400000000000000000000000000000000000000000000000000000000815260040162002594929190620034fa565b60405180910390fd5b5050565b6000600d54905090565b60008060009054906101000a900473ffffffffffffffffffffffffffffffffffffffff169050816000806101000a81548173ffffffffffffffffffffffffffffffffffffffff021916908373ffffffffffffffffffffffffffffffffffffffff1602179055508173ffffffffffffffffffffffffffffffffffffffff168173ffffffffffffffffffffffffffffffffffffffff167f8be0079c531659141344cd1fd0a4f28419497f9722a3daafe3b4186f6b6457e060405160405180910390a35050565b600033905090565b6201518081620026889190620035d9565b8263ffffffff161080620026b257506301e1338081620026a99190620035d9565b8263ffffffff16115b15620026fb578282826040517f4753f595000000000000000000000000000000000000000000000000000000008152600401620026f293929190620044f9565b60405180910390fd5b505050565b60008073ffffffffffffffffffffffffffffffffffffffff16826000015173ffffffffffffffffffffffffffffffffffffffff1614158062002746575060008260400151115b806200275c57506000826020015163ffffffff16115b905080620027a357826040517f51dd5cf20000000000000000000000000000000000000000000000000000000081526004016200279a919062002cf5565b60405180910390fd5b60008073ffffffffffffffffffffffffffffffffffffffff16836000015173ffffffffffffffffffffffffffffffffffffffff161480620027ff575060008360400151148015620027fe57506000836020015163ffffffff16145b5b9050600080846040015114806200285d5750600073ffffffffffffffffffffffffffffffffffffffff16846000015173ffffffffffffffffffffffffffffffffffffffff161480156200285c57506000846020015163ffffffff16145b5b9050600080856020015163ffffffff161480620028bb5750600073ffffffffffffffffffffffffffffffffffffffff16856000015173ffffffffffffffffffffffffffffffffffffffff16148015620028ba575060008560400151145b5b9050821580620028c9575081155b80620028d3575080155b156200292a57858560000151866040015187602001516040517f7ee0dc500000000000000000000000000000000000000000000000000000000081526004016200292194939291906200456f565b60405180910390fd5b505050505050565b6000600860008373ffffffffffffffffffffffffffffffffffffffff1673ffffffffffffffffffffffffffffffffffffffff16815260200190815260200160002060009054906101000a900460ff169050919050565b6000620029b6827f91db394500000000000000000000000000000000000000000000000000000000620029bd565b9050919050565b6000620029ca83620029e7565b8015620029df5750620029de838362002a39565b5b905092915050565b600062002a15827f01ffc9a70000000000000000000000000000000000000000000000000000000062002a39565b801562002a32575062002a308263ffffffff60e01b62002a39565b155b9050919050565b6000806301ffc9a760e01b8360405160240162002a579190620045f9565b604051602081830303815290604052907bffffffffffffffffffffffffffffffffffffffffffffffffffffffff19166020820180517bffffffffffffffffffffffffffffffffffffffffffffffffffffffff838183161783525050505090506000806000602060008551602087018a617530fa92503d9150600051905082801562002ae3575060208210155b801562002af05750600081115b94505050505092915050565b612e27806200461783390190565b6000604051905090565b600080fd5b600080fd5b600073ffffffffffffffffffffffffffffffffffffffff82169050919050565b600062002b4b8262002b1e565b9050919050565b600062002b5f8262002b3e565b9050919050565b62002b718162002b52565b811462002b7d57600080fd5b50565b60008135905062002b918162002b66565b92915050565b60006020828403121562002bb05762002baf62002b14565b5b600062002bc08482850162002b80565b91505092915050565b60008115159050919050565b62002be08162002bc9565b82525050565b600060208201905062002bfd600083018462002bd5565b92915050565b62002c0e8162002b3e565b811462002c1a57600080fd5b50565b60008135905062002c2e8162002c03565b92915050565b6000819050919050565b62002c498162002c34565b811462002c5557600080fd5b50565b60008135905062002c698162002c3e565b92915050565b6000806040838503121562002c895762002c8862002b14565b5b600062002c998582860162002c1d565b925050602062002cac8582860162002c58565b9150509250929050565b62002cc18162002b3e565b82525050565b600060208201905062002cde600083018462002cb6565b92915050565b62002cef8162002c34565b82525050565b600060208201905062002d0c600083018462002ce4565b92915050565b60006020828403121562002d2b5762002d2a62002b14565b5b600062002d3b8482850162002c58565b91505092915050565b6000806040838503121562002d5e5762002d5d62002b14565b5b600062002d6e8582860162002c58565b925050602062002d818582860162002c1d565b9150509250929050565b600080fd5b6000601f19601f8301169050919050565b7f4e487b7100000000000000000000000000000000000000000000000000000000600052604160045260246000fd5b62002ddb8262002d90565b810181811067ffffffffffffffff8211171562002dfd5762002dfc62002da1565b5b80604052505050565b600062002e1262002b0a565b905062002e20828262002dd0565b919050565b600080fd5b600080fd5b600080fd5b600067ffffffffffffffff82111562002e525762002e5162002da1565b5b62002e5d8262002d90565b9050602081019050919050565b82818337600083830152505050565b600062002e9062002e8a8462002e34565b62002e06565b90508281526020810184848401111562002eaf5762002eae62002e2f565b5b62002ebc84828562002e6a565b509392505050565b600082601f83011262002edc5762002edb62002e2a565b5b813562002eee84826020860162002e79565b91505092915050565b600060e0828403121562002f105762002f0f62002d8b565b5b62002f1c60e062002e06565b9050600062002f2e8482850162002c1d565b600083015250602062002f448482850162002c1d565b602083015250604062002f5a8482850162002c1d565b604083015250606082013567ffffffffffffffff81111562002f815762002f8062002e25565b5b62002f8f8482850162002ec4565b606083015250608082013567ffffffffffffffff81111562002fb65762002fb562002e25565b5b62002fc48482850162002ec4565b60808301525060a062002fda8482850162002c58565b60a08301525060c062002ff08482850162002c58565b60c08301525092915050565b600067ffffffffffffffff8211156200301a576200301962002da1565b5b602082029050602081019050919050565b600080fd5b600063ffffffff82169050919050565b6200304b8162003030565b81146200305757600080fd5b50565b6000813590506200306b8162003040565b92915050565b6000606082840312156200308a576200308962002d8b565b5b62003096606062002e06565b90506000620030a88482850162002c1d565b6000830152506020620030be848285016200305a565b6020830152506040620030d48482850162002c58565b60408301525092915050565b60038110620030ee57600080fd5b50565b6000813590506200310281620030e0565b92915050565b60008160030b9050919050565b620031208162003108565b81146200312c57600080fd5b50565b600081359050620031408162003115565b92915050565b600060e082840312156200315f576200315e62002d8b565b5b6200316b60a062002e06565b905060006200317d8482850162003071565b60008301525060606200319384828501620030f1565b6020830152506080620031a9848285016200305a565b60408301525060a0620031bf848285016200312f565b60608301525060c0620031d58482850162002c58565b60808301525092915050565b6000620031f8620031f28462002ffc565b62002e06565b90508083825260208201905060e084028301858111156200321e576200321d6200302b565b5b835b818110156200324b578062003236888262003146565b84526020840193505060e08101905062003220565b5050509392505050565b600082601f8301126200326d576200326c62002e2a565b5b81356200327f848260208601620031e1565b91505092915050565b60008060408385031215620032a257620032a162002b14565b5b600083013567ffffffffffffffff811115620032c357620032c262002b19565b5b620032d18582860162002ef7565b925050602083013567ffffffffffffffff811115620032f557620032f462002b19565b5b620033038582860162003255565b9150509250929050565b620033188162002bc9565b81146200332457600080fd5b50565b60008135905062003338816200330d565b92915050565b6000806040838503121562003358576200335762002b14565b5b6000620033688582860162002c1d565b92505060206200337b8582860162003327565b9150509250929050565b6000602082840312156200339e576200339d62002b14565b5b6000620033ae8482850162002c1d565b91505092915050565b6000819050919050565b6000620033e2620033dc620033d68462002b1e565b620033b7565b62002b1e565b9050919050565b6000620033f682620033c1565b9050919050565b60006200340a82620033e9565b9050919050565b6200341c81620033fd565b82525050565b600060208201905062003439600083018462003411565b92915050565b60006020828403121562003458576200345762002b14565b5b6000620034688482850162003327565b91505092915050565b60006200347e82620033e9565b9050919050565b620034908162003471565b82525050565b6000602082019050620034ad600083018462003485565b92915050565b60008060408385031215620034cd57620034cc62002b14565b5b6000620034dd8582860162002c58565b9250506020620034f08582860162002c58565b9150509250929050565b600060408201905062003511600083018562002cb6565b62003520602083018462002cb6565b9392505050565b600082825260208201905092915050565b7f6e6f7420612076616c69642070726f6a65637400000000000000000000000000600082015250565b60006200357060138362003527565b91506200357d8262003538565b602082019050919050565b60006020820190508181036000830152620035a38162003561565b9050919050565b7f4e487b7100000000000000000000000000000000000000000000000000000000600052601160045260246000fd5b6000620035e68262002c34565b9150620035f38362002c34565b92508282019050808211156200360e576200360d620035aa565b5b92915050565b60006040820190506200362b600083018562002ce4565b6200363a602083018462002ce4565b9392505050565b600060408201905062003658600083018562002cb6565b62003667602083018462002ce4565b9392505050565b7f6e6f7420612076616c6964206265746120746573746572000000000000000000600082015250565b6000620036a660178362003527565b9150620036b3826200366e565b602082019050919050565b60006020820190508181036000830152620036d98162003697565b9050919050565b7f6e6f7420656e6f756768206d696c6573746f6e65730000000000000000000000600082015250565b60006200371860158362003527565b91506200372582620036e0565b602082019050919050565b600060208201905081810360008301526200374b8162003709565b9050919050565b7f746f6f206d616e79206d696c6573746f6e657300000000000000000000000000600082015250565b60006200378a60138362003527565b9150620037978262003752565b602082019050919050565b60006020820190508181036000830152620037bd816200377b565b9050919050565b7f7061796d656e7420746f6b656e206e6f7420617070726f766564000000000000600082015250565b6000620037fc601a8362003527565b91506200380982620037c4565b602082019050919050565b600060208201905081810360008301526200382f81620037ed565b9050919050565b600081519050919050565b60005b838110156200386157808201518184015260208101905062003844565b60008484015250505050565b60006200387a8262003836565b62003886818562003527565b93506200389881856020860162003841565b620038a38162002d90565b840191505092915050565b60006040820190508181036000830152620038ca81856200386d565b90508181036020830152620038e081846200386d565b90509392505050565b600081519050620038fa8162002c03565b92915050565b60006020828403121562003919576200391862002b14565b5b60006200392984828501620038e9565b91505092915050565b7f50726f6a65637420746f6b656e206d75737420696e697469616c6c792062652060008201527f6f776e656420627920506c6174666f726d000000000000000000000000000000602082015250565b60006200399060318362003527565b91506200399d8262003932565b604082019050919050565b60006020820190508181036000830152620039c38162003981565b9050919050565b7f5661756c74206d757374206265206f776e65642062792070726f6a6563740000600082015250565b600062003a02601e8362003527565b915062003a0f82620039ca565b602082019050919050565b6000602082019050818103600083015262003a3581620039f3565b9050919050565b62003a478162002b3e565b82525050565b600062003a5a82620033e9565b9050919050565b62003a6c8162003a4d565b82525050565b600081519050919050565b600082825260208201905092915050565b6000819050602082019050919050565b62003aa98162003030565b82525050565b62003aba8162002c34565b82525050565b60608201600082015162003ad8600085018262003a3c565b50602082015162003aed602085018262003a9e565b50604082015162003b02604085018262003aaf565b50505050565b7f4e487b7100000000000000000000000000000000000000000000000000000000600052602160045260246000fd5b6003811062003b4b5762003b4a62003b08565b5b50565b600081905062003b5e8262003b37565b919050565b600062003b708262003b4e565b9050919050565b62003b828162003b63565b82525050565b62003b938162003108565b82525050565b60e08201600082015162003bb1600085018262003ac0565b50602082015162003bc6606085018262003b77565b50604082015162003bdb608085018262003a9e565b50606082015162003bf060a085018262003b88565b50608082015162003c0560c085018262003aaf565b50505050565b600062003c19838362003b99565b60e08301905092915050565b6000602082019050919050565b600062003c3f8262003a72565b62003c4b818562003a7d565b935062003c588362003a8e565b8060005b8381101562003c8f57815162003c73888262003c0b565b975062003c808362003c25565b92505060018101905062003c5c565b5085935050505092915050565b600062003ca982620033e9565b9050919050565b62003cbb8162003c9c565b82525050565b60006101208301600083015162003cdc600086018262003a3c565b50602083015162003cf1602086018262003a61565b506040830151848203604086015262003d0b828262003c32565b915050606083015162003d22606086018262003cb0565b50608083015162003d37608086018262003aaf565b5060a083015162003d4c60a086018262003aaf565b5060c083015162003d6160c086018262003aaf565b5060e083015162003d7660e086018262003aaf565b5061010083015162003d8d61010086018262003a3c565b508091505092915050565b6000602082019050818103600083015262003db4818462003cc1565b905092915050565b7f50726f6a656374206d757374206265206f776e6564206279207465616d000000600082015250565b600062003df4601d8362003527565b915062003e018262003dbc565b602082019050919050565b6000602082019050818103600083015262003e278162003de5565b9050919050565b7f50726f6a65637420746f6b656e206d757374206265206f776e6564206279205060008201527f6c6174666f726d00000000000000000000000000000000000000000000000000602082015250565b600062003e8c60278362003527565b915062003e998262003e2e565b604082019050919050565b6000602082019050818103600083015262003ebf8162003e7d565b9050919050565b600060e08201905062003edd600083018a62002ce4565b62003eec602083018962002cb6565b818103604083015262003f0081886200386d565b9050818103606083015262003f1681876200386d565b905062003f27608083018662002ce4565b62003f3660a083018562002ce4565b62003f4560c083018462002ce4565b98975050505050505050565b7f626164207061796d656e7420746f6b656e206164647265737300000000000000600082015250565b600062003f8960198362003527565b915062003f968262003f51565b602082019050919050565b6000602082019050818103600083015262003fbc8162003f7a565b9050919050565b7f62616420706c6174666f726d2063757400000000000000000000000000000000600082015250565b600062003ffb60108362003527565b9150620040088262003fc3565b602082019050919050565b600060208201905081810360008301526200402e8162003fec565b9050919050565b7f4f776e61626c653a206e6577206f776e657220697320746865207a65726f206160008201527f6464726573730000000000000000000000000000000000000000000000000000602082015250565b60006200409360268362003527565b9150620040a08262004035565b604082019050919050565b60006020820190508181036000830152620040c68162004084565b9050919050565b7f4f776e61626c653a2063616c6c6572206973206e6f7420746865206f776e6572600082015250565b60006200410560208362003527565b91506200411282620040cd565b602082019050919050565b600060208201905081810360008301526200413881620040f6565b9050919050565b7f5061757361626c653a206e6f7420706175736564000000000000000000000000600082015250565b60006200417760148362003527565b915062004184826200413f565b602082019050919050565b60006020820190508181036000830152620041aa8162004168565b9050919050565b600081519050620041c28162002c3e565b92915050565b600060208284031215620041e157620041e062002b14565b5b6000620041f184828501620041b1565b91505092915050565b7f6e6f7420656e6f75676820746f6b656e7320696e20706c6174666f726d000000600082015250565b600062004232601d8362003527565b91506200423f82620041fa565b602082019050919050565b60006020820190508181036000830152620042658162004223565b9050919050565b6000620042798262002c34565b9150620042868362002c34565b9250828203905081811115620042a157620042a0620035aa565b5b92915050565b600081519050620042b8816200330d565b92915050565b600060208284031215620042d757620042d662002b14565b5b6000620042e784828501620042a7565b91505092915050565b7f4661696c656420746f207472616e73666572207061796d656e7420746f6b656e60008201527f7300000000000000000000000000000000000000000000000000000000000000602082015250565b60006200434e60218362003527565b91506200435b82620042f0565b604082019050919050565b6000602082019050818103600083015262004381816200433f565b9050919050565b7f5061757361626c653a2070617573656400000000000000000000000000000000600082015250565b6000620043c060108362003527565b9150620043cd8262004388565b602082019050919050565b60006020820190508181036000830152620043f381620043b1565b9050919050565b7f4e487b7100000000000000000000000000000000000000000000000000000000600052603260045260246000fd5b6000620044368262002c34565b91507fffffffffffffffffffffffffffffffffffffffffffffffffffffffffffffffff82036200446b576200446a620035aa565b5b600182019050919050565b7f455243313136373a20637265617465206661696c656400000000000000000000600082015250565b6000620044ae60168362003527565b9150620044bb8262004476565b602082019050919050565b60006020820190508181036000830152620044e1816200449f565b9050919050565b620044f38162003030565b82525050565b600060608201905062004510600083018662002ce4565b6200451f6020830185620044e8565b6200452e604083018462002ce4565b949350505050565b600062004557620045516200454b8462003030565b620033b7565b62002c34565b9050919050565b620045698162004536565b82525050565b600060808201905062004586600083018762002ce4565b62004595602083018662002cb6565b620045a4604083018562002ce4565b620045b360608301846200455e565b95945050505050565b60007fffffffff0000000000000000000000000000000000000000000000000000000082169050919050565b620045f381620045bc565b82525050565b6000602082019050620046106000830184620045e8565b9291505056fe60806040523480156200001157600080fd5b5060405162002e2738038062002e2783398181016040528101906200003791906200040c565b818181600390816200004a9190620006dc565b5080600490816200005c9190620006dc565b5050506000600660006101000a81548160ff0219169083151502179055506200009a6200008e620000d360201b60201c565b620000db60201b60201c565b620000cb7f2d52206c00000000000000000000000000000000000000000000000000000000620001a160201b60201c565b505062000846565b600033905090565b6000600660019054906101000a900473ffffffffffffffffffffffffffffffffffffffff16905081600660016101000a81548173ffffffffffffffffffffffffffffffffffffffff021916908373ffffffffffffffffffffffffffffffffffffffff1602179055508173ffffffffffffffffffffffffffffffffffffffff168173ffffffffffffffffffffffffffffffffffffffff167f8be0079c531659141344cd1fd0a4f28419497f9722a3daafe3b4186f6b6457e060405160405180910390a35050565b63ffffffff60e01b817bffffffffffffffffffffffffffffffffffffffffffffffffffffffff1916036200020c576040517f08c379a0000000000000000000000000000000000000000000000000000000008152600401620002039062000824565b60405180910390fd5b600160056000837bffffffffffffffffffffffffffffffffffffffffffffffffffffffff19167bffffffffffffffffffffffffffffffffffffffffffffffffffffffff1916815260200190815260200160002060006101000a81548160ff02191690831515021790555050565b6000604051905090565b600080fd5b600080fd5b600080fd5b600080fd5b6000601f19601f8301169050919050565b7f4e487b7100000000000000000000000000000000000000000000000000000000600052604160045260246000fd5b620002e28262000297565b810181811067ffffffffffffffff82111715620003045762000303620002a8565b5b80604052505050565b60006200031962000279565b9050620003278282620002d7565b919050565b600067ffffffffffffffff8211156200034a5762000349620002a8565b5b620003558262000297565b9050602081019050919050565b60005b838110156200038257808201518184015260208101905062000365565b60008484015250505050565b6000620003a56200039f846200032c565b6200030d565b905082815260208101848484011115620003c457620003c362000292565b5b620003d184828562000362565b509392505050565b600082601f830112620003f157620003f06200028d565b5b8151620004038482602086016200038e565b91505092915050565b6000806040838503121562000426576200042562000283565b5b600083015167ffffffffffffffff81111562000447576200044662000288565b5b6200045585828601620003d9565b925050602083015167ffffffffffffffff81111562000479576200047862000288565b5b6200048785828601620003d9565b9150509250929050565b600081519050919050565b7f4e487b7100000000000000000000000000000000000000000000000000000000600052602260045260246000fd5b60006002820490506001821680620004e457607f821691505b602082108103620004fa57620004f96200049c565b5b50919050565b60008190508160005260206000209050919050565b60006020601f8301049050919050565b600082821b905092915050565b600060088302620005647fffffffffffffffffffffffffffffffffffffffffffffffffffffffffffffffff8262000525565b62000570868362000525565b95508019841693508086168417925050509392505050565b6000819050919050565b6000819050919050565b6000620005bd620005b7620005b18462000588565b62000592565b62000588565b9050919050565b6000819050919050565b620005d9836200059c565b620005f1620005e882620005c4565b84845462000532565b825550505050565b600090565b62000608620005f9565b62000615818484620005ce565b505050565b5b818110156200063d5762000631600082620005fe565b6001810190506200061b565b5050565b601f8211156200068c57620006568162000500565b620006618462000515565b8101602085101562000671578190505b62000689620006808562000515565b8301826200061a565b50505b505050565b600082821c905092915050565b6000620006b16000198460080262000691565b1980831691505092915050565b6000620006cc83836200069e565b9150826002028217905092915050565b620006e78262000491565b67ffffffffffffffff811115620007035762000702620002a8565b5b6200070f8254620004cb565b6200071c82828562000641565b600060209050601f8311600181146200075457600084156200073f578287015190505b6200074b8582620006be565b865550620007bb565b601f198416620007648662000500565b60005b828110156200078e5784890151825560018201915060208501945060208101905062000767565b86831015620007ae5784890151620007aa601f8916826200069e565b8355505b6001600288020188555050505b505050505050565b600082825260208201905092915050565b7f4552433136353a20696e76616c696420696e7465726661636520696400000000600082015250565b60006200080c601c83620007c3565b91506200081982620007d4565b602082019050919050565b600060208201905081810360008301526200083f81620007fd565b9050919050565b6125d180620008566000396000f3fe608060405234801561001057600080fd5b506004361061018e5760003560e01c806370a08231116100de57806395d89b4111610097578063c3856dd511610071578063c3856dd51461045f578063dd62ed3e1461047b578063f2fde38b146104ab578063f60ca60d146104c75761018e565b806395d89b41146103e1578063a457c2d7146103ff578063a9059cbb1461042f5761018e565b806370a0823114610345578063715018a61461037557806379cc67901461037f5780638456cb591461039b578063893d20e8146103a55780638da5cb5b146103c35761018e565b80632af4c31e1161014b5780633f4ba83a116101255780633f4ba83a146102e557806340c10f19146102ef57806342966c681461030b5780635c975abb146103275761018e565b80632af4c31e1461027b578063313ce5671461029757806339509351146102b55761018e565b806301ffc9a71461019357806306fdde03146101c3578063095ea7b3146101e15780630ddfa1561461021157806318160ddd1461022d57806323b872dd1461024b575b600080fd5b6101ad60048036038101906101a89190611872565b6104e5565b6040516101ba91906118ba565b60405180910390f35b6101cb61055d565b6040516101d89190611965565b60405180910390f35b6101fb60048036038101906101f69190611a1b565b6105ef565b60405161020891906118ba565b60405180910390f35b61022b60048036038101906102269190611a5b565b610612565b005b61023561062e565b6040516102429190611a97565b60405180910390f35b61026560048036038101906102609190611ab2565b610638565b60405161027291906118ba565b60405180910390f35b61029560048036038101906102909190611b05565b610667565b005b61029f610673565b6040516102ac9190611b4e565b60405180910390f35b6102cf60048036038101906102ca9190611a1b565b61067c565b6040516102dc91906118ba565b60405180910390f35b6102ed6106b3565b005b61030960048036038101906103049190611a1b565b6107f8565b005b61032560048036038101906103209190611a5b565b61080e565b005b61032f610822565b60405161033c91906118ba565b60405180910390f35b61035f600480360381019061035a9190611b05565b610839565b60405161036c9190611a97565b60405180910390f35b61037d610881565b005b61039960048036038101906103949190611a1b565b610895565b005b6103a36108b5565b005b6103ad6109fa565b6040516103ba9190611b78565b60405180910390f35b6103cb610a09565b6040516103d89190611b78565b60405180910390f35b6103e9610a33565b6040516103f69190611965565b60405180910390f35b61041960048036038101906104149190611a1b565b610ac5565b60405161042691906118ba565b60405180910390f35b61044960048036038101906104449190611a1b565b610b3c565b60405161045691906118ba565b60405180910390f35b61047960048036038101906104749190611bd1565b610b5f565b005b61049560048036038101906104909190611bfe565b610bab565b6040516104a29190611a97565b60405180910390f35b6104c560048036038101906104c09190611b05565b610c32565b005b6104cf610cb5565b6040516104dc9190611c9d565b60405180910390f35b60006104f082610cdb565b80610556575060056000837bffffffffffffffffffffffffffffffffffffffffffffffffffffffff19167bffffffffffffffffffffffffffffffffffffffffffffffffffffffff1916815260200190815260200160002060009054906101000a900460ff165b9050919050565b60606003805461056c90611ce7565b80601f016020809104026020016040519081016040528092919081815260200182805461059890611ce7565b80156105e55780601f106105ba576101008083540402835291602001916105e5565b820191906000526020600020905b8154815290600101906020018083116105c857829003601f168201915b5050505050905090565b6000806105fa610d45565b9050610607818585610d4d565b600191505092915050565b61061a610f16565b61062b610625610a09565b826107f8565b50565b6000600254905090565b600080610643610d45565b9050610650858285610f94565b61065b858585611020565b60019150509392505050565b61067081610c32565b50565b60006012905090565b600080610687610d45565b90506106a88185856106998589610bab565b6106a39190611d47565b610d4d565b600191505092915050565b6106bb610a09565b73ffffffffffffffffffffffffffffffffffffffff163373ffffffffffffffffffffffffffffffffffffffff1614806107af5750600760009054906101000a900473ffffffffffffffffffffffffffffffffffffffff1673ffffffffffffffffffffffffffffffffffffffff16630759a3546040518163ffffffff1660e01b8152600401602060405180830381865afa15801561075c573d6000803e3d6000fd5b505050506040513d601f19601f820116820180604052508101906107809190611d90565b73ffffffffffffffffffffffffffffffffffffffff163373ffffffffffffffffffffffffffffffffffffffff16145b6107ee576040517f08c379a00000000000000000000000000000000000000000000000000000000081526004016107e590611e09565b60405180910390fd5b6107f661129f565b565b610800610f16565b61080a8282611302565b5050565b61081f610819610d45565b82611461565b50565b6000600660009054906101000a900460ff16905090565b60008060008373ffffffffffffffffffffffffffffffffffffffff1673ffffffffffffffffffffffffffffffffffffffff168152602001908152602001600020549050919050565b610889610f16565b6108936000611637565b565b6108a7826108a1610d45565b83610f94565b6108b18282611461565b5050565b6108bd610a09565b73ffffffffffffffffffffffffffffffffffffffff163373ffffffffffffffffffffffffffffffffffffffff1614806109b15750600760009054906101000a900473ffffffffffffffffffffffffffffffffffffffff1673ffffffffffffffffffffffffffffffffffffffff16630759a3546040518163ffffffff1660e01b8152600401602060405180830381865afa15801561095e573d6000803e3d6000fd5b505050506040513d601f19601f820116820180604052508101906109829190611d90565b73ffffffffffffffffffffffffffffffffffffffff163373ffffffffffffffffffffffffffffffffffffffff16145b6109f0576040517f08c379a00000000000000000000000000000000000000000000000000000000081526004016109e790611e09565b60405180910390fd5b6109f86116fd565b565b6000610a04610a09565b905090565b6000600660019054906101000a900473ffffffffffffffffffffffffffffffffffffffff16905090565b606060048054610a4290611ce7565b80601f0160208091040260200160405190810160405280929190818152602001828054610a6e90611ce7565b8015610abb5780601f10610a9057610100808354040283529160200191610abb565b820191906000526020600020905b815481529060010190602001808311610a9e57829003601f168201915b5050505050905090565b600080610ad0610d45565b90506000610ade8286610bab565b905083811015610b23576040517f08c379a0000000000000000000000000000000000000000000000000000000008152600401610b1a90611e9b565b60405180910390fd5b610b308286868403610d4d565b60019250505092915050565b600080610b47610d45565b9050610b54818585611020565b600191505092915050565b610b67610f16565b80600760006101000a81548173ffffffffffffffffffffffffffffffffffffffff021916908373ffffffffffffffffffffffffffffffffffffffff16021790555050565b6000600160008473ffffffffffffffffffffffffffffffffffffffff1673ffffffffffffffffffffffffffffffffffffffff16815260200190815260200160002060008373ffffffffffffffffffffffffffffffffffffffff1673ffffffffffffffffffffffffffffffffffffffff16815260200190815260200160002054905092915050565b610c3a610f16565b600073ffffffffffffffffffffffffffffffffffffffff168173ffffffffffffffffffffffffffffffffffffffff1603610ca9576040517f08c379a0000000000000000000000000000000000000000000000000000000008152600401610ca090611f2d565b60405180910390fd5b610cb281611637565b50565b600760009054906101000a900473ffffffffffffffffffffffffffffffffffffffff1681565b60007f01ffc9a7000000000000000000000000000000000000000000000000000000007bffffffffffffffffffffffffffffffffffffffffffffffffffffffff1916827bffffffffffffffffffffffffffffffffffffffffffffffffffffffff1916149050919050565b600033905090565b600073ffffffffffffffffffffffffffffffffffffffff168373ffffffffffffffffffffffffffffffffffffffff1603610dbc576040517f08c379a0000000000000000000000000000000000000000000000000000000008152600401610db390611fbf565b60405180910390fd5b600073ffffffffffffffffffffffffffffffffffffffff168273ffffffffffffffffffffffffffffffffffffffff1603610e2b576040517f08c379a0000000000000000000000000000000000000000000000000000000008152600401610e2290612051565b60405180910390fd5b80600160008573ffffffffffffffffffffffffffffffffffffffff1673ffffffffffffffffffffffffffffffffffffffff16815260200190815260200160002060008473ffffffffffffffffffffffffffffffffffffffff1673ffffffffffffffffffffffffffffffffffffffff168152602001908152602001600020819055508173ffffffffffffffffffffffffffffffffffffffff168373ffffffffffffffffffffffffffffffffffffffff167f8c5be1e5ebec7d5bd14f71427d1e84f3dd0314c0f7b2291e5b200ac8c7c3b92583604051610f099190611a97565b60405180910390a3505050565b610f1e610d45565b73ffffffffffffffffffffffffffffffffffffffff16610f3c610a09565b73ffffffffffffffffffffffffffffffffffffffff1614610f92576040517f08c379a0000000000000000000000000000000000000000000000000000000008152600401610f89906120bd565b60405180910390fd5b565b6000610fa08484610bab565b90507fffffffffffffffffffffffffffffffffffffffffffffffffffffffffffffffff811461101a578181101561100c576040517f08c379a000000000000000000000000000000000000000000000000000000000815260040161100390612129565b60405180910390fd5b6110198484848403610d4d565b5b50505050565b600073ffffffffffffffffffffffffffffffffffffffff168373ffffffffffffffffffffffffffffffffffffffff160361108f576040517f08c379a0000000000000000000000000000000000000000000000000000000008152600401611086906121bb565b60405180910390fd5b600073ffffffffffffffffffffffffffffffffffffffff168273ffffffffffffffffffffffffffffffffffffffff16036110fe576040517f08c379a00000000000000000000000000000000000000000000000000000000081526004016110f59061224d565b60405180910390fd5b611109838383611760565b60008060008573ffffffffffffffffffffffffffffffffffffffff1673ffffffffffffffffffffffffffffffffffffffff1681526020019081526020016000205490508181101561118f576040517f08c379a0000000000000000000000000000000000000000000000000000000008152600401611186906122df565b60405180910390fd5b8181036000808673ffffffffffffffffffffffffffffffffffffffff1673ffffffffffffffffffffffffffffffffffffffff16815260200190815260200160002081905550816000808573ffffffffffffffffffffffffffffffffffffffff1673ffffffffffffffffffffffffffffffffffffffff16815260200190815260200160002060008282546112229190611d47565b925050819055508273ffffffffffffffffffffffffffffffffffffffff168473ffffffffffffffffffffffffffffffffffffffff167fddf252ad1be2c89b69c2b068fc378daa952ba7f163c4a11628f55a4df523b3ef846040516112869190611a97565b60405180910390a3611299848484611778565b50505050565b6112a761177d565b6000600660006101000a81548160ff0219169083151502179055507f5db9ee0a495bf2e6ff9c91a7834c1ba4fdd244a5e8aa4e537bd38aeae4b073aa6112eb610d45565b6040516112f89190611b78565b60405180910390a1565b600073ffffffffffffffffffffffffffffffffffffffff168273ffffffffffffffffffffffffffffffffffffffff1603611371576040517f08c379a00000000000000000000000000000000000000000000000000000000081526004016113689061234b565b60405180910390fd5b61137d60008383611760565b806002600082825461138f9190611d47565b92505081905550806000808473ffffffffffffffffffffffffffffffffffffffff1673ffffffffffffffffffffffffffffffffffffffff16815260200190815260200160002060008282546113e49190611d47565b925050819055508173ffffffffffffffffffffffffffffffffffffffff16600073ffffffffffffffffffffffffffffffffffffffff167fddf252ad1be2c89b69c2b068fc378daa952ba7f163c4a11628f55a4df523b3ef836040516114499190611a97565b60405180910390a361145d60008383611778565b5050565b600073ffffffffffffffffffffffffffffffffffffffff168273ffffffffffffffffffffffffffffffffffffffff16036114d0576040517f08c379a00000000000000000000000000000000000000000000000000000000081526004016114c7906123dd565b60405180910390fd5b6114dc82600083611760565b60008060008473ffffffffffffffffffffffffffffffffffffffff1673ffffffffffffffffffffffffffffffffffffffff16815260200190815260200160002054905081811015611562576040517f08c379a00000000000000000000000000000000000000000000000000000000081526004016115599061246f565b60405180910390fd5b8181036000808573ffffffffffffffffffffffffffffffffffffffff1673ffffffffffffffffffffffffffffffffffffffff1681526020019081526020016000208190555081600260008282546115b9919061248f565b92505081905550600073ffffffffffffffffffffffffffffffffffffffff168373ffffffffffffffffffffffffffffffffffffffff167fddf252ad1be2c89b69c2b068fc378daa952ba7f163c4a11628f55a4df523b3ef8460405161161e9190611a97565b60405180910390a361163283600084611778565b505050565b6000600660019054906101000a900473ffffffffffffffffffffffffffffffffffffffff16905081600660016101000a81548173ffffffffffffffffffffffffffffffffffffffff021916908373ffffffffffffffffffffffffffffffffffffffff1602179055508173ffffffffffffffffffffffffffffffffffffffff168173ffffffffffffffffffffffffffffffffffffffff167f8be0079c531659141344cd1fd0a4f28419497f9722a3daafe3b4186f6b6457e060405160405180910390a35050565b6117056117c6565b6001600660006101000a81548160ff0219169083151502179055507f62e78cea01bee320cd4e420270b5ea74000d11b0c9f74754ebdbfc544b05a258611749610d45565b6040516117569190611b78565b60405180910390a1565b6117686117c6565b611773838383611810565b505050565b505050565b611785610822565b6117c4576040517f08c379a00000000000000000000000000000000000000000000000000000000081526004016117bb9061250f565b60405180910390fd5b565b6117ce610822565b1561180e576040517f08c379a00000000000000000000000000000000000000000000000000000000081526004016118059061257b565b60405180910390fd5b565b505050565b600080fd5b60007fffffffff0000000000000000000000000000000000000000000000000000000082169050919050565b61184f8161181a565b811461185a57600080fd5b50565b60008135905061186c81611846565b92915050565b60006020828403121561188857611887611815565b5b60006118968482850161185d565b91505092915050565b60008115159050919050565b6118b48161189f565b82525050565b60006020820190506118cf60008301846118ab565b92915050565b600081519050919050565b600082825260208201905092915050565b60005b8381101561190f5780820151818401526020810190506118f4565b60008484015250505050565b6000601f19601f8301169050919050565b6000611937826118d5565b61194181856118e0565b93506119518185602086016118f1565b61195a8161191b565b840191505092915050565b6000602082019050818103600083015261197f818461192c565b905092915050565b600073ffffffffffffffffffffffffffffffffffffffff82169050919050565b60006119b282611987565b9050919050565b6119c2816119a7565b81146119cd57600080fd5b50565b6000813590506119df816119b9565b92915050565b6000819050919050565b6119f8816119e5565b8114611a0357600080fd5b50565b600081359050611a15816119ef565b92915050565b60008060408385031215611a3257611a31611815565b5b6000611a40858286016119d0565b9250506020611a5185828601611a06565b9150509250929050565b600060208284031215611a7157611a70611815565b5b6000611a7f84828501611a06565b91505092915050565b611a91816119e5565b82525050565b6000602082019050611aac6000830184611a88565b92915050565b600080600060608486031215611acb57611aca611815565b5b6000611ad9868287016119d0565b9350506020611aea868287016119d0565b9250506040611afb86828701611a06565b9150509250925092565b600060208284031215611b1b57611b1a611815565b5b6000611b29848285016119d0565b91505092915050565b600060ff82169050919050565b611b4881611b32565b82525050565b6000602082019050611b636000830184611b3f565b92915050565b611b72816119a7565b82525050565b6000602082019050611b8d6000830184611b69565b92915050565b6000611b9e826119a7565b9050919050565b611bae81611b93565b8114611bb957600080fd5b50565b600081359050611bcb81611ba5565b92915050565b600060208284031215611be757611be6611815565b5b6000611bf584828501611bbc565b91505092915050565b60008060408385031215611c1557611c14611815565b5b6000611c23858286016119d0565b9250506020611c34858286016119d0565b9150509250929050565b6000819050919050565b6000611c63611c5e611c5984611987565b611c3e565b611987565b9050919050565b6000611c7582611c48565b9050919050565b6000611c8782611c6a565b9050919050565b611c9781611c7c565b82525050565b6000602082019050611cb26000830184611c8e565b92915050565b7f4e487b7100000000000000000000000000000000000000000000000000000000600052602260045260246000fd5b60006002820490506001821680611cff57607f821691505b602082108103611d1257611d11611cb8565b5b50919050565b7f4e487b7100000000000000000000000000000000000000000000000000000000600052601160045260246000fd5b6000611d52826119e5565b9150611d5d836119e5565b9250828201905080821115611d7557611d74611d18565b5b92915050565b600081519050611d8a816119b9565b92915050565b600060208284031215611da657611da5611815565b5b6000611db484828501611d7b565b91505092915050565b7f746f6b656e206f776e6572206f72207465616d00000000000000000000000000600082015250565b6000611df36013836118e0565b9150611dfe82611dbd565b602082019050919050565b60006020820190508181036000830152611e2281611de6565b9050919050565b7f45524332303a2064656372656173656420616c6c6f77616e63652062656c6f7760008201527f207a65726f000000000000000000000000000000000000000000000000000000602082015250565b6000611e856025836118e0565b9150611e9082611e29565b604082019050919050565b60006020820190508181036000830152611eb481611e78565b9050919050565b7f4f776e61626c653a206e6577206f776e657220697320746865207a65726f206160008201527f6464726573730000000000000000000000000000000000000000000000000000602082015250565b6000611f176026836118e0565b9150611f2282611ebb565b604082019050919050565b60006020820190508181036000830152611f4681611f0a565b9050919050565b7f45524332303a20617070726f76652066726f6d20746865207a65726f2061646460008201527f7265737300000000000000000000000000000000000000000000000000000000602082015250565b6000611fa96024836118e0565b9150611fb482611f4d565b604082019050919050565b60006020820190508181036000830152611fd881611f9c565b9050919050565b7f45524332303a20617070726f766520746f20746865207a65726f20616464726560008201527f7373000000000000000000000000000000000000000000000000000000000000602082015250565b600061203b6022836118e0565b915061204682611fdf565b604082019050919050565b6000602082019050818103600083015261206a8161202e565b9050919050565b7f4f776e61626c653a2063616c6c6572206973206e6f7420746865206f776e6572600082015250565b60006120a76020836118e0565b91506120b282612071565b602082019050919050565b600060208201905081810360008301526120d68161209a565b9050919050565b7f45524332303a20696e73756666696369656e7420616c6c6f77616e6365000000600082015250565b6000612113601d836118e0565b915061211e826120dd565b602082019050919050565b6000602082019050818103600083015261214281612106565b9050919050565b7f45524332303a207472616e736665722066726f6d20746865207a65726f20616460008201527f6472657373000000000000000000000000000000000000000000000000000000602082015250565b60006121a56025836118e0565b91506121b082612149565b604082019050919050565b600060208201905081810360008301526121d481612198565b9050919050565b7f45524332303a207472616e7366657220746f20746865207a65726f206164647260008201527f6573730000000000000000000000000000000000000000000000000000000000602082015250565b60006122376023836118e0565b9150612242826121db565b604082019050919050565b600060208201905081810360008301526122668161222a565b9050919050565b7f45524332303a207472616e7366657220616d6f756e742065786365656473206260008201527f616c616e63650000000000000000000000000000000000000000000000000000602082015250565b60006122c96026836118e0565b91506122d48261226d565b604082019050919050565b600060208201905081810360008301526122f8816122bc565b9050919050565b7f45524332303a206d696e7420746f20746865207a65726f206164647265737300600082015250565b6000612335601f836118e0565b9150612340826122ff565b602082019050919050565b6000602082019050818103600083015261236481612328565b9050919050565b7f45524332303a206275726e2066726f6d20746865207a65726f2061646472657360008201527f7300000000000000000000000000000000000000000000000000000000000000602082015250565b60006123c76021836118e0565b91506123d28261236b565b604082019050919050565b600060208201905081810360008301526123f6816123ba565b9050919050565b7f45524332303a206275726e20616d6f756e7420657863656564732062616c616e60008201527f6365000000000000000000000000000000000000000000000000000000000000602082015250565b60006124596022836118e0565b9150612464826123fd565b604082019050919050565b600060208201905081810360008301526124888161244c565b9050919050565b600061249a826119e5565b91506124a5836119e5565b92508282039050818111156124bd576124bc611d18565b5b92915050565b7f5061757361626c653a206e6f7420706175736564000000000000000000000000600082015250565b60006124f96014836118e0565b9150612504826124c3565b602082019050919050565b60006020820190508181036000830152612528816124ec565b9050919050565b7f5061757361626c653a2070617573656400000000000000000000000000000000600082015250565b60006125656010836118e0565b91506125708261252f565b602082019050919050565b6000602082019050818103600083015261259481612558565b905091905056fea26469706673582212203da6128f520da6e356d34e9c671ffd12e73a50dbb178b8efc972bad16d1ce9b064736f6c63430008100033a26469706673582212209cce5b775fe194f06771fbaacf6cbeb379264075962244665251ff8d574cbc6a64736f6c63430008100033",
			"opcodes": "PUSH1 0xC0 PUSH1 0x40 MSTORE PUSH1 0x1 PUSH1 0x0 PUSH1 0x14 PUSH2 0x100 EXP DUP2 SLOAD DUP2 PUSH1 0xFF MUL NOT AND SWAP1 DUP4 ISZERO ISZERO MUL OR SWAP1 SSTORE POP PUSH3 0x93A80 PUSH1 0x3 SSTORE PUSH3 0x127500 PUSH1 0x4 SSTORE PUSH1 0x6 PUSH1 0xD SSTORE CALLVALUE DUP1 ISZERO PUSH3 0x3F JUMPI PUSH1 0x0 DUP1 REVERT JUMPDEST POP PUSH1 0x40 MLOAD PUSH3 0x77A8 CODESIZE SUB DUP1 PUSH3 0x77A8 DUP4 CODECOPY DUP2 DUP2 ADD PUSH1 0x40 MSTORE DUP2 ADD SWAP1 PUSH3 0x65 SWAP2 SWAP1 PUSH3 0x2A5 JUMP JUMPDEST DUP3 DUP3 PUSH3 0x87 PUSH3 0x7B PUSH3 0x16F PUSH1 0x20 SHL PUSH1 0x20 SHR JUMP JUMPDEST PUSH3 0x177 PUSH1 0x20 SHL PUSH1 0x20 SHR JUMP JUMPDEST PUSH1 0x0 PUSH1 0x2 PUSH1 0x0 PUSH2 0x100 EXP DUP2 SLOAD DUP2 PUSH1 0xFF MUL NOT AND SWAP1 DUP4 ISZERO ISZERO MUL OR SWAP1 SSTORE POP DUP2 PUSH20 0xFFFFFFFFFFFFFFFFFFFFFFFFFFFFFFFFFFFFFFFF AND PUSH1 0x80 DUP2 PUSH20 0xFFFFFFFFFFFFFFFFFFFFFFFFFFFFFFFFFFFFFFFF AND DUP2 MSTORE POP POP DUP1 PUSH20 0xFFFFFFFFFFFFFFFFFFFFFFFFFFFFFFFFFFFFFFFF AND PUSH1 0xA0 DUP2 PUSH20 0xFFFFFFFFFFFFFFFFFFFFFFFFFFFFFFFFFFFFFFFF AND DUP2 MSTORE POP POP PUSH1 0x1 PUSH1 0x9 DUP2 SWAP1 SSTORE POP PUSH2 0x190 PUSH1 0xA DUP2 SWAP1 SSTORE POP POP POP PUSH1 0x1 PUSH1 0xB DUP2 SWAP1 SSTORE POP DUP1 PUSH1 0xC PUSH1 0x0 PUSH2 0x100 EXP DUP2 SLOAD DUP2 PUSH20 0xFFFFFFFFFFFFFFFFFFFFFFFFFFFFFFFFFFFFFFFF MUL NOT AND SWAP1 DUP4 PUSH20 0xFFFFFFFFFFFFFFFFFFFFFFFFFFFFFFFFFFFFFFFF AND MUL OR SWAP1 SSTORE POP POP POP POP PUSH3 0x301 JUMP JUMPDEST PUSH1 0x0 CALLER SWAP1 POP SWAP1 JUMP JUMPDEST PUSH1 0x0 DUP1 PUSH1 0x0 SWAP1 SLOAD SWAP1 PUSH2 0x100 EXP SWAP1 DIV PUSH20 0xFFFFFFFFFFFFFFFFFFFFFFFFFFFFFFFFFFFFFFFF AND SWAP1 POP DUP2 PUSH1 0x0 DUP1 PUSH2 0x100 EXP DUP2 SLOAD DUP2 PUSH20 0xFFFFFFFFFFFFFFFFFFFFFFFFFFFFFFFFFFFFFFFF MUL NOT AND SWAP1 DUP4 PUSH20 0xFFFFFFFFFFFFFFFFFFFFFFFFFFFFFFFFFFFFFFFF AND MUL OR SWAP1 SSTORE POP DUP2 PUSH20 0xFFFFFFFFFFFFFFFFFFFFFFFFFFFFFFFFFFFFFFFF AND DUP2 PUSH20 0xFFFFFFFFFFFFFFFFFFFFFFFFFFFFFFFFFFFFFFFF AND PUSH32 0x8BE0079C531659141344CD1FD0A4F28419497F9722A3DAAFE3B4186F6B6457E0 PUSH1 0x40 MLOAD PUSH1 0x40 MLOAD DUP1 SWAP2 SUB SWAP1 LOG3 POP POP JUMP JUMPDEST PUSH1 0x0 DUP1 REVERT JUMPDEST PUSH1 0x0 PUSH20 0xFFFFFFFFFFFFFFFFFFFFFFFFFFFFFFFFFFFFFFFF DUP3 AND SWAP1 POP SWAP2 SWAP1 POP JUMP JUMPDEST PUSH1 0x0 PUSH3 0x26D DUP3 PUSH3 0x240 JUMP JUMPDEST SWAP1 POP SWAP2 SWAP1 POP JUMP JUMPDEST PUSH3 0x27F DUP2 PUSH3 0x260 JUMP JUMPDEST DUP2 EQ PUSH3 0x28B JUMPI PUSH1 0x0 DUP1 REVERT JUMPDEST POP JUMP JUMPDEST PUSH1 0x0 DUP2 MLOAD SWAP1 POP PUSH3 0x29F DUP2 PUSH3 0x274 JUMP JUMPDEST SWAP3 SWAP2 POP POP JUMP JUMPDEST PUSH1 0x0 DUP1 PUSH1 0x0 PUSH1 0x60 DUP5 DUP7 SUB SLT ISZERO PUSH3 0x2C1 JUMPI PUSH3 0x2C0 PUSH3 0x23B JUMP JUMPDEST JUMPDEST PUSH1 0x0 PUSH3 0x2D1 DUP7 DUP3 DUP8 ADD PUSH3 0x28E JUMP JUMPDEST SWAP4 POP POP PUSH1 0x20 PUSH3 0x2E4 DUP7 DUP3 DUP8 ADD PUSH3 0x28E JUMP JUMPDEST SWAP3 POP POP PUSH1 0x40 PUSH3 0x2F7 DUP7 DUP3 DUP8 ADD PUSH3 0x28E JUMP JUMPDEST SWAP2 POP POP SWAP3 POP SWAP3 POP SWAP3 JUMP JUMPDEST PUSH1 0x80 MLOAD PUSH1 0xA0 MLOAD PUSH2 0x7473 PUSH3 0x335 PUSH1 0x0 CODECOPY PUSH1 0x0 DUP2 DUP2 PUSH2 0x8F4 ADD MSTORE PUSH2 0xB7D ADD MSTORE PUSH1 0x0 DUP2 DUP2 PUSH2 0xDC7 ADD MSTORE PUSH2 0x17C6 ADD MSTORE PUSH2 0x7473 PUSH1 0x0 RETURN INVALID PUSH1 0x80 PUSH1 0x40 MSTORE CALLVALUE DUP1 ISZERO PUSH3 0x11 JUMPI PUSH1 0x0 DUP1 REVERT JUMPDEST POP PUSH1 0x4 CALLDATASIZE LT PUSH3 0x238 JUMPI PUSH1 0x0 CALLDATALOAD PUSH1 0xE0 SHR DUP1 PUSH4 0x77036684 GT PUSH3 0x135 JUMPI DUP1 PUSH4 0xBAD141B8 GT PUSH3 0xBD JUMPI DUP1 PUSH4 0xD1B812CD GT PUSH3 0x87 JUMPI DUP1 PUSH4 0xD1B812CD EQ PUSH3 0x667 JUMPI DUP1 PUSH4 0xD6341862 EQ PUSH3 0x689 JUMPI DUP1 PUSH4 0xDAEB39B5 EQ PUSH3 0x6A9 JUMPI DUP1 PUSH4 0xF2FDE38B EQ PUSH3 0x6C9 JUMPI DUP1 PUSH4 0xFEAC9942 EQ PUSH3 0x6E9 JUMPI PUSH3 0x238 JUMP JUMPDEST DUP1 PUSH4 0xBAD141B8 EQ PUSH3 0x5CD JUMPI DUP1 PUSH4 0xBE733D3C EQ PUSH3 0x5EF JUMPI DUP1 PUSH4 0xC33857DE EQ PUSH3 0x60F JUMPI DUP1 PUSH4 0xCC13FD3B EQ PUSH3 0x631 JUMPI PUSH3 0x238 JUMP JUMPDEST DUP1 PUSH4 0x95C82975 GT PUSH3 0xFF JUMPI DUP1 PUSH4 0x95C82975 EQ PUSH3 0x51F JUMPI DUP1 PUSH4 0xA3839D3F EQ PUSH3 0x541 JUMPI DUP1 PUSH4 0xA5D65E93 EQ PUSH3 0x577 JUMPI DUP1 PUSH4 0xAF7A060C EQ PUSH3 0x597 JUMPI PUSH3 0x238 JUMP JUMPDEST DUP1 PUSH4 0x77036684 EQ PUSH3 0x483 JUMPI DUP1 PUSH4 0x796B89B9 EQ PUSH3 0x4A5 JUMPI DUP1 PUSH4 0x88D5E3CE EQ PUSH3 0x4C7 JUMPI DUP1 PUSH4 0x8DA5CB5B EQ PUSH3 0x4FD JUMPI PUSH3 0x238 JUMP JUMPDEST DUP1 PUSH4 0x25EA346F GT PUSH3 0x1C5 JUMPI DUP1 PUSH4 0x5BC4675C GT PUSH3 0x18F JUMPI DUP1 PUSH4 0x5BC4675C EQ PUSH3 0x3C9 JUMPI DUP1 PUSH4 0x5C975ABB EQ PUSH3 0x3FF JUMPI DUP1 PUSH4 0x684CC795 EQ PUSH3 0x421 JUMPI DUP1 PUSH4 0x6EB39535 EQ PUSH3 0x441 JUMPI DUP1 PUSH4 0x715018A6 EQ PUSH3 0x477 JUMPI PUSH3 0x238 JUMP JUMPDEST DUP1 PUSH4 0x25EA346F EQ PUSH3 0x345 JUMPI DUP1 PUSH4 0x265D1D58 EQ PUSH3 0x365 JUMPI DUP1 PUSH4 0x279B1366 EQ PUSH3 0x387 JUMPI DUP1 PUSH4 0x5A067BAA EQ PUSH3 0x3A7 JUMPI PUSH3 0x238 JUMP JUMPDEST DUP1 PUSH4 0xB8F3EE6 GT PUSH3 0x207 JUMPI DUP1 PUSH4 0xB8F3EE6 EQ PUSH3 0x2C1 JUMPI DUP1 PUSH4 0x1286BA4D EQ PUSH3 0x2E3 JUMPI DUP1 PUSH4 0x1685F297 EQ PUSH3 0x303 JUMPI DUP1 PUSH4 0x1AF2BE9F EQ PUSH3 0x323 JUMPI PUSH3 0x238 JUMP JUMPDEST DUP1 PUSH4 0x255A03B EQ PUSH3 0x23D JUMPI DUP1 PUSH4 0x5598159 EQ PUSH3 0x25D JUMPI DUP1 PUSH4 0x598C68B EQ PUSH3 0x27F JUMPI DUP1 PUSH4 0xB1E4238 EQ PUSH3 0x29F JUMPI JUMPDEST PUSH1 0x0 DUP1 REVERT JUMPDEST PUSH3 0x25B PUSH1 0x4 DUP1 CALLDATASIZE SUB DUP2 ADD SWAP1 PUSH3 0x255 SWAP2 SWAP1 PUSH3 0x2B97 JUMP JUMPDEST PUSH3 0x709 JUMP JUMPDEST STOP JUMPDEST PUSH3 0x267 PUSH3 0x7E6 JUMP JUMPDEST PUSH1 0x40 MLOAD PUSH3 0x276 SWAP2 SWAP1 PUSH3 0x2BE6 JUMP JUMPDEST PUSH1 0x40 MLOAD DUP1 SWAP2 SUB SWAP1 RETURN JUMPDEST PUSH3 0x29D PUSH1 0x4 DUP1 CALLDATASIZE SUB DUP2 ADD SWAP1 PUSH3 0x297 SWAP2 SWAP1 PUSH3 0x2C6F JUMP JUMPDEST PUSH3 0x7F9 JUMP JUMPDEST STOP JUMPDEST PUSH3 0x2A9 PUSH3 0x8F2 JUMP JUMPDEST PUSH1 0x40 MLOAD PUSH3 0x2B8 SWAP2 SWAP1 PUSH3 0x2CC7 JUMP JUMPDEST PUSH1 0x40 MLOAD DUP1 SWAP2 SUB SWAP1 RETURN JUMPDEST PUSH3 0x2CB PUSH3 0x916 JUMP JUMPDEST PUSH1 0x40 MLOAD PUSH3 0x2DA SWAP2 SWAP1 PUSH3 0x2CF5 JUMP JUMPDEST PUSH1 0x40 MLOAD DUP1 SWAP2 SUB SWAP1 RETURN JUMPDEST PUSH3 0x301 PUSH1 0x4 DUP1 CALLDATASIZE SUB DUP2 ADD SWAP1 PUSH3 0x2FB SWAP2 SWAP1 PUSH3 0x2D12 JUMP JUMPDEST PUSH3 0x91C JUMP JUMPDEST STOP JUMPDEST PUSH3 0x321 PUSH1 0x4 DUP1 CALLDATASIZE SUB DUP2 ADD SWAP1 PUSH3 0x31B SWAP2 SWAP1 PUSH3 0x2D44 JUMP JUMPDEST PUSH3 0x975 JUMP JUMPDEST STOP JUMPDEST PUSH3 0x32D PUSH3 0x9DD JUMP JUMPDEST PUSH1 0x40 MLOAD PUSH3 0x33C SWAP2 SWAP1 PUSH3 0x2CF5 JUMP JUMPDEST PUSH1 0x40 MLOAD DUP1 SWAP2 SUB SWAP1 RETURN JUMPDEST PUSH3 0x363 PUSH1 0x4 DUP1 CALLDATASIZE SUB DUP2 ADD SWAP1 PUSH3 0x35D SWAP2 SWAP1 PUSH3 0x3288 JUMP JUMPDEST PUSH3 0x9E3 JUMP JUMPDEST STOP JUMPDEST PUSH3 0x36F PUSH3 0x150E JUMP JUMPDEST PUSH1 0x40 MLOAD PUSH3 0x37E SWAP2 SWAP1 PUSH3 0x2CF5 JUMP JUMPDEST PUSH1 0x40 MLOAD DUP1 SWAP2 SUB SWAP1 RETURN JUMPDEST PUSH3 0x3A5 PUSH1 0x4 DUP1 CALLDATASIZE SUB DUP2 ADD SWAP1 PUSH3 0x39F SWAP2 SWAP1 PUSH3 0x333E JUMP JUMPDEST PUSH3 0x1514 JUMP JUMPDEST STOP JUMPDEST PUSH3 0x3B1 PUSH3 0x15BF JUMP JUMPDEST PUSH1 0x40 MLOAD PUSH3 0x3C0 SWAP2 SWAP1 PUSH3 0x2CF5 JUMP JUMPDEST PUSH1 0x40 MLOAD DUP1 SWAP2 SUB SWAP1 RETURN JUMPDEST PUSH3 0x3E7 PUSH1 0x4 DUP1 CALLDATASIZE SUB DUP2 ADD SWAP1 PUSH3 0x3E1 SWAP2 SWAP1 PUSH3 0x3385 JUMP JUMPDEST PUSH3 0x15CC JUMP JUMPDEST PUSH1 0x40 MLOAD PUSH3 0x3F6 SWAP2 SWAP1 PUSH3 0x3422 JUMP JUMPDEST PUSH1 0x40 MLOAD DUP1 SWAP2 SUB SWAP1 RETURN JUMPDEST PUSH3 0x409 PUSH3 0x15FF JUMP JUMPDEST PUSH1 0x40 MLOAD PUSH3 0x418 SWAP2 SWAP1 PUSH3 0x2BE6 JUMP JUMPDEST PUSH1 0x40 MLOAD DUP1 SWAP2 SUB SWAP1 RETURN JUMPDEST PUSH3 0x43F PUSH1 0x4 DUP1 CALLDATASIZE SUB DUP2 ADD SWAP1 PUSH3 0x439 SWAP2 SWAP1 PUSH3 0x333E JUMP JUMPDEST PUSH3 0x1616 JUMP JUMPDEST STOP JUMPDEST PUSH3 0x45F PUSH1 0x4 DUP1 CALLDATASIZE SUB DUP2 ADD SWAP1 PUSH3 0x459 SWAP2 SWAP1 PUSH3 0x3385 JUMP JUMPDEST PUSH3 0x173D JUMP JUMPDEST PUSH1 0x40 MLOAD PUSH3 0x46E SWAP2 SWAP1 PUSH3 0x2BE6 JUMP JUMPDEST PUSH1 0x40 MLOAD DUP1 SWAP2 SUB SWAP1 RETURN JUMPDEST PUSH3 0x481 PUSH3 0x175D JUMP JUMPDEST STOP JUMPDEST PUSH3 0x48D PUSH3 0x1775 JUMP JUMPDEST PUSH1 0x40 MLOAD PUSH3 0x49C SWAP2 SWAP1 PUSH3 0x2CF5 JUMP JUMPDEST PUSH1 0x40 MLOAD DUP1 SWAP2 SUB SWAP1 RETURN JUMPDEST PUSH3 0x4AF PUSH3 0x177B JUMP JUMPDEST PUSH1 0x40 MLOAD PUSH3 0x4BE SWAP2 SWAP1 PUSH3 0x2CF5 JUMP JUMPDEST PUSH1 0x40 MLOAD DUP1 SWAP2 SUB SWAP1 RETURN JUMPDEST PUSH3 0x4E5 PUSH1 0x4 DUP1 CALLDATASIZE SUB DUP2 ADD SWAP1 PUSH3 0x4DF SWAP2 SWAP1 PUSH3 0x3385 JUMP JUMPDEST PUSH3 0x1783 JUMP JUMPDEST PUSH1 0x40 MLOAD PUSH3 0x4F4 SWAP2 SWAP1 PUSH3 0x2CF5 JUMP JUMPDEST PUSH1 0x40 MLOAD DUP1 SWAP2 SUB SWAP1 RETURN JUMPDEST PUSH3 0x507 PUSH3 0x179B JUMP JUMPDEST PUSH1 0x40 MLOAD PUSH3 0x516 SWAP2 SWAP1 PUSH3 0x2CC7 JUMP JUMPDEST PUSH1 0x40 MLOAD DUP1 SWAP2 SUB SWAP1 RETURN JUMPDEST PUSH3 0x529 PUSH3 0x17C4 JUMP JUMPDEST PUSH1 0x40 MLOAD PUSH3 0x538 SWAP2 SWAP1 PUSH3 0x2CC7 JUMP JUMPDEST PUSH1 0x40 MLOAD DUP1 SWAP2 SUB SWAP1 RETURN JUMPDEST PUSH3 0x55F PUSH1 0x4 DUP1 CALLDATASIZE SUB DUP2 ADD SWAP1 PUSH3 0x559 SWAP2 SWAP1 PUSH3 0x3385 JUMP JUMPDEST PUSH3 0x17E8 JUMP JUMPDEST PUSH1 0x40 MLOAD PUSH3 0x56E SWAP2 SWAP1 PUSH3 0x2BE6 JUMP JUMPDEST PUSH1 0x40 MLOAD DUP1 SWAP2 SUB SWAP1 RETURN JUMPDEST PUSH3 0x595 PUSH1 0x4 DUP1 CALLDATASIZE SUB DUP2 ADD SWAP1 PUSH3 0x58F SWAP2 SWAP1 PUSH3 0x333E JUMP JUMPDEST PUSH3 0x1808 JUMP JUMPDEST STOP JUMPDEST PUSH3 0x5B5 PUSH1 0x4 DUP1 CALLDATASIZE SUB DUP2 ADD SWAP1 PUSH3 0x5AF SWAP2 SWAP1 PUSH3 0x3385 JUMP JUMPDEST PUSH3 0x18B3 JUMP JUMPDEST PUSH1 0x40 MLOAD PUSH3 0x5C4 SWAP2 SWAP1 PUSH3 0x2BE6 JUMP JUMPDEST PUSH1 0x40 MLOAD DUP1 SWAP2 SUB SWAP1 RETURN JUMPDEST PUSH3 0x5D7 PUSH3 0x18D3 JUMP JUMPDEST PUSH1 0x40 MLOAD PUSH3 0x5E6 SWAP2 SWAP1 PUSH3 0x2CF5 JUMP JUMPDEST PUSH1 0x40 MLOAD DUP1 SWAP2 SUB SWAP1 RETURN JUMPDEST PUSH3 0x60D PUSH1 0x4 DUP1 CALLDATASIZE SUB DUP2 ADD SWAP1 PUSH3 0x607 SWAP2 SWAP1 PUSH3 0x343F JUMP JUMPDEST PUSH3 0x18D9 JUMP JUMPDEST STOP JUMPDEST PUSH3 0x619 PUSH3 0x1955 JUMP JUMPDEST PUSH1 0x40 MLOAD PUSH3 0x628 SWAP2 SWAP1 PUSH3 0x2CF5 JUMP JUMPDEST PUSH1 0x40 MLOAD DUP1 SWAP2 SUB SWAP1 RETURN JUMPDEST PUSH3 0x64F PUSH1 0x4 DUP1 CALLDATASIZE SUB DUP2 ADD SWAP1 PUSH3 0x649 SWAP2 SWAP1 PUSH3 0x2D12 JUMP JUMPDEST PUSH3 0x195A JUMP JUMPDEST PUSH1 0x40 MLOAD PUSH3 0x65E SWAP2 SWAP1 PUSH3 0x2CC7 JUMP JUMPDEST PUSH1 0x40 MLOAD DUP1 SWAP2 SUB SWAP1 RETURN JUMPDEST PUSH3 0x671 PUSH3 0x199A JUMP JUMPDEST PUSH1 0x40 MLOAD PUSH3 0x680 SWAP2 SWAP1 PUSH3 0x3496 JUMP JUMPDEST PUSH1 0x40 MLOAD DUP1 SWAP2 SUB SWAP1 RETURN JUMPDEST PUSH3 0x6A7 PUSH1 0x4 DUP1 CALLDATASIZE SUB DUP2 ADD SWAP1 PUSH3 0x6A1 SWAP2 SWAP1 PUSH3 0x2D12 JUMP JUMPDEST PUSH3 0x19C0 JUMP JUMPDEST STOP JUMPDEST PUSH3 0x6C7 PUSH1 0x4 DUP1 CALLDATASIZE SUB DUP2 ADD SWAP1 PUSH3 0x6C1 SWAP2 SWAP1 PUSH3 0x2D12 JUMP JUMPDEST PUSH3 0x1A19 JUMP JUMPDEST STOP JUMPDEST PUSH3 0x6E7 PUSH1 0x4 DUP1 CALLDATASIZE SUB DUP2 ADD SWAP1 PUSH3 0x6E1 SWAP2 SWAP1 PUSH3 0x3385 JUMP JUMPDEST PUSH3 0x1AB9 JUMP JUMPDEST STOP JUMPDEST PUSH3 0x707 PUSH1 0x4 DUP1 CALLDATASIZE SUB DUP2 ADD SWAP1 PUSH3 0x701 SWAP2 SWAP1 PUSH3 0x34B3 JUMP JUMPDEST PUSH3 0x1B43 JUMP JUMPDEST STOP JUMPDEST PUSH3 0x713 PUSH3 0x1BB0 JUMP JUMPDEST PUSH3 0x71D PUSH3 0x1C35 JUMP JUMPDEST PUSH1 0x0 PUSH1 0xC PUSH1 0x0 SWAP1 SLOAD SWAP1 PUSH2 0x100 EXP SWAP1 DIV PUSH20 0xFFFFFFFFFFFFFFFFFFFFFFFFFFFFFFFFFFFFFFFF AND SWAP1 POP DUP2 PUSH1 0xC PUSH1 0x0 PUSH2 0x100 EXP DUP2 SLOAD DUP2 PUSH20 0xFFFFFFFFFFFFFFFFFFFFFFFFFFFFFFFFFFFFFFFF MUL NOT AND SWAP1 DUP4 PUSH20 0xFFFFFFFFFFFFFFFFFFFFFFFFFFFFFFFFFFFFFFFF AND MUL OR SWAP1 SSTORE POP PUSH32 0x8E68ED0ED26D2AA6BCA301133B429D046E7ADD45CB19160E3DCEDD714271DDAA PUSH1 0xC PUSH1 0x0 SWAP1 SLOAD SWAP1 PUSH2 0x100 EXP SWAP1 DIV PUSH20 0xFFFFFFFFFFFFFFFFFFFFFFFFFFFFFFFFFFFFFFFF AND DUP3 PUSH1 0x40 MLOAD PUSH3 0x7DA SWAP3 SWAP2 SWAP1 PUSH3 0x34FA JUMP JUMPDEST PUSH1 0x40 MLOAD DUP1 SWAP2 SUB SWAP1 LOG1 POP POP JUMP JUMPDEST PUSH1 0x0 PUSH1 0x14 SWAP1 SLOAD SWAP1 PUSH2 0x100 EXP SWAP1 DIV PUSH1 0xFF AND DUP2 JUMP JUMPDEST PUSH3 0x804 CALLER PUSH3 0x1C83 JUMP JUMPDEST PUSH3 0x846 JUMPI PUSH1 0x40 MLOAD PUSH32 0x8C379A000000000000000000000000000000000000000000000000000000000 DUP2 MSTORE PUSH1 0x4 ADD PUSH3 0x83D SWAP1 PUSH3 0x3588 JUMP JUMPDEST PUSH1 0x40 MLOAD DUP1 SWAP2 SUB SWAP1 REVERT JUMPDEST DUP1 PUSH1 0xE PUSH1 0x0 DUP5 PUSH20 0xFFFFFFFFFFFFFFFFFFFFFFFFFFFFFFFFFFFFFFFF AND PUSH20 0xFFFFFFFFFFFFFFFFFFFFFFFFFFFFFFFFFFFFFFFF AND DUP2 MSTORE PUSH1 0x20 ADD SWAP1 DUP2 MSTORE PUSH1 0x20 ADD PUSH1 0x0 KECCAK256 PUSH1 0x0 DUP3 DUP3 SLOAD PUSH3 0x897 SWAP2 SWAP1 PUSH3 0x35D9 JUMP JUMPDEST SWAP3 POP POP DUP2 SWAP1 SSTORE POP CALLER PUSH20 0xFFFFFFFFFFFFFFFFFFFFFFFFFFFFFFFFFFFFFFFF AND PUSH32 0x338C545A8E5E070C15914ACA67D4BEA288F89DF50423C4D0A30D7B7820AB20D4 DUP3 PUSH1 0x40 MLOAD PUSH3 0x8E6 SWAP2 SWAP1 PUSH3 0x2CF5 JUMP JUMPDEST PUSH1 0x40 MLOAD DUP1 SWAP2 SUB SWAP1 LOG2 POP POP JUMP JUMPDEST PUSH32 0x0 DUP2 JUMP JUMPDEST PUSH1 0xA SLOAD DUP2 JUMP JUMPDEST PUSH3 0x926 PUSH3 0x1BB0 JUMP JUMPDEST PUSH1 0x0 PUSH1 0x4 SLOAD SWAP1 POP DUP2 PUSH1 0x4 DUP2 SWAP1 SSTORE POP PUSH32 0x30E4F9C7F8A1AF88BE510044D9C65E449FF53FD41DAF3BEAB41C740C2CC9B121 PUSH1 0x4 SLOAD DUP3 PUSH1 0x40 MLOAD PUSH3 0x969 SWAP3 SWAP2 SWAP1 PUSH3 0x3614 JUMP JUMPDEST PUSH1 0x40 MLOAD DUP1 SWAP2 SUB SWAP1 LOG1 POP POP JUMP JUMPDEST PUSH3 0x97F PUSH3 0x1BB0 JUMP JUMPDEST PUSH3 0x995 PUSH3 0x98D PUSH3 0x179B JUMP JUMPDEST DUP4 DUP4 PUSH3 0x1D5F JUMP JUMPDEST PUSH32 0xFCEE77AEE7D834C3616E216F4B062DBCEC802E05A967A6F76CD63A5765496043 PUSH3 0x9C0 PUSH3 0x179B JUMP JUMPDEST DUP4 PUSH1 0x40 MLOAD PUSH3 0x9D1 SWAP3 SWAP2 SWAP1 PUSH3 0x3641 JUMP JUMPDEST PUSH1 0x40 MLOAD DUP1 SWAP2 SUB SWAP1 LOG1 POP POP JUMP JUMPDEST PUSH1 0x9 SLOAD DUP2 JUMP JUMPDEST PUSH3 0x9ED PUSH3 0x1F0C JUMP JUMPDEST PUSH3 0xA2F JUMPI PUSH1 0x40 MLOAD PUSH32 0x8C379A000000000000000000000000000000000000000000000000000000000 DUP2 MSTORE PUSH1 0x4 ADD PUSH3 0xA26 SWAP1 PUSH3 0x36BE JUMP JUMPDEST PUSH1 0x40 MLOAD DUP1 SWAP2 SUB SWAP1 REVERT JUMPDEST DUP1 PUSH1 0x9 SLOAD DUP2 MLOAD LT ISZERO PUSH3 0xA79 JUMPI PUSH1 0x40 MLOAD PUSH32 0x8C379A000000000000000000000000000000000000000000000000000000000 DUP2 MSTORE PUSH1 0x4 ADD PUSH3 0xA70 SWAP1 PUSH3 0x3730 JUMP JUMPDEST PUSH1 0x40 MLOAD DUP1 SWAP2 SUB SWAP1 REVERT JUMPDEST PUSH1 0xA SLOAD DUP2 MLOAD GT ISZERO PUSH3 0xAC2 JUMPI PUSH1 0x40 MLOAD PUSH32 0x8C379A000000000000000000000000000000000000000000000000000000000 DUP2 MSTORE PUSH1 0x4 ADD PUSH3 0xAB9 SWAP1 PUSH3 0x37A2 JUMP JUMPDEST PUSH1 0x40 MLOAD DUP1 SWAP2 SUB SWAP1 REVERT JUMPDEST PUSH3 0xACC PUSH3 0x1F7F JUMP JUMPDEST PUSH1 0x0 PUSH1 0x7 DUP1 SLOAD SWAP1 POP SWAP1 POP PUSH1 0x0 CALLER SWAP1 POP PUSH3 0xAEA DUP6 PUSH1 0x40 ADD MLOAD PUSH3 0x1FCE JUMP JUMPDEST PUSH3 0xB2C JUMPI PUSH1 0x40 MLOAD PUSH32 0x8C379A000000000000000000000000000000000000000000000000000000000 DUP2 MSTORE PUSH1 0x4 ADD PUSH3 0xB23 SWAP1 PUSH3 0x3814 JUMP JUMPDEST PUSH1 0x40 MLOAD DUP1 SWAP2 SUB SWAP1 REVERT JUMPDEST PUSH3 0xB3E DUP5 TIMESTAMP PUSH1 0x9 SLOAD PUSH1 0xA SLOAD PUSH3 0x205D JUMP JUMPDEST PUSH1 0x0 PUSH20 0xFFFFFFFFFFFFFFFFFFFFFFFFFFFFFFFFFFFFFFFF AND DUP6 PUSH1 0x0 ADD MLOAD PUSH20 0xFFFFFFFFFFFFFFFFFFFFFFFFFFFFFFFFFFFFFFFF AND SUB PUSH3 0xBF5 JUMPI PUSH3 0xBB8 PUSH32 0x0 PUSH20 0xFFFFFFFFFFFFFFFFFFFFFFFFFFFFFFFFFFFFFFFF AND PUSH3 0x21DC JUMP JUMPDEST DUP6 PUSH1 0x0 ADD SWAP1 PUSH20 0xFFFFFFFFFFFFFFFFFFFFFFFFFFFFFFFFFFFFFFFF AND SWAP1 DUP2 PUSH20 0xFFFFFFFFFFFFFFFFFFFFFFFFFFFFFFFFFFFFFFFF AND DUP2 MSTORE POP POP PUSH3 0xC05 JUMP JUMPDEST PUSH3 0xC04 DUP6 PUSH1 0x0 ADD MLOAD PUSH3 0x22B3 JUMP JUMPDEST JUMPDEST PUSH1 0x0 PUSH20 0xFFFFFFFFFFFFFFFFFFFFFFFFFFFFFFFFFFFFFFFF AND DUP6 PUSH1 0x20 ADD MLOAD PUSH20 0xFFFFFFFFFFFFFFFFFFFFFFFFFFFFFFFFFFFFFFFF AND SUB PUSH3 0xCC4 JUMPI PUSH1 0x0 DUP6 PUSH1 0x60 ADD MLOAD DUP7 PUSH1 0x80 ADD MLOAD PUSH1 0x40 MLOAD PUSH3 0xC58 SWAP1 PUSH3 0x2AFC JUMP JUMPDEST PUSH3 0xC65 SWAP3 SWAP2 SWAP1 PUSH3 0x38AE JUMP JUMPDEST PUSH1 0x40 MLOAD DUP1 SWAP2 SUB SWAP1 PUSH1 0x0 CREATE DUP1 ISZERO DUP1 ISZERO PUSH3 0xC82 JUMPI RETURNDATASIZE PUSH1 0x0 DUP1 RETURNDATACOPY RETURNDATASIZE PUSH1 0x0 REVERT JUMPDEST POP SWAP1 POP DUP1 DUP7 PUSH1 0x20 ADD SWAP1 PUSH20 0xFFFFFFFFFFFFFFFFFFFFFFFFFFFFFFFFFFFFFFFF AND SWAP1 DUP2 PUSH20 0xFFFFFFFFFFFFFFFFFFFFFFFFFFFFFFFFFFFFFFFF AND DUP2 MSTORE POP POP POP PUSH3 0xCD4 JUMP JUMPDEST PUSH3 0xCD3 DUP6 PUSH1 0x20 ADD MLOAD PUSH3 0x2442 JUMP JUMPDEST JUMPDEST PUSH1 0x0 DUP6 PUSH1 0x20 ADD MLOAD SWAP1 POP ADDRESS PUSH20 0xFFFFFFFFFFFFFFFFFFFFFFFFFFFFFFFFFFFFFFFF AND DUP2 PUSH20 0xFFFFFFFFFFFFFFFFFFFFFFFFFFFFFFFFFFFFFFFF AND PUSH4 0x893D20E8 PUSH1 0x40 MLOAD DUP2 PUSH4 0xFFFFFFFF AND PUSH1 0xE0 SHL DUP2 MSTORE PUSH1 0x4 ADD PUSH1 0x20 PUSH1 0x40 MLOAD DUP1 DUP4 SUB DUP2 DUP7 GAS STATICCALL ISZERO DUP1 ISZERO PUSH3 0xD40 JUMPI RETURNDATASIZE PUSH1 0x0 DUP1 RETURNDATACOPY RETURNDATASIZE PUSH1 0x0 REVERT JUMPDEST POP POP POP POP PUSH1 0x40 MLOAD RETURNDATASIZE PUSH1 0x1F NOT PUSH1 0x1F DUP3 ADD AND DUP3 ADD DUP1 PUSH1 0x40 MSTORE POP DUP2 ADD SWAP1 PUSH3 0xD66 SWAP2 SWAP1 PUSH3 0x3900 JUMP JUMPDEST PUSH20 0xFFFFFFFFFFFFFFFFFFFFFFFFFFFFFFFFFFFFFFFF AND EQ PUSH3 0xDBF JUMPI PUSH1 0x40 MLOAD PUSH32 0x8C379A000000000000000000000000000000000000000000000000000000000 DUP2 MSTORE PUSH1 0x4 ADD PUSH3 0xDB6 SWAP1 PUSH3 0x39A8 JUMP JUMPDEST PUSH1 0x40 MLOAD DUP1 SWAP2 SUB SWAP1 REVERT JUMPDEST PUSH1 0x0 PUSH3 0xE02 PUSH32 0x0 PUSH20 0xFFFFFFFFFFFFFFFFFFFFFFFFFFFFFFFFFFFFFFFF AND PUSH3 0x21DC JUMP JUMPDEST SWAP1 POP DUP7 PUSH1 0x0 ADD MLOAD PUSH20 0xFFFFFFFFFFFFFFFFFFFFFFFFFFFFFFFFFFFFFFFF AND PUSH4 0xC4D66DE8 DUP3 PUSH1 0x40 MLOAD DUP3 PUSH4 0xFFFFFFFF AND PUSH1 0xE0 SHL DUP2 MSTORE PUSH1 0x4 ADD PUSH3 0xE43 SWAP2 SWAP1 PUSH3 0x2CC7 JUMP JUMPDEST PUSH1 0x0 PUSH1 0x40 MLOAD DUP1 DUP4 SUB DUP2 PUSH1 0x0 DUP8 DUP1 EXTCODESIZE ISZERO DUP1 ISZERO PUSH3 0xE5E JUMPI PUSH1 0x0 DUP1 REVERT JUMPDEST POP GAS CALL ISZERO DUP1 ISZERO PUSH3 0xE73 JUMPI RETURNDATASIZE PUSH1 0x0 DUP1 RETURNDATACOPY RETURNDATASIZE PUSH1 0x0 REVERT JUMPDEST POP POP POP POP DUP1 PUSH20 0xFFFFFFFFFFFFFFFFFFFFFFFFFFFFFFFFFFFFFFFF AND DUP8 PUSH1 0x0 ADD MLOAD PUSH20 0xFFFFFFFFFFFFFFFFFFFFFFFFFFFFFFFFFFFFFFFF AND PUSH4 0x893D20E8 PUSH1 0x40 MLOAD DUP2 PUSH4 0xFFFFFFFF AND PUSH1 0xE0 SHL DUP2 MSTORE PUSH1 0x4 ADD PUSH1 0x20 PUSH1 0x40 MLOAD DUP1 DUP4 SUB DUP2 DUP7 GAS STATICCALL ISZERO DUP1 ISZERO PUSH3 0xEDE JUMPI RETURNDATASIZE PUSH1 0x0 DUP1 RETURNDATACOPY RETURNDATASIZE PUSH1 0x0 REVERT JUMPDEST POP POP POP POP PUSH1 0x40 MLOAD RETURNDATASIZE PUSH1 0x1F NOT PUSH1 0x1F DUP3 ADD AND DUP3 ADD DUP1 PUSH1 0x40 MSTORE POP DUP2 ADD SWAP1 PUSH3 0xF04 SWAP2 SWAP1 PUSH3 0x3900 JUMP JUMPDEST PUSH20 0xFFFFFFFFFFFFFFFFFFFFFFFFFFFFFFFFFFFFFFFF AND EQ PUSH3 0xF5D JUMPI PUSH1 0x40 MLOAD PUSH32 0x8C379A000000000000000000000000000000000000000000000000000000000 DUP2 MSTORE PUSH1 0x4 ADD PUSH3 0xF54 SWAP1 PUSH3 0x3A1A JUMP JUMPDEST PUSH1 0x40 MLOAD DUP1 SWAP2 SUB SWAP1 REVERT JUMPDEST PUSH1 0x0 PUSH1 0x40 MLOAD DUP1 PUSH2 0x120 ADD PUSH1 0x40 MSTORE DUP1 DUP6 PUSH20 0xFFFFFFFFFFFFFFFFFFFFFFFFFFFFFFFFFFFFFFFF AND DUP2 MSTORE PUSH1 0x20 ADD DUP10 PUSH1 0x0 ADD MLOAD PUSH20 0xFFFFFFFFFFFFFFFFFFFFFFFFFFFFFFFFFFFFFFFF AND DUP2 MSTORE PUSH1 0x20 ADD DUP9 DUP2 MSTORE PUSH1 0x20 ADD DUP5 PUSH20 0xFFFFFFFFFFFFFFFFFFFFFFFFFFFFFFFFFFFFFFFF AND DUP2 MSTORE PUSH1 0x20 ADD PUSH3 0xFD3 PUSH3 0x25A1 JUMP JUMPDEST DUP2 MSTORE PUSH1 0x20 ADD DUP10 PUSH1 0xA0 ADD MLOAD DUP2 MSTORE PUSH1 0x20 ADD PUSH1 0x3 SLOAD DUP2 MSTORE PUSH1 0x20 ADD PUSH1 0x4 SLOAD DUP2 MSTORE PUSH1 0x20 ADD DUP10 PUSH1 0x40 ADD MLOAD PUSH20 0xFFFFFFFFFFFFFFFFFFFFFFFFFFFFFFFFFFFFFFFF AND DUP2 MSTORE POP SWAP1 POP DUP2 PUSH20 0xFFFFFFFFFFFFFFFFFFFFFFFFFFFFFFFFFFFFFFFF AND PUSH4 0xF4AC5458 DUP3 PUSH1 0x40 MLOAD DUP3 PUSH4 0xFFFFFFFF AND PUSH1 0xE0 SHL DUP2 MSTORE PUSH1 0x4 ADD PUSH3 0x104D SWAP2 SWAP1 PUSH3 0x3D98 JUMP JUMPDEST PUSH1 0x0 PUSH1 0x40 MLOAD DUP1 DUP4 SUB DUP2 PUSH1 0x0 DUP8 DUP1 EXTCODESIZE ISZERO DUP1 ISZERO PUSH3 0x1068 JUMPI PUSH1 0x0 DUP1 REVERT JUMPDEST POP GAS CALL ISZERO DUP1 ISZERO PUSH3 0x107D JUMPI RETURNDATASIZE PUSH1 0x0 DUP1 RETURNDATACOPY RETURNDATASIZE PUSH1 0x0 REVERT JUMPDEST POP POP POP POP DUP4 PUSH20 0xFFFFFFFFFFFFFFFFFFFFFFFFFFFFFFFFFFFFFFFF AND DUP3 PUSH20 0xFFFFFFFFFFFFFFFFFFFFFFFFFFFFFFFFFFFFFFFF AND PUSH4 0x893D20E8 PUSH1 0x40 MLOAD DUP2 PUSH4 0xFFFFFFFF AND PUSH1 0xE0 SHL DUP2 MSTORE PUSH1 0x4 ADD PUSH1 0x20 PUSH1 0x40 MLOAD DUP1 DUP4 SUB DUP2 DUP7 GAS STATICCALL ISZERO DUP1 ISZERO PUSH3 0x10E4 JUMPI RETURNDATASIZE PUSH1 0x0 DUP1 RETURNDATACOPY RETURNDATASIZE PUSH1 0x0 REVERT JUMPDEST POP POP POP POP PUSH1 0x40 MLOAD RETURNDATASIZE PUSH1 0x1F NOT PUSH1 0x1F DUP3 ADD AND DUP3 ADD DUP1 PUSH1 0x40 MSTORE POP DUP2 ADD SWAP1 PUSH3 0x110A SWAP2 SWAP1 PUSH3 0x3900 JUMP JUMPDEST PUSH20 0xFFFFFFFFFFFFFFFFFFFFFFFFFFFFFFFFFFFFFFFF AND EQ PUSH3 0x1163 JUMPI PUSH1 0x40 MLOAD PUSH32 0x8C379A000000000000000000000000000000000000000000000000000000000 DUP2 MSTORE PUSH1 0x4 ADD PUSH3 0x115A SWAP1 PUSH3 0x3E0C JUMP JUMPDEST PUSH1 0x40 MLOAD DUP1 SWAP2 SUB SWAP1 REVERT JUMPDEST DUP2 PUSH1 0x5 PUSH1 0x0 DUP5 PUSH20 0xFFFFFFFFFFFFFFFFFFFFFFFFFFFFFFFFFFFFFFFF AND PUSH20 0xFFFFFFFFFFFFFFFFFFFFFFFFFFFFFFFFFFFFFFFF AND DUP2 MSTORE PUSH1 0x20 ADD SWAP1 DUP2 MSTORE PUSH1 0x20 ADD PUSH1 0x0 KECCAK256 PUSH1 0x0 PUSH2 0x100 EXP DUP2 SLOAD DUP2 PUSH20 0xFFFFFFFFFFFFFFFFFFFFFFFFFFFFFFFFFFFFFFFF MUL NOT AND SWAP1 DUP4 PUSH20 0xFFFFFFFFFFFFFFFFFFFFFFFFFFFFFFFFFFFFFFFF AND MUL OR SWAP1 SSTORE POP PUSH1 0x7 DUP3 SWAP1 DUP1 PUSH1 0x1 DUP2 SLOAD ADD DUP1 DUP3 SSTORE DUP1 SWAP2 POP POP PUSH1 0x1 SWAP1 SUB SWAP1 PUSH1 0x0 MSTORE PUSH1 0x20 PUSH1 0x0 KECCAK256 ADD PUSH1 0x0 SWAP1 SWAP2 SWAP1 SWAP2 SWAP1 SWAP2 PUSH2 0x100 EXP DUP2 SLOAD DUP2 PUSH20 0xFFFFFFFFFFFFFFFFFFFFFFFFFFFFFFFFFFFFFFFF MUL NOT AND SWAP1 DUP4 PUSH20 0xFFFFFFFFFFFFFFFFFFFFFFFFFFFFFFFFFFFFFFFF AND MUL OR SWAP1 SSTORE POP DUP3 PUSH20 0xFFFFFFFFFFFFFFFFFFFFFFFFFFFFFFFFFFFFFFFF AND PUSH4 0xC3856DD5 DUP4 PUSH1 0x40 MLOAD DUP3 PUSH4 0xFFFFFFFF AND PUSH1 0xE0 SHL DUP2 MSTORE PUSH1 0x4 ADD PUSH3 0x127F SWAP2 SWAP1 PUSH3 0x3422 JUMP JUMPDEST PUSH1 0x0 PUSH1 0x40 MLOAD DUP1 DUP4 SUB DUP2 PUSH1 0x0 DUP8 DUP1 EXTCODESIZE ISZERO DUP1 ISZERO PUSH3 0x129A JUMPI PUSH1 0x0 DUP1 REVERT JUMPDEST POP GAS CALL ISZERO DUP1 ISZERO PUSH3 0x12AF JUMPI RETURNDATASIZE PUSH1 0x0 DUP1 RETURNDATACOPY RETURNDATASIZE PUSH1 0x0 REVERT JUMPDEST POP POP POP POP DUP3 PUSH20 0xFFFFFFFFFFFFFFFFFFFFFFFFFFFFFFFFFFFFFFFF AND PUSH4 0xDDFA156 DUP10 PUSH1 0xC0 ADD MLOAD PUSH1 0x40 MLOAD DUP3 PUSH4 0xFFFFFFFF AND PUSH1 0xE0 SHL DUP2 MSTORE PUSH1 0x4 ADD PUSH3 0x12F2 SWAP2 SWAP1 PUSH3 0x2CF5 JUMP JUMPDEST PUSH1 0x0 PUSH1 0x40 MLOAD DUP1 DUP4 SUB DUP2 PUSH1 0x0 DUP8 DUP1 EXTCODESIZE ISZERO DUP1 ISZERO PUSH3 0x130D JUMPI PUSH1 0x0 DUP1 REVERT JUMPDEST POP GAS CALL ISZERO DUP1 ISZERO PUSH3 0x1322 JUMPI RETURNDATASIZE PUSH1 0x0 DUP1 RETURNDATACOPY RETURNDATASIZE PUSH1 0x0 REVERT JUMPDEST POP POP POP POP DUP3 PUSH20 0xFFFFFFFFFFFFFFFFFFFFFFFFFFFFFFFFFFFFFFFF AND PUSH4 0x2AF4C31E DUP4 PUSH1 0x40 MLOAD DUP3 PUSH4 0xFFFFFFFF AND PUSH1 0xE0 SHL DUP2 MSTORE PUSH1 0x4 ADD PUSH3 0x1361 SWAP2 SWAP1 PUSH3 0x2CC7 JUMP JUMPDEST PUSH1 0x0 PUSH1 0x40 MLOAD DUP1 DUP4 SUB DUP2 PUSH1 0x0 DUP8 DUP1 EXTCODESIZE ISZERO DUP1 ISZERO PUSH3 0x137C JUMPI PUSH1 0x0 DUP1 REVERT JUMPDEST POP GAS CALL ISZERO DUP1 ISZERO PUSH3 0x1391 JUMPI RETURNDATASIZE PUSH1 0x0 DUP1 RETURNDATACOPY RETURNDATASIZE PUSH1 0x0 REVERT JUMPDEST POP POP POP POP DUP2 PUSH20 0xFFFFFFFFFFFFFFFFFFFFFFFFFFFFFFFFFFFFFFFF AND DUP4 PUSH20 0xFFFFFFFFFFFFFFFFFFFFFFFFFFFFFFFFFFFFFFFF AND PUSH4 0x893D20E8 PUSH1 0x40 MLOAD DUP2 PUSH4 0xFFFFFFFF AND PUSH1 0xE0 SHL DUP2 MSTORE PUSH1 0x4 ADD PUSH1 0x20 PUSH1 0x40 MLOAD DUP1 DUP4 SUB DUP2 DUP7 GAS STATICCALL ISZERO DUP1 ISZERO PUSH3 0x13F8 JUMPI RETURNDATASIZE PUSH1 0x0 DUP1 RETURNDATACOPY RETURNDATASIZE PUSH1 0x0 REVERT JUMPDEST POP POP POP POP PUSH1 0x40 MLOAD RETURNDATASIZE PUSH1 0x1F NOT PUSH1 0x1F DUP3 ADD AND DUP3 ADD DUP1 PUSH1 0x40 MSTORE POP DUP2 ADD SWAP1 PUSH3 0x141E SWAP2 SWAP1 PUSH3 0x3900 JUMP JUMPDEST PUSH20 0xFFFFFFFFFFFFFFFFFFFFFFFFFFFFFFFFFFFFFFFF AND EQ PUSH3 0x1477 JUMPI PUSH1 0x40 MLOAD PUSH32 0x8C379A000000000000000000000000000000000000000000000000000000000 DUP2 MSTORE PUSH1 0x4 ADD PUSH3 0x146E SWAP1 PUSH3 0x3EA4 JUMP JUMPDEST PUSH1 0x40 MLOAD DUP1 SWAP2 SUB SWAP1 REVERT JUMPDEST DUP8 PUSH1 0x0 ADD MLOAD PUSH20 0xFFFFFFFFFFFFFFFFFFFFFFFFFFFFFFFFFFFFFFFF AND DUP3 PUSH20 0xFFFFFFFFFFFFFFFFFFFFFFFFFFFFFFFFFFFFFFFF AND DUP7 PUSH32 0x768CA9A2690BB4DCDC8A76E37A297710292C25EA0D2C6A19F1A60A667CE486BC DUP11 MLOAD DUP13 PUSH1 0x20 ADD MLOAD DUP14 PUSH1 0x60 ADD MLOAD DUP15 PUSH1 0x80 ADD MLOAD DUP16 PUSH1 0xC0 ADD MLOAD PUSH1 0x3 SLOAD PUSH1 0x4 SLOAD PUSH1 0x40 MLOAD PUSH3 0x14FC SWAP8 SWAP7 SWAP6 SWAP5 SWAP4 SWAP3 SWAP2 SWAP1 PUSH3 0x3EC6 JUMP JUMPDEST PUSH1 0x40 MLOAD DUP1 SWAP2 SUB SWAP1 LOG4 POP POP POP POP POP POP POP POP JUMP JUMPDEST PUSH1 0xD SLOAD DUP2 JUMP JUMPDEST PUSH3 0x151E PUSH3 0x1BB0 JUMP JUMPDEST DUP1 PUSH1 0x8 PUSH1 0x0 DUP5 PUSH20 0xFFFFFFFFFFFFFFFFFFFFFFFFFFFFFFFFFFFFFFFF AND PUSH20 0xFFFFFFFFFFFFFFFFFFFFFFFFFFFFFFFFFFFFFFFF AND DUP2 MSTORE PUSH1 0x20 ADD SWAP1 DUP2 MSTORE PUSH1 0x20 ADD PUSH1 0x0 KECCAK256 PUSH1 0x0 PUSH2 0x100 EXP DUP2 SLOAD DUP2 PUSH1 0xFF MUL NOT AND SWAP1 DUP4 ISZERO ISZERO MUL OR SWAP1 SSTORE POP DUP1 ISZERO ISZERO DUP3 PUSH20 0xFFFFFFFFFFFFFFFFFFFFFFFFFFFFFFFFFFFFFFFF AND PUSH32 0xCB27316E4C294DBD6259292315713CBA48B6D131E45979BEFC3657958CC5BAF7 PUSH1 0x40 MLOAD PUSH1 0x40 MLOAD DUP1 SWAP2 SUB SWAP1 LOG3 POP POP JUMP JUMPDEST PUSH1 0x0 PUSH1 0x7 DUP1 SLOAD SWAP1 POP SWAP1 POP SWAP1 JUMP JUMPDEST PUSH1 0x5 PUSH1 0x20 MSTORE DUP1 PUSH1 0x0 MSTORE PUSH1 0x40 PUSH1 0x0 KECCAK256 PUSH1 0x0 SWAP2 POP SLOAD SWAP1 PUSH2 0x100 EXP SWAP1 DIV PUSH20 0xFFFFFFFFFFFFFFFFFFFFFFFFFFFFFFFFFFFFFFFF AND DUP2 JUMP JUMPDEST PUSH1 0x0 PUSH1 0x2 PUSH1 0x0 SWAP1 SLOAD SWAP1 PUSH2 0x100 EXP SWAP1 DIV PUSH1 0xFF AND SWAP1 POP SWAP1 JUMP JUMPDEST PUSH3 0x1620 PUSH3 0x1BB0 JUMP JUMPDEST PUSH1 0x0 PUSH20 0xFFFFFFFFFFFFFFFFFFFFFFFFFFFFFFFFFFFFFFFF AND DUP3 PUSH20 0xFFFFFFFFFFFFFFFFFFFFFFFFFFFFFFFFFFFFFFFF AND SUB PUSH3 0x1692 JUMPI PUSH1 0x40 MLOAD PUSH32 0x8C379A000000000000000000000000000000000000000000000000000000000 DUP2 MSTORE PUSH1 0x4 ADD PUSH3 0x1689 SWAP1 PUSH3 0x3FA1 JUMP JUMPDEST PUSH1 0x40 MLOAD DUP1 SWAP2 SUB SWAP1 REVERT JUMPDEST DUP1 PUSH1 0x6 PUSH1 0x0 DUP5 PUSH20 0xFFFFFFFFFFFFFFFFFFFFFFFFFFFFFFFFFFFFFFFF AND PUSH20 0xFFFFFFFFFFFFFFFFFFFFFFFFFFFFFFFFFFFFFFFF AND DUP2 MSTORE PUSH1 0x20 ADD SWAP1 DUP2 MSTORE PUSH1 0x20 ADD PUSH1 0x0 KECCAK256 PUSH1 0x0 PUSH2 0x100 EXP DUP2 SLOAD DUP2 PUSH1 0xFF MUL NOT AND SWAP1 DUP4 ISZERO ISZERO MUL OR SWAP1 SSTORE POP DUP2 PUSH20 0xFFFFFFFFFFFFFFFFFFFFFFFFFFFFFFFFFFFFFFFF AND PUSH32 0x913EB45A6B9C0EEF201A0CA08BA90EF347AA5330972C612123A01DB6AEF5ADC3 DUP3 PUSH1 0x40 MLOAD PUSH3 0x1731 SWAP2 SWAP1 PUSH3 0x2BE6 JUMP JUMPDEST PUSH1 0x40 MLOAD DUP1 SWAP2 SUB SWAP1 LOG2 POP POP JUMP JUMPDEST PUSH1 0x1 PUSH1 0x20 MSTORE DUP1 PUSH1 0x0 MSTORE PUSH1 0x40 PUSH1 0x0 KECCAK256 PUSH1 0x0 SWAP2 POP SLOAD SWAP1 PUSH2 0x100 EXP SWAP1 DIV PUSH1 0xFF AND DUP2 JUMP JUMPDEST PUSH3 0x1767 PUSH3 0x1BB0 JUMP JUMPDEST PUSH3 0x1773 PUSH1 0x0 PUSH3 0x25AB JUMP JUMPDEST JUMP JUMPDEST PUSH1 0x4 SLOAD DUP2 JUMP JUMPDEST PUSH1 0x0 TIMESTAMP SWAP1 POP SWAP1 JUMP JUMPDEST PUSH1 0xE PUSH1 0x20 MSTORE DUP1 PUSH1 0x0 MSTORE PUSH1 0x40 PUSH1 0x0 KECCAK256 PUSH1 0x0 SWAP2 POP SWAP1 POP SLOAD DUP2 JUMP JUMPDEST PUSH1 0x0 DUP1 PUSH1 0x0 SWAP1 SLOAD SWAP1 PUSH2 0x100 EXP SWAP1 DIV PUSH20 0xFFFFFFFFFFFFFFFFFFFFFFFFFFFFFFFFFFFFFFFF AND SWAP1 POP SWAP1 JUMP JUMPDEST PUSH32 0x0 DUP2 JUMP JUMPDEST PUSH1 0x6 PUSH1 0x20 MSTORE DUP1 PUSH1 0x0 MSTORE PUSH1 0x40 PUSH1 0x0 KECCAK256 PUSH1 0x0 SWAP2 POP SLOAD SWAP1 PUSH2 0x100 EXP SWAP1 DIV PUSH1 0xFF AND DUP2 JUMP JUMPDEST PUSH3 0x1812 PUSH3 0x1BB0 JUMP JUMPDEST DUP1 PUSH1 0x1 PUSH1 0x0 DUP5 PUSH20 0xFFFFFFFFFFFFFFFFFFFFFFFFFFFFFFFFFFFFFFFF AND PUSH20 0xFFFFFFFFFFFFFFFFFFFFFFFFFFFFFFFFFFFFFFFF AND DUP2 MSTORE PUSH1 0x20 ADD SWAP1 DUP2 MSTORE PUSH1 0x20 ADD PUSH1 0x0 KECCAK256 PUSH1 0x0 PUSH2 0x100 EXP DUP2 SLOAD DUP2 PUSH1 0xFF MUL NOT AND SWAP1 DUP4 ISZERO ISZERO MUL OR SWAP1 SSTORE POP DUP1 ISZERO ISZERO DUP3 PUSH20 0xFFFFFFFFFFFFFFFFFFFFFFFFFFFFFFFFFFFFFFFF AND PUSH32 0x124A4100D72918C516EDD5DA571E325ECEACAB225AB7B85C8496D70C638D4F50 PUSH1 0x40 MLOAD PUSH1 0x40 MLOAD DUP1 SWAP2 SUB SWAP1 LOG3 POP POP JUMP JUMPDEST PUSH1 0x8 PUSH1 0x20 MSTORE DUP1 PUSH1 0x0 MSTORE PUSH1 0x40 PUSH1 0x0 KECCAK256 PUSH1 0x0 SWAP2 POP SLOAD SWAP1 PUSH2 0x100 EXP SWAP1 DIV PUSH1 0xFF AND DUP2 JUMP JUMPDEST PUSH1 0x3 SLOAD DUP2 JUMP JUMPDEST PUSH3 0x18E3 PUSH3 0x1BB0 JUMP JUMPDEST PUSH1 0x0 DUP1 PUSH1 0x14 SWAP1 SLOAD SWAP1 PUSH2 0x100 EXP SWAP1 DIV PUSH1 0xFF AND SWAP1 POP DUP2 PUSH1 0x0 PUSH1 0x14 PUSH2 0x100 EXP DUP2 SLOAD DUP2 PUSH1 0xFF MUL NOT AND SWAP1 DUP4 ISZERO ISZERO MUL OR SWAP1 SSTORE POP DUP1 ISZERO ISZERO PUSH1 0x0 PUSH1 0x14 SWAP1 SLOAD SWAP1 PUSH2 0x100 EXP SWAP1 DIV PUSH1 0xFF AND ISZERO ISZERO PUSH32 0x2E159CF7954F1C380C45A4213433DD148960788D130A7A9F6779391158F4EDF PUSH1 0x40 MLOAD PUSH1 0x40 MLOAD DUP1 SWAP2 SUB SWAP1 LOG3 POP POP JUMP JUMPDEST PUSH1 0x14 DUP2 JUMP JUMPDEST PUSH1 0x7 DUP2 DUP2 SLOAD DUP2 LT PUSH3 0x196B JUMPI PUSH1 0x0 DUP1 REVERT JUMPDEST SWAP1 PUSH1 0x0 MSTORE PUSH1 0x20 PUSH1 0x0 KECCAK256 ADD PUSH1 0x0 SWAP2 POP SLOAD SWAP1 PUSH2 0x100 EXP SWAP1 DIV PUSH20 0xFFFFFFFFFFFFFFFFFFFFFFFFFFFFFFFFFFFFFFFF AND DUP2 JUMP JUMPDEST PUSH1 0xC PUSH1 0x0 SWAP1 SLOAD SWAP1 PUSH2 0x100 EXP SWAP1 DIV PUSH20 0xFFFFFFFFFFFFFFFFFFFFFFFFFFFFFFFFFFFFFFFF AND DUP2 JUMP JUMPDEST PUSH3 0x19CA PUSH3 0x1BB0 JUMP JUMPDEST PUSH1 0x0 PUSH1 0x3 SLOAD SWAP1 POP DUP2 PUSH1 0x3 DUP2 SWAP1 SSTORE POP PUSH32 0x360D4EA951CCEA990CEDC596E311EEC2DD390CB74348C6C754F5BB0CF02ACF65 PUSH1 0x3 SLOAD DUP3 PUSH1 0x40 MLOAD PUSH3 0x1A0D SWAP3 SWAP2 SWAP1 PUSH3 0x3614 JUMP JUMPDEST PUSH1 0x40 MLOAD DUP1 SWAP2 SUB SWAP1 LOG1 POP POP JUMP JUMPDEST PUSH3 0x1A23 PUSH3 0x1BB0 JUMP JUMPDEST PUSH1 0x14 DUP2 GT ISZERO PUSH3 0x1A6A JUMPI PUSH1 0x40 MLOAD PUSH32 0x8C379A000000000000000000000000000000000000000000000000000000000 DUP2 MSTORE PUSH1 0x4 ADD PUSH3 0x1A61 SWAP1 PUSH3 0x4013 JUMP JUMPDEST PUSH1 0x40 MLOAD DUP1 SWAP2 SUB SWAP1 REVERT JUMPDEST PUSH1 0x0 PUSH1 0xD SLOAD SWAP1 POP DUP2 PUSH1 0xD DUP2 SWAP1 SSTORE POP PUSH32 0x307C6D665B2784039BCBC7A05EF46D165292101A54BD1FE037036F9EA96E7B69 DUP2 PUSH1 0xD SLOAD PUSH1 0x40 MLOAD PUSH3 0x1AAD SWAP3 SWAP2 SWAP1 PUSH3 0x3614 JUMP JUMPDEST PUSH1 0x40 MLOAD DUP1 SWAP2 SUB SWAP1 LOG1 POP POP JUMP JUMPDEST PUSH3 0x1AC3 PUSH3 0x1BB0 JUMP JUMPDEST PUSH1 0x0 PUSH20 0xFFFFFFFFFFFFFFFFFFFFFFFFFFFFFFFFFFFFFFFF AND DUP2 PUSH20 0xFFFFFFFFFFFFFFFFFFFFFFFFFFFFFFFFFFFFFFFF AND SUB PUSH3 0x1B35 JUMPI PUSH1 0x40 MLOAD PUSH32 0x8C379A000000000000000000000000000000000000000000000000000000000 DUP2 MSTORE PUSH1 0x4 ADD PUSH3 0x1B2C SWAP1 PUSH3 0x40AB JUMP JUMPDEST PUSH1 0x40 MLOAD DUP1 SWAP2 SUB SWAP1 REVERT JUMPDEST PUSH3 0x1B40 DUP2 PUSH3 0x25AB JUMP JUMPDEST POP JUMP JUMPDEST PUSH3 0x1B4D PUSH3 0x1BB0 JUMP JUMPDEST PUSH1 0x0 PUSH1 0x9 SLOAD SWAP1 POP PUSH1 0x0 PUSH1 0xA SLOAD SWAP1 POP DUP4 PUSH1 0x9 DUP2 SWAP1 SSTORE POP DUP3 PUSH1 0xA DUP2 SWAP1 SSTORE POP DUP1 DUP3 PUSH32 0x1855CFFD4CF3E4971FE04A2B5BF4826B4DD9DD64C752058388C6CC0FBB66C196 PUSH1 0x9 SLOAD PUSH1 0xA SLOAD PUSH1 0x40 MLOAD PUSH3 0x1BA2 SWAP3 SWAP2 SWAP1 PUSH3 0x3614 JUMP JUMPDEST PUSH1 0x40 MLOAD DUP1 SWAP2 SUB SWAP1 LOG3 POP POP POP POP JUMP JUMPDEST PUSH3 0x1BBA PUSH3 0x266F JUMP JUMPDEST PUSH20 0xFFFFFFFFFFFFFFFFFFFFFFFFFFFFFFFFFFFFFFFF AND PUSH3 0x1BDA PUSH3 0x179B JUMP JUMPDEST PUSH20 0xFFFFFFFFFFFFFFFFFFFFFFFFFFFFFFFFFFFFFFFF AND EQ PUSH3 0x1C33 JUMPI PUSH1 0x40 MLOAD PUSH32 0x8C379A000000000000000000000000000000000000000000000000000000000 DUP2 MSTORE PUSH1 0x4 ADD PUSH3 0x1C2A SWAP1 PUSH3 0x411D JUMP JUMPDEST PUSH1 0x40 MLOAD DUP1 SWAP2 SUB SWAP1 REVERT JUMPDEST JUMP JUMPDEST PUSH3 0x1C3F PUSH3 0x15FF JUMP JUMPDEST PUSH3 0x1C81 JUMPI PUSH1 0x40 MLOAD PUSH32 0x8C379A000000000000000000000000000000000000000000000000000000000 DUP2 MSTORE PUSH1 0x4 ADD PUSH3 0x1C78 SWAP1 PUSH3 0x418F JUMP JUMPDEST PUSH1 0x40 MLOAD DUP1 SWAP2 SUB SWAP1 REVERT JUMPDEST JUMP JUMPDEST PUSH1 0x0 DUP1 PUSH1 0x5 PUSH1 0x0 DUP5 PUSH20 0xFFFFFFFFFFFFFFFFFFFFFFFFFFFFFFFFFFFFFFFF AND PUSH20 0xFFFFFFFFFFFFFFFFFFFFFFFFFFFFFFFFFFFFFFFF AND DUP2 MSTORE PUSH1 0x20 ADD SWAP1 DUP2 MSTORE PUSH1 0x20 ADD PUSH1 0x0 KECCAK256 PUSH1 0x0 SWAP1 SLOAD SWAP1 PUSH2 0x100 EXP SWAP1 DIV PUSH20 0xFFFFFFFFFFFFFFFFFFFFFFFFFFFFFFFFFFFFFFFF AND PUSH20 0xFFFFFFFFFFFFFFFFFFFFFFFFFFFFFFFFFFFFFFFF AND PUSH4 0xF4390F02 PUSH1 0x40 MLOAD DUP2 PUSH4 0xFFFFFFFF AND PUSH1 0xE0 SHL DUP2 MSTORE PUSH1 0x4 ADD PUSH1 0x20 PUSH1 0x40 MLOAD DUP1 DUP4 SUB DUP2 DUP7 GAS STATICCALL ISZERO DUP1 ISZERO PUSH3 0x1D31 JUMPI RETURNDATASIZE PUSH1 0x0 DUP1 RETURNDATACOPY RETURNDATASIZE PUSH1 0x0 REVERT JUMPDEST POP POP POP POP PUSH1 0x40 MLOAD RETURNDATASIZE PUSH1 0x1F NOT PUSH1 0x1F DUP3 ADD AND DUP3 ADD DUP1 PUSH1 0x40 MSTORE POP DUP2 ADD SWAP1 PUSH3 0x1D57 SWAP2 SWAP1 PUSH3 0x41C8 JUMP JUMPDEST GT SWAP1 POP SWAP2 SWAP1 POP JUMP JUMPDEST DUP2 PUSH1 0xE PUSH1 0x0 DUP4 PUSH20 0xFFFFFFFFFFFFFFFFFFFFFFFFFFFFFFFFFFFFFFFF AND PUSH20 0xFFFFFFFFFFFFFFFFFFFFFFFFFFFFFFFFFFFFFFFF AND DUP2 MSTORE PUSH1 0x20 ADD SWAP1 DUP2 MSTORE PUSH1 0x20 ADD PUSH1 0x0 KECCAK256 SLOAD LT ISZERO PUSH3 0x1DE4 JUMPI PUSH1 0x40 MLOAD PUSH32 0x8C379A000000000000000000000000000000000000000000000000000000000 DUP2 MSTORE PUSH1 0x4 ADD PUSH3 0x1DDB SWAP1 PUSH3 0x424A JUMP JUMPDEST PUSH1 0x40 MLOAD DUP1 SWAP2 SUB SWAP1 REVERT JUMPDEST DUP2 PUSH1 0xE PUSH1 0x0 DUP4 PUSH20 0xFFFFFFFFFFFFFFFFFFFFFFFFFFFFFFFFFFFFFFFF AND PUSH20 0xFFFFFFFFFFFFFFFFFFFFFFFFFFFFFFFFFFFFFFFF AND DUP2 MSTORE PUSH1 0x20 ADD SWAP1 DUP2 MSTORE PUSH1 0x20 ADD PUSH1 0x0 KECCAK256 PUSH1 0x0 DUP3 DUP3 SLOAD PUSH3 0x1E35 SWAP2 SWAP1 PUSH3 0x426C JUMP JUMPDEST SWAP3 POP POP DUP2 SWAP1 SSTORE POP PUSH1 0x0 DUP2 PUSH20 0xFFFFFFFFFFFFFFFFFFFFFFFFFFFFFFFFFFFFFFFF AND PUSH4 0xA9059CBB DUP6 DUP6 PUSH1 0x40 MLOAD DUP4 PUSH4 0xFFFFFFFF AND PUSH1 0xE0 SHL DUP2 MSTORE PUSH1 0x4 ADD PUSH3 0x1E7B SWAP3 SWAP2 SWAP1 PUSH3 0x3641 JUMP JUMPDEST PUSH1 0x20 PUSH1 0x40 MLOAD DUP1 DUP4 SUB DUP2 PUSH1 0x0 DUP8 GAS CALL ISZERO DUP1 ISZERO PUSH3 0x1E9B JUMPI RETURNDATASIZE PUSH1 0x0 DUP1 RETURNDATACOPY RETURNDATASIZE PUSH1 0x0 REVERT JUMPDEST POP POP POP POP PUSH1 0x40 MLOAD RETURNDATASIZE PUSH1 0x1F NOT PUSH1 0x1F DUP3 ADD AND DUP3 ADD DUP1 PUSH1 0x40 MSTORE POP DUP2 ADD SWAP1 PUSH3 0x1EC1 SWAP2 SWAP1 PUSH3 0x42BE JUMP JUMPDEST SWAP1 POP DUP1 PUSH3 0x1F06 JUMPI PUSH1 0x40 MLOAD PUSH32 0x8C379A000000000000000000000000000000000000000000000000000000000 DUP2 MSTORE PUSH1 0x4 ADD PUSH3 0x1EFD SWAP1 PUSH3 0x4366 JUMP JUMPDEST PUSH1 0x40 MLOAD DUP1 SWAP2 SUB SWAP1 REVERT JUMPDEST POP POP POP POP JUMP JUMPDEST PUSH1 0x0 DUP1 PUSH1 0x14 SWAP1 SLOAD SWAP1 PUSH2 0x100 EXP SWAP1 DIV PUSH1 0xFF AND PUSH3 0x1F2C JUMPI PUSH1 0x1 SWAP1 POP PUSH3 0x1F7C JUMP JUMPDEST PUSH1 0x1 PUSH1 0x0 CALLER PUSH20 0xFFFFFFFFFFFFFFFFFFFFFFFFFFFFFFFFFFFFFFFF AND PUSH20 0xFFFFFFFFFFFFFFFFFFFFFFFFFFFFFFFFFFFFFFFF AND DUP2 MSTORE PUSH1 0x20 ADD SWAP1 DUP2 MSTORE PUSH1 0x20 ADD PUSH1 0x0 KECCAK256 PUSH1 0x0 SWAP1 SLOAD SWAP1 PUSH2 0x100 EXP SWAP1 DIV PUSH1 0xFF AND SWAP1 POP JUMPDEST SWAP1 JUMP JUMPDEST PUSH3 0x1F89 PUSH3 0x15FF JUMP JUMPDEST ISZERO PUSH3 0x1FCC JUMPI PUSH1 0x40 MLOAD PUSH32 0x8C379A000000000000000000000000000000000000000000000000000000000 DUP2 MSTORE PUSH1 0x4 ADD PUSH3 0x1FC3 SWAP1 PUSH3 0x43D8 JUMP JUMPDEST PUSH1 0x40 MLOAD DUP1 SWAP2 SUB SWAP1 REVERT JUMPDEST JUMP JUMPDEST PUSH1 0x0 DUP1 PUSH20 0xFFFFFFFFFFFFFFFFFFFFFFFFFFFFFFFFFFFFFFFF AND DUP3 PUSH20 0xFFFFFFFFFFFFFFFFFFFFFFFFFFFFFFFFFFFFFFFF AND EQ ISZERO DUP1 ISZERO PUSH3 0x2056 JUMPI POP PUSH1 0x6 PUSH1 0x0 DUP4 PUSH20 0xFFFFFFFFFFFFFFFFFFFFFFFFFFFFFFFFFFFFFFFF AND PUSH20 0xFFFFFFFFFFFFFFFFFFFFFFFFFFFFFFFFFFFFFFFF AND DUP2 MSTORE PUSH1 0x20 ADD SWAP1 DUP2 MSTORE PUSH1 0x20 ADD PUSH1 0x0 KECCAK256 PUSH1 0x0 SWAP1 SLOAD SWAP1 PUSH2 0x100 EXP SWAP1 DIV PUSH1 0xFF AND JUMPDEST SWAP1 POP SWAP2 SWAP1 POP JUMP JUMPDEST PUSH1 0x0 DUP3 EQ DUP1 PUSH3 0x206E JUMPI POP DUP2 DUP5 MLOAD LT ISZERO JUMPDEST PUSH3 0x20B0 JUMPI PUSH1 0x40 MLOAD PUSH32 0x8C379A000000000000000000000000000000000000000000000000000000000 DUP2 MSTORE PUSH1 0x4 ADD PUSH3 0x20A7 SWAP1 PUSH3 0x3730 JUMP JUMPDEST PUSH1 0x40 MLOAD DUP1 SWAP2 SUB SWAP1 REVERT JUMPDEST PUSH1 0x0 DUP2 EQ DUP1 PUSH3 0x20C1 JUMPI POP DUP1 DUP5 MLOAD GT ISZERO JUMPDEST PUSH3 0x2103 JUMPI PUSH1 0x40 MLOAD PUSH32 0x8C379A000000000000000000000000000000000000000000000000000000000 DUP2 MSTORE PUSH1 0x4 ADD PUSH3 0x20FA SWAP1 PUSH3 0x37A2 JUMP JUMPDEST PUSH1 0x40 MLOAD DUP1 SWAP2 SUB SWAP1 REVERT JUMPDEST PUSH1 0x0 JUMPDEST DUP5 MLOAD DUP2 LT ISZERO PUSH3 0x21D5 JUMPI PUSH3 0x213E DUP2 DUP7 DUP4 DUP2 MLOAD DUP2 LT PUSH3 0x212B JUMPI PUSH3 0x212A PUSH3 0x43FA JUMP JUMPDEST JUMPDEST PUSH1 0x20 MUL PUSH1 0x20 ADD ADD MLOAD PUSH1 0x40 ADD MLOAD DUP7 PUSH3 0x2677 JUMP JUMPDEST PUSH3 0x216B DUP2 DUP7 DUP4 DUP2 MLOAD DUP2 LT PUSH3 0x2159 JUMPI PUSH3 0x2158 PUSH3 0x43FA JUMP JUMPDEST JUMPDEST PUSH1 0x20 MUL PUSH1 0x20 ADD ADD MLOAD PUSH1 0x0 ADD MLOAD PUSH3 0x2700 JUMP JUMPDEST PUSH1 0x0 DUP6 DUP3 DUP2 MLOAD DUP2 LT PUSH3 0x2183 JUMPI PUSH3 0x2182 PUSH3 0x43FA JUMP JUMPDEST JUMPDEST PUSH1 0x20 MUL PUSH1 0x20 ADD ADD MLOAD PUSH1 0x20 ADD SWAP1 PUSH1 0x2 DUP2 GT ISZERO PUSH3 0x21A4 JUMPI PUSH3 0x21A3 PUSH3 0x3B08 JUMP JUMPDEST JUMPDEST SWAP1 DUP2 PUSH1 0x2 DUP2 GT ISZERO PUSH3 0x21BB JUMPI PUSH3 0x21BA PUSH3 0x3B08 JUMP JUMPDEST JUMPDEST DUP2 MSTORE POP POP DUP1 DUP1 PUSH3 0x21CC SWAP1 PUSH3 0x4429 JUMP JUMPDEST SWAP2 POP POP PUSH3 0x2106 JUMP JUMPDEST POP POP POP POP POP JUMP JUMPDEST PUSH1 0x0 PUSH1 0x40 MLOAD PUSH32 0x3D602D80600A3D3981F3363D3D373D3D3D363D73000000000000000000000000 DUP2 MSTORE DUP3 PUSH1 0x60 SHL PUSH1 0x14 DUP3 ADD MSTORE PUSH32 0x5AF43D82803E903D91602B57FD5BF30000000000000000000000000000000000 PUSH1 0x28 DUP3 ADD MSTORE PUSH1 0x37 DUP2 PUSH1 0x0 CREATE SWAP2 POP POP PUSH1 0x0 PUSH20 0xFFFFFFFFFFFFFFFFFFFFFFFFFFFFFFFFFFFFFFFF AND DUP2 PUSH20 0xFFFFFFFFFFFFFFFFFFFFFFFFFFFFFFFFFFFFFFFF AND SUB PUSH3 0x22AE JUMPI PUSH1 0x40 MLOAD PUSH32 0x8C379A000000000000000000000000000000000000000000000000000000000 DUP2 MSTORE PUSH1 0x4 ADD PUSH3 0x22A5 SWAP1 PUSH3 0x44C6 JUMP JUMPDEST PUSH1 0x40 MLOAD DUP1 SWAP2 SUB SWAP1 REVERT JUMPDEST SWAP2 SWAP1 POP JUMP JUMPDEST PUSH3 0x22BE DUP2 PUSH3 0x2932 JUMP JUMPDEST PUSH3 0x2304 JUMPI DUP1 CALLER PUSH1 0x40 MLOAD PUSH32 0xF69F501200000000000000000000000000000000000000000000000000000000 DUP2 MSTORE PUSH1 0x4 ADD PUSH3 0x22FB SWAP3 SWAP2 SWAP1 PUSH3 0x34FA JUMP JUMPDEST PUSH1 0x40 MLOAD DUP1 SWAP2 SUB SWAP1 REVERT JUMPDEST PUSH3 0x230F DUP2 PUSH3 0x2988 JUMP JUMPDEST PUSH3 0x2353 JUMPI DUP1 PUSH1 0x40 MLOAD PUSH32 0xAF7301AE00000000000000000000000000000000000000000000000000000000 DUP2 MSTORE PUSH1 0x4 ADD PUSH3 0x234A SWAP2 SWAP1 PUSH3 0x2CC7 JUMP JUMPDEST PUSH1 0x40 MLOAD DUP1 SWAP2 SUB SWAP1 REVERT JUMPDEST PUSH1 0x0 DUP2 PUSH20 0xFFFFFFFFFFFFFFFFFFFFFFFFFFFFFFFFFFFFFFFF AND PUSH4 0x893D20E8 PUSH1 0x40 MLOAD DUP2 PUSH4 0xFFFFFFFF AND PUSH1 0xE0 SHL DUP2 MSTORE PUSH1 0x4 ADD PUSH1 0x20 PUSH1 0x40 MLOAD DUP1 DUP4 SUB DUP2 DUP7 GAS STATICCALL ISZERO DUP1 ISZERO PUSH3 0x23A1 JUMPI RETURNDATASIZE PUSH1 0x0 DUP1 RETURNDATACOPY RETURNDATASIZE PUSH1 0x0 REVERT JUMPDEST POP POP POP POP PUSH1 0x40 MLOAD RETURNDATASIZE PUSH1 0x1F NOT PUSH1 0x1F DUP3 ADD AND DUP3 ADD DUP1 PUSH1 0x40 MSTORE POP DUP2 ADD SWAP1 PUSH3 0x23C7 SWAP2 SWAP1 PUSH3 0x3900 JUMP JUMPDEST SWAP1 POP ADDRESS PUSH20 0xFFFFFFFFFFFFFFFFFFFFFFFFFFFFFFFFFFFFFFFF AND DUP2 PUSH20 0xFFFFFFFFFFFFFFFFFFFFFFFFFFFFFFFFFFFFFFFF AND EQ PUSH3 0x243E JUMPI DUP2 DUP2 PUSH1 0x40 MLOAD PUSH32 0x7537C23C00000000000000000000000000000000000000000000000000000000 DUP2 MSTORE PUSH1 0x4 ADD PUSH3 0x2435 SWAP3 SWAP2 SWAP1 PUSH3 0x34FA JUMP JUMPDEST PUSH1 0x40 MLOAD DUP1 SWAP2 SUB SWAP1 REVERT JUMPDEST POP POP JUMP JUMPDEST PUSH3 0x246E DUP2 PUSH32 0x2D52206C00000000000000000000000000000000000000000000000000000000 PUSH3 0x29BD JUMP JUMPDEST PUSH3 0x24B2 JUMPI DUP1 PUSH1 0x40 MLOAD PUSH32 0x8FBD17000000000000000000000000000000000000000000000000000000000 DUP2 MSTORE PUSH1 0x4 ADD PUSH3 0x24A9 SWAP2 SWAP1 PUSH3 0x2CC7 JUMP JUMPDEST PUSH1 0x40 MLOAD DUP1 SWAP2 SUB SWAP1 REVERT JUMPDEST PUSH1 0x0 DUP2 PUSH20 0xFFFFFFFFFFFFFFFFFFFFFFFFFFFFFFFFFFFFFFFF AND PUSH4 0x893D20E8 PUSH1 0x40 MLOAD DUP2 PUSH4 0xFFFFFFFF AND PUSH1 0xE0 SHL DUP2 MSTORE PUSH1 0x4 ADD PUSH1 0x20 PUSH1 0x40 MLOAD DUP1 DUP4 SUB DUP2 DUP7 GAS STATICCALL ISZERO DUP1 ISZERO PUSH3 0x2500 JUMPI RETURNDATASIZE PUSH1 0x0 DUP1 RETURNDATACOPY RETURNDATASIZE PUSH1 0x0 REVERT JUMPDEST POP POP POP POP PUSH1 0x40 MLOAD RETURNDATASIZE PUSH1 0x1F NOT PUSH1 0x1F DUP3 ADD AND DUP3 ADD DUP1 PUSH1 0x40 MSTORE POP DUP2 ADD SWAP1 PUSH3 0x2526 SWAP2 SWAP1 PUSH3 0x3900 JUMP JUMPDEST SWAP1 POP ADDRESS PUSH20 0xFFFFFFFFFFFFFFFFFFFFFFFFFFFFFFFFFFFFFFFF AND DUP2 PUSH20 0xFFFFFFFFFFFFFFFFFFFFFFFFFFFFFFFFFFFFFFFF AND EQ PUSH3 0x259D JUMPI DUP2 DUP2 PUSH1 0x40 MLOAD PUSH32 0x78A42D3400000000000000000000000000000000000000000000000000000000 DUP2 MSTORE PUSH1 0x4 ADD PUSH3 0x2594 SWAP3 SWAP2 SWAP1 PUSH3 0x34FA JUMP JUMPDEST PUSH1 0x40 MLOAD DUP1 SWAP2 SUB SWAP1 REVERT JUMPDEST POP POP JUMP JUMPDEST PUSH1 0x0 PUSH1 0xD SLOAD SWAP1 POP SWAP1 JUMP JUMPDEST PUSH1 0x0 DUP1 PUSH1 0x0 SWAP1 SLOAD SWAP1 PUSH2 0x100 EXP SWAP1 DIV PUSH20 0xFFFFFFFFFFFFFFFFFFFFFFFFFFFFFFFFFFFFFFFF AND SWAP1 POP DUP2 PUSH1 0x0 DUP1 PUSH2 0x100 EXP DUP2 SLOAD DUP2 PUSH20 0xFFFFFFFFFFFFFFFFFFFFFFFFFFFFFFFFFFFFFFFF MUL NOT AND SWAP1 DUP4 PUSH20 0xFFFFFFFFFFFFFFFFFFFFFFFFFFFFFFFFFFFFFFFF AND MUL OR SWAP1 SSTORE POP DUP2 PUSH20 0xFFFFFFFFFFFFFFFFFFFFFFFFFFFFFFFFFFFFFFFF AND DUP2 PUSH20 0xFFFFFFFFFFFFFFFFFFFFFFFFFFFFFFFFFFFFFFFF AND PUSH32 0x8BE0079C531659141344CD1FD0A4F28419497F9722A3DAAFE3B4186F6B6457E0 PUSH1 0x40 MLOAD PUSH1 0x40 MLOAD DUP1 SWAP2 SUB SWAP1 LOG3 POP POP JUMP JUMPDEST PUSH1 0x0 CALLER SWAP1 POP SWAP1 JUMP JUMPDEST PUSH3 0x15180 DUP2 PUSH3 0x2688 SWAP2 SWAP1 PUSH3 0x35D9 JUMP JUMPDEST DUP3 PUSH4 0xFFFFFFFF AND LT DUP1 PUSH3 0x26B2 JUMPI POP PUSH4 0x1E13380 DUP2 PUSH3 0x26A9 SWAP2 SWAP1 PUSH3 0x35D9 JUMP JUMPDEST DUP3 PUSH4 0xFFFFFFFF AND GT JUMPDEST ISZERO PUSH3 0x26FB JUMPI DUP3 DUP3 DUP3 PUSH1 0x40 MLOAD PUSH32 0x4753F59500000000000000000000000000000000000000000000000000000000 DUP2 MSTORE PUSH1 0x4 ADD PUSH3 0x26F2 SWAP4 SWAP3 SWAP2 SWAP1 PUSH3 0x44F9 JUMP JUMPDEST PUSH1 0x40 MLOAD DUP1 SWAP2 SUB SWAP1 REVERT JUMPDEST POP POP POP JUMP JUMPDEST PUSH1 0x0 DUP1 PUSH20 0xFFFFFFFFFFFFFFFFFFFFFFFFFFFFFFFFFFFFFFFF AND DUP3 PUSH1 0x0 ADD MLOAD PUSH20 0xFFFFFFFFFFFFFFFFFFFFFFFFFFFFFFFFFFFFFFFF AND EQ ISZERO DUP1 PUSH3 0x2746 JUMPI POP PUSH1 0x0 DUP3 PUSH1 0x40 ADD MLOAD GT JUMPDEST DUP1 PUSH3 0x275C JUMPI POP PUSH1 0x0 DUP3 PUSH1 0x20 ADD MLOAD PUSH4 0xFFFFFFFF AND GT JUMPDEST SWAP1 POP DUP1 PUSH3 0x27A3 JUMPI DUP3 PUSH1 0x40 MLOAD PUSH32 0x51DD5CF200000000000000000000000000000000000000000000000000000000 DUP2 MSTORE PUSH1 0x4 ADD PUSH3 0x279A SWAP2 SWAP1 PUSH3 0x2CF5 JUMP JUMPDEST PUSH1 0x40 MLOAD DUP1 SWAP2 SUB SWAP1 REVERT JUMPDEST PUSH1 0x0 DUP1 PUSH20 0xFFFFFFFFFFFFFFFFFFFFFFFFFFFFFFFFFFFFFFFF AND DUP4 PUSH1 0x0 ADD MLOAD PUSH20 0xFFFFFFFFFFFFFFFFFFFFFFFFFFFFFFFFFFFFFFFF AND EQ DUP1 PUSH3 0x27FF JUMPI POP PUSH1 0x0 DUP4 PUSH1 0x40 ADD MLOAD EQ DUP1 ISZERO PUSH3 0x27FE JUMPI POP PUSH1 0x0 DUP4 PUSH1 0x20 ADD MLOAD PUSH4 0xFFFFFFFF AND EQ JUMPDEST JUMPDEST SWAP1 POP PUSH1 0x0 DUP1 DUP5 PUSH1 0x40 ADD MLOAD EQ DUP1 PUSH3 0x285D JUMPI POP PUSH1 0x0 PUSH20 0xFFFFFFFFFFFFFFFFFFFFFFFFFFFFFFFFFFFFFFFF AND DUP5 PUSH1 0x0 ADD MLOAD PUSH20 0xFFFFFFFFFFFFFFFFFFFFFFFFFFFFFFFFFFFFFFFF AND EQ DUP1 ISZERO PUSH3 0x285C JUMPI POP PUSH1 0x0 DUP5 PUSH1 0x20 ADD MLOAD PUSH4 0xFFFFFFFF AND EQ JUMPDEST JUMPDEST SWAP1 POP PUSH1 0x0 DUP1 DUP6 PUSH1 0x20 ADD MLOAD PUSH4 0xFFFFFFFF AND EQ DUP1 PUSH3 0x28BB JUMPI POP PUSH1 0x0 PUSH20 0xFFFFFFFFFFFFFFFFFFFFFFFFFFFFFFFFFFFFFFFF AND DUP6 PUSH1 0x0 ADD MLOAD PUSH20 0xFFFFFFFFFFFFFFFFFFFFFFFFFFFFFFFFFFFFFFFF AND EQ DUP1 ISZERO PUSH3 0x28BA JUMPI POP PUSH1 0x0 DUP6 PUSH1 0x40 ADD MLOAD EQ JUMPDEST JUMPDEST SWAP1 POP DUP3 ISZERO DUP1 PUSH3 0x28C9 JUMPI POP DUP2 ISZERO JUMPDEST DUP1 PUSH3 0x28D3 JUMPI POP DUP1 ISZERO JUMPDEST ISZERO PUSH3 0x292A JUMPI DUP6 DUP6 PUSH1 0x0 ADD MLOAD DUP7 PUSH1 0x40 ADD MLOAD DUP8 PUSH1 0x20 ADD MLOAD PUSH1 0x40 MLOAD PUSH32 0x7EE0DC5000000000000000000000000000000000000000000000000000000000 DUP2 MSTORE PUSH1 0x4 ADD PUSH3 0x2921 SWAP5 SWAP4 SWAP3 SWAP2 SWAP1 PUSH3 0x456F JUMP JUMPDEST PUSH1 0x40 MLOAD DUP1 SWAP2 SUB SWAP1 REVERT JUMPDEST POP POP POP POP POP POP JUMP JUMPDEST PUSH1 0x0 PUSH1 0x8 PUSH1 0x0 DUP4 PUSH20 0xFFFFFFFFFFFFFFFFFFFFFFFFFFFFFFFFFFFFFFFF AND PUSH20 0xFFFFFFFFFFFFFFFFFFFFFFFFFFFFFFFFFFFFFFFF AND DUP2 MSTORE PUSH1 0x20 ADD SWAP1 DUP2 MSTORE PUSH1 0x20 ADD PUSH1 0x0 KECCAK256 PUSH1 0x0 SWAP1 SLOAD SWAP1 PUSH2 0x100 EXP SWAP1 DIV PUSH1 0xFF AND SWAP1 POP SWAP2 SWAP1 POP JUMP JUMPDEST PUSH1 0x0 PUSH3 0x29B6 DUP3 PUSH32 0x91DB394500000000000000000000000000000000000000000000000000000000 PUSH3 0x29BD JUMP JUMPDEST SWAP1 POP SWAP2 SWAP1 POP JUMP JUMPDEST PUSH1 0x0 PUSH3 0x29CA DUP4 PUSH3 0x29E7 JUMP JUMPDEST DUP1 ISZERO PUSH3 0x29DF JUMPI POP PUSH3 0x29DE DUP4 DUP4 PUSH3 0x2A39 JUMP JUMPDEST JUMPDEST SWAP1 POP SWAP3 SWAP2 POP POP JUMP JUMPDEST PUSH1 0x0 PUSH3 0x2A15 DUP3 PUSH32 0x1FFC9A700000000000000000000000000000000000000000000000000000000 PUSH3 0x2A39 JUMP JUMPDEST DUP1 ISZERO PUSH3 0x2A32 JUMPI POP PUSH3 0x2A30 DUP3 PUSH4 0xFFFFFFFF PUSH1 0xE0 SHL PUSH3 0x2A39 JUMP JUMPDEST ISZERO JUMPDEST SWAP1 POP SWAP2 SWAP1 POP JUMP JUMPDEST PUSH1 0x0 DUP1 PUSH4 0x1FFC9A7 PUSH1 0xE0 SHL DUP4 PUSH1 0x40 MLOAD PUSH1 0x24 ADD PUSH3 0x2A57 SWAP2 SWAP1 PUSH3 0x45F9 JUMP JUMPDEST PUSH1 0x40 MLOAD PUSH1 0x20 DUP2 DUP4 SUB SUB DUP2 MSTORE SWAP1 PUSH1 0x40 MSTORE SWAP1 PUSH28 0xFFFFFFFFFFFFFFFFFFFFFFFFFFFFFFFFFFFFFFFFFFFFFFFFFFFFFFFF NOT AND PUSH1 0x20 DUP3 ADD DUP1 MLOAD PUSH28 0xFFFFFFFFFFFFFFFFFFFFFFFFFFFFFFFFFFFFFFFFFFFFFFFFFFFFFFFF DUP4 DUP2 DUP4 AND OR DUP4 MSTORE POP POP POP POP SWAP1 POP PUSH1 0x0 DUP1 PUSH1 0x0 PUSH1 0x20 PUSH1 0x0 DUP6 MLOAD PUSH1 0x20 DUP8 ADD DUP11 PUSH2 0x7530 STATICCALL SWAP3 POP RETURNDATASIZE SWAP2 POP PUSH1 0x0 MLOAD SWAP1 POP DUP3 DUP1 ISZERO PUSH3 0x2AE3 JUMPI POP PUSH1 0x20 DUP3 LT ISZERO JUMPDEST DUP1 ISZERO PUSH3 0x2AF0 JUMPI POP PUSH1 0x0 DUP2 GT JUMPDEST SWAP5 POP POP POP POP POP SWAP3 SWAP2 POP POP JUMP JUMPDEST PUSH2 0x2E27 DUP1 PUSH3 0x4617 DUP4 CODECOPY ADD SWAP1 JUMP JUMPDEST PUSH1 0x0 PUSH1 0x40 MLOAD SWAP1 POP SWAP1 JUMP JUMPDEST PUSH1 0x0 DUP1 REVERT JUMPDEST PUSH1 0x0 DUP1 REVERT JUMPDEST PUSH1 0x0 PUSH20 0xFFFFFFFFFFFFFFFFFFFFFFFFFFFFFFFFFFFFFFFF DUP3 AND SWAP1 POP SWAP2 SWAP1 POP JUMP JUMPDEST PUSH1 0x0 PUSH3 0x2B4B DUP3 PUSH3 0x2B1E JUMP JUMPDEST SWAP1 POP SWAP2 SWAP1 POP JUMP JUMPDEST PUSH1 0x0 PUSH3 0x2B5F DUP3 PUSH3 0x2B3E JUMP JUMPDEST SWAP1 POP SWAP2 SWAP1 POP JUMP JUMPDEST PUSH3 0x2B71 DUP2 PUSH3 0x2B52 JUMP JUMPDEST DUP2 EQ PUSH3 0x2B7D JUMPI PUSH1 0x0 DUP1 REVERT JUMPDEST POP JUMP JUMPDEST PUSH1 0x0 DUP2 CALLDATALOAD SWAP1 POP PUSH3 0x2B91 DUP2 PUSH3 0x2B66 JUMP JUMPDEST SWAP3 SWAP2 POP POP JUMP JUMPDEST PUSH1 0x0 PUSH1 0x20 DUP3 DUP5 SUB SLT ISZERO PUSH3 0x2BB0 JUMPI PUSH3 0x2BAF PUSH3 0x2B14 JUMP JUMPDEST JUMPDEST PUSH1 0x0 PUSH3 0x2BC0 DUP5 DUP3 DUP6 ADD PUSH3 0x2B80 JUMP JUMPDEST SWAP2 POP POP SWAP3 SWAP2 POP POP JUMP JUMPDEST PUSH1 0x0 DUP2 ISZERO ISZERO SWAP1 POP SWAP2 SWAP1 POP JUMP JUMPDEST PUSH3 0x2BE0 DUP2 PUSH3 0x2BC9 JUMP JUMPDEST DUP3 MSTORE POP POP JUMP JUMPDEST PUSH1 0x0 PUSH1 0x20 DUP3 ADD SWAP1 POP PUSH3 0x2BFD PUSH1 0x0 DUP4 ADD DUP5 PUSH3 0x2BD5 JUMP JUMPDEST SWAP3 SWAP2 POP POP JUMP JUMPDEST PUSH3 0x2C0E DUP2 PUSH3 0x2B3E JUMP JUMPDEST DUP2 EQ PUSH3 0x2C1A JUMPI PUSH1 0x0 DUP1 REVERT JUMPDEST POP JUMP JUMPDEST PUSH1 0x0 DUP2 CALLDATALOAD SWAP1 POP PUSH3 0x2C2E DUP2 PUSH3 0x2C03 JUMP JUMPDEST SWAP3 SWAP2 POP POP JUMP JUMPDEST PUSH1 0x0 DUP2 SWAP1 POP SWAP2 SWAP1 POP JUMP JUMPDEST PUSH3 0x2C49 DUP2 PUSH3 0x2C34 JUMP JUMPDEST DUP2 EQ PUSH3 0x2C55 JUMPI PUSH1 0x0 DUP1 REVERT JUMPDEST POP JUMP JUMPDEST PUSH1 0x0 DUP2 CALLDATALOAD SWAP1 POP PUSH3 0x2C69 DUP2 PUSH3 0x2C3E JUMP JUMPDEST SWAP3 SWAP2 POP POP JUMP JUMPDEST PUSH1 0x0 DUP1 PUSH1 0x40 DUP4 DUP6 SUB SLT ISZERO PUSH3 0x2C89 JUMPI PUSH3 0x2C88 PUSH3 0x2B14 JUMP JUMPDEST JUMPDEST PUSH1 0x0 PUSH3 0x2C99 DUP6 DUP3 DUP7 ADD PUSH3 0x2C1D JUMP JUMPDEST SWAP3 POP POP PUSH1 0x20 PUSH3 0x2CAC DUP6 DUP3 DUP7 ADD PUSH3 0x2C58 JUMP JUMPDEST SWAP2 POP POP SWAP3 POP SWAP3 SWAP1 POP JUMP JUMPDEST PUSH3 0x2CC1 DUP2 PUSH3 0x2B3E JUMP JUMPDEST DUP3 MSTORE POP POP JUMP JUMPDEST PUSH1 0x0 PUSH1 0x20 DUP3 ADD SWAP1 POP PUSH3 0x2CDE PUSH1 0x0 DUP4 ADD DUP5 PUSH3 0x2CB6 JUMP JUMPDEST SWAP3 SWAP2 POP POP JUMP JUMPDEST PUSH3 0x2CEF DUP2 PUSH3 0x2C34 JUMP JUMPDEST DUP3 MSTORE POP POP JUMP JUMPDEST PUSH1 0x0 PUSH1 0x20 DUP3 ADD SWAP1 POP PUSH3 0x2D0C PUSH1 0x0 DUP4 ADD DUP5 PUSH3 0x2CE4 JUMP JUMPDEST SWAP3 SWAP2 POP POP JUMP JUMPDEST PUSH1 0x0 PUSH1 0x20 DUP3 DUP5 SUB SLT ISZERO PUSH3 0x2D2B JUMPI PUSH3 0x2D2A PUSH3 0x2B14 JUMP JUMPDEST JUMPDEST PUSH1 0x0 PUSH3 0x2D3B DUP5 DUP3 DUP6 ADD PUSH3 0x2C58 JUMP JUMPDEST SWAP2 POP POP SWAP3 SWAP2 POP POP JUMP JUMPDEST PUSH1 0x0 DUP1 PUSH1 0x40 DUP4 DUP6 SUB SLT ISZERO PUSH3 0x2D5E JUMPI PUSH3 0x2D5D PUSH3 0x2B14 JUMP JUMPDEST JUMPDEST PUSH1 0x0 PUSH3 0x2D6E DUP6 DUP3 DUP7 ADD PUSH3 0x2C58 JUMP JUMPDEST SWAP3 POP POP PUSH1 0x20 PUSH3 0x2D81 DUP6 DUP3 DUP7 ADD PUSH3 0x2C1D JUMP JUMPDEST SWAP2 POP POP SWAP3 POP SWAP3 SWAP1 POP JUMP JUMPDEST PUSH1 0x0 DUP1 REVERT JUMPDEST PUSH1 0x0 PUSH1 0x1F NOT PUSH1 0x1F DUP4 ADD AND SWAP1 POP SWAP2 SWAP1 POP JUMP JUMPDEST PUSH32 0x4E487B7100000000000000000000000000000000000000000000000000000000 PUSH1 0x0 MSTORE PUSH1 0x41 PUSH1 0x4 MSTORE PUSH1 0x24 PUSH1 0x0 REVERT JUMPDEST PUSH3 0x2DDB DUP3 PUSH3 0x2D90 JUMP JUMPDEST DUP2 ADD DUP2 DUP2 LT PUSH8 0xFFFFFFFFFFFFFFFF DUP3 GT OR ISZERO PUSH3 0x2DFD JUMPI PUSH3 0x2DFC PUSH3 0x2DA1 JUMP JUMPDEST JUMPDEST DUP1 PUSH1 0x40 MSTORE POP POP POP JUMP JUMPDEST PUSH1 0x0 PUSH3 0x2E12 PUSH3 0x2B0A JUMP JUMPDEST SWAP1 POP PUSH3 0x2E20 DUP3 DUP3 PUSH3 0x2DD0 JUMP JUMPDEST SWAP2 SWAP1 POP JUMP JUMPDEST PUSH1 0x0 DUP1 REVERT JUMPDEST PUSH1 0x0 DUP1 REVERT JUMPDEST PUSH1 0x0 DUP1 REVERT JUMPDEST PUSH1 0x0 PUSH8 0xFFFFFFFFFFFFFFFF DUP3 GT ISZERO PUSH3 0x2E52 JUMPI PUSH3 0x2E51 PUSH3 0x2DA1 JUMP JUMPDEST JUMPDEST PUSH3 0x2E5D DUP3 PUSH3 0x2D90 JUMP JUMPDEST SWAP1 POP PUSH1 0x20 DUP2 ADD SWAP1 POP SWAP2 SWAP1 POP JUMP JUMPDEST DUP3 DUP2 DUP4 CALLDATACOPY PUSH1 0x0 DUP4 DUP4 ADD MSTORE POP POP POP JUMP JUMPDEST PUSH1 0x0 PUSH3 0x2E90 PUSH3 0x2E8A DUP5 PUSH3 0x2E34 JUMP JUMPDEST PUSH3 0x2E06 JUMP JUMPDEST SWAP1 POP DUP3 DUP2 MSTORE PUSH1 0x20 DUP2 ADD DUP5 DUP5 DUP5 ADD GT ISZERO PUSH3 0x2EAF JUMPI PUSH3 0x2EAE PUSH3 0x2E2F JUMP JUMPDEST JUMPDEST PUSH3 0x2EBC DUP5 DUP3 DUP6 PUSH3 0x2E6A JUMP JUMPDEST POP SWAP4 SWAP3 POP POP POP JUMP JUMPDEST PUSH1 0x0 DUP3 PUSH1 0x1F DUP4 ADD SLT PUSH3 0x2EDC JUMPI PUSH3 0x2EDB PUSH3 0x2E2A JUMP JUMPDEST JUMPDEST DUP2 CALLDATALOAD PUSH3 0x2EEE DUP5 DUP3 PUSH1 0x20 DUP7 ADD PUSH3 0x2E79 JUMP JUMPDEST SWAP2 POP POP SWAP3 SWAP2 POP POP JUMP JUMPDEST PUSH1 0x0 PUSH1 0xE0 DUP3 DUP5 SUB SLT ISZERO PUSH3 0x2F10 JUMPI PUSH3 0x2F0F PUSH3 0x2D8B JUMP JUMPDEST JUMPDEST PUSH3 0x2F1C PUSH1 0xE0 PUSH3 0x2E06 JUMP JUMPDEST SWAP1 POP PUSH1 0x0 PUSH3 0x2F2E DUP5 DUP3 DUP6 ADD PUSH3 0x2C1D JUMP JUMPDEST PUSH1 0x0 DUP4 ADD MSTORE POP PUSH1 0x20 PUSH3 0x2F44 DUP5 DUP3 DUP6 ADD PUSH3 0x2C1D JUMP JUMPDEST PUSH1 0x20 DUP4 ADD MSTORE POP PUSH1 0x40 PUSH3 0x2F5A DUP5 DUP3 DUP6 ADD PUSH3 0x2C1D JUMP JUMPDEST PUSH1 0x40 DUP4 ADD MSTORE POP PUSH1 0x60 DUP3 ADD CALLDATALOAD PUSH8 0xFFFFFFFFFFFFFFFF DUP2 GT ISZERO PUSH3 0x2F81 JUMPI PUSH3 0x2F80 PUSH3 0x2E25 JUMP JUMPDEST JUMPDEST PUSH3 0x2F8F DUP5 DUP3 DUP6 ADD PUSH3 0x2EC4 JUMP JUMPDEST PUSH1 0x60 DUP4 ADD MSTORE POP PUSH1 0x80 DUP3 ADD CALLDATALOAD PUSH8 0xFFFFFFFFFFFFFFFF DUP2 GT ISZERO PUSH3 0x2FB6 JUMPI PUSH3 0x2FB5 PUSH3 0x2E25 JUMP JUMPDEST JUMPDEST PUSH3 0x2FC4 DUP5 DUP3 DUP6 ADD PUSH3 0x2EC4 JUMP JUMPDEST PUSH1 0x80 DUP4 ADD MSTORE POP PUSH1 0xA0 PUSH3 0x2FDA DUP5 DUP3 DUP6 ADD PUSH3 0x2C58 JUMP JUMPDEST PUSH1 0xA0 DUP4 ADD MSTORE POP PUSH1 0xC0 PUSH3 0x2FF0 DUP5 DUP3 DUP6 ADD PUSH3 0x2C58 JUMP JUMPDEST PUSH1 0xC0 DUP4 ADD MSTORE POP SWAP3 SWAP2 POP POP JUMP JUMPDEST PUSH1 0x0 PUSH8 0xFFFFFFFFFFFFFFFF DUP3 GT ISZERO PUSH3 0x301A JUMPI PUSH3 0x3019 PUSH3 0x2DA1 JUMP JUMPDEST JUMPDEST PUSH1 0x20 DUP3 MUL SWAP1 POP PUSH1 0x20 DUP2 ADD SWAP1 POP SWAP2 SWAP1 POP JUMP JUMPDEST PUSH1 0x0 DUP1 REVERT JUMPDEST PUSH1 0x0 PUSH4 0xFFFFFFFF DUP3 AND SWAP1 POP SWAP2 SWAP1 POP JUMP JUMPDEST PUSH3 0x304B DUP2 PUSH3 0x3030 JUMP JUMPDEST DUP2 EQ PUSH3 0x3057 JUMPI PUSH1 0x0 DUP1 REVERT JUMPDEST POP JUMP JUMPDEST PUSH1 0x0 DUP2 CALLDATALOAD SWAP1 POP PUSH3 0x306B DUP2 PUSH3 0x3040 JUMP JUMPDEST SWAP3 SWAP2 POP POP JUMP JUMPDEST PUSH1 0x0 PUSH1 0x60 DUP3 DUP5 SUB SLT ISZERO PUSH3 0x308A JUMPI PUSH3 0x3089 PUSH3 0x2D8B JUMP JUMPDEST JUMPDEST PUSH3 0x3096 PUSH1 0x60 PUSH3 0x2E06 JUMP JUMPDEST SWAP1 POP PUSH1 0x0 PUSH3 0x30A8 DUP5 DUP3 DUP6 ADD PUSH3 0x2C1D JUMP JUMPDEST PUSH1 0x0 DUP4 ADD MSTORE POP PUSH1 0x20 PUSH3 0x30BE DUP5 DUP3 DUP6 ADD PUSH3 0x305A JUMP JUMPDEST PUSH1 0x20 DUP4 ADD MSTORE POP PUSH1 0x40 PUSH3 0x30D4 DUP5 DUP3 DUP6 ADD PUSH3 0x2C58 JUMP JUMPDEST PUSH1 0x40 DUP4 ADD MSTORE POP SWAP3 SWAP2 POP POP JUMP JUMPDEST PUSH1 0x3 DUP2 LT PUSH3 0x30EE JUMPI PUSH1 0x0 DUP1 REVERT JUMPDEST POP JUMP JUMPDEST PUSH1 0x0 DUP2 CALLDATALOAD SWAP1 POP PUSH3 0x3102 DUP2 PUSH3 0x30E0 JUMP JUMPDEST SWAP3 SWAP2 POP POP JUMP JUMPDEST PUSH1 0x0 DUP2 PUSH1 0x3 SIGNEXTEND SWAP1 POP SWAP2 SWAP1 POP JUMP JUMPDEST PUSH3 0x3120 DUP2 PUSH3 0x3108 JUMP JUMPDEST DUP2 EQ PUSH3 0x312C JUMPI PUSH1 0x0 DUP1 REVERT JUMPDEST POP JUMP JUMPDEST PUSH1 0x0 DUP2 CALLDATALOAD SWAP1 POP PUSH3 0x3140 DUP2 PUSH3 0x3115 JUMP JUMPDEST SWAP3 SWAP2 POP POP JUMP JUMPDEST PUSH1 0x0 PUSH1 0xE0 DUP3 DUP5 SUB SLT ISZERO PUSH3 0x315F JUMPI PUSH3 0x315E PUSH3 0x2D8B JUMP JUMPDEST JUMPDEST PUSH3 0x316B PUSH1 0xA0 PUSH3 0x2E06 JUMP JUMPDEST SWAP1 POP PUSH1 0x0 PUSH3 0x317D DUP5 DUP3 DUP6 ADD PUSH3 0x3071 JUMP JUMPDEST PUSH1 0x0 DUP4 ADD MSTORE POP PUSH1 0x60 PUSH3 0x3193 DUP5 DUP3 DUP6 ADD PUSH3 0x30F1 JUMP JUMPDEST PUSH1 0x20 DUP4 ADD MSTORE POP PUSH1 0x80 PUSH3 0x31A9 DUP5 DUP3 DUP6 ADD PUSH3 0x305A JUMP JUMPDEST PUSH1 0x40 DUP4 ADD MSTORE POP PUSH1 0xA0 PUSH3 0x31BF DUP5 DUP3 DUP6 ADD PUSH3 0x312F JUMP JUMPDEST PUSH1 0x60 DUP4 ADD MSTORE POP PUSH1 0xC0 PUSH3 0x31D5 DUP5 DUP3 DUP6 ADD PUSH3 0x2C58 JUMP JUMPDEST PUSH1 0x80 DUP4 ADD MSTORE POP SWAP3 SWAP2 POP POP JUMP JUMPDEST PUSH1 0x0 PUSH3 0x31F8 PUSH3 0x31F2 DUP5 PUSH3 0x2FFC JUMP JUMPDEST PUSH3 0x2E06 JUMP JUMPDEST SWAP1 POP DUP1 DUP4 DUP3 MSTORE PUSH1 0x20 DUP3 ADD SWAP1 POP PUSH1 0xE0 DUP5 MUL DUP4 ADD DUP6 DUP2 GT ISZERO PUSH3 0x321E JUMPI PUSH3 0x321D PUSH3 0x302B JUMP JUMPDEST JUMPDEST DUP4 JUMPDEST DUP2 DUP2 LT ISZERO PUSH3 0x324B JUMPI DUP1 PUSH3 0x3236 DUP9 DUP3 PUSH3 0x3146 JUMP JUMPDEST DUP5 MSTORE PUSH1 0x20 DUP5 ADD SWAP4 POP POP PUSH1 0xE0 DUP2 ADD SWAP1 POP PUSH3 0x3220 JUMP JUMPDEST POP POP POP SWAP4 SWAP3 POP POP POP JUMP JUMPDEST PUSH1 0x0 DUP3 PUSH1 0x1F DUP4 ADD SLT PUSH3 0x326D JUMPI PUSH3 0x326C PUSH3 0x2E2A JUMP JUMPDEST JUMPDEST DUP2 CALLDATALOAD PUSH3 0x327F DUP5 DUP3 PUSH1 0x20 DUP7 ADD PUSH3 0x31E1 JUMP JUMPDEST SWAP2 POP POP SWAP3 SWAP2 POP POP JUMP JUMPDEST PUSH1 0x0 DUP1 PUSH1 0x40 DUP4 DUP6 SUB SLT ISZERO PUSH3 0x32A2 JUMPI PUSH3 0x32A1 PUSH3 0x2B14 JUMP JUMPDEST JUMPDEST PUSH1 0x0 DUP4 ADD CALLDATALOAD PUSH8 0xFFFFFFFFFFFFFFFF DUP2 GT ISZERO PUSH3 0x32C3 JUMPI PUSH3 0x32C2 PUSH3 0x2B19 JUMP JUMPDEST JUMPDEST PUSH3 0x32D1 DUP6 DUP3 DUP7 ADD PUSH3 0x2EF7 JUMP JUMPDEST SWAP3 POP POP PUSH1 0x20 DUP4 ADD CALLDATALOAD PUSH8 0xFFFFFFFFFFFFFFFF DUP2 GT ISZERO PUSH3 0x32F5 JUMPI PUSH3 0x32F4 PUSH3 0x2B19 JUMP JUMPDEST JUMPDEST PUSH3 0x3303 DUP6 DUP3 DUP7 ADD PUSH3 0x3255 JUMP JUMPDEST SWAP2 POP POP SWAP3 POP SWAP3 SWAP1 POP JUMP JUMPDEST PUSH3 0x3318 DUP2 PUSH3 0x2BC9 JUMP JUMPDEST DUP2 EQ PUSH3 0x3324 JUMPI PUSH1 0x0 DUP1 REVERT JUMPDEST POP JUMP JUMPDEST PUSH1 0x0 DUP2 CALLDATALOAD SWAP1 POP PUSH3 0x3338 DUP2 PUSH3 0x330D JUMP JUMPDEST SWAP3 SWAP2 POP POP JUMP JUMPDEST PUSH1 0x0 DUP1 PUSH1 0x40 DUP4 DUP6 SUB SLT ISZERO PUSH3 0x3358 JUMPI PUSH3 0x3357 PUSH3 0x2B14 JUMP JUMPDEST JUMPDEST PUSH1 0x0 PUSH3 0x3368 DUP6 DUP3 DUP7 ADD PUSH3 0x2C1D JUMP JUMPDEST SWAP3 POP POP PUSH1 0x20 PUSH3 0x337B DUP6 DUP3 DUP7 ADD PUSH3 0x3327 JUMP JUMPDEST SWAP2 POP POP SWAP3 POP SWAP3 SWAP1 POP JUMP JUMPDEST PUSH1 0x0 PUSH1 0x20 DUP3 DUP5 SUB SLT ISZERO PUSH3 0x339E JUMPI PUSH3 0x339D PUSH3 0x2B14 JUMP JUMPDEST JUMPDEST PUSH1 0x0 PUSH3 0x33AE DUP5 DUP3 DUP6 ADD PUSH3 0x2C1D JUMP JUMPDEST SWAP2 POP POP SWAP3 SWAP2 POP POP JUMP JUMPDEST PUSH1 0x0 DUP2 SWAP1 POP SWAP2 SWAP1 POP JUMP JUMPDEST PUSH1 0x0 PUSH3 0x33E2 PUSH3 0x33DC PUSH3 0x33D6 DUP5 PUSH3 0x2B1E JUMP JUMPDEST PUSH3 0x33B7 JUMP JUMPDEST PUSH3 0x2B1E JUMP JUMPDEST SWAP1 POP SWAP2 SWAP1 POP JUMP JUMPDEST PUSH1 0x0 PUSH3 0x33F6 DUP3 PUSH3 0x33C1 JUMP JUMPDEST SWAP1 POP SWAP2 SWAP1 POP JUMP JUMPDEST PUSH1 0x0 PUSH3 0x340A DUP3 PUSH3 0x33E9 JUMP JUMPDEST SWAP1 POP SWAP2 SWAP1 POP JUMP JUMPDEST PUSH3 0x341C DUP2 PUSH3 0x33FD JUMP JUMPDEST DUP3 MSTORE POP POP JUMP JUMPDEST PUSH1 0x0 PUSH1 0x20 DUP3 ADD SWAP1 POP PUSH3 0x3439 PUSH1 0x0 DUP4 ADD DUP5 PUSH3 0x3411 JUMP JUMPDEST SWAP3 SWAP2 POP POP JUMP JUMPDEST PUSH1 0x0 PUSH1 0x20 DUP3 DUP5 SUB SLT ISZERO PUSH3 0x3458 JUMPI PUSH3 0x3457 PUSH3 0x2B14 JUMP JUMPDEST JUMPDEST PUSH1 0x0 PUSH3 0x3468 DUP5 DUP3 DUP6 ADD PUSH3 0x3327 JUMP JUMPDEST SWAP2 POP POP SWAP3 SWAP2 POP POP JUMP JUMPDEST PUSH1 0x0 PUSH3 0x347E DUP3 PUSH3 0x33E9 JUMP JUMPDEST SWAP1 POP SWAP2 SWAP1 POP JUMP JUMPDEST PUSH3 0x3490 DUP2 PUSH3 0x3471 JUMP JUMPDEST DUP3 MSTORE POP POP JUMP JUMPDEST PUSH1 0x0 PUSH1 0x20 DUP3 ADD SWAP1 POP PUSH3 0x34AD PUSH1 0x0 DUP4 ADD DUP5 PUSH3 0x3485 JUMP JUMPDEST SWAP3 SWAP2 POP POP JUMP JUMPDEST PUSH1 0x0 DUP1 PUSH1 0x40 DUP4 DUP6 SUB SLT ISZERO PUSH3 0x34CD JUMPI PUSH3 0x34CC PUSH3 0x2B14 JUMP JUMPDEST JUMPDEST PUSH1 0x0 PUSH3 0x34DD DUP6 DUP3 DUP7 ADD PUSH3 0x2C58 JUMP JUMPDEST SWAP3 POP POP PUSH1 0x20 PUSH3 0x34F0 DUP6 DUP3 DUP7 ADD PUSH3 0x2C58 JUMP JUMPDEST SWAP2 POP POP SWAP3 POP SWAP3 SWAP1 POP JUMP JUMPDEST PUSH1 0x0 PUSH1 0x40 DUP3 ADD SWAP1 POP PUSH3 0x3511 PUSH1 0x0 DUP4 ADD DUP6 PUSH3 0x2CB6 JUMP JUMPDEST PUSH3 0x3520 PUSH1 0x20 DUP4 ADD DUP5 PUSH3 0x2CB6 JUMP JUMPDEST SWAP4 SWAP3 POP POP POP JUMP JUMPDEST PUSH1 0x0 DUP3 DUP3 MSTORE PUSH1 0x20 DUP3 ADD SWAP1 POP SWAP3 SWAP2 POP POP JUMP JUMPDEST PUSH32 0x6E6F7420612076616C69642070726F6A65637400000000000000000000000000 PUSH1 0x0 DUP3 ADD MSTORE POP JUMP JUMPDEST PUSH1 0x0 PUSH3 0x3570 PUSH1 0x13 DUP4 PUSH3 0x3527 JUMP JUMPDEST SWAP2 POP PUSH3 0x357D DUP3 PUSH3 0x3538 JUMP JUMPDEST PUSH1 0x20 DUP3 ADD SWAP1 POP SWAP2 SWAP1 POP JUMP JUMPDEST PUSH1 0x0 PUSH1 0x20 DUP3 ADD SWAP1 POP DUP2 DUP2 SUB PUSH1 0x0 DUP4 ADD MSTORE PUSH3 0x35A3 DUP2 PUSH3 0x3561 JUMP JUMPDEST SWAP1 POP SWAP2 SWAP1 POP JUMP JUMPDEST PUSH32 0x4E487B7100000000000000000000000000000000000000000000000000000000 PUSH1 0x0 MSTORE PUSH1 0x11 PUSH1 0x4 MSTORE PUSH1 0x24 PUSH1 0x0 REVERT JUMPDEST PUSH1 0x0 PUSH3 0x35E6 DUP3 PUSH3 0x2C34 JUMP JUMPDEST SWAP2 POP PUSH3 0x35F3 DUP4 PUSH3 0x2C34 JUMP JUMPDEST SWAP3 POP DUP3 DUP3 ADD SWAP1 POP DUP1 DUP3 GT ISZERO PUSH3 0x360E JUMPI PUSH3 0x360D PUSH3 0x35AA JUMP JUMPDEST JUMPDEST SWAP3 SWAP2 POP POP JUMP JUMPDEST PUSH1 0x0 PUSH1 0x40 DUP3 ADD SWAP1 POP PUSH3 0x362B PUSH1 0x0 DUP4 ADD DUP6 PUSH3 0x2CE4 JUMP JUMPDEST PUSH3 0x363A PUSH1 0x20 DUP4 ADD DUP5 PUSH3 0x2CE4 JUMP JUMPDEST SWAP4 SWAP3 POP POP POP JUMP JUMPDEST PUSH1 0x0 PUSH1 0x40 DUP3 ADD SWAP1 POP PUSH3 0x3658 PUSH1 0x0 DUP4 ADD DUP6 PUSH3 0x2CB6 JUMP JUMPDEST PUSH3 0x3667 PUSH1 0x20 DUP4 ADD DUP5 PUSH3 0x2CE4 JUMP JUMPDEST SWAP4 SWAP3 POP POP POP JUMP JUMPDEST PUSH32 0x6E6F7420612076616C6964206265746120746573746572000000000000000000 PUSH1 0x0 DUP3 ADD MSTORE POP JUMP JUMPDEST PUSH1 0x0 PUSH3 0x36A6 PUSH1 0x17 DUP4 PUSH3 0x3527 JUMP JUMPDEST SWAP2 POP PUSH3 0x36B3 DUP3 PUSH3 0x366E JUMP JUMPDEST PUSH1 0x20 DUP3 ADD SWAP1 POP SWAP2 SWAP1 POP JUMP JUMPDEST PUSH1 0x0 PUSH1 0x20 DUP3 ADD SWAP1 POP DUP2 DUP2 SUB PUSH1 0x0 DUP4 ADD MSTORE PUSH3 0x36D9 DUP2 PUSH3 0x3697 JUMP JUMPDEST SWAP1 POP SWAP2 SWAP1 POP JUMP JUMPDEST PUSH32 0x6E6F7420656E6F756768206D696C6573746F6E65730000000000000000000000 PUSH1 0x0 DUP3 ADD MSTORE POP JUMP JUMPDEST PUSH1 0x0 PUSH3 0x3718 PUSH1 0x15 DUP4 PUSH3 0x3527 JUMP JUMPDEST SWAP2 POP PUSH3 0x3725 DUP3 PUSH3 0x36E0 JUMP JUMPDEST PUSH1 0x20 DUP3 ADD SWAP1 POP SWAP2 SWAP1 POP JUMP JUMPDEST PUSH1 0x0 PUSH1 0x20 DUP3 ADD SWAP1 POP DUP2 DUP2 SUB PUSH1 0x0 DUP4 ADD MSTORE PUSH3 0x374B DUP2 PUSH3 0x3709 JUMP JUMPDEST SWAP1 POP SWAP2 SWAP1 POP JUMP JUMPDEST PUSH32 0x746F6F206D616E79206D696C6573746F6E657300000000000000000000000000 PUSH1 0x0 DUP3 ADD MSTORE POP JUMP JUMPDEST PUSH1 0x0 PUSH3 0x378A PUSH1 0x13 DUP4 PUSH3 0x3527 JUMP JUMPDEST SWAP2 POP PUSH3 0x3797 DUP3 PUSH3 0x3752 JUMP JUMPDEST PUSH1 0x20 DUP3 ADD SWAP1 POP SWAP2 SWAP1 POP JUMP JUMPDEST PUSH1 0x0 PUSH1 0x20 DUP3 ADD SWAP1 POP DUP2 DUP2 SUB PUSH1 0x0 DUP4 ADD MSTORE PUSH3 0x37BD DUP2 PUSH3 0x377B JUMP JUMPDEST SWAP1 POP SWAP2 SWAP1 POP JUMP JUMPDEST PUSH32 0x7061796D656E7420746F6B656E206E6F7420617070726F766564000000000000 PUSH1 0x0 DUP3 ADD MSTORE POP JUMP JUMPDEST PUSH1 0x0 PUSH3 0x37FC PUSH1 0x1A DUP4 PUSH3 0x3527 JUMP JUMPDEST SWAP2 POP PUSH3 0x3809 DUP3 PUSH3 0x37C4 JUMP JUMPDEST PUSH1 0x20 DUP3 ADD SWAP1 POP SWAP2 SWAP1 POP JUMP JUMPDEST PUSH1 0x0 PUSH1 0x20 DUP3 ADD SWAP1 POP DUP2 DUP2 SUB PUSH1 0x0 DUP4 ADD MSTORE PUSH3 0x382F DUP2 PUSH3 0x37ED JUMP JUMPDEST SWAP1 POP SWAP2 SWAP1 POP JUMP JUMPDEST PUSH1 0x0 DUP2 MLOAD SWAP1 POP SWAP2 SWAP1 POP JUMP JUMPDEST PUSH1 0x0 JUMPDEST DUP4 DUP2 LT ISZERO PUSH3 0x3861 JUMPI DUP1 DUP3 ADD MLOAD DUP2 DUP5 ADD MSTORE PUSH1 0x20 DUP2 ADD SWAP1 POP PUSH3 0x3844 JUMP JUMPDEST PUSH1 0x0 DUP5 DUP5 ADD MSTORE POP POP POP POP JUMP JUMPDEST PUSH1 0x0 PUSH3 0x387A DUP3 PUSH3 0x3836 JUMP JUMPDEST PUSH3 0x3886 DUP2 DUP6 PUSH3 0x3527 JUMP JUMPDEST SWAP4 POP PUSH3 0x3898 DUP2 DUP6 PUSH1 0x20 DUP7 ADD PUSH3 0x3841 JUMP JUMPDEST PUSH3 0x38A3 DUP2 PUSH3 0x2D90 JUMP JUMPDEST DUP5 ADD SWAP2 POP POP SWAP3 SWAP2 POP POP JUMP JUMPDEST PUSH1 0x0 PUSH1 0x40 DUP3 ADD SWAP1 POP DUP2 DUP2 SUB PUSH1 0x0 DUP4 ADD MSTORE PUSH3 0x38CA DUP2 DUP6 PUSH3 0x386D JUMP JUMPDEST SWAP1 POP DUP2 DUP2 SUB PUSH1 0x20 DUP4 ADD MSTORE PUSH3 0x38E0 DUP2 DUP5 PUSH3 0x386D JUMP JUMPDEST SWAP1 POP SWAP4 SWAP3 POP POP POP JUMP JUMPDEST PUSH1 0x0 DUP2 MLOAD SWAP1 POP PUSH3 0x38FA DUP2 PUSH3 0x2C03 JUMP JUMPDEST SWAP3 SWAP2 POP POP JUMP JUMPDEST PUSH1 0x0 PUSH1 0x20 DUP3 DUP5 SUB SLT ISZERO PUSH3 0x3919 JUMPI PUSH3 0x3918 PUSH3 0x2B14 JUMP JUMPDEST JUMPDEST PUSH1 0x0 PUSH3 0x3929 DUP5 DUP3 DUP6 ADD PUSH3 0x38E9 JUMP JUMPDEST SWAP2 POP POP SWAP3 SWAP2 POP POP JUMP JUMPDEST PUSH32 0x50726F6A65637420746F6B656E206D75737420696E697469616C6C7920626520 PUSH1 0x0 DUP3 ADD MSTORE PUSH32 0x6F776E656420627920506C6174666F726D000000000000000000000000000000 PUSH1 0x20 DUP3 ADD MSTORE POP JUMP JUMPDEST PUSH1 0x0 PUSH3 0x3990 PUSH1 0x31 DUP4 PUSH3 0x3527 JUMP JUMPDEST SWAP2 POP PUSH3 0x399D DUP3 PUSH3 0x3932 JUMP JUMPDEST PUSH1 0x40 DUP3 ADD SWAP1 POP SWAP2 SWAP1 POP JUMP JUMPDEST PUSH1 0x0 PUSH1 0x20 DUP3 ADD SWAP1 POP DUP2 DUP2 SUB PUSH1 0x0 DUP4 ADD MSTORE PUSH3 0x39C3 DUP2 PUSH3 0x3981 JUMP JUMPDEST SWAP1 POP SWAP2 SWAP1 POP JUMP JUMPDEST PUSH32 0x5661756C74206D757374206265206F776E65642062792070726F6A6563740000 PUSH1 0x0 DUP3 ADD MSTORE POP JUMP JUMPDEST PUSH1 0x0 PUSH3 0x3A02 PUSH1 0x1E DUP4 PUSH3 0x3527 JUMP JUMPDEST SWAP2 POP PUSH3 0x3A0F DUP3 PUSH3 0x39CA JUMP JUMPDEST PUSH1 0x20 DUP3 ADD SWAP1 POP SWAP2 SWAP1 POP JUMP JUMPDEST PUSH1 0x0 PUSH1 0x20 DUP3 ADD SWAP1 POP DUP2 DUP2 SUB PUSH1 0x0 DUP4 ADD MSTORE PUSH3 0x3A35 DUP2 PUSH3 0x39F3 JUMP JUMPDEST SWAP1 POP SWAP2 SWAP1 POP JUMP JUMPDEST PUSH3 0x3A47 DUP2 PUSH3 0x2B3E JUMP JUMPDEST DUP3 MSTORE POP POP JUMP JUMPDEST PUSH1 0x0 PUSH3 0x3A5A DUP3 PUSH3 0x33E9 JUMP JUMPDEST SWAP1 POP SWAP2 SWAP1 POP JUMP JUMPDEST PUSH3 0x3A6C DUP2 PUSH3 0x3A4D JUMP JUMPDEST DUP3 MSTORE POP POP JUMP JUMPDEST PUSH1 0x0 DUP2 MLOAD SWAP1 POP SWAP2 SWAP1 POP JUMP JUMPDEST PUSH1 0x0 DUP3 DUP3 MSTORE PUSH1 0x20 DUP3 ADD SWAP1 POP SWAP3 SWAP2 POP POP JUMP JUMPDEST PUSH1 0x0 DUP2 SWAP1 POP PUSH1 0x20 DUP3 ADD SWAP1 POP SWAP2 SWAP1 POP JUMP JUMPDEST PUSH3 0x3AA9 DUP2 PUSH3 0x3030 JUMP JUMPDEST DUP3 MSTORE POP POP JUMP JUMPDEST PUSH3 0x3ABA DUP2 PUSH3 0x2C34 JUMP JUMPDEST DUP3 MSTORE POP POP JUMP JUMPDEST PUSH1 0x60 DUP3 ADD PUSH1 0x0 DUP3 ADD MLOAD PUSH3 0x3AD8 PUSH1 0x0 DUP6 ADD DUP3 PUSH3 0x3A3C JUMP JUMPDEST POP PUSH1 0x20 DUP3 ADD MLOAD PUSH3 0x3AED PUSH1 0x20 DUP6 ADD DUP3 PUSH3 0x3A9E JUMP JUMPDEST POP PUSH1 0x40 DUP3 ADD MLOAD PUSH3 0x3B02 PUSH1 0x40 DUP6 ADD DUP3 PUSH3 0x3AAF JUMP JUMPDEST POP POP POP POP JUMP JUMPDEST PUSH32 0x4E487B7100000000000000000000000000000000000000000000000000000000 PUSH1 0x0 MSTORE PUSH1 0x21 PUSH1 0x4 MSTORE PUSH1 0x24 PUSH1 0x0 REVERT JUMPDEST PUSH1 0x3 DUP2 LT PUSH3 0x3B4B JUMPI PUSH3 0x3B4A PUSH3 0x3B08 JUMP JUMPDEST JUMPDEST POP JUMP JUMPDEST PUSH1 0x0 DUP2 SWAP1 POP PUSH3 0x3B5E DUP3 PUSH3 0x3B37 JUMP JUMPDEST SWAP2 SWAP1 POP JUMP JUMPDEST PUSH1 0x0 PUSH3 0x3B70 DUP3 PUSH3 0x3B4E JUMP JUMPDEST SWAP1 POP SWAP2 SWAP1 POP JUMP JUMPDEST PUSH3 0x3B82 DUP2 PUSH3 0x3B63 JUMP JUMPDEST DUP3 MSTORE POP POP JUMP JUMPDEST PUSH3 0x3B93 DUP2 PUSH3 0x3108 JUMP JUMPDEST DUP3 MSTORE POP POP JUMP JUMPDEST PUSH1 0xE0 DUP3 ADD PUSH1 0x0 DUP3 ADD MLOAD PUSH3 0x3BB1 PUSH1 0x0 DUP6 ADD DUP3 PUSH3 0x3AC0 JUMP JUMPDEST POP PUSH1 0x20 DUP3 ADD MLOAD PUSH3 0x3BC6 PUSH1 0x60 DUP6 ADD DUP3 PUSH3 0x3B77 JUMP JUMPDEST POP PUSH1 0x40 DUP3 ADD MLOAD PUSH3 0x3BDB PUSH1 0x80 DUP6 ADD DUP3 PUSH3 0x3A9E JUMP JUMPDEST POP PUSH1 0x60 DUP3 ADD MLOAD PUSH3 0x3BF0 PUSH1 0xA0 DUP6 ADD DUP3 PUSH3 0x3B88 JUMP JUMPDEST POP PUSH1 0x80 DUP3 ADD MLOAD PUSH3 0x3C05 PUSH1 0xC0 DUP6 ADD DUP3 PUSH3 0x3AAF JUMP JUMPDEST POP POP POP POP JUMP JUMPDEST PUSH1 0x0 PUSH3 0x3C19 DUP4 DUP4 PUSH3 0x3B99 JUMP JUMPDEST PUSH1 0xE0 DUP4 ADD SWAP1 POP SWAP3 SWAP2 POP POP JUMP JUMPDEST PUSH1 0x0 PUSH1 0x20 DUP3 ADD SWAP1 POP SWAP2 SWAP1 POP JUMP JUMPDEST PUSH1 0x0 PUSH3 0x3C3F DUP3 PUSH3 0x3A72 JUMP JUMPDEST PUSH3 0x3C4B DUP2 DUP6 PUSH3 0x3A7D JUMP JUMPDEST SWAP4 POP PUSH3 0x3C58 DUP4 PUSH3 0x3A8E JUMP JUMPDEST DUP1 PUSH1 0x0 JUMPDEST DUP4 DUP2 LT ISZERO PUSH3 0x3C8F JUMPI DUP2 MLOAD PUSH3 0x3C73 DUP9 DUP3 PUSH3 0x3C0B JUMP JUMPDEST SWAP8 POP PUSH3 0x3C80 DUP4 PUSH3 0x3C25 JUMP JUMPDEST SWAP3 POP POP PUSH1 0x1 DUP2 ADD SWAP1 POP PUSH3 0x3C5C JUMP JUMPDEST POP DUP6 SWAP4 POP POP POP POP SWAP3 SWAP2 POP POP JUMP JUMPDEST PUSH1 0x0 PUSH3 0x3CA9 DUP3 PUSH3 0x33E9 JUMP JUMPDEST SWAP1 POP SWAP2 SWAP1 POP JUMP JUMPDEST PUSH3 0x3CBB DUP2 PUSH3 0x3C9C JUMP JUMPDEST DUP3 MSTORE POP POP JUMP JUMPDEST PUSH1 0x0 PUSH2 0x120 DUP4 ADD PUSH1 0x0 DUP4 ADD MLOAD PUSH3 0x3CDC PUSH1 0x0 DUP7 ADD DUP3 PUSH3 0x3A3C JUMP JUMPDEST POP PUSH1 0x20 DUP4 ADD MLOAD PUSH3 0x3CF1 PUSH1 0x20 DUP7 ADD DUP3 PUSH3 0x3A61 JUMP JUMPDEST POP PUSH1 0x40 DUP4 ADD MLOAD DUP5 DUP3 SUB PUSH1 0x40 DUP7 ADD MSTORE PUSH3 0x3D0B DUP3 DUP3 PUSH3 0x3C32 JUMP JUMPDEST SWAP2 POP POP PUSH1 0x60 DUP4 ADD MLOAD PUSH3 0x3D22 PUSH1 0x60 DUP7 ADD DUP3 PUSH3 0x3CB0 JUMP JUMPDEST POP PUSH1 0x80 DUP4 ADD MLOAD PUSH3 0x3D37 PUSH1 0x80 DUP7 ADD DUP3 PUSH3 0x3AAF JUMP JUMPDEST POP PUSH1 0xA0 DUP4 ADD MLOAD PUSH3 0x3D4C PUSH1 0xA0 DUP7 ADD DUP3 PUSH3 0x3AAF JUMP JUMPDEST POP PUSH1 0xC0 DUP4 ADD MLOAD PUSH3 0x3D61 PUSH1 0xC0 DUP7 ADD DUP3 PUSH3 0x3AAF JUMP JUMPDEST POP PUSH1 0xE0 DUP4 ADD MLOAD PUSH3 0x3D76 PUSH1 0xE0 DUP7 ADD DUP3 PUSH3 0x3AAF JUMP JUMPDEST POP PUSH2 0x100 DUP4 ADD MLOAD PUSH3 0x3D8D PUSH2 0x100 DUP7 ADD DUP3 PUSH3 0x3A3C JUMP JUMPDEST POP DUP1 SWAP2 POP POP SWAP3 SWAP2 POP POP JUMP JUMPDEST PUSH1 0x0 PUSH1 0x20 DUP3 ADD SWAP1 POP DUP2 DUP2 SUB PUSH1 0x0 DUP4 ADD MSTORE PUSH3 0x3DB4 DUP2 DUP5 PUSH3 0x3CC1 JUMP JUMPDEST SWAP1 POP SWAP3 SWAP2 POP POP JUMP JUMPDEST PUSH32 0x50726F6A656374206D757374206265206F776E6564206279207465616D000000 PUSH1 0x0 DUP3 ADD MSTORE POP JUMP JUMPDEST PUSH1 0x0 PUSH3 0x3DF4 PUSH1 0x1D DUP4 PUSH3 0x3527 JUMP JUMPDEST SWAP2 POP PUSH3 0x3E01 DUP3 PUSH3 0x3DBC JUMP JUMPDEST PUSH1 0x20 DUP3 ADD SWAP1 POP SWAP2 SWAP1 POP JUMP JUMPDEST PUSH1 0x0 PUSH1 0x20 DUP3 ADD SWAP1 POP DUP2 DUP2 SUB PUSH1 0x0 DUP4 ADD MSTORE PUSH3 0x3E27 DUP2 PUSH3 0x3DE5 JUMP JUMPDEST SWAP1 POP SWAP2 SWAP1 POP JUMP JUMPDEST PUSH32 0x50726F6A65637420746F6B656E206D757374206265206F776E65642062792050 PUSH1 0x0 DUP3 ADD MSTORE PUSH32 0x6C6174666F726D00000000000000000000000000000000000000000000000000 PUSH1 0x20 DUP3 ADD MSTORE POP JUMP JUMPDEST PUSH1 0x0 PUSH3 0x3E8C PUSH1 0x27 DUP4 PUSH3 0x3527 JUMP JUMPDEST SWAP2 POP PUSH3 0x3E99 DUP3 PUSH3 0x3E2E JUMP JUMPDEST PUSH1 0x40 DUP3 ADD SWAP1 POP SWAP2 SWAP1 POP JUMP JUMPDEST PUSH1 0x0 PUSH1 0x20 DUP3 ADD SWAP1 POP DUP2 DUP2 SUB PUSH1 0x0 DUP4 ADD MSTORE PUSH3 0x3EBF DUP2 PUSH3 0x3E7D JUMP JUMPDEST SWAP1 POP SWAP2 SWAP1 POP JUMP JUMPDEST PUSH1 0x0 PUSH1 0xE0 DUP3 ADD SWAP1 POP PUSH3 0x3EDD PUSH1 0x0 DUP4 ADD DUP11 PUSH3 0x2CE4 JUMP JUMPDEST PUSH3 0x3EEC PUSH1 0x20 DUP4 ADD DUP10 PUSH3 0x2CB6 JUMP JUMPDEST DUP2 DUP2 SUB PUSH1 0x40 DUP4 ADD MSTORE PUSH3 0x3F00 DUP2 DUP9 PUSH3 0x386D JUMP JUMPDEST SWAP1 POP DUP2 DUP2 SUB PUSH1 0x60 DUP4 ADD MSTORE PUSH3 0x3F16 DUP2 DUP8 PUSH3 0x386D JUMP JUMPDEST SWAP1 POP PUSH3 0x3F27 PUSH1 0x80 DUP4 ADD DUP7 PUSH3 0x2CE4 JUMP JUMPDEST PUSH3 0x3F36 PUSH1 0xA0 DUP4 ADD DUP6 PUSH3 0x2CE4 JUMP JUMPDEST PUSH3 0x3F45 PUSH1 0xC0 DUP4 ADD DUP5 PUSH3 0x2CE4 JUMP JUMPDEST SWAP9 SWAP8 POP POP POP POP POP POP POP POP JUMP JUMPDEST PUSH32 0x626164207061796D656E7420746F6B656E206164647265737300000000000000 PUSH1 0x0 DUP3 ADD MSTORE POP JUMP JUMPDEST PUSH1 0x0 PUSH3 0x3F89 PUSH1 0x19 DUP4 PUSH3 0x3527 JUMP JUMPDEST SWAP2 POP PUSH3 0x3F96 DUP3 PUSH3 0x3F51 JUMP JUMPDEST PUSH1 0x20 DUP3 ADD SWAP1 POP SWAP2 SWAP1 POP JUMP JUMPDEST PUSH1 0x0 PUSH1 0x20 DUP3 ADD SWAP1 POP DUP2 DUP2 SUB PUSH1 0x0 DUP4 ADD MSTORE PUSH3 0x3FBC DUP2 PUSH3 0x3F7A JUMP JUMPDEST SWAP1 POP SWAP2 SWAP1 POP JUMP JUMPDEST PUSH32 0x62616420706C6174666F726D2063757400000000000000000000000000000000 PUSH1 0x0 DUP3 ADD MSTORE POP JUMP JUMPDEST PUSH1 0x0 PUSH3 0x3FFB PUSH1 0x10 DUP4 PUSH3 0x3527 JUMP JUMPDEST SWAP2 POP PUSH3 0x4008 DUP3 PUSH3 0x3FC3 JUMP JUMPDEST PUSH1 0x20 DUP3 ADD SWAP1 POP SWAP2 SWAP1 POP JUMP JUMPDEST PUSH1 0x0 PUSH1 0x20 DUP3 ADD SWAP1 POP DUP2 DUP2 SUB PUSH1 0x0 DUP4 ADD MSTORE PUSH3 0x402E DUP2 PUSH3 0x3FEC JUMP JUMPDEST SWAP1 POP SWAP2 SWAP1 POP JUMP JUMPDEST PUSH32 0x4F776E61626C653A206E6577206F776E657220697320746865207A65726F2061 PUSH1 0x0 DUP3 ADD MSTORE PUSH32 0x6464726573730000000000000000000000000000000000000000000000000000 PUSH1 0x20 DUP3 ADD MSTORE POP JUMP JUMPDEST PUSH1 0x0 PUSH3 0x4093 PUSH1 0x26 DUP4 PUSH3 0x3527 JUMP JUMPDEST SWAP2 POP PUSH3 0x40A0 DUP3 PUSH3 0x4035 JUMP JUMPDEST PUSH1 0x40 DUP3 ADD SWAP1 POP SWAP2 SWAP1 POP JUMP JUMPDEST PUSH1 0x0 PUSH1 0x20 DUP3 ADD SWAP1 POP DUP2 DUP2 SUB PUSH1 0x0 DUP4 ADD MSTORE PUSH3 0x40C6 DUP2 PUSH3 0x4084 JUMP JUMPDEST SWAP1 POP SWAP2 SWAP1 POP JUMP JUMPDEST PUSH32 0x4F776E61626C653A2063616C6C6572206973206E6F7420746865206F776E6572 PUSH1 0x0 DUP3 ADD MSTORE POP JUMP JUMPDEST PUSH1 0x0 PUSH3 0x4105 PUSH1 0x20 DUP4 PUSH3 0x3527 JUMP JUMPDEST SWAP2 POP PUSH3 0x4112 DUP3 PUSH3 0x40CD JUMP JUMPDEST PUSH1 0x20 DUP3 ADD SWAP1 POP SWAP2 SWAP1 POP JUMP JUMPDEST PUSH1 0x0 PUSH1 0x20 DUP3 ADD SWAP1 POP DUP2 DUP2 SUB PUSH1 0x0 DUP4 ADD MSTORE PUSH3 0x4138 DUP2 PUSH3 0x40F6 JUMP JUMPDEST SWAP1 POP SWAP2 SWAP1 POP JUMP JUMPDEST PUSH32 0x5061757361626C653A206E6F7420706175736564000000000000000000000000 PUSH1 0x0 DUP3 ADD MSTORE POP JUMP JUMPDEST PUSH1 0x0 PUSH3 0x4177 PUSH1 0x14 DUP4 PUSH3 0x3527 JUMP JUMPDEST SWAP2 POP PUSH3 0x4184 DUP3 PUSH3 0x413F JUMP JUMPDEST PUSH1 0x20 DUP3 ADD SWAP1 POP SWAP2 SWAP1 POP JUMP JUMPDEST PUSH1 0x0 PUSH1 0x20 DUP3 ADD SWAP1 POP DUP2 DUP2 SUB PUSH1 0x0 DUP4 ADD MSTORE PUSH3 0x41AA DUP2 PUSH3 0x4168 JUMP JUMPDEST SWAP1 POP SWAP2 SWAP1 POP JUMP JUMPDEST PUSH1 0x0 DUP2 MLOAD SWAP1 POP PUSH3 0x41C2 DUP2 PUSH3 0x2C3E JUMP JUMPDEST SWAP3 SWAP2 POP POP JUMP JUMPDEST PUSH1 0x0 PUSH1 0x20 DUP3 DUP5 SUB SLT ISZERO PUSH3 0x41E1 JUMPI PUSH3 0x41E0 PUSH3 0x2B14 JUMP JUMPDEST JUMPDEST PUSH1 0x0 PUSH3 0x41F1 DUP5 DUP3 DUP6 ADD PUSH3 0x41B1 JUMP JUMPDEST SWAP2 POP POP SWAP3 SWAP2 POP POP JUMP JUMPDEST PUSH32 0x6E6F7420656E6F75676820746F6B656E7320696E20706C6174666F726D000000 PUSH1 0x0 DUP3 ADD MSTORE POP JUMP JUMPDEST PUSH1 0x0 PUSH3 0x4232 PUSH1 0x1D DUP4 PUSH3 0x3527 JUMP JUMPDEST SWAP2 POP PUSH3 0x423F DUP3 PUSH3 0x41FA JUMP JUMPDEST PUSH1 0x20 DUP3 ADD SWAP1 POP SWAP2 SWAP1 POP JUMP JUMPDEST PUSH1 0x0 PUSH1 0x20 DUP3 ADD SWAP1 POP DUP2 DUP2 SUB PUSH1 0x0 DUP4 ADD MSTORE PUSH3 0x4265 DUP2 PUSH3 0x4223 JUMP JUMPDEST SWAP1 POP SWAP2 SWAP1 POP JUMP JUMPDEST PUSH1 0x0 PUSH3 0x4279 DUP3 PUSH3 0x2C34 JUMP JUMPDEST SWAP2 POP PUSH3 0x4286 DUP4 PUSH3 0x2C34 JUMP JUMPDEST SWAP3 POP DUP3 DUP3 SUB SWAP1 POP DUP2 DUP2 GT ISZERO PUSH3 0x42A1 JUMPI PUSH3 0x42A0 PUSH3 0x35AA JUMP JUMPDEST JUMPDEST SWAP3 SWAP2 POP POP JUMP JUMPDEST PUSH1 0x0 DUP2 MLOAD SWAP1 POP PUSH3 0x42B8 DUP2 PUSH3 0x330D JUMP JUMPDEST SWAP3 SWAP2 POP POP JUMP JUMPDEST PUSH1 0x0 PUSH1 0x20 DUP3 DUP5 SUB SLT ISZERO PUSH3 0x42D7 JUMPI PUSH3 0x42D6 PUSH3 0x2B14 JUMP JUMPDEST JUMPDEST PUSH1 0x0 PUSH3 0x42E7 DUP5 DUP3 DUP6 ADD PUSH3 0x42A7 JUMP JUMPDEST SWAP2 POP POP SWAP3 SWAP2 POP POP JUMP JUMPDEST PUSH32 0x4661696C656420746F207472616E73666572207061796D656E7420746F6B656E PUSH1 0x0 DUP3 ADD MSTORE PUSH32 0x7300000000000000000000000000000000000000000000000000000000000000 PUSH1 0x20 DUP3 ADD MSTORE POP JUMP JUMPDEST PUSH1 0x0 PUSH3 0x434E PUSH1 0x21 DUP4 PUSH3 0x3527 JUMP JUMPDEST SWAP2 POP PUSH3 0x435B DUP3 PUSH3 0x42F0 JUMP JUMPDEST PUSH1 0x40 DUP3 ADD SWAP1 POP SWAP2 SWAP1 POP JUMP JUMPDEST PUSH1 0x0 PUSH1 0x20 DUP3 ADD SWAP1 POP DUP2 DUP2 SUB PUSH1 0x0 DUP4 ADD MSTORE PUSH3 0x4381 DUP2 PUSH3 0x433F JUMP JUMPDEST SWAP1 POP SWAP2 SWAP1 POP JUMP JUMPDEST PUSH32 0x5061757361626C653A2070617573656400000000000000000000000000000000 PUSH1 0x0 DUP3 ADD MSTORE POP JUMP JUMPDEST PUSH1 0x0 PUSH3 0x43C0 PUSH1 0x10 DUP4 PUSH3 0x3527 JUMP JUMPDEST SWAP2 POP PUSH3 0x43CD DUP3 PUSH3 0x4388 JUMP JUMPDEST PUSH1 0x20 DUP3 ADD SWAP1 POP SWAP2 SWAP1 POP JUMP JUMPDEST PUSH1 0x0 PUSH1 0x20 DUP3 ADD SWAP1 POP DUP2 DUP2 SUB PUSH1 0x0 DUP4 ADD MSTORE PUSH3 0x43F3 DUP2 PUSH3 0x43B1 JUMP JUMPDEST SWAP1 POP SWAP2 SWAP1 POP JUMP JUMPDEST PUSH32 0x4E487B7100000000000000000000000000000000000000000000000000000000 PUSH1 0x0 MSTORE PUSH1 0x32 PUSH1 0x4 MSTORE PUSH1 0x24 PUSH1 0x0 REVERT JUMPDEST PUSH1 0x0 PUSH3 0x4436 DUP3 PUSH3 0x2C34 JUMP JUMPDEST SWAP2 POP PUSH32 0xFFFFFFFFFFFFFFFFFFFFFFFFFFFFFFFFFFFFFFFFFFFFFFFFFFFFFFFFFFFFFFFF DUP3 SUB PUSH3 0x446B JUMPI PUSH3 0x446A PUSH3 0x35AA JUMP JUMPDEST JUMPDEST PUSH1 0x1 DUP3 ADD SWAP1 POP SWAP2 SWAP1 POP JUMP JUMPDEST PUSH32 0x455243313136373A20637265617465206661696C656400000000000000000000 PUSH1 0x0 DUP3 ADD MSTORE POP JUMP JUMPDEST PUSH1 0x0 PUSH3 0x44AE PUSH1 0x16 DUP4 PUSH3 0x3527 JUMP JUMPDEST SWAP2 POP PUSH3 0x44BB DUP3 PUSH3 0x4476 JUMP JUMPDEST PUSH1 0x20 DUP3 ADD SWAP1 POP SWAP2 SWAP1 POP JUMP JUMPDEST PUSH1 0x0 PUSH1 0x20 DUP3 ADD SWAP1 POP DUP2 DUP2 SUB PUSH1 0x0 DUP4 ADD MSTORE PUSH3 0x44E1 DUP2 PUSH3 0x449F JUMP JUMPDEST SWAP1 POP SWAP2 SWAP1 POP JUMP JUMPDEST PUSH3 0x44F3 DUP2 PUSH3 0x3030 JUMP JUMPDEST DUP3 MSTORE POP POP JUMP JUMPDEST PUSH1 0x0 PUSH1 0x60 DUP3 ADD SWAP1 POP PUSH3 0x4510 PUSH1 0x0 DUP4 ADD DUP7 PUSH3 0x2CE4 JUMP JUMPDEST PUSH3 0x451F PUSH1 0x20 DUP4 ADD DUP6 PUSH3 0x44E8 JUMP JUMPDEST PUSH3 0x452E PUSH1 0x40 DUP4 ADD DUP5 PUSH3 0x2CE4 JUMP JUMPDEST SWAP5 SWAP4 POP POP POP POP JUMP JUMPDEST PUSH1 0x0 PUSH3 0x4557 PUSH3 0x4551 PUSH3 0x454B DUP5 PUSH3 0x3030 JUMP JUMPDEST PUSH3 0x33B7 JUMP JUMPDEST PUSH3 0x2C34 JUMP JUMPDEST SWAP1 POP SWAP2 SWAP1 POP JUMP JUMPDEST PUSH3 0x4569 DUP2 PUSH3 0x4536 JUMP JUMPDEST DUP3 MSTORE POP POP JUMP JUMPDEST PUSH1 0x0 PUSH1 0x80 DUP3 ADD SWAP1 POP PUSH3 0x4586 PUSH1 0x0 DUP4 ADD DUP8 PUSH3 0x2CE4 JUMP JUMPDEST PUSH3 0x4595 PUSH1 0x20 DUP4 ADD DUP7 PUSH3 0x2CB6 JUMP JUMPDEST PUSH3 0x45A4 PUSH1 0x40 DUP4 ADD DUP6 PUSH3 0x2CE4 JUMP JUMPDEST PUSH3 0x45B3 PUSH1 0x60 DUP4 ADD DUP5 PUSH3 0x455E JUMP JUMPDEST SWAP6 SWAP5 POP POP POP POP POP JUMP JUMPDEST PUSH1 0x0 PUSH32 0xFFFFFFFF00000000000000000000000000000000000000000000000000000000 DUP3 AND SWAP1 POP SWAP2 SWAP1 POP JUMP JUMPDEST PUSH3 0x45F3 DUP2 PUSH3 0x45BC JUMP JUMPDEST DUP3 MSTORE POP POP JUMP JUMPDEST PUSH1 0x0 PUSH1 0x20 DUP3 ADD SWAP1 POP PUSH3 0x4610 PUSH1 0x0 DUP4 ADD DUP5 PUSH3 0x45E8 JUMP JUMPDEST SWAP3 SWAP2 POP POP JUMP INVALID PUSH1 0x80 PUSH1 0x40 MSTORE CALLVALUE DUP1 ISZERO PUSH3 0x11 JUMPI PUSH1 0x0 DUP1 REVERT JUMPDEST POP PUSH1 0x40 MLOAD PUSH3 0x2E27 CODESIZE SUB DUP1 PUSH3 0x2E27 DUP4 CODECOPY DUP2 DUP2 ADD PUSH1 0x40 MSTORE DUP2 ADD SWAP1 PUSH3 0x37 SWAP2 SWAP1 PUSH3 0x40C JUMP JUMPDEST DUP2 DUP2 DUP2 PUSH1 0x3 SWAP1 DUP2 PUSH3 0x4A SWAP2 SWAP1 PUSH3 0x6DC JUMP JUMPDEST POP DUP1 PUSH1 0x4 SWAP1 DUP2 PUSH3 0x5C SWAP2 SWAP1 PUSH3 0x6DC JUMP JUMPDEST POP POP POP PUSH1 0x0 PUSH1 0x6 PUSH1 0x0 PUSH2 0x100 EXP DUP2 SLOAD DUP2 PUSH1 0xFF MUL NOT AND SWAP1 DUP4 ISZERO ISZERO MUL OR SWAP1 SSTORE POP PUSH3 0x9A PUSH3 0x8E PUSH3 0xD3 PUSH1 0x20 SHL PUSH1 0x20 SHR JUMP JUMPDEST PUSH3 0xDB PUSH1 0x20 SHL PUSH1 0x20 SHR JUMP JUMPDEST PUSH3 0xCB PUSH32 0x2D52206C00000000000000000000000000000000000000000000000000000000 PUSH3 0x1A1 PUSH1 0x20 SHL PUSH1 0x20 SHR JUMP JUMPDEST POP POP PUSH3 0x846 JUMP JUMPDEST PUSH1 0x0 CALLER SWAP1 POP SWAP1 JUMP JUMPDEST PUSH1 0x0 PUSH1 0x6 PUSH1 0x1 SWAP1 SLOAD SWAP1 PUSH2 0x100 EXP SWAP1 DIV PUSH20 0xFFFFFFFFFFFFFFFFFFFFFFFFFFFFFFFFFFFFFFFF AND SWAP1 POP DUP2 PUSH1 0x6 PUSH1 0x1 PUSH2 0x100 EXP DUP2 SLOAD DUP2 PUSH20 0xFFFFFFFFFFFFFFFFFFFFFFFFFFFFFFFFFFFFFFFF MUL NOT AND SWAP1 DUP4 PUSH20 0xFFFFFFFFFFFFFFFFFFFFFFFFFFFFFFFFFFFFFFFF AND MUL OR SWAP1 SSTORE POP DUP2 PUSH20 0xFFFFFFFFFFFFFFFFFFFFFFFFFFFFFFFFFFFFFFFF AND DUP2 PUSH20 0xFFFFFFFFFFFFFFFFFFFFFFFFFFFFFFFFFFFFFFFF AND PUSH32 0x8BE0079C531659141344CD1FD0A4F28419497F9722A3DAAFE3B4186F6B6457E0 PUSH1 0x40 MLOAD PUSH1 0x40 MLOAD DUP1 SWAP2 SUB SWAP1 LOG3 POP POP JUMP JUMPDEST PUSH4 0xFFFFFFFF PUSH1 0xE0 SHL DUP2 PUSH28 0xFFFFFFFFFFFFFFFFFFFFFFFFFFFFFFFFFFFFFFFFFFFFFFFFFFFFFFFF NOT AND SUB PUSH3 0x20C JUMPI PUSH1 0x40 MLOAD PUSH32 0x8C379A000000000000000000000000000000000000000000000000000000000 DUP2 MSTORE PUSH1 0x4 ADD PUSH3 0x203 SWAP1 PUSH3 0x824 JUMP JUMPDEST PUSH1 0x40 MLOAD DUP1 SWAP2 SUB SWAP1 REVERT JUMPDEST PUSH1 0x1 PUSH1 0x5 PUSH1 0x0 DUP4 PUSH28 0xFFFFFFFFFFFFFFFFFFFFFFFFFFFFFFFFFFFFFFFFFFFFFFFFFFFFFFFF NOT AND PUSH28 0xFFFFFFFFFFFFFFFFFFFFFFFFFFFFFFFFFFFFFFFFFFFFFFFFFFFFFFFF NOT AND DUP2 MSTORE PUSH1 0x20 ADD SWAP1 DUP2 MSTORE PUSH1 0x20 ADD PUSH1 0x0 KECCAK256 PUSH1 0x0 PUSH2 0x100 EXP DUP2 SLOAD DUP2 PUSH1 0xFF MUL NOT AND SWAP1 DUP4 ISZERO ISZERO MUL OR SWAP1 SSTORE POP POP JUMP JUMPDEST PUSH1 0x0 PUSH1 0x40 MLOAD SWAP1 POP SWAP1 JUMP JUMPDEST PUSH1 0x0 DUP1 REVERT JUMPDEST PUSH1 0x0 DUP1 REVERT JUMPDEST PUSH1 0x0 DUP1 REVERT JUMPDEST PUSH1 0x0 DUP1 REVERT JUMPDEST PUSH1 0x0 PUSH1 0x1F NOT PUSH1 0x1F DUP4 ADD AND SWAP1 POP SWAP2 SWAP1 POP JUMP JUMPDEST PUSH32 0x4E487B7100000000000000000000000000000000000000000000000000000000 PUSH1 0x0 MSTORE PUSH1 0x41 PUSH1 0x4 MSTORE PUSH1 0x24 PUSH1 0x0 REVERT JUMPDEST PUSH3 0x2E2 DUP3 PUSH3 0x297 JUMP JUMPDEST DUP2 ADD DUP2 DUP2 LT PUSH8 0xFFFFFFFFFFFFFFFF DUP3 GT OR ISZERO PUSH3 0x304 JUMPI PUSH3 0x303 PUSH3 0x2A8 JUMP JUMPDEST JUMPDEST DUP1 PUSH1 0x40 MSTORE POP POP POP JUMP JUMPDEST PUSH1 0x0 PUSH3 0x319 PUSH3 0x279 JUMP JUMPDEST SWAP1 POP PUSH3 0x327 DUP3 DUP3 PUSH3 0x2D7 JUMP JUMPDEST SWAP2 SWAP1 POP JUMP JUMPDEST PUSH1 0x0 PUSH8 0xFFFFFFFFFFFFFFFF DUP3 GT ISZERO PUSH3 0x34A JUMPI PUSH3 0x349 PUSH3 0x2A8 JUMP JUMPDEST JUMPDEST PUSH3 0x355 DUP3 PUSH3 0x297 JUMP JUMPDEST SWAP1 POP PUSH1 0x20 DUP2 ADD SWAP1 POP SWAP2 SWAP1 POP JUMP JUMPDEST PUSH1 0x0 JUMPDEST DUP4 DUP2 LT ISZERO PUSH3 0x382 JUMPI DUP1 DUP3 ADD MLOAD DUP2 DUP5 ADD MSTORE PUSH1 0x20 DUP2 ADD SWAP1 POP PUSH3 0x365 JUMP JUMPDEST PUSH1 0x0 DUP5 DUP5 ADD MSTORE POP POP POP POP JUMP JUMPDEST PUSH1 0x0 PUSH3 0x3A5 PUSH3 0x39F DUP5 PUSH3 0x32C JUMP JUMPDEST PUSH3 0x30D JUMP JUMPDEST SWAP1 POP DUP3 DUP2 MSTORE PUSH1 0x20 DUP2 ADD DUP5 DUP5 DUP5 ADD GT ISZERO PUSH3 0x3C4 JUMPI PUSH3 0x3C3 PUSH3 0x292 JUMP JUMPDEST JUMPDEST PUSH3 0x3D1 DUP5 DUP3 DUP6 PUSH3 0x362 JUMP JUMPDEST POP SWAP4 SWAP3 POP POP POP JUMP JUMPDEST PUSH1 0x0 DUP3 PUSH1 0x1F DUP4 ADD SLT PUSH3 0x3F1 JUMPI PUSH3 0x3F0 PUSH3 0x28D JUMP JUMPDEST JUMPDEST DUP2 MLOAD PUSH3 0x403 DUP5 DUP3 PUSH1 0x20 DUP7 ADD PUSH3 0x38E JUMP JUMPDEST SWAP2 POP POP SWAP3 SWAP2 POP POP JUMP JUMPDEST PUSH1 0x0 DUP1 PUSH1 0x40 DUP4 DUP6 SUB SLT ISZERO PUSH3 0x426 JUMPI PUSH3 0x425 PUSH3 0x283 JUMP JUMPDEST JUMPDEST PUSH1 0x0 DUP4 ADD MLOAD PUSH8 0xFFFFFFFFFFFFFFFF DUP2 GT ISZERO PUSH3 0x447 JUMPI PUSH3 0x446 PUSH3 0x288 JUMP JUMPDEST JUMPDEST PUSH3 0x455 DUP6 DUP3 DUP7 ADD PUSH3 0x3D9 JUMP JUMPDEST SWAP3 POP POP PUSH1 0x20 DUP4 ADD MLOAD PUSH8 0xFFFFFFFFFFFFFFFF DUP2 GT ISZERO PUSH3 0x479 JUMPI PUSH3 0x478 PUSH3 0x288 JUMP JUMPDEST JUMPDEST PUSH3 0x487 DUP6 DUP3 DUP7 ADD PUSH3 0x3D9 JUMP JUMPDEST SWAP2 POP POP SWAP3 POP SWAP3 SWAP1 POP JUMP JUMPDEST PUSH1 0x0 DUP2 MLOAD SWAP1 POP SWAP2 SWAP1 POP JUMP JUMPDEST PUSH32 0x4E487B7100000000000000000000000000000000000000000000000000000000 PUSH1 0x0 MSTORE PUSH1 0x22 PUSH1 0x4 MSTORE PUSH1 0x24 PUSH1 0x0 REVERT JUMPDEST PUSH1 0x0 PUSH1 0x2 DUP3 DIV SWAP1 POP PUSH1 0x1 DUP3 AND DUP1 PUSH3 0x4E4 JUMPI PUSH1 0x7F DUP3 AND SWAP2 POP JUMPDEST PUSH1 0x20 DUP3 LT DUP2 SUB PUSH3 0x4FA JUMPI PUSH3 0x4F9 PUSH3 0x49C JUMP JUMPDEST JUMPDEST POP SWAP2 SWAP1 POP JUMP JUMPDEST PUSH1 0x0 DUP2 SWAP1 POP DUP2 PUSH1 0x0 MSTORE PUSH1 0x20 PUSH1 0x0 KECCAK256 SWAP1 POP SWAP2 SWAP1 POP JUMP JUMPDEST PUSH1 0x0 PUSH1 0x20 PUSH1 0x1F DUP4 ADD DIV SWAP1 POP SWAP2 SWAP1 POP JUMP JUMPDEST PUSH1 0x0 DUP3 DUP3 SHL SWAP1 POP SWAP3 SWAP2 POP POP JUMP JUMPDEST PUSH1 0x0 PUSH1 0x8 DUP4 MUL PUSH3 0x564 PUSH32 0xFFFFFFFFFFFFFFFFFFFFFFFFFFFFFFFFFFFFFFFFFFFFFFFFFFFFFFFFFFFFFFFF DUP3 PUSH3 0x525 JUMP JUMPDEST PUSH3 0x570 DUP7 DUP4 PUSH3 0x525 JUMP JUMPDEST SWAP6 POP DUP1 NOT DUP5 AND SWAP4 POP DUP1 DUP7 AND DUP5 OR SWAP3 POP POP POP SWAP4 SWAP3 POP POP POP JUMP JUMPDEST PUSH1 0x0 DUP2 SWAP1 POP SWAP2 SWAP1 POP JUMP JUMPDEST PUSH1 0x0 DUP2 SWAP1 POP SWAP2 SWAP1 POP JUMP JUMPDEST PUSH1 0x0 PUSH3 0x5BD PUSH3 0x5B7 PUSH3 0x5B1 DUP5 PUSH3 0x588 JUMP JUMPDEST PUSH3 0x592 JUMP JUMPDEST PUSH3 0x588 JUMP JUMPDEST SWAP1 POP SWAP2 SWAP1 POP JUMP JUMPDEST PUSH1 0x0 DUP2 SWAP1 POP SWAP2 SWAP1 POP JUMP JUMPDEST PUSH3 0x5D9 DUP4 PUSH3 0x59C JUMP JUMPDEST PUSH3 0x5F1 PUSH3 0x5E8 DUP3 PUSH3 0x5C4 JUMP JUMPDEST DUP5 DUP5 SLOAD PUSH3 0x532 JUMP JUMPDEST DUP3 SSTORE POP POP POP POP JUMP JUMPDEST PUSH1 0x0 SWAP1 JUMP JUMPDEST PUSH3 0x608 PUSH3 0x5F9 JUMP JUMPDEST PUSH3 0x615 DUP2 DUP5 DUP5 PUSH3 0x5CE JUMP JUMPDEST POP POP POP JUMP JUMPDEST JUMPDEST DUP2 DUP2 LT ISZERO PUSH3 0x63D JUMPI PUSH3 0x631 PUSH1 0x0 DUP3 PUSH3 0x5FE JUMP JUMPDEST PUSH1 0x1 DUP2 ADD SWAP1 POP PUSH3 0x61B JUMP JUMPDEST POP POP JUMP JUMPDEST PUSH1 0x1F DUP3 GT ISZERO PUSH3 0x68C JUMPI PUSH3 0x656 DUP2 PUSH3 0x500 JUMP JUMPDEST PUSH3 0x661 DUP5 PUSH3 0x515 JUMP JUMPDEST DUP2 ADD PUSH1 0x20 DUP6 LT ISZERO PUSH3 0x671 JUMPI DUP2 SWAP1 POP JUMPDEST PUSH3 0x689 PUSH3 0x680 DUP6 PUSH3 0x515 JUMP JUMPDEST DUP4 ADD DUP3 PUSH3 0x61A JUMP JUMPDEST POP POP JUMPDEST POP POP POP JUMP JUMPDEST PUSH1 0x0 DUP3 DUP3 SHR SWAP1 POP SWAP3 SWAP2 POP POP JUMP JUMPDEST PUSH1 0x0 PUSH3 0x6B1 PUSH1 0x0 NOT DUP5 PUSH1 0x8 MUL PUSH3 0x691 JUMP JUMPDEST NOT DUP1 DUP4 AND SWAP2 POP POP SWAP3 SWAP2 POP POP JUMP JUMPDEST PUSH1 0x0 PUSH3 0x6CC DUP4 DUP4 PUSH3 0x69E JUMP JUMPDEST SWAP2 POP DUP3 PUSH1 0x2 MUL DUP3 OR SWAP1 POP SWAP3 SWAP2 POP POP JUMP JUMPDEST PUSH3 0x6E7 DUP3 PUSH3 0x491 JUMP JUMPDEST PUSH8 0xFFFFFFFFFFFFFFFF DUP2 GT ISZERO PUSH3 0x703 JUMPI PUSH3 0x702 PUSH3 0x2A8 JUMP JUMPDEST JUMPDEST PUSH3 0x70F DUP3 SLOAD PUSH3 0x4CB JUMP JUMPDEST PUSH3 0x71C DUP3 DUP3 DUP6 PUSH3 0x641 JUMP JUMPDEST PUSH1 0x0 PUSH1 0x20 SWAP1 POP PUSH1 0x1F DUP4 GT PUSH1 0x1 DUP2 EQ PUSH3 0x754 JUMPI PUSH1 0x0 DUP5 ISZERO PUSH3 0x73F JUMPI DUP3 DUP8 ADD MLOAD SWAP1 POP JUMPDEST PUSH3 0x74B DUP6 DUP3 PUSH3 0x6BE JUMP JUMPDEST DUP7 SSTORE POP PUSH3 0x7BB JUMP JUMPDEST PUSH1 0x1F NOT DUP5 AND PUSH3 0x764 DUP7 PUSH3 0x500 JUMP JUMPDEST PUSH1 0x0 JUMPDEST DUP3 DUP2 LT ISZERO PUSH3 0x78E JUMPI DUP5 DUP10 ADD MLOAD DUP3 SSTORE PUSH1 0x1 DUP3 ADD SWAP2 POP PUSH1 0x20 DUP6 ADD SWAP5 POP PUSH1 0x20 DUP2 ADD SWAP1 POP PUSH3 0x767 JUMP JUMPDEST DUP7 DUP4 LT ISZERO PUSH3 0x7AE JUMPI DUP5 DUP10 ADD MLOAD PUSH3 0x7AA PUSH1 0x1F DUP10 AND DUP3 PUSH3 0x69E JUMP JUMPDEST DUP4 SSTORE POP JUMPDEST PUSH1 0x1 PUSH1 0x2 DUP9 MUL ADD DUP9 SSTORE POP POP POP JUMPDEST POP POP POP POP POP POP JUMP JUMPDEST PUSH1 0x0 DUP3 DUP3 MSTORE PUSH1 0x20 DUP3 ADD SWAP1 POP SWAP3 SWAP2 POP POP JUMP JUMPDEST PUSH32 0x4552433136353A20696E76616C696420696E7465726661636520696400000000 PUSH1 0x0 DUP3 ADD MSTORE POP JUMP JUMPDEST PUSH1 0x0 PUSH3 0x80C PUSH1 0x1C DUP4 PUSH3 0x7C3 JUMP JUMPDEST SWAP2 POP PUSH3 0x819 DUP3 PUSH3 0x7D4 JUMP JUMPDEST PUSH1 0x20 DUP3 ADD SWAP1 POP SWAP2 SWAP1 POP JUMP JUMPDEST PUSH1 0x0 PUSH1 0x20 DUP3 ADD SWAP1 POP DUP2 DUP2 SUB PUSH1 0x0 DUP4 ADD MSTORE PUSH3 0x83F DUP2 PUSH3 0x7FD JUMP JUMPDEST SWAP1 POP SWAP2 SWAP1 POP JUMP JUMPDEST PUSH2 0x25D1 DUP1 PUSH3 0x856 PUSH1 0x0 CODECOPY PUSH1 0x0 RETURN INVALID PUSH1 0x80 PUSH1 0x40 MSTORE CALLVALUE DUP1 ISZERO PUSH2 0x10 JUMPI PUSH1 0x0 DUP1 REVERT JUMPDEST POP PUSH1 0x4 CALLDATASIZE LT PUSH2 0x18E JUMPI PUSH1 0x0 CALLDATALOAD PUSH1 0xE0 SHR DUP1 PUSH4 0x70A08231 GT PUSH2 0xDE JUMPI DUP1 PUSH4 0x95D89B41 GT PUSH2 0x97 JUMPI DUP1 PUSH4 0xC3856DD5 GT PUSH2 0x71 JUMPI DUP1 PUSH4 0xC3856DD5 EQ PUSH2 0x45F JUMPI DUP1 PUSH4 0xDD62ED3E EQ PUSH2 0x47B JUMPI DUP1 PUSH4 0xF2FDE38B EQ PUSH2 0x4AB JUMPI DUP1 PUSH4 0xF60CA60D EQ PUSH2 0x4C7 JUMPI PUSH2 0x18E JUMP JUMPDEST DUP1 PUSH4 0x95D89B41 EQ PUSH2 0x3E1 JUMPI DUP1 PUSH4 0xA457C2D7 EQ PUSH2 0x3FF JUMPI DUP1 PUSH4 0xA9059CBB EQ PUSH2 0x42F JUMPI PUSH2 0x18E JUMP JUMPDEST DUP1 PUSH4 0x70A08231 EQ PUSH2 0x345 JUMPI DUP1 PUSH4 0x715018A6 EQ PUSH2 0x375 JUMPI DUP1 PUSH4 0x79CC6790 EQ PUSH2 0x37F JUMPI DUP1 PUSH4 0x8456CB59 EQ PUSH2 0x39B JUMPI DUP1 PUSH4 0x893D20E8 EQ PUSH2 0x3A5 JUMPI DUP1 PUSH4 0x8DA5CB5B EQ PUSH2 0x3C3 JUMPI PUSH2 0x18E JUMP JUMPDEST DUP1 PUSH4 0x2AF4C31E GT PUSH2 0x14B JUMPI DUP1 PUSH4 0x3F4BA83A GT PUSH2 0x125 JUMPI DUP1 PUSH4 0x3F4BA83A EQ PUSH2 0x2E5 JUMPI DUP1 PUSH4 0x40C10F19 EQ PUSH2 0x2EF JUMPI DUP1 PUSH4 0x42966C68 EQ PUSH2 0x30B JUMPI DUP1 PUSH4 0x5C975ABB EQ PUSH2 0x327 JUMPI PUSH2 0x18E JUMP JUMPDEST DUP1 PUSH4 0x2AF4C31E EQ PUSH2 0x27B JUMPI DUP1 PUSH4 0x313CE567 EQ PUSH2 0x297 JUMPI DUP1 PUSH4 0x39509351 EQ PUSH2 0x2B5 JUMPI PUSH2 0x18E JUMP JUMPDEST DUP1 PUSH4 0x1FFC9A7 EQ PUSH2 0x193 JUMPI DUP1 PUSH4 0x6FDDE03 EQ PUSH2 0x1C3 JUMPI DUP1 PUSH4 0x95EA7B3 EQ PUSH2 0x1E1 JUMPI DUP1 PUSH4 0xDDFA156 EQ PUSH2 0x211 JUMPI DUP1 PUSH4 0x18160DDD EQ PUSH2 0x22D JUMPI DUP1 PUSH4 0x23B872DD EQ PUSH2 0x24B JUMPI JUMPDEST PUSH1 0x0 DUP1 REVERT JUMPDEST PUSH2 0x1AD PUSH1 0x4 DUP1 CALLDATASIZE SUB DUP2 ADD SWAP1 PUSH2 0x1A8 SWAP2 SWAP1 PUSH2 0x1872 JUMP JUMPDEST PUSH2 0x4E5 JUMP JUMPDEST PUSH1 0x40 MLOAD PUSH2 0x1BA SWAP2 SWAP1 PUSH2 0x18BA JUMP JUMPDEST PUSH1 0x40 MLOAD DUP1 SWAP2 SUB SWAP1 RETURN JUMPDEST PUSH2 0x1CB PUSH2 0x55D JUMP JUMPDEST PUSH1 0x40 MLOAD PUSH2 0x1D8 SWAP2 SWAP1 PUSH2 0x1965 JUMP JUMPDEST PUSH1 0x40 MLOAD DUP1 SWAP2 SUB SWAP1 RETURN JUMPDEST PUSH2 0x1FB PUSH1 0x4 DUP1 CALLDATASIZE SUB DUP2 ADD SWAP1 PUSH2 0x1F6 SWAP2 SWAP1 PUSH2 0x1A1B JUMP JUMPDEST PUSH2 0x5EF JUMP JUMPDEST PUSH1 0x40 MLOAD PUSH2 0x208 SWAP2 SWAP1 PUSH2 0x18BA JUMP JUMPDEST PUSH1 0x40 MLOAD DUP1 SWAP2 SUB SWAP1 RETURN JUMPDEST PUSH2 0x22B PUSH1 0x4 DUP1 CALLDATASIZE SUB DUP2 ADD SWAP1 PUSH2 0x226 SWAP2 SWAP1 PUSH2 0x1A5B JUMP JUMPDEST PUSH2 0x612 JUMP JUMPDEST STOP JUMPDEST PUSH2 0x235 PUSH2 0x62E JUMP JUMPDEST PUSH1 0x40 MLOAD PUSH2 0x242 SWAP2 SWAP1 PUSH2 0x1A97 JUMP JUMPDEST PUSH1 0x40 MLOAD DUP1 SWAP2 SUB SWAP1 RETURN JUMPDEST PUSH2 0x265 PUSH1 0x4 DUP1 CALLDATASIZE SUB DUP2 ADD SWAP1 PUSH2 0x260 SWAP2 SWAP1 PUSH2 0x1AB2 JUMP JUMPDEST PUSH2 0x638 JUMP JUMPDEST PUSH1 0x40 MLOAD PUSH2 0x272 SWAP2 SWAP1 PUSH2 0x18BA JUMP JUMPDEST PUSH1 0x40 MLOAD DUP1 SWAP2 SUB SWAP1 RETURN JUMPDEST PUSH2 0x295 PUSH1 0x4 DUP1 CALLDATASIZE SUB DUP2 ADD SWAP1 PUSH2 0x290 SWAP2 SWAP1 PUSH2 0x1B05 JUMP JUMPDEST PUSH2 0x667 JUMP JUMPDEST STOP JUMPDEST PUSH2 0x29F PUSH2 0x673 JUMP JUMPDEST PUSH1 0x40 MLOAD PUSH2 0x2AC SWAP2 SWAP1 PUSH2 0x1B4E JUMP JUMPDEST PUSH1 0x40 MLOAD DUP1 SWAP2 SUB SWAP1 RETURN JUMPDEST PUSH2 0x2CF PUSH1 0x4 DUP1 CALLDATASIZE SUB DUP2 ADD SWAP1 PUSH2 0x2CA SWAP2 SWAP1 PUSH2 0x1A1B JUMP JUMPDEST PUSH2 0x67C JUMP JUMPDEST PUSH1 0x40 MLOAD PUSH2 0x2DC SWAP2 SWAP1 PUSH2 0x18BA JUMP JUMPDEST PUSH1 0x40 MLOAD DUP1 SWAP2 SUB SWAP1 RETURN JUMPDEST PUSH2 0x2ED PUSH2 0x6B3 JUMP JUMPDEST STOP JUMPDEST PUSH2 0x309 PUSH1 0x4 DUP1 CALLDATASIZE SUB DUP2 ADD SWAP1 PUSH2 0x304 SWAP2 SWAP1 PUSH2 0x1A1B JUMP JUMPDEST PUSH2 0x7F8 JUMP JUMPDEST STOP JUMPDEST PUSH2 0x325 PUSH1 0x4 DUP1 CALLDATASIZE SUB DUP2 ADD SWAP1 PUSH2 0x320 SWAP2 SWAP1 PUSH2 0x1A5B JUMP JUMPDEST PUSH2 0x80E JUMP JUMPDEST STOP JUMPDEST PUSH2 0x32F PUSH2 0x822 JUMP JUMPDEST PUSH1 0x40 MLOAD PUSH2 0x33C SWAP2 SWAP1 PUSH2 0x18BA JUMP JUMPDEST PUSH1 0x40 MLOAD DUP1 SWAP2 SUB SWAP1 RETURN JUMPDEST PUSH2 0x35F PUSH1 0x4 DUP1 CALLDATASIZE SUB DUP2 ADD SWAP1 PUSH2 0x35A SWAP2 SWAP1 PUSH2 0x1B05 JUMP JUMPDEST PUSH2 0x839 JUMP JUMPDEST PUSH1 0x40 MLOAD PUSH2 0x36C SWAP2 SWAP1 PUSH2 0x1A97 JUMP JUMPDEST PUSH1 0x40 MLOAD DUP1 SWAP2 SUB SWAP1 RETURN JUMPDEST PUSH2 0x37D PUSH2 0x881 JUMP JUMPDEST STOP JUMPDEST PUSH2 0x399 PUSH1 0x4 DUP1 CALLDATASIZE SUB DUP2 ADD SWAP1 PUSH2 0x394 SWAP2 SWAP1 PUSH2 0x1A1B JUMP JUMPDEST PUSH2 0x895 JUMP JUMPDEST STOP JUMPDEST PUSH2 0x3A3 PUSH2 0x8B5 JUMP JUMPDEST STOP JUMPDEST PUSH2 0x3AD PUSH2 0x9FA JUMP JUMPDEST PUSH1 0x40 MLOAD PUSH2 0x3BA SWAP2 SWAP1 PUSH2 0x1B78 JUMP JUMPDEST PUSH1 0x40 MLOAD DUP1 SWAP2 SUB SWAP1 RETURN JUMPDEST PUSH2 0x3CB PUSH2 0xA09 JUMP JUMPDEST PUSH1 0x40 MLOAD PUSH2 0x3D8 SWAP2 SWAP1 PUSH2 0x1B78 JUMP JUMPDEST PUSH1 0x40 MLOAD DUP1 SWAP2 SUB SWAP1 RETURN JUMPDEST PUSH2 0x3E9 PUSH2 0xA33 JUMP JUMPDEST PUSH1 0x40 MLOAD PUSH2 0x3F6 SWAP2 SWAP1 PUSH2 0x1965 JUMP JUMPDEST PUSH1 0x40 MLOAD DUP1 SWAP2 SUB SWAP1 RETURN JUMPDEST PUSH2 0x419 PUSH1 0x4 DUP1 CALLDATASIZE SUB DUP2 ADD SWAP1 PUSH2 0x414 SWAP2 SWAP1 PUSH2 0x1A1B JUMP JUMPDEST PUSH2 0xAC5 JUMP JUMPDEST PUSH1 0x40 MLOAD PUSH2 0x426 SWAP2 SWAP1 PUSH2 0x18BA JUMP JUMPDEST PUSH1 0x40 MLOAD DUP1 SWAP2 SUB SWAP1 RETURN JUMPDEST PUSH2 0x449 PUSH1 0x4 DUP1 CALLDATASIZE SUB DUP2 ADD SWAP1 PUSH2 0x444 SWAP2 SWAP1 PUSH2 0x1A1B JUMP JUMPDEST PUSH2 0xB3C JUMP JUMPDEST PUSH1 0x40 MLOAD PUSH2 0x456 SWAP2 SWAP1 PUSH2 0x18BA JUMP JUMPDEST PUSH1 0x40 MLOAD DUP1 SWAP2 SUB SWAP1 RETURN JUMPDEST PUSH2 0x479 PUSH1 0x4 DUP1 CALLDATASIZE SUB DUP2 ADD SWAP1 PUSH2 0x474 SWAP2 SWAP1 PUSH2 0x1BD1 JUMP JUMPDEST PUSH2 0xB5F JUMP JUMPDEST STOP JUMPDEST PUSH2 0x495 PUSH1 0x4 DUP1 CALLDATASIZE SUB DUP2 ADD SWAP1 PUSH2 0x490 SWAP2 SWAP1 PUSH2 0x1BFE JUMP JUMPDEST PUSH2 0xBAB JUMP JUMPDEST PUSH1 0x40 MLOAD PUSH2 0x4A2 SWAP2 SWAP1 PUSH2 0x1A97 JUMP JUMPDEST PUSH1 0x40 MLOAD DUP1 SWAP2 SUB SWAP1 RETURN JUMPDEST PUSH2 0x4C5 PUSH1 0x4 DUP1 CALLDATASIZE SUB DUP2 ADD SWAP1 PUSH2 0x4C0 SWAP2 SWAP1 PUSH2 0x1B05 JUMP JUMPDEST PUSH2 0xC32 JUMP JUMPDEST STOP JUMPDEST PUSH2 0x4CF PUSH2 0xCB5 JUMP JUMPDEST PUSH1 0x40 MLOAD PUSH2 0x4DC SWAP2 SWAP1 PUSH2 0x1C9D JUMP JUMPDEST PUSH1 0x40 MLOAD DUP1 SWAP2 SUB SWAP1 RETURN JUMPDEST PUSH1 0x0 PUSH2 0x4F0 DUP3 PUSH2 0xCDB JUMP JUMPDEST DUP1 PUSH2 0x556 JUMPI POP PUSH1 0x5 PUSH1 0x0 DUP4 PUSH28 0xFFFFFFFFFFFFFFFFFFFFFFFFFFFFFFFFFFFFFFFFFFFFFFFFFFFFFFFF NOT AND PUSH28 0xFFFFFFFFFFFFFFFFFFFFFFFFFFFFFFFFFFFFFFFFFFFFFFFFFFFFFFFF NOT AND DUP2 MSTORE PUSH1 0x20 ADD SWAP1 DUP2 MSTORE PUSH1 0x20 ADD PUSH1 0x0 KECCAK256 PUSH1 0x0 SWAP1 SLOAD SWAP1 PUSH2 0x100 EXP SWAP1 DIV PUSH1 0xFF AND JUMPDEST SWAP1 POP SWAP2 SWAP1 POP JUMP JUMPDEST PUSH1 0x60 PUSH1 0x3 DUP1 SLOAD PUSH2 0x56C SWAP1 PUSH2 0x1CE7 JUMP JUMPDEST DUP1 PUSH1 0x1F ADD PUSH1 0x20 DUP1 SWAP2 DIV MUL PUSH1 0x20 ADD PUSH1 0x40 MLOAD SWAP1 DUP2 ADD PUSH1 0x40 MSTORE DUP1 SWAP3 SWAP2 SWAP1 DUP2 DUP2 MSTORE PUSH1 0x20 ADD DUP3 DUP1 SLOAD PUSH2 0x598 SWAP1 PUSH2 0x1CE7 JUMP JUMPDEST DUP1 ISZERO PUSH2 0x5E5 JUMPI DUP1 PUSH1 0x1F LT PUSH2 0x5BA JUMPI PUSH2 0x100 DUP1 DUP4 SLOAD DIV MUL DUP4 MSTORE SWAP2 PUSH1 0x20 ADD SWAP2 PUSH2 0x5E5 JUMP JUMPDEST DUP3 ADD SWAP2 SWAP1 PUSH1 0x0 MSTORE PUSH1 0x20 PUSH1 0x0 KECCAK256 SWAP1 JUMPDEST DUP2 SLOAD DUP2 MSTORE SWAP1 PUSH1 0x1 ADD SWAP1 PUSH1 0x20 ADD DUP1 DUP4 GT PUSH2 0x5C8 JUMPI DUP3 SWAP1 SUB PUSH1 0x1F AND DUP3 ADD SWAP2 JUMPDEST POP POP POP POP POP SWAP1 POP SWAP1 JUMP JUMPDEST PUSH1 0x0 DUP1 PUSH2 0x5FA PUSH2 0xD45 JUMP JUMPDEST SWAP1 POP PUSH2 0x607 DUP2 DUP6 DUP6 PUSH2 0xD4D JUMP JUMPDEST PUSH1 0x1 SWAP2 POP POP SWAP3 SWAP2 POP POP JUMP JUMPDEST PUSH2 0x61A PUSH2 0xF16 JUMP JUMPDEST PUSH2 0x62B PUSH2 0x625 PUSH2 0xA09 JUMP JUMPDEST DUP3 PUSH2 0x7F8 JUMP JUMPDEST POP JUMP JUMPDEST PUSH1 0x0 PUSH1 0x2 SLOAD SWAP1 POP SWAP1 JUMP JUMPDEST PUSH1 0x0 DUP1 PUSH2 0x643 PUSH2 0xD45 JUMP JUMPDEST SWAP1 POP PUSH2 0x650 DUP6 DUP3 DUP6 PUSH2 0xF94 JUMP JUMPDEST PUSH2 0x65B DUP6 DUP6 DUP6 PUSH2 0x1020 JUMP JUMPDEST PUSH1 0x1 SWAP2 POP POP SWAP4 SWAP3 POP POP POP JUMP JUMPDEST PUSH2 0x670 DUP2 PUSH2 0xC32 JUMP JUMPDEST POP JUMP JUMPDEST PUSH1 0x0 PUSH1 0x12 SWAP1 POP SWAP1 JUMP JUMPDEST PUSH1 0x0 DUP1 PUSH2 0x687 PUSH2 0xD45 JUMP JUMPDEST SWAP1 POP PUSH2 0x6A8 DUP2 DUP6 DUP6 PUSH2 0x699 DUP6 DUP10 PUSH2 0xBAB JUMP JUMPDEST PUSH2 0x6A3 SWAP2 SWAP1 PUSH2 0x1D47 JUMP JUMPDEST PUSH2 0xD4D JUMP JUMPDEST PUSH1 0x1 SWAP2 POP POP SWAP3 SWAP2 POP POP JUMP JUMPDEST PUSH2 0x6BB PUSH2 0xA09 JUMP JUMPDEST PUSH20 0xFFFFFFFFFFFFFFFFFFFFFFFFFFFFFFFFFFFFFFFF AND CALLER PUSH20 0xFFFFFFFFFFFFFFFFFFFFFFFFFFFFFFFFFFFFFFFF AND EQ DUP1 PUSH2 0x7AF JUMPI POP PUSH1 0x7 PUSH1 0x0 SWAP1 SLOAD SWAP1 PUSH2 0x100 EXP SWAP1 DIV PUSH20 0xFFFFFFFFFFFFFFFFFFFFFFFFFFFFFFFFFFFFFFFF AND PUSH20 0xFFFFFFFFFFFFFFFFFFFFFFFFFFFFFFFFFFFFFFFF AND PUSH4 0x759A354 PUSH1 0x40 MLOAD DUP2 PUSH4 0xFFFFFFFF AND PUSH1 0xE0 SHL DUP2 MSTORE PUSH1 0x4 ADD PUSH1 0x20 PUSH1 0x40 MLOAD DUP1 DUP4 SUB DUP2 DUP7 GAS STATICCALL ISZERO DUP1 ISZERO PUSH2 0x75C JUMPI RETURNDATASIZE PUSH1 0x0 DUP1 RETURNDATACOPY RETURNDATASIZE PUSH1 0x0 REVERT JUMPDEST POP POP POP POP PUSH1 0x40 MLOAD RETURNDATASIZE PUSH1 0x1F NOT PUSH1 0x1F DUP3 ADD AND DUP3 ADD DUP1 PUSH1 0x40 MSTORE POP DUP2 ADD SWAP1 PUSH2 0x780 SWAP2 SWAP1 PUSH2 0x1D90 JUMP JUMPDEST PUSH20 0xFFFFFFFFFFFFFFFFFFFFFFFFFFFFFFFFFFFFFFFF AND CALLER PUSH20 0xFFFFFFFFFFFFFFFFFFFFFFFFFFFFFFFFFFFFFFFF AND EQ JUMPDEST PUSH2 0x7EE JUMPI PUSH1 0x40 MLOAD PUSH32 0x8C379A000000000000000000000000000000000000000000000000000000000 DUP2 MSTORE PUSH1 0x4 ADD PUSH2 0x7E5 SWAP1 PUSH2 0x1E09 JUMP JUMPDEST PUSH1 0x40 MLOAD DUP1 SWAP2 SUB SWAP1 REVERT JUMPDEST PUSH2 0x7F6 PUSH2 0x129F JUMP JUMPDEST JUMP JUMPDEST PUSH2 0x800 PUSH2 0xF16 JUMP JUMPDEST PUSH2 0x80A DUP3 DUP3 PUSH2 0x1302 JUMP JUMPDEST POP POP JUMP JUMPDEST PUSH2 0x81F PUSH2 0x819 PUSH2 0xD45 JUMP JUMPDEST DUP3 PUSH2 0x1461 JUMP JUMPDEST POP JUMP JUMPDEST PUSH1 0x0 PUSH1 0x6 PUSH1 0x0 SWAP1 SLOAD SWAP1 PUSH2 0x100 EXP SWAP1 DIV PUSH1 0xFF AND SWAP1 POP SWAP1 JUMP JUMPDEST PUSH1 0x0 DUP1 PUSH1 0x0 DUP4 PUSH20 0xFFFFFFFFFFFFFFFFFFFFFFFFFFFFFFFFFFFFFFFF AND PUSH20 0xFFFFFFFFFFFFFFFFFFFFFFFFFFFFFFFFFFFFFFFF AND DUP2 MSTORE PUSH1 0x20 ADD SWAP1 DUP2 MSTORE PUSH1 0x20 ADD PUSH1 0x0 KECCAK256 SLOAD SWAP1 POP SWAP2 SWAP1 POP JUMP JUMPDEST PUSH2 0x889 PUSH2 0xF16 JUMP JUMPDEST PUSH2 0x893 PUSH1 0x0 PUSH2 0x1637 JUMP JUMPDEST JUMP JUMPDEST PUSH2 0x8A7 DUP3 PUSH2 0x8A1 PUSH2 0xD45 JUMP JUMPDEST DUP4 PUSH2 0xF94 JUMP JUMPDEST PUSH2 0x8B1 DUP3 DUP3 PUSH2 0x1461 JUMP JUMPDEST POP POP JUMP JUMPDEST PUSH2 0x8BD PUSH2 0xA09 JUMP JUMPDEST PUSH20 0xFFFFFFFFFFFFFFFFFFFFFFFFFFFFFFFFFFFFFFFF AND CALLER PUSH20 0xFFFFFFFFFFFFFFFFFFFFFFFFFFFFFFFFFFFFFFFF AND EQ DUP1 PUSH2 0x9B1 JUMPI POP PUSH1 0x7 PUSH1 0x0 SWAP1 SLOAD SWAP1 PUSH2 0x100 EXP SWAP1 DIV PUSH20 0xFFFFFFFFFFFFFFFFFFFFFFFFFFFFFFFFFFFFFFFF AND PUSH20 0xFFFFFFFFFFFFFFFFFFFFFFFFFFFFFFFFFFFFFFFF AND PUSH4 0x759A354 PUSH1 0x40 MLOAD DUP2 PUSH4 0xFFFFFFFF AND PUSH1 0xE0 SHL DUP2 MSTORE PUSH1 0x4 ADD PUSH1 0x20 PUSH1 0x40 MLOAD DUP1 DUP4 SUB DUP2 DUP7 GAS STATICCALL ISZERO DUP1 ISZERO PUSH2 0x95E JUMPI RETURNDATASIZE PUSH1 0x0 DUP1 RETURNDATACOPY RETURNDATASIZE PUSH1 0x0 REVERT JUMPDEST POP POP POP POP PUSH1 0x40 MLOAD RETURNDATASIZE PUSH1 0x1F NOT PUSH1 0x1F DUP3 ADD AND DUP3 ADD DUP1 PUSH1 0x40 MSTORE POP DUP2 ADD SWAP1 PUSH2 0x982 SWAP2 SWAP1 PUSH2 0x1D90 JUMP JUMPDEST PUSH20 0xFFFFFFFFFFFFFFFFFFFFFFFFFFFFFFFFFFFFFFFF AND CALLER PUSH20 0xFFFFFFFFFFFFFFFFFFFFFFFFFFFFFFFFFFFFFFFF AND EQ JUMPDEST PUSH2 0x9F0 JUMPI PUSH1 0x40 MLOAD PUSH32 0x8C379A000000000000000000000000000000000000000000000000000000000 DUP2 MSTORE PUSH1 0x4 ADD PUSH2 0x9E7 SWAP1 PUSH2 0x1E09 JUMP JUMPDEST PUSH1 0x40 MLOAD DUP1 SWAP2 SUB SWAP1 REVERT JUMPDEST PUSH2 0x9F8 PUSH2 0x16FD JUMP JUMPDEST JUMP JUMPDEST PUSH1 0x0 PUSH2 0xA04 PUSH2 0xA09 JUMP JUMPDEST SWAP1 POP SWAP1 JUMP JUMPDEST PUSH1 0x0 PUSH1 0x6 PUSH1 0x1 SWAP1 SLOAD SWAP1 PUSH2 0x100 EXP SWAP1 DIV PUSH20 0xFFFFFFFFFFFFFFFFFFFFFFFFFFFFFFFFFFFFFFFF AND SWAP1 POP SWAP1 JUMP JUMPDEST PUSH1 0x60 PUSH1 0x4 DUP1 SLOAD PUSH2 0xA42 SWAP1 PUSH2 0x1CE7 JUMP JUMPDEST DUP1 PUSH1 0x1F ADD PUSH1 0x20 DUP1 SWAP2 DIV MUL PUSH1 0x20 ADD PUSH1 0x40 MLOAD SWAP1 DUP2 ADD PUSH1 0x40 MSTORE DUP1 SWAP3 SWAP2 SWAP1 DUP2 DUP2 MSTORE PUSH1 0x20 ADD DUP3 DUP1 SLOAD PUSH2 0xA6E SWAP1 PUSH2 0x1CE7 JUMP JUMPDEST DUP1 ISZERO PUSH2 0xABB JUMPI DUP1 PUSH1 0x1F LT PUSH2 0xA90 JUMPI PUSH2 0x100 DUP1 DUP4 SLOAD DIV MUL DUP4 MSTORE SWAP2 PUSH1 0x20 ADD SWAP2 PUSH2 0xABB JUMP JUMPDEST DUP3 ADD SWAP2 SWAP1 PUSH1 0x0 MSTORE PUSH1 0x20 PUSH1 0x0 KECCAK256 SWAP1 JUMPDEST DUP2 SLOAD DUP2 MSTORE SWAP1 PUSH1 0x1 ADD SWAP1 PUSH1 0x20 ADD DUP1 DUP4 GT PUSH2 0xA9E JUMPI DUP3 SWAP1 SUB PUSH1 0x1F AND DUP3 ADD SWAP2 JUMPDEST POP POP POP POP POP SWAP1 POP SWAP1 JUMP JUMPDEST PUSH1 0x0 DUP1 PUSH2 0xAD0 PUSH2 0xD45 JUMP JUMPDEST SWAP1 POP PUSH1 0x0 PUSH2 0xADE DUP3 DUP7 PUSH2 0xBAB JUMP JUMPDEST SWAP1 POP DUP4 DUP2 LT ISZERO PUSH2 0xB23 JUMPI PUSH1 0x40 MLOAD PUSH32 0x8C379A000000000000000000000000000000000000000000000000000000000 DUP2 MSTORE PUSH1 0x4 ADD PUSH2 0xB1A SWAP1 PUSH2 0x1E9B JUMP JUMPDEST PUSH1 0x40 MLOAD DUP1 SWAP2 SUB SWAP1 REVERT JUMPDEST PUSH2 0xB30 DUP3 DUP7 DUP7 DUP5 SUB PUSH2 0xD4D JUMP JUMPDEST PUSH1 0x1 SWAP3 POP POP POP SWAP3 SWAP2 POP POP JUMP JUMPDEST PUSH1 0x0 DUP1 PUSH2 0xB47 PUSH2 0xD45 JUMP JUMPDEST SWAP1 POP PUSH2 0xB54 DUP2 DUP6 DUP6 PUSH2 0x1020 JUMP JUMPDEST PUSH1 0x1 SWAP2 POP POP SWAP3 SWAP2 POP POP JUMP JUMPDEST PUSH2 0xB67 PUSH2 0xF16 JUMP JUMPDEST DUP1 PUSH1 0x7 PUSH1 0x0 PUSH2 0x100 EXP DUP2 SLOAD DUP2 PUSH20 0xFFFFFFFFFFFFFFFFFFFFFFFFFFFFFFFFFFFFFFFF MUL NOT AND SWAP1 DUP4 PUSH20 0xFFFFFFFFFFFFFFFFFFFFFFFFFFFFFFFFFFFFFFFF AND MUL OR SWAP1 SSTORE POP POP JUMP JUMPDEST PUSH1 0x0 PUSH1 0x1 PUSH1 0x0 DUP5 PUSH20 0xFFFFFFFFFFFFFFFFFFFFFFFFFFFFFFFFFFFFFFFF AND PUSH20 0xFFFFFFFFFFFFFFFFFFFFFFFFFFFFFFFFFFFFFFFF AND DUP2 MSTORE PUSH1 0x20 ADD SWAP1 DUP2 MSTORE PUSH1 0x20 ADD PUSH1 0x0 KECCAK256 PUSH1 0x0 DUP4 PUSH20 0xFFFFFFFFFFFFFFFFFFFFFFFFFFFFFFFFFFFFFFFF AND PUSH20 0xFFFFFFFFFFFFFFFFFFFFFFFFFFFFFFFFFFFFFFFF AND DUP2 MSTORE PUSH1 0x20 ADD SWAP1 DUP2 MSTORE PUSH1 0x20 ADD PUSH1 0x0 KECCAK256 SLOAD SWAP1 POP SWAP3 SWAP2 POP POP JUMP JUMPDEST PUSH2 0xC3A PUSH2 0xF16 JUMP JUMPDEST PUSH1 0x0 PUSH20 0xFFFFFFFFFFFFFFFFFFFFFFFFFFFFFFFFFFFFFFFF AND DUP2 PUSH20 0xFFFFFFFFFFFFFFFFFFFFFFFFFFFFFFFFFFFFFFFF AND SUB PUSH2 0xCA9 JUMPI PUSH1 0x40 MLOAD PUSH32 0x8C379A000000000000000000000000000000000000000000000000000000000 DUP2 MSTORE PUSH1 0x4 ADD PUSH2 0xCA0 SWAP1 PUSH2 0x1F2D JUMP JUMPDEST PUSH1 0x40 MLOAD DUP1 SWAP2 SUB SWAP1 REVERT JUMPDEST PUSH2 0xCB2 DUP2 PUSH2 0x1637 JUMP JUMPDEST POP JUMP JUMPDEST PUSH1 0x7 PUSH1 0x0 SWAP1 SLOAD SWAP1 PUSH2 0x100 EXP SWAP1 DIV PUSH20 0xFFFFFFFFFFFFFFFFFFFFFFFFFFFFFFFFFFFFFFFF AND DUP2 JUMP JUMPDEST PUSH1 0x0 PUSH32 0x1FFC9A700000000000000000000000000000000000000000000000000000000 PUSH28 0xFFFFFFFFFFFFFFFFFFFFFFFFFFFFFFFFFFFFFFFFFFFFFFFFFFFFFFFF NOT AND DUP3 PUSH28 0xFFFFFFFFFFFFFFFFFFFFFFFFFFFFFFFFFFFFFFFFFFFFFFFFFFFFFFFF NOT AND EQ SWAP1 POP SWAP2 SWAP1 POP JUMP JUMPDEST PUSH1 0x0 CALLER SWAP1 POP SWAP1 JUMP JUMPDEST PUSH1 0x0 PUSH20 0xFFFFFFFFFFFFFFFFFFFFFFFFFFFFFFFFFFFFFFFF AND DUP4 PUSH20 0xFFFFFFFFFFFFFFFFFFFFFFFFFFFFFFFFFFFFFFFF AND SUB PUSH2 0xDBC JUMPI PUSH1 0x40 MLOAD PUSH32 0x8C379A000000000000000000000000000000000000000000000000000000000 DUP2 MSTORE PUSH1 0x4 ADD PUSH2 0xDB3 SWAP1 PUSH2 0x1FBF JUMP JUMPDEST PUSH1 0x40 MLOAD DUP1 SWAP2 SUB SWAP1 REVERT JUMPDEST PUSH1 0x0 PUSH20 0xFFFFFFFFFFFFFFFFFFFFFFFFFFFFFFFFFFFFFFFF AND DUP3 PUSH20 0xFFFFFFFFFFFFFFFFFFFFFFFFFFFFFFFFFFFFFFFF AND SUB PUSH2 0xE2B JUMPI PUSH1 0x40 MLOAD PUSH32 0x8C379A000000000000000000000000000000000000000000000000000000000 DUP2 MSTORE PUSH1 0x4 ADD PUSH2 0xE22 SWAP1 PUSH2 0x2051 JUMP JUMPDEST PUSH1 0x40 MLOAD DUP1 SWAP2 SUB SWAP1 REVERT JUMPDEST DUP1 PUSH1 0x1 PUSH1 0x0 DUP6 PUSH20 0xFFFFFFFFFFFFFFFFFFFFFFFFFFFFFFFFFFFFFFFF AND PUSH20 0xFFFFFFFFFFFFFFFFFFFFFFFFFFFFFFFFFFFFFFFF AND DUP2 MSTORE PUSH1 0x20 ADD SWAP1 DUP2 MSTORE PUSH1 0x20 ADD PUSH1 0x0 KECCAK256 PUSH1 0x0 DUP5 PUSH20 0xFFFFFFFFFFFFFFFFFFFFFFFFFFFFFFFFFFFFFFFF AND PUSH20 0xFFFFFFFFFFFFFFFFFFFFFFFFFFFFFFFFFFFFFFFF AND DUP2 MSTORE PUSH1 0x20 ADD SWAP1 DUP2 MSTORE PUSH1 0x20 ADD PUSH1 0x0 KECCAK256 DUP2 SWAP1 SSTORE POP DUP2 PUSH20 0xFFFFFFFFFFFFFFFFFFFFFFFFFFFFFFFFFFFFFFFF AND DUP4 PUSH20 0xFFFFFFFFFFFFFFFFFFFFFFFFFFFFFFFFFFFFFFFF AND PUSH32 0x8C5BE1E5EBEC7D5BD14F71427D1E84F3DD0314C0F7B2291E5B200AC8C7C3B925 DUP4 PUSH1 0x40 MLOAD PUSH2 0xF09 SWAP2 SWAP1 PUSH2 0x1A97 JUMP JUMPDEST PUSH1 0x40 MLOAD DUP1 SWAP2 SUB SWAP1 LOG3 POP POP POP JUMP JUMPDEST PUSH2 0xF1E PUSH2 0xD45 JUMP JUMPDEST PUSH20 0xFFFFFFFFFFFFFFFFFFFFFFFFFFFFFFFFFFFFFFFF AND PUSH2 0xF3C PUSH2 0xA09 JUMP JUMPDEST PUSH20 0xFFFFFFFFFFFFFFFFFFFFFFFFFFFFFFFFFFFFFFFF AND EQ PUSH2 0xF92 JUMPI PUSH1 0x40 MLOAD PUSH32 0x8C379A000000000000000000000000000000000000000000000000000000000 DUP2 MSTORE PUSH1 0x4 ADD PUSH2 0xF89 SWAP1 PUSH2 0x20BD JUMP JUMPDEST PUSH1 0x40 MLOAD DUP1 SWAP2 SUB SWAP1 REVERT JUMPDEST JUMP JUMPDEST PUSH1 0x0 PUSH2 0xFA0 DUP5 DUP5 PUSH2 0xBAB JUMP JUMPDEST SWAP1 POP PUSH32 0xFFFFFFFFFFFFFFFFFFFFFFFFFFFFFFFFFFFFFFFFFFFFFFFFFFFFFFFFFFFFFFFF DUP2 EQ PUSH2 0x101A JUMPI DUP2 DUP2 LT ISZERO PUSH2 0x100C JUMPI PUSH1 0x40 MLOAD PUSH32 0x8C379A000000000000000000000000000000000000000000000000000000000 DUP2 MSTORE PUSH1 0x4 ADD PUSH2 0x1003 SWAP1 PUSH2 0x2129 JUMP JUMPDEST PUSH1 0x40 MLOAD DUP1 SWAP2 SUB SWAP1 REVERT JUMPDEST PUSH2 0x1019 DUP5 DUP5 DUP5 DUP5 SUB PUSH2 0xD4D JUMP JUMPDEST JUMPDEST POP POP POP POP JUMP JUMPDEST PUSH1 0x0 PUSH20 0xFFFFFFFFFFFFFFFFFFFFFFFFFFFFFFFFFFFFFFFF AND DUP4 PUSH20 0xFFFFFFFFFFFFFFFFFFFFFFFFFFFFFFFFFFFFFFFF AND SUB PUSH2 0x108F JUMPI PUSH1 0x40 MLOAD PUSH32 0x8C379A000000000000000000000000000000000000000000000000000000000 DUP2 MSTORE PUSH1 0x4 ADD PUSH2 0x1086 SWAP1 PUSH2 0x21BB JUMP JUMPDEST PUSH1 0x40 MLOAD DUP1 SWAP2 SUB SWAP1 REVERT JUMPDEST PUSH1 0x0 PUSH20 0xFFFFFFFFFFFFFFFFFFFFFFFFFFFFFFFFFFFFFFFF AND DUP3 PUSH20 0xFFFFFFFFFFFFFFFFFFFFFFFFFFFFFFFFFFFFFFFF AND SUB PUSH2 0x10FE JUMPI PUSH1 0x40 MLOAD PUSH32 0x8C379A000000000000000000000000000000000000000000000000000000000 DUP2 MSTORE PUSH1 0x4 ADD PUSH2 0x10F5 SWAP1 PUSH2 0x224D JUMP JUMPDEST PUSH1 0x40 MLOAD DUP1 SWAP2 SUB SWAP1 REVERT JUMPDEST PUSH2 0x1109 DUP4 DUP4 DUP4 PUSH2 0x1760 JUMP JUMPDEST PUSH1 0x0 DUP1 PUSH1 0x0 DUP6 PUSH20 0xFFFFFFFFFFFFFFFFFFFFFFFFFFFFFFFFFFFFFFFF AND PUSH20 0xFFFFFFFFFFFFFFFFFFFFFFFFFFFFFFFFFFFFFFFF AND DUP2 MSTORE PUSH1 0x20 ADD SWAP1 DUP2 MSTORE PUSH1 0x20 ADD PUSH1 0x0 KECCAK256 SLOAD SWAP1 POP DUP2 DUP2 LT ISZERO PUSH2 0x118F JUMPI PUSH1 0x40 MLOAD PUSH32 0x8C379A000000000000000000000000000000000000000000000000000000000 DUP2 MSTORE PUSH1 0x4 ADD PUSH2 0x1186 SWAP1 PUSH2 0x22DF JUMP JUMPDEST PUSH1 0x40 MLOAD DUP1 SWAP2 SUB SWAP1 REVERT JUMPDEST DUP2 DUP2 SUB PUSH1 0x0 DUP1 DUP7 PUSH20 0xFFFFFFFFFFFFFFFFFFFFFFFFFFFFFFFFFFFFFFFF AND PUSH20 0xFFFFFFFFFFFFFFFFFFFFFFFFFFFFFFFFFFFFFFFF AND DUP2 MSTORE PUSH1 0x20 ADD SWAP1 DUP2 MSTORE PUSH1 0x20 ADD PUSH1 0x0 KECCAK256 DUP2 SWAP1 SSTORE POP DUP2 PUSH1 0x0 DUP1 DUP6 PUSH20 0xFFFFFFFFFFFFFFFFFFFFFFFFFFFFFFFFFFFFFFFF AND PUSH20 0xFFFFFFFFFFFFFFFFFFFFFFFFFFFFFFFFFFFFFFFF AND DUP2 MSTORE PUSH1 0x20 ADD SWAP1 DUP2 MSTORE PUSH1 0x20 ADD PUSH1 0x0 KECCAK256 PUSH1 0x0 DUP3 DUP3 SLOAD PUSH2 0x1222 SWAP2 SWAP1 PUSH2 0x1D47 JUMP JUMPDEST SWAP3 POP POP DUP2 SWAP1 SSTORE POP DUP3 PUSH20 0xFFFFFFFFFFFFFFFFFFFFFFFFFFFFFFFFFFFFFFFF AND DUP5 PUSH20 0xFFFFFFFFFFFFFFFFFFFFFFFFFFFFFFFFFFFFFFFF AND PUSH32 0xDDF252AD1BE2C89B69C2B068FC378DAA952BA7F163C4A11628F55A4DF523B3EF DUP5 PUSH1 0x40 MLOAD PUSH2 0x1286 SWAP2 SWAP1 PUSH2 0x1A97 JUMP JUMPDEST PUSH1 0x40 MLOAD DUP1 SWAP2 SUB SWAP1 LOG3 PUSH2 0x1299 DUP5 DUP5 DUP5 PUSH2 0x1778 JUMP JUMPDEST POP POP POP POP JUMP JUMPDEST PUSH2 0x12A7 PUSH2 0x177D JUMP JUMPDEST PUSH1 0x0 PUSH1 0x6 PUSH1 0x0 PUSH2 0x100 EXP DUP2 SLOAD DUP2 PUSH1 0xFF MUL NOT AND SWAP1 DUP4 ISZERO ISZERO MUL OR SWAP1 SSTORE POP PUSH32 0x5DB9EE0A495BF2E6FF9C91A7834C1BA4FDD244A5E8AA4E537BD38AEAE4B073AA PUSH2 0x12EB PUSH2 0xD45 JUMP JUMPDEST PUSH1 0x40 MLOAD PUSH2 0x12F8 SWAP2 SWAP1 PUSH2 0x1B78 JUMP JUMPDEST PUSH1 0x40 MLOAD DUP1 SWAP2 SUB SWAP1 LOG1 JUMP JUMPDEST PUSH1 0x0 PUSH20 0xFFFFFFFFFFFFFFFFFFFFFFFFFFFFFFFFFFFFFFFF AND DUP3 PUSH20 0xFFFFFFFFFFFFFFFFFFFFFFFFFFFFFFFFFFFFFFFF AND SUB PUSH2 0x1371 JUMPI PUSH1 0x40 MLOAD PUSH32 0x8C379A000000000000000000000000000000000000000000000000000000000 DUP2 MSTORE PUSH1 0x4 ADD PUSH2 0x1368 SWAP1 PUSH2 0x234B JUMP JUMPDEST PUSH1 0x40 MLOAD DUP1 SWAP2 SUB SWAP1 REVERT JUMPDEST PUSH2 0x137D PUSH1 0x0 DUP4 DUP4 PUSH2 0x1760 JUMP JUMPDEST DUP1 PUSH1 0x2 PUSH1 0x0 DUP3 DUP3 SLOAD PUSH2 0x138F SWAP2 SWAP1 PUSH2 0x1D47 JUMP JUMPDEST SWAP3 POP POP DUP2 SWAP1 SSTORE POP DUP1 PUSH1 0x0 DUP1 DUP5 PUSH20 0xFFFFFFFFFFFFFFFFFFFFFFFFFFFFFFFFFFFFFFFF AND PUSH20 0xFFFFFFFFFFFFFFFFFFFFFFFFFFFFFFFFFFFFFFFF AND DUP2 MSTORE PUSH1 0x20 ADD SWAP1 DUP2 MSTORE PUSH1 0x20 ADD PUSH1 0x0 KECCAK256 PUSH1 0x0 DUP3 DUP3 SLOAD PUSH2 0x13E4 SWAP2 SWAP1 PUSH2 0x1D47 JUMP JUMPDEST SWAP3 POP POP DUP2 SWAP1 SSTORE POP DUP2 PUSH20 0xFFFFFFFFFFFFFFFFFFFFFFFFFFFFFFFFFFFFFFFF AND PUSH1 0x0 PUSH20 0xFFFFFFFFFFFFFFFFFFFFFFFFFFFFFFFFFFFFFFFF AND PUSH32 0xDDF252AD1BE2C89B69C2B068FC378DAA952BA7F163C4A11628F55A4DF523B3EF DUP4 PUSH1 0x40 MLOAD PUSH2 0x1449 SWAP2 SWAP1 PUSH2 0x1A97 JUMP JUMPDEST PUSH1 0x40 MLOAD DUP1 SWAP2 SUB SWAP1 LOG3 PUSH2 0x145D PUSH1 0x0 DUP4 DUP4 PUSH2 0x1778 JUMP JUMPDEST POP POP JUMP JUMPDEST PUSH1 0x0 PUSH20 0xFFFFFFFFFFFFFFFFFFFFFFFFFFFFFFFFFFFFFFFF AND DUP3 PUSH20 0xFFFFFFFFFFFFFFFFFFFFFFFFFFFFFFFFFFFFFFFF AND SUB PUSH2 0x14D0 JUMPI PUSH1 0x40 MLOAD PUSH32 0x8C379A000000000000000000000000000000000000000000000000000000000 DUP2 MSTORE PUSH1 0x4 ADD PUSH2 0x14C7 SWAP1 PUSH2 0x23DD JUMP JUMPDEST PUSH1 0x40 MLOAD DUP1 SWAP2 SUB SWAP1 REVERT JUMPDEST PUSH2 0x14DC DUP3 PUSH1 0x0 DUP4 PUSH2 0x1760 JUMP JUMPDEST PUSH1 0x0 DUP1 PUSH1 0x0 DUP5 PUSH20 0xFFFFFFFFFFFFFFFFFFFFFFFFFFFFFFFFFFFFFFFF AND PUSH20 0xFFFFFFFFFFFFFFFFFFFFFFFFFFFFFFFFFFFFFFFF AND DUP2 MSTORE PUSH1 0x20 ADD SWAP1 DUP2 MSTORE PUSH1 0x20 ADD PUSH1 0x0 KECCAK256 SLOAD SWAP1 POP DUP2 DUP2 LT ISZERO PUSH2 0x1562 JUMPI PUSH1 0x40 MLOAD PUSH32 0x8C379A000000000000000000000000000000000000000000000000000000000 DUP2 MSTORE PUSH1 0x4 ADD PUSH2 0x1559 SWAP1 PUSH2 0x246F JUMP JUMPDEST PUSH1 0x40 MLOAD DUP1 SWAP2 SUB SWAP1 REVERT JUMPDEST DUP2 DUP2 SUB PUSH1 0x0 DUP1 DUP6 PUSH20 0xFFFFFFFFFFFFFFFFFFFFFFFFFFFFFFFFFFFFFFFF AND PUSH20 0xFFFFFFFFFFFFFFFFFFFFFFFFFFFFFFFFFFFFFFFF AND DUP2 MSTORE PUSH1 0x20 ADD SWAP1 DUP2 MSTORE PUSH1 0x20 ADD PUSH1 0x0 KECCAK256 DUP2 SWAP1 SSTORE POP DUP2 PUSH1 0x2 PUSH1 0x0 DUP3 DUP3 SLOAD PUSH2 0x15B9 SWAP2 SWAP1 PUSH2 0x248F JUMP JUMPDEST SWAP3 POP POP DUP2 SWAP1 SSTORE POP PUSH1 0x0 PUSH20 0xFFFFFFFFFFFFFFFFFFFFFFFFFFFFFFFFFFFFFFFF AND DUP4 PUSH20 0xFFFFFFFFFFFFFFFFFFFFFFFFFFFFFFFFFFFFFFFF AND PUSH32 0xDDF252AD1BE2C89B69C2B068FC378DAA952BA7F163C4A11628F55A4DF523B3EF DUP5 PUSH1 0x40 MLOAD PUSH2 0x161E SWAP2 SWAP1 PUSH2 0x1A97 JUMP JUMPDEST PUSH1 0x40 MLOAD DUP1 SWAP2 SUB SWAP1 LOG3 PUSH2 0x1632 DUP4 PUSH1 0x0 DUP5 PUSH2 0x1778 JUMP JUMPDEST POP POP POP JUMP JUMPDEST PUSH1 0x0 PUSH1 0x6 PUSH1 0x1 SWAP1 SLOAD SWAP1 PUSH2 0x100 EXP SWAP1 DIV PUSH20 0xFFFFFFFFFFFFFFFFFFFFFFFFFFFFFFFFFFFFFFFF AND SWAP1 POP DUP2 PUSH1 0x6 PUSH1 0x1 PUSH2 0x100 EXP DUP2 SLOAD DUP2 PUSH20 0xFFFFFFFFFFFFFFFFFFFFFFFFFFFFFFFFFFFFFFFF MUL NOT AND SWAP1 DUP4 PUSH20 0xFFFFFFFFFFFFFFFFFFFFFFFFFFFFFFFFFFFFFFFF AND MUL OR SWAP1 SSTORE POP DUP2 PUSH20 0xFFFFFFFFFFFFFFFFFFFFFFFFFFFFFFFFFFFFFFFF AND DUP2 PUSH20 0xFFFFFFFFFFFFFFFFFFFFFFFFFFFFFFFFFFFFFFFF AND PUSH32 0x8BE0079C531659141344CD1FD0A4F28419497F9722A3DAAFE3B4186F6B6457E0 PUSH1 0x40 MLOAD PUSH1 0x40 MLOAD DUP1 SWAP2 SUB SWAP1 LOG3 POP POP JUMP JUMPDEST PUSH2 0x1705 PUSH2 0x17C6 JUMP JUMPDEST PUSH1 0x1 PUSH1 0x6 PUSH1 0x0 PUSH2 0x100 EXP DUP2 SLOAD DUP2 PUSH1 0xFF MUL NOT AND SWAP1 DUP4 ISZERO ISZERO MUL OR SWAP1 SSTORE POP PUSH32 0x62E78CEA01BEE320CD4E420270B5EA74000D11B0C9F74754EBDBFC544B05A258 PUSH2 0x1749 PUSH2 0xD45 JUMP JUMPDEST PUSH1 0x40 MLOAD PUSH2 0x1756 SWAP2 SWAP1 PUSH2 0x1B78 JUMP JUMPDEST PUSH1 0x40 MLOAD DUP1 SWAP2 SUB SWAP1 LOG1 JUMP JUMPDEST PUSH2 0x1768 PUSH2 0x17C6 JUMP JUMPDEST PUSH2 0x1773 DUP4 DUP4 DUP4 PUSH2 0x1810 JUMP JUMPDEST POP POP POP JUMP JUMPDEST POP POP POP JUMP JUMPDEST PUSH2 0x1785 PUSH2 0x822 JUMP JUMPDEST PUSH2 0x17C4 JUMPI PUSH1 0x40 MLOAD PUSH32 0x8C379A000000000000000000000000000000000000000000000000000000000 DUP2 MSTORE PUSH1 0x4 ADD PUSH2 0x17BB SWAP1 PUSH2 0x250F JUMP JUMPDEST PUSH1 0x40 MLOAD DUP1 SWAP2 SUB SWAP1 REVERT JUMPDEST JUMP JUMPDEST PUSH2 0x17CE PUSH2 0x822 JUMP JUMPDEST ISZERO PUSH2 0x180E JUMPI PUSH1 0x40 MLOAD PUSH32 0x8C379A000000000000000000000000000000000000000000000000000000000 DUP2 MSTORE PUSH1 0x4 ADD PUSH2 0x1805 SWAP1 PUSH2 0x257B JUMP JUMPDEST PUSH1 0x40 MLOAD DUP1 SWAP2 SUB SWAP1 REVERT JUMPDEST JUMP JUMPDEST POP POP POP JUMP JUMPDEST PUSH1 0x0 DUP1 REVERT JUMPDEST PUSH1 0x0 PUSH32 0xFFFFFFFF00000000000000000000000000000000000000000000000000000000 DUP3 AND SWAP1 POP SWAP2 SWAP1 POP JUMP JUMPDEST PUSH2 0x184F DUP2 PUSH2 0x181A JUMP JUMPDEST DUP2 EQ PUSH2 0x185A JUMPI PUSH1 0x0 DUP1 REVERT JUMPDEST POP JUMP JUMPDEST PUSH1 0x0 DUP2 CALLDATALOAD SWAP1 POP PUSH2 0x186C DUP2 PUSH2 0x1846 JUMP JUMPDEST SWAP3 SWAP2 POP POP JUMP JUMPDEST PUSH1 0x0 PUSH1 0x20 DUP3 DUP5 SUB SLT ISZERO PUSH2 0x1888 JUMPI PUSH2 0x1887 PUSH2 0x1815 JUMP JUMPDEST JUMPDEST PUSH1 0x0 PUSH2 0x1896 DUP5 DUP3 DUP6 ADD PUSH2 0x185D JUMP JUMPDEST SWAP2 POP POP SWAP3 SWAP2 POP POP JUMP JUMPDEST PUSH1 0x0 DUP2 ISZERO ISZERO SWAP1 POP SWAP2 SWAP1 POP JUMP JUMPDEST PUSH2 0x18B4 DUP2 PUSH2 0x189F JUMP JUMPDEST DUP3 MSTORE POP POP JUMP JUMPDEST PUSH1 0x0 PUSH1 0x20 DUP3 ADD SWAP1 POP PUSH2 0x18CF PUSH1 0x0 DUP4 ADD DUP5 PUSH2 0x18AB JUMP JUMPDEST SWAP3 SWAP2 POP POP JUMP JUMPDEST PUSH1 0x0 DUP2 MLOAD SWAP1 POP SWAP2 SWAP1 POP JUMP JUMPDEST PUSH1 0x0 DUP3 DUP3 MSTORE PUSH1 0x20 DUP3 ADD SWAP1 POP SWAP3 SWAP2 POP POP JUMP JUMPDEST PUSH1 0x0 JUMPDEST DUP4 DUP2 LT ISZERO PUSH2 0x190F JUMPI DUP1 DUP3 ADD MLOAD DUP2 DUP5 ADD MSTORE PUSH1 0x20 DUP2 ADD SWAP1 POP PUSH2 0x18F4 JUMP JUMPDEST PUSH1 0x0 DUP5 DUP5 ADD MSTORE POP POP POP POP JUMP JUMPDEST PUSH1 0x0 PUSH1 0x1F NOT PUSH1 0x1F DUP4 ADD AND SWAP1 POP SWAP2 SWAP1 POP JUMP JUMPDEST PUSH1 0x0 PUSH2 0x1937 DUP3 PUSH2 0x18D5 JUMP JUMPDEST PUSH2 0x1941 DUP2 DUP6 PUSH2 0x18E0 JUMP JUMPDEST SWAP4 POP PUSH2 0x1951 DUP2 DUP6 PUSH1 0x20 DUP7 ADD PUSH2 0x18F1 JUMP JUMPDEST PUSH2 0x195A DUP2 PUSH2 0x191B JUMP JUMPDEST DUP5 ADD SWAP2 POP POP SWAP3 SWAP2 POP POP JUMP JUMPDEST PUSH1 0x0 PUSH1 0x20 DUP3 ADD SWAP1 POP DUP2 DUP2 SUB PUSH1 0x0 DUP4 ADD MSTORE PUSH2 0x197F DUP2 DUP5 PUSH2 0x192C JUMP JUMPDEST SWAP1 POP SWAP3 SWAP2 POP POP JUMP JUMPDEST PUSH1 0x0 PUSH20 0xFFFFFFFFFFFFFFFFFFFFFFFFFFFFFFFFFFFFFFFF DUP3 AND SWAP1 POP SWAP2 SWAP1 POP JUMP JUMPDEST PUSH1 0x0 PUSH2 0x19B2 DUP3 PUSH2 0x1987 JUMP JUMPDEST SWAP1 POP SWAP2 SWAP1 POP JUMP JUMPDEST PUSH2 0x19C2 DUP2 PUSH2 0x19A7 JUMP JUMPDEST DUP2 EQ PUSH2 0x19CD JUMPI PUSH1 0x0 DUP1 REVERT JUMPDEST POP JUMP JUMPDEST PUSH1 0x0 DUP2 CALLDATALOAD SWAP1 POP PUSH2 0x19DF DUP2 PUSH2 0x19B9 JUMP JUMPDEST SWAP3 SWAP2 POP POP JUMP JUMPDEST PUSH1 0x0 DUP2 SWAP1 POP SWAP2 SWAP1 POP JUMP JUMPDEST PUSH2 0x19F8 DUP2 PUSH2 0x19E5 JUMP JUMPDEST DUP2 EQ PUSH2 0x1A03 JUMPI PUSH1 0x0 DUP1 REVERT JUMPDEST POP JUMP JUMPDEST PUSH1 0x0 DUP2 CALLDATALOAD SWAP1 POP PUSH2 0x1A15 DUP2 PUSH2 0x19EF JUMP JUMPDEST SWAP3 SWAP2 POP POP JUMP JUMPDEST PUSH1 0x0 DUP1 PUSH1 0x40 DUP4 DUP6 SUB SLT ISZERO PUSH2 0x1A32 JUMPI PUSH2 0x1A31 PUSH2 0x1815 JUMP JUMPDEST JUMPDEST PUSH1 0x0 PUSH2 0x1A40 DUP6 DUP3 DUP7 ADD PUSH2 0x19D0 JUMP JUMPDEST SWAP3 POP POP PUSH1 0x20 PUSH2 0x1A51 DUP6 DUP3 DUP7 ADD PUSH2 0x1A06 JUMP JUMPDEST SWAP2 POP POP SWAP3 POP SWAP3 SWAP1 POP JUMP JUMPDEST PUSH1 0x0 PUSH1 0x20 DUP3 DUP5 SUB SLT ISZERO PUSH2 0x1A71 JUMPI PUSH2 0x1A70 PUSH2 0x1815 JUMP JUMPDEST JUMPDEST PUSH1 0x0 PUSH2 0x1A7F DUP5 DUP3 DUP6 ADD PUSH2 0x1A06 JUMP JUMPDEST SWAP2 POP POP SWAP3 SWAP2 POP POP JUMP JUMPDEST PUSH2 0x1A91 DUP2 PUSH2 0x19E5 JUMP JUMPDEST DUP3 MSTORE POP POP JUMP JUMPDEST PUSH1 0x0 PUSH1 0x20 DUP3 ADD SWAP1 POP PUSH2 0x1AAC PUSH1 0x0 DUP4 ADD DUP5 PUSH2 0x1A88 JUMP JUMPDEST SWAP3 SWAP2 POP POP JUMP JUMPDEST PUSH1 0x0 DUP1 PUSH1 0x0 PUSH1 0x60 DUP5 DUP7 SUB SLT ISZERO PUSH2 0x1ACB JUMPI PUSH2 0x1ACA PUSH2 0x1815 JUMP JUMPDEST JUMPDEST PUSH1 0x0 PUSH2 0x1AD9 DUP7 DUP3 DUP8 ADD PUSH2 0x19D0 JUMP JUMPDEST SWAP4 POP POP PUSH1 0x20 PUSH2 0x1AEA DUP7 DUP3 DUP8 ADD PUSH2 0x19D0 JUMP JUMPDEST SWAP3 POP POP PUSH1 0x40 PUSH2 0x1AFB DUP7 DUP3 DUP8 ADD PUSH2 0x1A06 JUMP JUMPDEST SWAP2 POP POP SWAP3 POP SWAP3 POP SWAP3 JUMP JUMPDEST PUSH1 0x0 PUSH1 0x20 DUP3 DUP5 SUB SLT ISZERO PUSH2 0x1B1B JUMPI PUSH2 0x1B1A PUSH2 0x1815 JUMP JUMPDEST JUMPDEST PUSH1 0x0 PUSH2 0x1B29 DUP5 DUP3 DUP6 ADD PUSH2 0x19D0 JUMP JUMPDEST SWAP2 POP POP SWAP3 SWAP2 POP POP JUMP JUMPDEST PUSH1 0x0 PUSH1 0xFF DUP3 AND SWAP1 POP SWAP2 SWAP1 POP JUMP JUMPDEST PUSH2 0x1B48 DUP2 PUSH2 0x1B32 JUMP JUMPDEST DUP3 MSTORE POP POP JUMP JUMPDEST PUSH1 0x0 PUSH1 0x20 DUP3 ADD SWAP1 POP PUSH2 0x1B63 PUSH1 0x0 DUP4 ADD DUP5 PUSH2 0x1B3F JUMP JUMPDEST SWAP3 SWAP2 POP POP JUMP JUMPDEST PUSH2 0x1B72 DUP2 PUSH2 0x19A7 JUMP JUMPDEST DUP3 MSTORE POP POP JUMP JUMPDEST PUSH1 0x0 PUSH1 0x20 DUP3 ADD SWAP1 POP PUSH2 0x1B8D PUSH1 0x0 DUP4 ADD DUP5 PUSH2 0x1B69 JUMP JUMPDEST SWAP3 SWAP2 POP POP JUMP JUMPDEST PUSH1 0x0 PUSH2 0x1B9E DUP3 PUSH2 0x19A7 JUMP JUMPDEST SWAP1 POP SWAP2 SWAP1 POP JUMP JUMPDEST PUSH2 0x1BAE DUP2 PUSH2 0x1B93 JUMP JUMPDEST DUP2 EQ PUSH2 0x1BB9 JUMPI PUSH1 0x0 DUP1 REVERT JUMPDEST POP JUMP JUMPDEST PUSH1 0x0 DUP2 CALLDATALOAD SWAP1 POP PUSH2 0x1BCB DUP2 PUSH2 0x1BA5 JUMP JUMPDEST SWAP3 SWAP2 POP POP JUMP JUMPDEST PUSH1 0x0 PUSH1 0x20 DUP3 DUP5 SUB SLT ISZERO PUSH2 0x1BE7 JUMPI PUSH2 0x1BE6 PUSH2 0x1815 JUMP JUMPDEST JUMPDEST PUSH1 0x0 PUSH2 0x1BF5 DUP5 DUP3 DUP6 ADD PUSH2 0x1BBC JUMP JUMPDEST SWAP2 POP POP SWAP3 SWAP2 POP POP JUMP JUMPDEST PUSH1 0x0 DUP1 PUSH1 0x40 DUP4 DUP6 SUB SLT ISZERO PUSH2 0x1C15 JUMPI PUSH2 0x1C14 PUSH2 0x1815 JUMP JUMPDEST JUMPDEST PUSH1 0x0 PUSH2 0x1C23 DUP6 DUP3 DUP7 ADD PUSH2 0x19D0 JUMP JUMPDEST SWAP3 POP POP PUSH1 0x20 PUSH2 0x1C34 DUP6 DUP3 DUP7 ADD PUSH2 0x19D0 JUMP JUMPDEST SWAP2 POP POP SWAP3 POP SWAP3 SWAP1 POP JUMP JUMPDEST PUSH1 0x0 DUP2 SWAP1 POP SWAP2 SWAP1 POP JUMP JUMPDEST PUSH1 0x0 PUSH2 0x1C63 PUSH2 0x1C5E PUSH2 0x1C59 DUP5 PUSH2 0x1987 JUMP JUMPDEST PUSH2 0x1C3E JUMP JUMPDEST PUSH2 0x1987 JUMP JUMPDEST SWAP1 POP SWAP2 SWAP1 POP JUMP JUMPDEST PUSH1 0x0 PUSH2 0x1C75 DUP3 PUSH2 0x1C48 JUMP JUMPDEST SWAP1 POP SWAP2 SWAP1 POP JUMP JUMPDEST PUSH1 0x0 PUSH2 0x1C87 DUP3 PUSH2 0x1C6A JUMP JUMPDEST SWAP1 POP SWAP2 SWAP1 POP JUMP JUMPDEST PUSH2 0x1C97 DUP2 PUSH2 0x1C7C JUMP JUMPDEST DUP3 MSTORE POP POP JUMP JUMPDEST PUSH1 0x0 PUSH1 0x20 DUP3 ADD SWAP1 POP PUSH2 0x1CB2 PUSH1 0x0 DUP4 ADD DUP5 PUSH2 0x1C8E JUMP JUMPDEST SWAP3 SWAP2 POP POP JUMP JUMPDEST PUSH32 0x4E487B7100000000000000000000000000000000000000000000000000000000 PUSH1 0x0 MSTORE PUSH1 0x22 PUSH1 0x4 MSTORE PUSH1 0x24 PUSH1 0x0 REVERT JUMPDEST PUSH1 0x0 PUSH1 0x2 DUP3 DIV SWAP1 POP PUSH1 0x1 DUP3 AND DUP1 PUSH2 0x1CFF JUMPI PUSH1 0x7F DUP3 AND SWAP2 POP JUMPDEST PUSH1 0x20 DUP3 LT DUP2 SUB PUSH2 0x1D12 JUMPI PUSH2 0x1D11 PUSH2 0x1CB8 JUMP JUMPDEST JUMPDEST POP SWAP2 SWAP1 POP JUMP JUMPDEST PUSH32 0x4E487B7100000000000000000000000000000000000000000000000000000000 PUSH1 0x0 MSTORE PUSH1 0x11 PUSH1 0x4 MSTORE PUSH1 0x24 PUSH1 0x0 REVERT JUMPDEST PUSH1 0x0 PUSH2 0x1D52 DUP3 PUSH2 0x19E5 JUMP JUMPDEST SWAP2 POP PUSH2 0x1D5D DUP4 PUSH2 0x19E5 JUMP JUMPDEST SWAP3 POP DUP3 DUP3 ADD SWAP1 POP DUP1 DUP3 GT ISZERO PUSH2 0x1D75 JUMPI PUSH2 0x1D74 PUSH2 0x1D18 JUMP JUMPDEST JUMPDEST SWAP3 SWAP2 POP POP JUMP JUMPDEST PUSH1 0x0 DUP2 MLOAD SWAP1 POP PUSH2 0x1D8A DUP2 PUSH2 0x19B9 JUMP JUMPDEST SWAP3 SWAP2 POP POP JUMP JUMPDEST PUSH1 0x0 PUSH1 0x20 DUP3 DUP5 SUB SLT ISZERO PUSH2 0x1DA6 JUMPI PUSH2 0x1DA5 PUSH2 0x1815 JUMP JUMPDEST JUMPDEST PUSH1 0x0 PUSH2 0x1DB4 DUP5 DUP3 DUP6 ADD PUSH2 0x1D7B JUMP JUMPDEST SWAP2 POP POP SWAP3 SWAP2 POP POP JUMP JUMPDEST PUSH32 0x746F6B656E206F776E6572206F72207465616D00000000000000000000000000 PUSH1 0x0 DUP3 ADD MSTORE POP JUMP JUMPDEST PUSH1 0x0 PUSH2 0x1DF3 PUSH1 0x13 DUP4 PUSH2 0x18E0 JUMP JUMPDEST SWAP2 POP PUSH2 0x1DFE DUP3 PUSH2 0x1DBD JUMP JUMPDEST PUSH1 0x20 DUP3 ADD SWAP1 POP SWAP2 SWAP1 POP JUMP JUMPDEST PUSH1 0x0 PUSH1 0x20 DUP3 ADD SWAP1 POP DUP2 DUP2 SUB PUSH1 0x0 DUP4 ADD MSTORE PUSH2 0x1E22 DUP2 PUSH2 0x1DE6 JUMP JUMPDEST SWAP1 POP SWAP2 SWAP1 POP JUMP JUMPDEST PUSH32 0x45524332303A2064656372656173656420616C6C6F77616E63652062656C6F77 PUSH1 0x0 DUP3 ADD MSTORE PUSH32 0x207A65726F000000000000000000000000000000000000000000000000000000 PUSH1 0x20 DUP3 ADD MSTORE POP JUMP JUMPDEST PUSH1 0x0 PUSH2 0x1E85 PUSH1 0x25 DUP4 PUSH2 0x18E0 JUMP JUMPDEST SWAP2 POP PUSH2 0x1E90 DUP3 PUSH2 0x1E29 JUMP JUMPDEST PUSH1 0x40 DUP3 ADD SWAP1 POP SWAP2 SWAP1 POP JUMP JUMPDEST PUSH1 0x0 PUSH1 0x20 DUP3 ADD SWAP1 POP DUP2 DUP2 SUB PUSH1 0x0 DUP4 ADD MSTORE PUSH2 0x1EB4 DUP2 PUSH2 0x1E78 JUMP JUMPDEST SWAP1 POP SWAP2 SWAP1 POP JUMP JUMPDEST PUSH32 0x4F776E61626C653A206E6577206F776E657220697320746865207A65726F2061 PUSH1 0x0 DUP3 ADD MSTORE PUSH32 0x6464726573730000000000000000000000000000000000000000000000000000 PUSH1 0x20 DUP3 ADD MSTORE POP JUMP JUMPDEST PUSH1 0x0 PUSH2 0x1F17 PUSH1 0x26 DUP4 PUSH2 0x18E0 JUMP JUMPDEST SWAP2 POP PUSH2 0x1F22 DUP3 PUSH2 0x1EBB JUMP JUMPDEST PUSH1 0x40 DUP3 ADD SWAP1 POP SWAP2 SWAP1 POP JUMP JUMPDEST PUSH1 0x0 PUSH1 0x20 DUP3 ADD SWAP1 POP DUP2 DUP2 SUB PUSH1 0x0 DUP4 ADD MSTORE PUSH2 0x1F46 DUP2 PUSH2 0x1F0A JUMP JUMPDEST SWAP1 POP SWAP2 SWAP1 POP JUMP JUMPDEST PUSH32 0x45524332303A20617070726F76652066726F6D20746865207A65726F20616464 PUSH1 0x0 DUP3 ADD MSTORE PUSH32 0x7265737300000000000000000000000000000000000000000000000000000000 PUSH1 0x20 DUP3 ADD MSTORE POP JUMP JUMPDEST PUSH1 0x0 PUSH2 0x1FA9 PUSH1 0x24 DUP4 PUSH2 0x18E0 JUMP JUMPDEST SWAP2 POP PUSH2 0x1FB4 DUP3 PUSH2 0x1F4D JUMP JUMPDEST PUSH1 0x40 DUP3 ADD SWAP1 POP SWAP2 SWAP1 POP JUMP JUMPDEST PUSH1 0x0 PUSH1 0x20 DUP3 ADD SWAP1 POP DUP2 DUP2 SUB PUSH1 0x0 DUP4 ADD MSTORE PUSH2 0x1FD8 DUP2 PUSH2 0x1F9C JUMP JUMPDEST SWAP1 POP SWAP2 SWAP1 POP JUMP JUMPDEST PUSH32 0x45524332303A20617070726F766520746F20746865207A65726F206164647265 PUSH1 0x0 DUP3 ADD MSTORE PUSH32 0x7373000000000000000000000000000000000000000000000000000000000000 PUSH1 0x20 DUP3 ADD MSTORE POP JUMP JUMPDEST PUSH1 0x0 PUSH2 0x203B PUSH1 0x22 DUP4 PUSH2 0x18E0 JUMP JUMPDEST SWAP2 POP PUSH2 0x2046 DUP3 PUSH2 0x1FDF JUMP JUMPDEST PUSH1 0x40 DUP3 ADD SWAP1 POP SWAP2 SWAP1 POP JUMP JUMPDEST PUSH1 0x0 PUSH1 0x20 DUP3 ADD SWAP1 POP DUP2 DUP2 SUB PUSH1 0x0 DUP4 ADD MSTORE PUSH2 0x206A DUP2 PUSH2 0x202E JUMP JUMPDEST SWAP1 POP SWAP2 SWAP1 POP JUMP JUMPDEST PUSH32 0x4F776E61626C653A2063616C6C6572206973206E6F7420746865206F776E6572 PUSH1 0x0 DUP3 ADD MSTORE POP JUMP JUMPDEST PUSH1 0x0 PUSH2 0x20A7 PUSH1 0x20 DUP4 PUSH2 0x18E0 JUMP JUMPDEST SWAP2 POP PUSH2 0x20B2 DUP3 PUSH2 0x2071 JUMP JUMPDEST PUSH1 0x20 DUP3 ADD SWAP1 POP SWAP2 SWAP1 POP JUMP JUMPDEST PUSH1 0x0 PUSH1 0x20 DUP3 ADD SWAP1 POP DUP2 DUP2 SUB PUSH1 0x0 DUP4 ADD MSTORE PUSH2 0x20D6 DUP2 PUSH2 0x209A JUMP JUMPDEST SWAP1 POP SWAP2 SWAP1 POP JUMP JUMPDEST PUSH32 0x45524332303A20696E73756666696369656E7420616C6C6F77616E6365000000 PUSH1 0x0 DUP3 ADD MSTORE POP JUMP JUMPDEST PUSH1 0x0 PUSH2 0x2113 PUSH1 0x1D DUP4 PUSH2 0x18E0 JUMP JUMPDEST SWAP2 POP PUSH2 0x211E DUP3 PUSH2 0x20DD JUMP JUMPDEST PUSH1 0x20 DUP3 ADD SWAP1 POP SWAP2 SWAP1 POP JUMP JUMPDEST PUSH1 0x0 PUSH1 0x20 DUP3 ADD SWAP1 POP DUP2 DUP2 SUB PUSH1 0x0 DUP4 ADD MSTORE PUSH2 0x2142 DUP2 PUSH2 0x2106 JUMP JUMPDEST SWAP1 POP SWAP2 SWAP1 POP JUMP JUMPDEST PUSH32 0x45524332303A207472616E736665722066726F6D20746865207A65726F206164 PUSH1 0x0 DUP3 ADD MSTORE PUSH32 0x6472657373000000000000000000000000000000000000000000000000000000 PUSH1 0x20 DUP3 ADD MSTORE POP JUMP JUMPDEST PUSH1 0x0 PUSH2 0x21A5 PUSH1 0x25 DUP4 PUSH2 0x18E0 JUMP JUMPDEST SWAP2 POP PUSH2 0x21B0 DUP3 PUSH2 0x2149 JUMP JUMPDEST PUSH1 0x40 DUP3 ADD SWAP1 POP SWAP2 SWAP1 POP JUMP JUMPDEST PUSH1 0x0 PUSH1 0x20 DUP3 ADD SWAP1 POP DUP2 DUP2 SUB PUSH1 0x0 DUP4 ADD MSTORE PUSH2 0x21D4 DUP2 PUSH2 0x2198 JUMP JUMPDEST SWAP1 POP SWAP2 SWAP1 POP JUMP JUMPDEST PUSH32 0x45524332303A207472616E7366657220746F20746865207A65726F2061646472 PUSH1 0x0 DUP3 ADD MSTORE PUSH32 0x6573730000000000000000000000000000000000000000000000000000000000 PUSH1 0x20 DUP3 ADD MSTORE POP JUMP JUMPDEST PUSH1 0x0 PUSH2 0x2237 PUSH1 0x23 DUP4 PUSH2 0x18E0 JUMP JUMPDEST SWAP2 POP PUSH2 0x2242 DUP3 PUSH2 0x21DB JUMP JUMPDEST PUSH1 0x40 DUP3 ADD SWAP1 POP SWAP2 SWAP1 POP JUMP JUMPDEST PUSH1 0x0 PUSH1 0x20 DUP3 ADD SWAP1 POP DUP2 DUP2 SUB PUSH1 0x0 DUP4 ADD MSTORE PUSH2 0x2266 DUP2 PUSH2 0x222A JUMP JUMPDEST SWAP1 POP SWAP2 SWAP1 POP JUMP JUMPDEST PUSH32 0x45524332303A207472616E7366657220616D6F756E7420657863656564732062 PUSH1 0x0 DUP3 ADD MSTORE PUSH32 0x616C616E63650000000000000000000000000000000000000000000000000000 PUSH1 0x20 DUP3 ADD MSTORE POP JUMP JUMPDEST PUSH1 0x0 PUSH2 0x22C9 PUSH1 0x26 DUP4 PUSH2 0x18E0 JUMP JUMPDEST SWAP2 POP PUSH2 0x22D4 DUP3 PUSH2 0x226D JUMP JUMPDEST PUSH1 0x40 DUP3 ADD SWAP1 POP SWAP2 SWAP1 POP JUMP JUMPDEST PUSH1 0x0 PUSH1 0x20 DUP3 ADD SWAP1 POP DUP2 DUP2 SUB PUSH1 0x0 DUP4 ADD MSTORE PUSH2 0x22F8 DUP2 PUSH2 0x22BC JUMP JUMPDEST SWAP1 POP SWAP2 SWAP1 POP JUMP JUMPDEST PUSH32 0x45524332303A206D696E7420746F20746865207A65726F206164647265737300 PUSH1 0x0 DUP3 ADD MSTORE POP JUMP JUMPDEST PUSH1 0x0 PUSH2 0x2335 PUSH1 0x1F DUP4 PUSH2 0x18E0 JUMP JUMPDEST SWAP2 POP PUSH2 0x2340 DUP3 PUSH2 0x22FF JUMP JUMPDEST PUSH1 0x20 DUP3 ADD SWAP1 POP SWAP2 SWAP1 POP JUMP JUMPDEST PUSH1 0x0 PUSH1 0x20 DUP3 ADD SWAP1 POP DUP2 DUP2 SUB PUSH1 0x0 DUP4 ADD MSTORE PUSH2 0x2364 DUP2 PUSH2 0x2328 JUMP JUMPDEST SWAP1 POP SWAP2 SWAP1 POP JUMP JUMPDEST PUSH32 0x45524332303A206275726E2066726F6D20746865207A65726F20616464726573 PUSH1 0x0 DUP3 ADD MSTORE PUSH32 0x7300000000000000000000000000000000000000000000000000000000000000 PUSH1 0x20 DUP3 ADD MSTORE POP JUMP JUMPDEST PUSH1 0x0 PUSH2 0x23C7 PUSH1 0x21 DUP4 PUSH2 0x18E0 JUMP JUMPDEST SWAP2 POP PUSH2 0x23D2 DUP3 PUSH2 0x236B JUMP JUMPDEST PUSH1 0x40 DUP3 ADD SWAP1 POP SWAP2 SWAP1 POP JUMP JUMPDEST PUSH1 0x0 PUSH1 0x20 DUP3 ADD SWAP1 POP DUP2 DUP2 SUB PUSH1 0x0 DUP4 ADD MSTORE PUSH2 0x23F6 DUP2 PUSH2 0x23BA JUMP JUMPDEST SWAP1 POP SWAP2 SWAP1 POP JUMP JUMPDEST PUSH32 0x45524332303A206275726E20616D6F756E7420657863656564732062616C616E PUSH1 0x0 DUP3 ADD MSTORE PUSH32 0x6365000000000000000000000000000000000000000000000000000000000000 PUSH1 0x20 DUP3 ADD MSTORE POP JUMP JUMPDEST PUSH1 0x0 PUSH2 0x2459 PUSH1 0x22 DUP4 PUSH2 0x18E0 JUMP JUMPDEST SWAP2 POP PUSH2 0x2464 DUP3 PUSH2 0x23FD JUMP JUMPDEST PUSH1 0x40 DUP3 ADD SWAP1 POP SWAP2 SWAP1 POP JUMP JUMPDEST PUSH1 0x0 PUSH1 0x20 DUP3 ADD SWAP1 POP DUP2 DUP2 SUB PUSH1 0x0 DUP4 ADD MSTORE PUSH2 0x2488 DUP2 PUSH2 0x244C JUMP JUMPDEST SWAP1 POP SWAP2 SWAP1 POP JUMP JUMPDEST PUSH1 0x0 PUSH2 0x249A DUP3 PUSH2 0x19E5 JUMP JUMPDEST SWAP2 POP PUSH2 0x24A5 DUP4 PUSH2 0x19E5 JUMP JUMPDEST SWAP3 POP DUP3 DUP3 SUB SWAP1 POP DUP2 DUP2 GT ISZERO PUSH2 0x24BD JUMPI PUSH2 0x24BC PUSH2 0x1D18 JUMP JUMPDEST JUMPDEST SWAP3 SWAP2 POP POP JUMP JUMPDEST PUSH32 0x5061757361626C653A206E6F7420706175736564000000000000000000000000 PUSH1 0x0 DUP3 ADD MSTORE POP JUMP JUMPDEST PUSH1 0x0 PUSH2 0x24F9 PUSH1 0x14 DUP4 PUSH2 0x18E0 JUMP JUMPDEST SWAP2 POP PUSH2 0x2504 DUP3 PUSH2 0x24C3 JUMP JUMPDEST PUSH1 0x20 DUP3 ADD SWAP1 POP SWAP2 SWAP1 POP JUMP JUMPDEST PUSH1 0x0 PUSH1 0x20 DUP3 ADD SWAP1 POP DUP2 DUP2 SUB PUSH1 0x0 DUP4 ADD MSTORE PUSH2 0x2528 DUP2 PUSH2 0x24EC JUMP JUMPDEST SWAP1 POP SWAP2 SWAP1 POP JUMP JUMPDEST PUSH32 0x5061757361626C653A2070617573656400000000000000000000000000000000 PUSH1 0x0 DUP3 ADD MSTORE POP JUMP JUMPDEST PUSH1 0x0 PUSH2 0x2565 PUSH1 0x10 DUP4 PUSH2 0x18E0 JUMP JUMPDEST SWAP2 POP PUSH2 0x2570 DUP3 PUSH2 0x252F JUMP JUMPDEST PUSH1 0x20 DUP3 ADD SWAP1 POP SWAP2 SWAP1 POP JUMP JUMPDEST PUSH1 0x0 PUSH1 0x20 DUP3 ADD SWAP1 POP DUP2 DUP2 SUB PUSH1 0x0 DUP4 ADD MSTORE PUSH2 0x2594 DUP2 PUSH2 0x2558 JUMP JUMPDEST SWAP1 POP SWAP2 SWAP1 POP JUMP INVALID LOG2 PUSH5 0x6970667358 0x22 SLT KECCAK256 RETURNDATASIZE 0xA6 SLT DUP16 MSTORE 0xD 0xA6 0xE3 JUMP 0xD3 0x4E SWAP13 PUSH8 0x1FFD12E73A50DBB1 PUSH25 0xB8EFC972BAD16D1CE9B064736F6C63430008100033A2646970 PUSH7 0x73582212209CCE JUMPDEST PUSH24 0x5FE194F06771FBAACF6CBEB379264075962244665251FF8D JUMPI 0x4C 0xBC PUSH11 0x64736F6C63430008100033 "
		},
		"gasEstimates": {
			"creation": {
				"codeDepositCost": "5962200",
				"executionCost": "infinite",
				"totalCost": "infinite"
			},
			"external": {
				"MAX_PLATFORM_CUT_PROMILS()": "418",
				"addressToProject(address)": "infinite",
				"approvePaymentToken(address,bool)": "infinite",
				"approvedVaults(address)": "2956",
				"createProject((address,address,address,string,string,uint256,uint256),((address,uint32,uint256),uint8,uint32,int32,uint256)[])": "infinite",
				"getBlockTimestamp()": "404",
				"inBetaMode()": "2590",
				"isApprovedPaymentToken(address)": "2912",
				"isBetaTester(address)": "2956",
				"markVaultAsApproved(address,bool)": "28890",
				"maxNumMilestones()": "2475",
				"minNumMilestones()": "2541",
				"numPaymentTokensByTokenAddress(address)": "2904",
				"numProjects()": "2557",
				"onChangeExitGracePeriod()": "2474",
				"onReceivePaymentTokens(address,uint256)": "infinite",
				"owner()": "2634",
				"paused()": "2546",
				"platformCutPromils()": "2497",
				"platformToken()": "infinite",
				"pledgerGraceExitWaitTime()": "2475",
				"projectAddresses(uint256)": "5067",
				"projectTemplate()": "infinite",
				"renounceOwnership()": "30531",
				"setBetaMode(bool)": "32990",
				"setBetaTester(address,bool)": "28889",
				"setMilestoneMinMaxCounts(uint256,uint256)": "infinite",
				"setPlatformCut(uint256)": "infinite",
				"setPlatformToken(address)": "infinite",
				"setPledgerWaitTimeBeforeGraceExit(uint256)": "infinite",
				"setProjectChangeGracePeriod(uint256)": "infinite",
				"transferFundsToPlatformOwner(uint256,address)": "infinite",
				"transferOwnership(address)": "30854",
				"vaultTemplate()": "infinite"
			},
			"internal": {
				"_getPlatformCutPromils()": "2123",
				"_isAnApprovedVault(address)": "2260",
				"_transferPaymntTokensFromPlatformTo(address,uint256,address)": "infinite"
			}
		},
		"methodIdentifiers": {
			"MAX_PLATFORM_CUT_PROMILS()": "c33857de",
			"addressToProject(address)": "5bc4675c",
			"approvePaymentToken(address,bool)": "684cc795",
			"approvedVaults(address)": "af7a060c",
			"createProject((address,address,address,string,string,uint256,uint256),((address,uint32,uint256),uint8,uint32,int32,uint256)[])": "25ea346f",
			"getBlockTimestamp()": "796b89b9",
			"inBetaMode()": "05598159",
			"isApprovedPaymentToken(address)": "a3839d3f",
			"isBetaTester(address)": "6eb39535",
			"markVaultAsApproved(address,bool)": "279b1366",
			"maxNumMilestones()": "0b8f3ee6",
			"minNumMilestones()": "1af2be9f",
			"numPaymentTokensByTokenAddress(address)": "88d5e3ce",
			"numProjects()": "5a067baa",
			"onChangeExitGracePeriod()": "bad141b8",
			"onReceivePaymentTokens(address,uint256)": "0598c68b",
			"owner()": "8da5cb5b",
			"paused()": "5c975abb",
			"platformCutPromils()": "265d1d58",
			"platformToken()": "d1b812cd",
			"pledgerGraceExitWaitTime()": "77036684",
			"projectAddresses(uint256)": "cc13fd3b",
			"projectTemplate()": "95c82975",
			"renounceOwnership()": "715018a6",
			"setBetaMode(bool)": "be733d3c",
			"setBetaTester(address,bool)": "a5d65e93",
			"setMilestoneMinMaxCounts(uint256,uint256)": "feac9942",
			"setPlatformCut(uint256)": "daeb39b5",
			"setPlatformToken(address)": "0255a03b",
			"setPledgerWaitTimeBeforeGraceExit(uint256)": "1286ba4d",
			"setProjectChangeGracePeriod(uint256)": "d6341862",
			"transferFundsToPlatformOwner(uint256,address)": "1685f297",
			"transferOwnership(address)": "f2fde38b",
			"vaultTemplate()": "0b1e4238"
		}
	},
	"abi": [
		{
			"inputs": [
				{
					"internalType": "address",
					"name": "projectTemplate_",
					"type": "address"
				},
				{
					"internalType": "address",
					"name": "vaultTemplate_",
					"type": "address"
				},
				{
					"internalType": "address",
					"name": "platformToken_",
					"type": "address"
				}
			],
			"stateMutability": "nonpayable",
			"type": "constructor"
		},
		{
			"inputs": [
				{
					"internalType": "uint256",
					"name": "index",
					"type": "uint256"
				},
				{
					"internalType": "address",
					"name": "externalApprover",
					"type": "address"
				},
				{
					"internalType": "uint256",
					"name": "fundingTarget",
					"type": "uint256"
				},
				{
					"internalType": "uint256",
					"name": "numPledgers",
					"type": "uint256"
				}
			],
			"name": "AmbiguousMilestoneApprover",
			"type": "error"
		},
		{
			"inputs": [
				{
					"internalType": "address",
					"name": "projectVault_",
					"type": "address"
				}
			],
			"name": "BadTeamDefinedVault",
			"type": "error"
		},
		{
			"inputs": [
				{
					"internalType": "address",
					"name": "projectToken",
					"type": "address"
				},
				{
					"internalType": "address",
					"name": "actualOwner_",
					"type": "address"
				}
			],
			"name": "ExternallyProvidedProjectTokenMustBeOwnedByPlatform",
			"type": "error"
		},
		{
			"inputs": [
				{
					"internalType": "address",
					"name": "vault_",
					"type": "address"
				},
				{
					"internalType": "address",
					"name": "vaultOwner_",
					"type": "address"
				}
			],
			"name": "ExternallyProvidedProjectVaultMustBeOwnedByPlatform",
			"type": "error"
		},
		{
			"inputs": [
				{
					"internalType": "uint256",
					"name": "index",
					"type": "uint256"
				},
				{
					"internalType": "uint32",
					"name": "dueDate",
					"type": "uint32"
				},
				{
					"internalType": "uint256",
					"name": "timestamp",
					"type": "uint256"
				}
			],
			"name": "IllegalMilestoneDueDate",
			"type": "error"
		},
		{
			"inputs": [
				{
					"internalType": "uint256",
					"name": "sumToExtract_",
					"type": "uint256"
				},
				{
					"internalType": "uint256",
					"name": "contractBalance",
					"type": "uint256"
				}
			],
			"name": "InsufficientFundsInContract",
			"type": "error"
		},
		{
			"inputs": [
				{
					"internalType": "address",
					"name": "projectAddress",
					"type": "address"
				}
			],
			"name": "InvalidProjectAddress",
			"type": "error"
		},
		{
			"inputs": [
				{
					"internalType": "address",
					"name": "vault",
					"type": "address"
				}
			],
			"name": "InvalidVault",
			"type": "error"
		},
		{
			"inputs": [
				{
					"internalType": "uint256",
					"name": "milestoneIndex",
					"type": "uint256"
				},
				{
					"internalType": "enum MilestoneResult",
					"name": "milestoneResult",
					"type": "uint8"
				}
			],
			"name": "MilestoneInitialResultMustBeUnresolved",
			"type": "error"
		},
		{
			"inputs": [
				{
					"internalType": "uint256",
					"name": "index",
					"type": "uint256"
				}
			],
			"name": "NoMilestoneApproverWasSet",
			"type": "error"
		},
		{
			"inputs": [
				{
					"internalType": "address",
					"name": "projectVault_",
					"type": "address"
				},
				{
					"internalType": "address",
					"name": "teamAddr",
					"type": "address"
				}
			],
			"name": "NotAnApprovedVault",
			"type": "error"
		},
		{
			"inputs": [
				{
					"internalType": "address",
					"name": "projectToken_",
					"type": "address"
				}
			],
			"name": "ProjectTokenMustBeIMintableERC20",
			"type": "error"
		},
		{
			"anonymous": false,
			"inputs": [
				{
					"indexed": true,
					"internalType": "address",
					"name": "paymentToken",
					"type": "address"
				},
				{
					"indexed": false,
					"internalType": "bool",
					"name": "isLegal",
					"type": "bool"
				}
			],
			"name": "ApprovedPaymentTokenChanged",
			"type": "event"
		},
		{
			"anonymous": false,
			"inputs": [
				{
					"indexed": true,
					"internalType": "bool",
					"name": "inBetaMode",
					"type": "bool"
				},
				{
					"indexed": true,
					"internalType": "bool",
					"name": "oldBetaMode",
					"type": "bool"
				}
			],
			"name": "BetaModeChanged",
			"type": "event"
		},
		{
			"anonymous": false,
			"inputs": [
				{
					"indexed": false,
					"internalType": "uint256",
					"name": "new_minNumMilestones",
					"type": "uint256"
				},
				{
					"indexed": true,
					"internalType": "uint256",
					"name": "old_minNumMilestones",
					"type": "uint256"
				},
				{
					"indexed": false,
					"internalType": "uint256",
					"name": "new_maxNumMilestones",
					"type": "uint256"
				},
				{
					"indexed": true,
					"internalType": "uint256",
					"name": "old_maxNumMilestones",
					"type": "uint256"
				}
			],
			"name": "MliestoneLimitsChanged",
			"type": "event"
		},
		{
			"anonymous": false,
			"inputs": [
				{
					"indexed": false,
					"internalType": "uint256",
					"name": "newGracePeriod",
					"type": "uint256"
				},
				{
					"indexed": false,
					"internalType": "uint256",
					"name": "oldGracePeriod",
					"type": "uint256"
				}
			],
			"name": "OnChangeExitGracePeriodChanged",
			"type": "event"
		},
		{
			"anonymous": false,
			"inputs": [
				{
					"indexed": true,
					"internalType": "address",
					"name": "previousOwner",
					"type": "address"
				},
				{
					"indexed": true,
					"internalType": "address",
					"name": "newOwner",
					"type": "address"
				}
			],
			"name": "OwnershipTransferred",
			"type": "event"
		},
		{
			"anonymous": false,
			"inputs": [
				{
					"indexed": false,
					"internalType": "address",
					"name": "account",
					"type": "address"
				}
			],
			"name": "Paused",
			"type": "event"
		},
		{
			"anonymous": false,
			"inputs": [
				{
					"indexed": false,
					"internalType": "uint256",
					"name": "oldValPromils",
					"type": "uint256"
				},
				{
					"indexed": false,
					"internalType": "uint256",
					"name": "platformCutPromils",
					"type": "uint256"
				}
			],
			"name": "PlatformCutChanged",
			"type": "event"
		},
		{
			"anonymous": false,
			"inputs": [
				{
					"indexed": true,
					"internalType": "address",
					"name": "senderProject",
					"type": "address"
				},
				{
					"indexed": false,
					"internalType": "uint256",
					"name": "value",
					"type": "uint256"
				}
			],
			"name": "PlatformCutReceived",
			"type": "event"
		},
		{
			"anonymous": false,
			"inputs": [
				{
					"indexed": false,
					"internalType": "address",
					"name": "owner",
					"type": "address"
				},
				{
					"indexed": false,
					"internalType": "uint256",
					"name": "toExtract",
					"type": "uint256"
				}
			],
			"name": "PlatformFundTransferToOwner",
			"type": "event"
		},
		{
			"anonymous": false,
			"inputs": [
				{
					"indexed": false,
					"internalType": "address",
					"name": "platformToken",
					"type": "address"
				},
				{
					"indexed": false,
					"internalType": "address",
					"name": "oldToken",
					"type": "address"
				}
			],
			"name": "PlatformTokenChanged",
			"type": "event"
		},
		{
			"anonymous": false,
			"inputs": [
				{
					"indexed": false,
					"internalType": "uint256",
					"name": "newValue",
					"type": "uint256"
				},
				{
					"indexed": false,
					"internalType": "uint256",
					"name": "oldValue",
					"type": "uint256"
				}
			],
			"name": "PledgerGraceExitWaitTimeChanged",
			"type": "event"
		},
		{
			"anonymous": false,
			"inputs": [
				{
					"indexed": true,
					"internalType": "uint256",
					"name": "projectIndex",
					"type": "uint256"
				},
				{
					"indexed": true,
					"internalType": "address",
					"name": "projectAddress",
					"type": "address"
				},
				{
					"indexed": true,
					"internalType": "address",
					"name": "projectVault",
					"type": "address"
				},
				{
					"indexed": false,
					"internalType": "uint256",
					"name": "numMilestones",
					"type": "uint256"
				},
				{
					"indexed": false,
					"internalType": "address",
					"name": "projectToken",
					"type": "address"
				},
				{
					"indexed": false,
					"internalType": "string",
					"name": "tokenName",
					"type": "string"
				},
				{
					"indexed": false,
					"internalType": "string",
					"name": "tokenSymbol",
					"type": "string"
				},
				{
					"indexed": false,
					"internalType": "uint256",
					"name": "tokenSupply",
					"type": "uint256"
				},
				{
					"indexed": false,
					"internalType": "uint256",
					"name": "onChangeExitGracePeriod",
					"type": "uint256"
				},
				{
					"indexed": false,
					"internalType": "uint256",
					"name": "pledgerGraceExitWaitTime",
					"type": "uint256"
				}
			],
			"name": "ProjectWasDeployed",
			"type": "event"
		},
		{
			"anonymous": false,
			"inputs": [
				{
					"indexed": true,
					"internalType": "address",
					"name": "testerAddress",
					"type": "address"
				},
				{
					"indexed": true,
					"internalType": "bool",
					"name": "isBetaTester",
					"type": "bool"
				}
			],
			"name": "SetBetaTester",
			"type": "event"
		},
		{
			"anonymous": false,
			"inputs": [
				{
					"indexed": true,
					"internalType": "address",
					"name": "teamWallet_",
					"type": "address"
				},
				{
					"indexed": true,
					"internalType": "bool",
					"name": "approved_",
					"type": "bool"
				}
			],
			"name": "TeamAddressApprovedStatusSet",
			"type": "event"
		},
		{
			"anonymous": false,
			"inputs": [
				{
					"indexed": false,
					"internalType": "address",
					"name": "account",
					"type": "address"
				}
			],
			"name": "Unpaused",
			"type": "event"
		},
		{
			"anonymous": false,
			"inputs": [
				{
					"indexed": true,
					"internalType": "address",
					"name": "vaultAddress_",
					"type": "address"
				},
				{
					"indexed": true,
					"internalType": "bool",
					"name": "approved_",
					"type": "bool"
				}
			],
			"name": "VaultAddressApprovedStatusSet",
			"type": "event"
		},
		{
			"inputs": [],
			"name": "MAX_PLATFORM_CUT_PROMILS",
			"outputs": [
				{
					"internalType": "uint256",
					"name": "",
					"type": "uint256"
				}
			],
			"stateMutability": "view",
			"type": "function"
		},
		{
			"inputs": [
				{
					"internalType": "address",
					"name": "",
					"type": "address"
				}
			],
			"name": "addressToProject",
			"outputs": [
				{
					"internalType": "contract IProject",
					"name": "",
					"type": "address"
				}
			],
			"stateMutability": "view",
			"type": "function"
		},
		{
			"inputs": [
				{
					"internalType": "address",
					"name": "paymentTokenAddr_",
					"type": "address"
				},
				{
					"internalType": "bool",
					"name": "isApproved_",
					"type": "bool"
				}
			],
			"name": "approvePaymentToken",
			"outputs": [],
			"stateMutability": "nonpayable",
			"type": "function"
		},
		{
			"inputs": [
				{
					"internalType": "address",
					"name": "",
					"type": "address"
				}
			],
			"name": "approvedVaults",
			"outputs": [
				{
					"internalType": "bool",
					"name": "",
					"type": "bool"
				}
			],
			"stateMutability": "view",
			"type": "function"
		},
		{
			"inputs": [
				{
					"components": [
						{
							"internalType": "address",
							"name": "projectVault",
							"type": "address"
						},
						{
							"internalType": "address",
							"name": "projectToken",
							"type": "address"
						},
						{
							"internalType": "address",
							"name": "paymentToken",
							"type": "address"
						},
						{
							"internalType": "string",
							"name": "tokenName",
							"type": "string"
						},
						{
							"internalType": "string",
							"name": "tokenSymbol",
							"type": "string"
						},
						{
							"internalType": "uint256",
							"name": "minPledgedSum",
							"type": "uint256"
						},
						{
							"internalType": "uint256",
							"name": "initialTokenSupply",
							"type": "uint256"
						}
					],
					"internalType": "struct ProjectParams",
					"name": "params_",
					"type": "tuple"
				},
				{
					"components": [
						{
							"components": [
								{
									"internalType": "address",
									"name": "externalApprover",
									"type": "address"
								},
								{
									"internalType": "uint32",
									"name": "targetNumPledgers",
									"type": "uint32"
								},
								{
									"internalType": "uint256",
									"name": "fundingTarget",
									"type": "uint256"
								}
							],
							"internalType": "struct MilestoneApprover",
							"name": "milestoneApprover",
							"type": "tuple"
						},
						{
							"internalType": "enum MilestoneResult",
							"name": "result",
							"type": "uint8"
						},
						{
							"internalType": "uint32",
							"name": "dueDate",
							"type": "uint32"
						},
						{
							"internalType": "int32",
							"name": "prereqInd",
							"type": "int32"
						},
						{
							"internalType": "uint256",
							"name": "pTokValue",
							"type": "uint256"
						}
					],
					"internalType": "struct Milestone[]",
					"name": "milestones_",
					"type": "tuple[]"
				}
			],
			"name": "createProject",
			"outputs": [],
			"stateMutability": "nonpayable",
			"type": "function"
		},
		{
			"inputs": [],
			"name": "getBlockTimestamp",
			"outputs": [
				{
					"internalType": "uint256",
					"name": "",
					"type": "uint256"
				}
			],
			"stateMutability": "view",
			"type": "function"
		},
		{
			"inputs": [],
			"name": "inBetaMode",
			"outputs": [
				{
					"internalType": "bool",
					"name": "",
					"type": "bool"
				}
			],
			"stateMutability": "view",
			"type": "function"
		},
		{
			"inputs": [
				{
					"internalType": "address",
					"name": "",
					"type": "address"
				}
			],
			"name": "isApprovedPaymentToken",
			"outputs": [
				{
					"internalType": "bool",
					"name": "",
					"type": "bool"
				}
			],
			"stateMutability": "view",
			"type": "function"
		},
		{
			"inputs": [
				{
					"internalType": "address",
					"name": "",
					"type": "address"
				}
			],
			"name": "isBetaTester",
			"outputs": [
				{
					"internalType": "bool",
					"name": "",
					"type": "bool"
				}
			],
			"stateMutability": "view",
			"type": "function"
		},
		{
			"inputs": [
				{
					"internalType": "address",
					"name": "vaultAddress_",
					"type": "address"
				},
				{
					"internalType": "bool",
					"name": "isApproved_",
					"type": "bool"
				}
			],
			"name": "markVaultAsApproved",
			"outputs": [],
			"stateMutability": "nonpayable",
			"type": "function"
		},
		{
			"inputs": [],
			"name": "maxNumMilestones",
			"outputs": [
				{
					"internalType": "uint256",
					"name": "",
					"type": "uint256"
				}
			],
			"stateMutability": "view",
			"type": "function"
		},
		{
			"inputs": [],
			"name": "minNumMilestones",
			"outputs": [
				{
					"internalType": "uint256",
					"name": "",
					"type": "uint256"
				}
			],
			"stateMutability": "view",
			"type": "function"
		},
		{
			"inputs": [
				{
					"internalType": "address",
					"name": "",
					"type": "address"
				}
			],
			"name": "numPaymentTokensByTokenAddress",
			"outputs": [
				{
					"internalType": "uint256",
					"name": "",
					"type": "uint256"
				}
			],
			"stateMutability": "view",
			"type": "function"
		},
		{
			"inputs": [],
			"name": "numProjects",
			"outputs": [
				{
					"internalType": "uint256",
					"name": "",
					"type": "uint256"
				}
			],
			"stateMutability": "view",
			"type": "function"
		},
		{
			"inputs": [],
			"name": "onChangeExitGracePeriod",
			"outputs": [
				{
					"internalType": "uint256",
					"name": "",
					"type": "uint256"
				}
			],
			"stateMutability": "view",
			"type": "function"
		},
		{
			"inputs": [
				{
					"internalType": "address",
					"name": "tokenAddress_",
					"type": "address"
				},
				{
					"internalType": "uint256",
					"name": "numTokens_",
					"type": "uint256"
				}
			],
			"name": "onReceivePaymentTokens",
			"outputs": [],
			"stateMutability": "nonpayable",
			"type": "function"
		},
		{
			"inputs": [],
			"name": "owner",
			"outputs": [
				{
					"internalType": "address",
					"name": "",
					"type": "address"
				}
			],
			"stateMutability": "view",
			"type": "function"
		},
		{
			"inputs": [],
			"name": "paused",
			"outputs": [
				{
					"internalType": "bool",
					"name": "",
					"type": "bool"
				}
			],
			"stateMutability": "view",
			"type": "function"
		},
		{
			"inputs": [],
			"name": "platformCutPromils",
			"outputs": [
				{
					"internalType": "uint256",
					"name": "",
					"type": "uint256"
				}
			],
			"stateMutability": "view",
			"type": "function"
		},
		{
			"inputs": [],
			"name": "platformToken",
			"outputs": [
				{
					"internalType": "contract IERC20",
					"name": "",
					"type": "address"
				}
			],
			"stateMutability": "view",
			"type": "function"
		},
		{
			"inputs": [],
			"name": "pledgerGraceExitWaitTime",
			"outputs": [
				{
					"internalType": "uint256",
					"name": "",
					"type": "uint256"
				}
			],
			"stateMutability": "view",
			"type": "function"
		},
		{
			"inputs": [
				{
					"internalType": "uint256",
					"name": "",
					"type": "uint256"
				}
			],
			"name": "projectAddresses",
			"outputs": [
				{
					"internalType": "address",
					"name": "",
					"type": "address"
				}
			],
			"stateMutability": "view",
			"type": "function"
		},
		{
			"inputs": [],
			"name": "projectTemplate",
			"outputs": [
				{
					"internalType": "address",
					"name": "",
					"type": "address"
				}
			],
			"stateMutability": "view",
			"type": "function"
		},
		{
			"inputs": [],
			"name": "renounceOwnership",
			"outputs": [],
			"stateMutability": "nonpayable",
			"type": "function"
		},
		{
			"inputs": [
				{
					"internalType": "bool",
					"name": "inBetaMode_",
					"type": "bool"
				}
			],
			"name": "setBetaMode",
			"outputs": [],
			"stateMutability": "nonpayable",
			"type": "function"
		},
		{
			"inputs": [
				{
					"internalType": "address",
					"name": "testerAddress",
					"type": "address"
				},
				{
					"internalType": "bool",
					"name": "isBetaTester_",
					"type": "bool"
				}
			],
			"name": "setBetaTester",
			"outputs": [],
			"stateMutability": "nonpayable",
			"type": "function"
		},
		{
			"inputs": [
				{
					"internalType": "uint256",
					"name": "new_minNumMilestones",
					"type": "uint256"
				},
				{
					"internalType": "uint256",
					"name": "new_maxNumMilestones",
					"type": "uint256"
				}
			],
			"name": "setMilestoneMinMaxCounts",
			"outputs": [],
			"stateMutability": "nonpayable",
			"type": "function"
		},
		{
			"inputs": [
				{
					"internalType": "uint256",
					"name": "newPlatformCutPromils",
					"type": "uint256"
				}
			],
			"name": "setPlatformCut",
			"outputs": [],
			"stateMutability": "nonpayable",
			"type": "function"
		},
		{
			"inputs": [
				{
					"internalType": "contract IERC20",
					"name": "newPlatformToken",
					"type": "address"
				}
			],
			"name": "setPlatformToken",
			"outputs": [],
			"stateMutability": "nonpayable",
			"type": "function"
		},
		{
			"inputs": [
				{
					"internalType": "uint256",
					"name": "newWaitTime",
					"type": "uint256"
				}
			],
			"name": "setPledgerWaitTimeBeforeGraceExit",
			"outputs": [],
			"stateMutability": "nonpayable",
			"type": "function"
		},
		{
			"inputs": [
				{
					"internalType": "uint256",
					"name": "newGracePeriod",
					"type": "uint256"
				}
			],
			"name": "setProjectChangeGracePeriod",
			"outputs": [],
			"stateMutability": "nonpayable",
			"type": "function"
		},
		{
			"inputs": [
				{
					"internalType": "uint256",
					"name": "sumToExtract_",
					"type": "uint256"
				},
				{
					"internalType": "address",
					"name": "tokenAddress_",
					"type": "address"
				}
			],
			"name": "transferFundsToPlatformOwner",
			"outputs": [],
			"stateMutability": "nonpayable",
			"type": "function"
		},
		{
			"inputs": [
				{
					"internalType": "address",
					"name": "newOwner",
					"type": "address"
				}
			],
			"name": "transferOwnership",
			"outputs": [],
			"stateMutability": "nonpayable",
			"type": "function"
		},
		{
			"inputs": [],
			"name": "vaultTemplate",
			"outputs": [
				{
					"internalType": "address",
					"name": "",
					"type": "address"
				}
			],
			"stateMutability": "view",
			"type": "function"
		}
	]
}